{"abi":[{"anonymous":false,"inputs":[{"indexed":true,"internalType":"address","name":"previousOwner","type":"address"},{"indexed":true,"internalType":"address","name":"newOwner","type":"address"}],"name":"OwnershipTransferred","type":"event"},{"anonymous":false,"inputs":[{"indexed":true,"internalType":"bytes32","name":"role","type":"bytes32"},{"indexed":true,"internalType":"bytes32","name":"previousAdminRole","type":"bytes32"},{"indexed":true,"internalType":"bytes32","name":"newAdminRole","type":"bytes32"}],"name":"RoleAdminChanged","type":"event"},{"anonymous":false,"inputs":[{"indexed":true,"internalType":"bytes32","name":"role","type":"bytes32"},{"indexed":true,"internalType":"address","name":"account","type":"address"},{"indexed":true,"internalType":"address","name":"sender","type":"address"}],"name":"RoleGranted","type":"event"},{"anonymous":false,"inputs":[{"indexed":true,"internalType":"bytes32","name":"role","type":"bytes32"},{"indexed":true,"internalType":"address","name":"account","type":"address"},{"indexed":true,"internalType":"address","name":"sender","type":"address"}],"name":"RoleRevoked","type":"event"},{"inputs":[],"name":"DEFAULT_ADMIN_ROLE","outputs":[{"internalType":"bytes32","name":"","type":"bytes32"}],"stateMutability":"view","type":"function"},{"inputs":[{"internalType":"address","name":"_token","type":"address"}],"name":"activateToken","outputs":[],"stateMutability":"nonpayable","type":"function"},{"inputs":[{"internalType":"address","name":"_token","type":"address"},{"internalType":"string","name":"_name","type":"string"},{"internalType":"uint256","name":"_category","type":"uint256"},{"internalType":"uint256","name":"_stakingApr","type":"uint256"},{"internalType":"uint256","name":"_adminStakeFee","type":"uint256"},{"internalType":"uint256","name":"_adminUnstakeFee","type":"uint256"},{"internalType":"address","name":"_rewardToken","type":"address"}],"name":"addToken","outputs":[],"stateMutability":"nonpayable","type":"function"},{"inputs":[{"internalType":"address","name":"_token","type":"address"}],"name":"claimStakingReward","outputs":[],"stateMutability":"nonpayable","type":"function"},{"inputs":[],"name":"configData","outputs":[{"internalType":"address","name":"developmentWallet","type":"address"},{"internalType":"uint256","name":"minimumTokenNameLength","type":"uint256"},{"internalType":"uint256","name":"maximumTokenNameLength","type":"uint256"},{"internalType":"uint256","name":"minimumStakingApr","type":"uint256"},{"internalType":"uint256","name":"maximumStakingApr","type":"uint256"},{"internalType":"uint256","name":"defaultStakingApr","type":"uint256"},{"internalType":"uint256","name":"minimumStakeUnstakeFee","type":"uint256"},{"internalType":"uint256","name":"maximumStakeUnstakeFee","type":"uint256"},{"internalType":"uint256","name":"defaultStakeUnstakeFee","type":"uint256"},{"internalType":"uint256","name":"minimumDepositWithdrawFee","type":"uint256"},{"internalType":"uint256","name":"maximumDepositWithdrawFee","type":"uint256"},{"internalType":"uint256","name":"defaultDepositWithdrawFee","type":"uint256"}],"stateMutability":"view","type":"function"},{"inputs":[{"internalType":"uint256","name":"_minimumDepositWithdrawFee","type":"uint256"},{"internalType":"uint256","name":"_maximumDepositWithdrawFee","type":"uint256"},{"internalType":"uint256","name":"_defaultDepositWithdrawFee","type":"uint256"}],"name":"configDepositWithdrawFees","outputs":[],"stateMutability":"nonpayable","type":"function"},{"inputs":[{"internalType":"address","name":"_developmentWallet","type":"address"}],"name":"configDevelopmentWallet","outputs":[],"stateMutability":"nonpayable","type":"function"},{"inputs":[{"internalType":"uint256","name":"_minimumStakeUnstakeFee","type":"uint256"},{"internalType":"uint256","name":"_maximumStakeUnstakeFee","type":"uint256"},{"internalType":"uint256","name":"_defaultStakeUnstakeFee","type":"uint256"}],"name":"configStakeUnstakeFees","outputs":[],"stateMutability":"nonpayable","type":"function"},{"inputs":[{"internalType":"uint256","name":"_minimumStakingApr","type":"uint256"},{"internalType":"uint256","name":"_maximumStakingApr","type":"uint256"},{"internalType":"uint256","name":"_defaultStakingApr","type":"uint256"}],"name":"configStakingApr","outputs":[],"stateMutability":"nonpayable","type":"function"},{"inputs":[{"internalType":"uint256","name":"_number","type":"uint256"},{"internalType":"string","name":"_name","type":"string"}],"name":"configTokenCategory","outputs":[],"stateMutability":"nonpayable","type":"function"},{"inputs":[{"internalType":"uint256","name":"_minimumTokenNameLength","type":"uint256"},{"internalType":"uint256","name":"_maximumTokenNameLength","type":"uint256"}],"name":"configTokenNameLength","outputs":[],"stateMutability":"nonpayable","type":"function"},{"inputs":[{"internalType":"address","name":"_token","type":"address"}],"name":"deactivateToken","outputs":[],"stateMutability":"nonpayable","type":"function"},{"inputs":[{"internalType":"address","name":"_token","type":"address"},{"internalType":"uint256","name":"_amount","type":"uint256"}],"name":"depositToken","outputs":[],"stateMutability":"nonpayable","type":"function"},{"inputs":[{"internalType":"address","name":"_token","type":"address"}],"name":"disableTokenMultiTokenRewards","outputs":[],"stateMutability":"nonpayable","type":"function"},{"inputs":[{"internalType":"address","name":"_token","type":"address"}],"name":"enableTokenMultiTokenRewards","outputs":[],"stateMutability":"nonpayable","type":"function"},{"inputs":[{"internalType":"address","name":"_address","type":"address"}],"name":"excludeFromFees","outputs":[],"stateMutability":"nonpayable","type":"function"},{"inputs":[{"internalType":"address","name":"_token","type":"address"},{"internalType":"address","name":"_address","type":"address"}],"name":"excludeFromTokenAdminFees","outputs":[],"stateMutability":"nonpayable","type":"function"},{"inputs":[{"internalType":"bytes32","name":"role","type":"bytes32"}],"name":"getRoleAdmin","outputs":[{"internalType":"bytes32","name":"","type":"bytes32"}],"stateMutability":"view","type":"function"},{"inputs":[{"internalType":"address","name":"_staker","type":"address"}],"name":"getStakerData","outputs":[{"components":[{"internalType":"bool","name":"isActive","type":"bool"},{"internalType":"uint256","name":"uniqueTokensStaked","type":"uint256"},{"internalType":"uint256","name":"timestampAdded","type":"uint256"},{"internalType":"uint256","name":"timestampLastUpdated","type":"uint256"}],"internalType":"struct SavvyFinanceFarmStaker.StakerDetails","name":"","type":"tuple"}],"stateMutability":"view","type":"function"},{"inputs":[],"name":"getStakers","outputs":[{"internalType":"address[]","name":"","type":"address[]"}],"stateMutability":"view","type":"function"},{"inputs":[{"internalType":"address","name":"_token","type":"address"},{"internalType":"address","name":"_staker","type":"address"}],"name":"getStakingValue","outputs":[{"internalType":"uint256","name":"","type":"uint256"}],"stateMutability":"view","type":"function"},{"inputs":[{"internalType":"address","name":"_token","type":"address"}],"name":"getTokenData","outputs":[{"components":[{"internalType":"bool","name":"isActive","type":"bool"},{"internalType":"bool","name":"isVerified","type":"bool"},{"internalType":"bool","name":"hasMultiTokenRewards","type":"bool"},{"internalType":"string","name":"name","type":"string"},{"internalType":"uint256","name":"category","type":"uint256"},{"internalType":"uint256","name":"price","type":"uint256"},{"internalType":"uint256","name":"rewardBalance","type":"uint256"},{"internalType":"uint256","name":"stakingBalance","type":"uint256"},{"internalType":"uint256","name":"stakingApr","type":"uint256"},{"internalType":"address","name":"rewardToken","type":"address"},{"internalType":"address","name":"admin","type":"address"},{"components":[{"internalType":"uint256","name":"devDepositFee","type":"uint256"},{"internalType":"uint256","name":"devWithdrawFee","type":"uint256"},{"internalType":"uint256","name":"devStakeFee","type":"uint256"},{"internalType":"uint256","name":"devUnstakeFee","type":"uint256"},{"internalType":"uint256","name":"adminStakeFee","type":"uint256"},{"internalType":"uint256","name":"adminUnstakeFee","type":"uint256"}],"internalType":"struct SavvyFinanceFarmToken.TokenFeesDetails","name":"fees","type":"tuple"},{"internalType":"uint256","name":"timestampAdded","type":"uint256"},{"internalType":"uint256","name":"timestampLastUpdated","type":"uint256"}],"internalType":"struct SavvyFinanceFarmToken.TokenDetails","name":"","type":"tuple"}],"stateMutability":"view","type":"function"},{"inputs":[{"internalType":"address","name":"_token","type":"address"},{"internalType":"uint256","name":"_amount","type":"uint256"},{"internalType":"string","name":"_action","type":"string"}],"name":"getTokenFeeAmounts","outputs":[{"internalType":"uint256","name":"","type":"uint256"},{"internalType":"uint256","name":"","type":"uint256"}],"stateMutability":"view","type":"function"},{"inputs":[{"internalType":"address","name":"_token","type":"address"}],"name":"getTokenRewardValue","outputs":[{"internalType":"uint256","name":"","type":"uint256"}],"stateMutability":"view","type":"function"},{"inputs":[{"internalType":"address","name":"_token","type":"address"},{"internalType":"address","name":"_staker","type":"address"}],"name":"getTokenStakerData","outputs":[{"components":[{"internalType":"uint256","name":"rewardBalance","type":"uint256"},{"internalType":"uint256","name":"stakingBalance","type":"uint256"},{"internalType":"address","name":"stakingRewardToken","type":"address"},{"components":[{"internalType":"uint256","name":"id","type":"uint256"},{"internalType":"address","name":"staker","type":"address"},{"internalType":"address","name":"rewardToken","type":"address"},{"internalType":"uint256","name":"rewardTokenPrice","type":"uint256"},{"internalType":"uint256","name":"rewardTokenAmount","type":"uint256"},{"internalType":"address","name":"stakedToken","type":"address"},{"internalType":"uint256","name":"stakedTokenPrice","type":"uint256"},{"internalType":"uint256","name":"stakedTokenAmount","type":"uint256"},{"internalType":"uint256","name":"stakingApr","type":"uint256"},{"internalType":"uint256","name":"stakingDurationInSeconds","type":"uint256"},{"internalType":"string[2]","name":"triggeredBy","type":"string[2]"},{"internalType":"uint256","name":"timestampAdded","type":"uint256"},{"internalType":"uint256","name":"timestampLastUpdated","type":"uint256"}],"internalType":"struct SavvyFinanceFarm.TokenStakerRewardDetails[]","name":"stakingRewards","type":"tuple[]"},{"internalType":"uint256","name":"timestampLastRewarded","type":"uint256"},{"internalType":"uint256","name":"timestampAdded","type":"uint256"},{"internalType":"uint256","name":"timestampLastUpdated","type":"uint256"}],"internalType":"struct SavvyFinanceFarm.TokenStakerDetails","name":"","type":"tuple"}],"stateMutability":"view","type":"function"},{"inputs":[],"name":"getTokens","outputs":[{"internalType":"address[]","name":"","type":"address[]"}],"stateMutability":"view","type":"function"},{"inputs":[{"internalType":"bytes32","name":"role","type":"bytes32"},{"internalType":"address","name":"account","type":"address"}],"name":"grantRole","outputs":[],"stateMutability":"nonpayable","type":"function"},{"inputs":[{"internalType":"bytes32","name":"role","type":"bytes32"},{"internalType":"address","name":"account","type":"address"}],"name":"hasRole","outputs":[{"internalType":"bool","name":"","type":"bool"}],"stateMutability":"view","type":"function"},{"inputs":[{"internalType":"address","name":"_address","type":"address"}],"name":"includeInFees","outputs":[],"stateMutability":"nonpayable","type":"function"},{"inputs":[{"internalType":"address","name":"_token","type":"address"},{"internalType":"address","name":"_address","type":"address"}],"name":"includeInTokenAdminFees","outputs":[],"stateMutability":"nonpayable","type":"function"},{"inputs":[],"name":"initialize","outputs":[],"stateMutability":"nonpayable","type":"function"},{"inputs":[{"internalType":"address","name":"","type":"address"}],"name":"isExcludedFromFees","outputs":[{"internalType":"bool","name":"","type":"bool"}],"stateMutability":"view","type":"function"},{"inputs":[{"internalType":"address","name":"","type":"address"},{"internalType":"address","name":"","type":"address"}],"name":"isExcludedFromTokenAdminFees","outputs":[{"internalType":"bool","name":"","type":"bool"}],"stateMutability":"view","type":"function"},{"inputs":[],"name":"owner","outputs":[{"internalType":"address","name":"","type":"address"}],"stateMutability":"view","type":"function"},{"inputs":[],"name":"renounceOwnership","outputs":[],"stateMutability":"nonpayable","type":"function"},{"inputs":[{"internalType":"bytes32","name":"role","type":"bytes32"},{"internalType":"address","name":"account","type":"address"}],"name":"renounceRole","outputs":[],"stateMutability":"nonpayable","type":"function"},{"inputs":[{"internalType":"bytes32","name":"role","type":"bytes32"},{"internalType":"address","name":"account","type":"address"}],"name":"revokeRole","outputs":[],"stateMutability":"nonpayable","type":"function"},{"inputs":[{"internalType":"address","name":"_token","type":"address"},{"internalType":"address","name":"_reward_token","type":"address"}],"name":"setStakingRewardToken","outputs":[],"stateMutability":"nonpayable","type":"function"},{"inputs":[{"internalType":"address","name":"_token","type":"address"},{"internalType":"address","name":"_admin","type":"address"}],"name":"setTokenAdmin","outputs":[],"stateMutability":"nonpayable","type":"function"},{"inputs":[{"internalType":"address","name":"_token","type":"address"},{"internalType":"uint256","name":"_adminStakeFee","type":"uint256"},{"internalType":"uint256","name":"_adminUnstakeFee","type":"uint256"}],"name":"setTokenAdminStakeUnstakeFees","outputs":[],"stateMutability":"nonpayable","type":"function"},{"inputs":[{"internalType":"address","name":"_token","type":"address"},{"internalType":"uint256","name":"_category","type":"uint256"}],"name":"setTokenCategory","outputs":[],"stateMutability":"nonpayable","type":"function"},{"inputs":[{"internalType":"address","name":"_token","type":"address"},{"internalType":"uint256","name":"_devDepositFee","type":"uint256"},{"internalType":"uint256","name":"_devWithdrawFee","type":"uint256"}],"name":"setTokenDevDepositWithdrawFees","outputs":[],"stateMutability":"nonpayable","type":"function"},{"inputs":[{"internalType":"address","name":"_token","type":"address"},{"internalType":"uint256","name":"_devStakeFee","type":"uint256"},{"internalType":"uint256","name":"_devUnstakeFee","type":"uint256"}],"name":"setTokenDevStakeUnstakeFees","outputs":[],"stateMutability":"nonpayable","type":"function"},{"inputs":[{"internalType":"address","name":"_token","type":"address"},{"internalType":"string","name":"_name","type":"string"}],"name":"setTokenName","outputs":[],"stateMutability":"nonpayable","type":"function"},{"inputs":[{"internalType":"address","name":"_token","type":"address"},{"internalType":"uint256","name":"_price","type":"uint256"}],"name":"setTokenPrice","outputs":[],"stateMutability":"nonpayable","type":"function"},{"inputs":[{"internalType":"address","name":"_token","type":"address"},{"internalType":"address","name":"_reward_token","type":"address"}],"name":"setTokenRewardToken","outputs":[],"stateMutability":"nonpayable","type":"function"},{"inputs":[{"internalType":"address","name":"_token","type":"address"},{"internalType":"uint256","name":"_stakingApr","type":"uint256"}],"name":"setTokenStakingApr","outputs":[],"stateMutability":"nonpayable","type":"function"},{"inputs":[{"internalType":"address","name":"_token","type":"address"},{"internalType":"uint256","name":"_amount","type":"uint256"}],"name":"stakeToken","outputs":[],"stateMutability":"nonpayable","type":"function"},{"inputs":[{"internalType":"address","name":"_staker","type":"address"}],"name":"stakerExists","outputs":[{"internalType":"bool","name":"","type":"bool"}],"stateMutability":"view","type":"function"},{"inputs":[{"internalType":"uint256","name":"","type":"uint256"}],"name":"stakers","outputs":[{"internalType":"address","name":"","type":"address"}],"stateMutability":"view","type":"function"},{"inputs":[{"internalType":"address","name":"","type":"address"}],"name":"stakersData","outputs":[{"internalType":"bool","name":"isActive","type":"bool"},{"internalType":"uint256","name":"uniqueTokensStaked","type":"uint256"},{"internalType":"uint256","name":"timestampAdded","type":"uint256"},{"internalType":"uint256","name":"timestampLastUpdated","type":"uint256"}],"stateMutability":"view","type":"function"},{"inputs":[{"internalType":"bytes4","name":"interfaceId","type":"bytes4"}],"name":"supportsInterface","outputs":[{"internalType":"bool","name":"","type":"bool"}],"stateMutability":"view","type":"function"},{"inputs":[{"internalType":"uint256","name":"","type":"uint256"}],"name":"tokenCategory","outputs":[{"internalType":"string","name":"","type":"string"}],"stateMutability":"view","type":"function"},{"inputs":[{"internalType":"address","name":"_token","type":"address"}],"name":"tokenExists","outputs":[{"internalType":"bool","name":"","type":"bool"}],"stateMutability":"view","type":"function"},{"inputs":[{"internalType":"uint256","name":"","type":"uint256"}],"name":"tokens","outputs":[{"internalType":"address","name":"","type":"address"}],"stateMutability":"view","type":"function"},{"inputs":[{"internalType":"address","name":"","type":"address"}],"name":"tokensData","outputs":[{"internalType":"bool","name":"isActive","type":"bool"},{"internalType":"bool","name":"isVerified","type":"bool"},{"internalType":"bool","name":"hasMultiTokenRewards","type":"bool"},{"internalType":"string","name":"name","type":"string"},{"internalType":"uint256","name":"category","type":"uint256"},{"internalType":"uint256","name":"price","type":"uint256"},{"internalType":"uint256","name":"rewardBalance","type":"uint256"},{"internalType":"uint256","name":"stakingBalance","type":"uint256"},{"internalType":"uint256","name":"stakingApr","type":"uint256"},{"internalType":"address","name":"rewardToken","type":"address"},{"internalType":"address","name":"admin","type":"address"},{"components":[{"internalType":"uint256","name":"devDepositFee","type":"uint256"},{"internalType":"uint256","name":"devWithdrawFee","type":"uint256"},{"internalType":"uint256","name":"devStakeFee","type":"uint256"},{"internalType":"uint256","name":"devUnstakeFee","type":"uint256"},{"internalType":"uint256","name":"adminStakeFee","type":"uint256"},{"internalType":"uint256","name":"adminUnstakeFee","type":"uint256"}],"internalType":"struct SavvyFinanceFarmToken.TokenFeesDetails","name":"fees","type":"tuple"},{"internalType":"uint256","name":"timestampAdded","type":"uint256"},{"internalType":"uint256","name":"timestampLastUpdated","type":"uint256"}],"stateMutability":"view","type":"function"},{"inputs":[{"internalType":"address","name":"","type":"address"},{"internalType":"address","name":"","type":"address"}],"name":"tokensStakersData","outputs":[{"internalType":"uint256","name":"rewardBalance","type":"uint256"},{"internalType":"uint256","name":"stakingBalance","type":"uint256"},{"internalType":"address","name":"stakingRewardToken","type":"address"},{"internalType":"uint256","name":"timestampLastRewarded","type":"uint256"},{"internalType":"uint256","name":"timestampAdded","type":"uint256"},{"internalType":"uint256","name":"timestampLastUpdated","type":"uint256"}],"stateMutability":"view","type":"function"},{"inputs":[{"internalType":"address","name":"newOwner","type":"address"}],"name":"transferOwnership","outputs":[],"stateMutability":"nonpayable","type":"function"},{"inputs":[{"internalType":"address","name":"_token","type":"address"},{"internalType":"address","name":"_to","type":"address"},{"internalType":"uint256","name":"_amount","type":"uint256"}],"name":"transferToken","outputs":[],"stateMutability":"nonpayable","type":"function"},{"inputs":[{"internalType":"address","name":"_token","type":"address"},{"internalType":"uint256","name":"_amount","type":"uint256"}],"name":"unstakeToken","outputs":[],"stateMutability":"nonpayable","type":"function"},{"inputs":[{"internalType":"address","name":"_token","type":"address"}],"name":"unverifyToken","outputs":[],"stateMutability":"nonpayable","type":"function"},{"inputs":[{"internalType":"address","name":"_token","type":"address"}],"name":"verifyToken","outputs":[],"stateMutability":"nonpayable","type":"function"},{"inputs":[{"internalType":"address","name":"_reward_token","type":"address"},{"internalType":"uint256","name":"_amount","type":"uint256"}],"name":"withdrawStakingReward","outputs":[],"stateMutability":"nonpayable","type":"function"},{"inputs":[{"internalType":"address","name":"_token","type":"address"},{"internalType":"uint256","name":"_amount","type":"uint256"}],"name":"withdrawToken","outputs":[],"stateMutability":"nonpayable","type":"function"}],"bytecode":"60806040523480156200001157600080fd5b506200001d3362000023565b62000073565b600080546001600160a01b038381166001600160a01b0319831681178455604051919092169283917f8be0079c531659141344cd1fd0a4f28419497f9722a3daafe3b4186f6b6457e09190a35050565b615a4880620000836000396000f3fe608060405234801561001057600080fd5b50600436106103cf5760003560e01c80636c82a726116101ff578063b4767ca81161011a578063e57f14e1116100ad578063f2fde38b1161007c578063f2fde38b14610a77578063f5537ede14610a8a578063f739ed9e14610a9d578063fd5e6dd114610ab057600080fd5b8063e57f14e114610a10578063e97b061a14610a23578063ed2b79f814610a36578063f16d094f14610a4957600080fd5b8063cfa10ca0116100e9578063cfa10ca0146109c4578063d547741f146109d7578063e012e276146109ea578063e4ec108c146109fd57600080fd5b8063b4767ca814610943578063b678c3a414610956578063c370c86d14610969578063c601f3521461097c57600080fd5b80639e281a9811610192578063aa6ca80811610161578063aa6ca808146108a0578063ac66c6e0146108a8578063acb422c5146108d5578063b33f78ca1461093057600080fd5b80639e281a981461085f578063a217fddf14610872578063a4fb252b1461087a578063a5ecd1221461088d57600080fd5b80638d0c8f26116101ce5780638d0c8f26146108155780638da5cb5b1461082857806391d14854146108395780639aaf3cb61461084c57600080fd5b80636c82a726146107df578063715018a6146107f257806375d7f0d9146107fa5780638129fc1c1461080d57600080fd5b8063338b5dea116102ef5780634f64b2be116102825780635d9a4000116102515780635d9a40001461077e57806361ee19551461079157806368173bcf146107a45780636bcfd0c4146107b757600080fd5b80634f64b2be1461070a5780634fbee1931461073557806350aee08d1461075857806356e0341c1461076b57600080fd5b80634130276b116102be5780634130276b146106bc578063431f63c9146106cf57806343352d61146106e257806349a5b196146106f757600080fd5b8063338b5dea1461066357806334738dfa1461067657806336568abe146106895780633a215f461461069c57600080fd5b80631742140911610367578063248a9ca311610336578063248a9ca3146105865780632d94c6cd146105aa5780632da999ff1461063d5780632f2ff15d1461065057600080fd5b8063174214091461049d5780632081ea63146104b057806320e44e43146104d1578063236b43921461057357600080fd5b80630d1ce2d2116103a35780630d1ce2d21461044457806313316bcf1461045757806313ff7e9f1461046a57806316a2f82a1461048a57600080fd5b8062285e33146103d457806301ffc9a7146103e957806304f78063146104115780630b3e728c14610431575b600080fd5b6103e76103e2366004614c8d565b610ac3565b005b6103fc6103f7366004614cb9565b610b04565b60405190151581526020015b60405180910390f35b61042461041f366004614cff565b610b3b565b6040516104089190614dcf565b6103e761043f366004614f21565b610d99565b6103e7610452366004614f21565b610e5c565b6103e7610465366004614cff565b610eb8565b61047d610478366004614f21565b610eca565b6040516104089190614f3c565b6103e7610498366004614f21565b6110b9565b6103e76104ab366004614cff565b611104565b6104c36104be366004614cff565b611148565b604051908152602001610408565b600254600354600454600554600654600754600854600954600a54600b54600c54600d546105109b6001600160a01b03169a999897969594939291908c565b604080516001600160a01b03909d168d5260208d019b909b52998b019890985260608a0196909652608089019490945260a088019290925260c087015260e086015261010085015261012084015261014083015261016082015261018001610408565b6103e7610581366004614f21565b61119a565b6104c361059436600461506c565b6000908152600160208190526040909120015490565b6106026105b8366004614cff565b6015602090815260009283526040808420909152908252902080546001820154600283015460048401546005850154600690950154939492936001600160a01b0390921692909186565b6040805196875260208701959095526001600160a01b03909316938501939093526060840152608083019190915260a082015260c001610408565b6103e761064b366004615085565b6111e6565b6103e761065e3660046150a7565b61121b565b6103e76106713660046150ca565b611241565b6104c3610684366004614f21565b6114cc565b6103e76106973660046150a7565b6114fc565b6106af6106aa36600461506c565b61157a565b60405161040891906150f4565b6103e76106ca366004614f21565b611614565b6103e76106dd3660046150ca565b611689565b6106ea611702565b6040516104089190615107565b6103e7610705366004614cff565b611764565b61071d61071836600461506c565b611873565b6040516001600160a01b039091168152602001610408565b6103fc610743366004614f21565b600e6020526000908152604090205460ff1681565b6103e7610766366004614f21565b61189d565b6103e76107793660046151f7565b611928565b6103e761078c36600461523e565b611971565b6103e761079f3660046150ca565b6119b2565b6103e76107b2366004614f21565b611b74565b6107ca6107c5366004615271565b611bcd565b60408051928352602083019190915201610408565b6103e76107ed3660046150ca565b611fcd565b6103e7612413565b6103e76108083660046150ca565b612449565b6103e7612520565b6103e761082336600461523e565b6125b5565b6000546001600160a01b031661071d565b6103fc6108473660046150a7565b612606565b6103e761085a3660046152c8565b612631565b6103e761086d3660046150ca565b612773565b6104c3600081565b6103e7610888366004614c8d565b6129a9565b6103e761089b366004614cff565b6129e1565b6106ea612a28565b6108bb6108b6366004614f21565b612a88565b6040516104089e9d9c9b9a9998979695949392919061534d565b61090e6108e3366004614f21565b601460205260009081526040902080546001820154600283015460039093015460ff90921692909184565b6040805194151585526020850193909352918301526060820152608001610408565b6103fc61093e366004614f21565b612bd4565b6103e761095136600461523e565b612c3d565b6103e7610964366004614cff565b612c8e565b6103e761097736600461541e565b612d6b565b61098f61098a366004614f21565b612e61565b604051610408919081511515815260208083015190820152604080830151908201526060918201519181019190915260800190565b6103fc6109d2366004614f21565b612ee1565b6103e76109e53660046150a7565b612f41565b6103e76109f8366004614f21565b612f67565b6103e7610a0b366004614f21565b612fc2565b6103e7610a1e366004614f21565b613033565b6103e7610a31366004614c8d565b613081565b6103e7610a443660046150ca565b6130b9565b6103fc610a57366004614cff565b601060209081526000928352604080842090915290825290205460ff1681565b6103e7610a85366004614f21565b61311b565b6103e7610a98366004615456565b6131b3565b6103e7610aab3660046150ca565b613250565b61071d610abe36600461506c565b613807565b6000546001600160a01b03163314610af65760405162461bcd60e51b8152600401610aed90615492565b60405180910390fd5b600b92909255600c55600d55565b60006001600160e01b03198216637965db0b60e01b1480610b3557506301ffc9a760e01b6001600160e01b03198316145b92915050565b610b846040518060e00160405280600081526020016000815260200160006001600160a01b03168152602001606081526020016000815260200160008152602001600081525090565b6001600160a01b03808416600090815260156020908152604080832086851684528252808320815160e081018352815481526001820154818501526002820154909516858301526003810180548351818602810186019094528084529194606087019491929184015b82821015610d6b5760008481526020808220604080516101a081018252600e87029092018054835260018101546001600160a01b03908116948401949094526002808201548516848401526003820154606085015260048201546080850152600582015490941660a0840152600681015460c0840152600781015460e084015260088101546101008401526009810154610120840152815180830190925291939192610140850192600a85019190835b82821015610d40578382018054610cb3906154c7565b80601f0160208091040260200160405190810160405280929190818152602001828054610cdf906154c7565b8015610d2c5780601f10610d0157610100808354040283529160200191610d2c565b820191906000526020600020905b815481529060010190602001808311610d0f57829003601f168201915b505050505081526020019060010190610c9d565b505050508152602001600c8201548152602001600d8201548152505081526020019060010190610bed565b5050505081526020016004820154815260200160058201548152602001600682015481525050905092915050565b610da281613817565b610dab81613856565b610db482612bd4565b610dd05760405162461bcd60e51b8152600401610aed90615501565b6001600160a01b038216600090815260126020526040902054610100900460ff16610e335760405162461bcd60e51b81526020600482015260136024820152722a37b5b2b7103737ba103b32b934b334b2b21760691b6044820152606401610aed565b506001600160a01b03166000908152601260205260409020805462ff0000191662010000179055565b610e6581613817565b610e6e81613856565b610e7782612bd4565b610e935760405162461bcd60e51b8152600401610aed90615501565b506001600160a01b03166000908152601260205260409020805460ff19166001179055565b610ec53383836001613860565b505050565b610ed26149f7565b6001600160a01b03821660009081526012602090815260409182902082516101c081018452815460ff8082161515835261010082048116151594830194909452620100009004909216151592820192909252600182018054919291606084019190610f3c906154c7565b80601f0160208091040260200160405190810160405280929190818152602001828054610f68906154c7565b8015610fb55780601f10610f8a57610100808354040283529160200191610fb5565b820191906000526020600020905b815481529060010190602001808311610f9857829003601f168201915b5050505050815260200160028201548152602001600382015481526020016004820154815260200160058201548152602001600682015481526020016007820160009054906101000a90046001600160a01b03166001600160a01b03166001600160a01b031681526020016008820160009054906101000a90046001600160a01b03166001600160a01b03166001600160a01b03168152602001600982016040518060c001604052908160008201548152602001600182015481526020016002820154815260200160038201548152602001600482015481526020016005820154815250508152602001600f82015481526020016010820154815250509050919050565b6000546001600160a01b031633146110e35760405162461bcd60e51b8152600401610aed90615492565b6001600160a01b03166000908152600e60205260409020805460ff19169055565b61110d82613817565b61111681613856565b506001600160a01b0391821660009081526010602090815260408083209390941682529190915220805460ff19169055565b6001600160a01b038083166000908152601260209081526040808320600301546015835281842094861684529390915281206001015490916111939161118e9190615546565b613a71565b9392505050565b6000546001600160a01b031633146111c45760405162461bcd60e51b8152600401610aed90615492565b600280546001600160a01b0319166001600160a01b0392909216919091179055565b6000546001600160a01b031633146112105760405162461bcd60e51b8152600401610aed90615492565b600391909155600455565b6000828152600160208190526040909120015461123781613856565b610ec58383613a85565b61124a82613817565b61125381613856565b61125c83612bd4565b6112785760405162461bcd60e51b8152600401610aed90615501565b600082116112985760405162461bcd60e51b8152600401610aed90615565565b816001600160a01b0384166370a08231336040516001600160e01b031960e084901b1681526001600160a01b039091166004820152602401602060405180830381865afa1580156112ed573d6000803e3d6000fd5b505050506040513d601f19601f8201168201806040525081019061131191906155a6565b101561135f5760405162461bcd60e51b815260206004820152601c60248201527f496e73756666696369656e742077616c6c65742062616c616e63652e000000006044820152606401610aed565b60008061138c85856040518060400160405280600781526020016619195c1bdcda5d60ca1b815250611bcd565b9150915081600014611411576002546040516323b872dd60e01b81526001600160a01b03878116926323b872dd926113cc923392169087906004016155bf565b6020604051808303816000875af11580156113eb573d6000803e3d6000fd5b505050506040513d601f19601f8201168201806040525081019061140f91906155e3565b505b600061141d8386615605565b6040516323b872dd60e01b81529091506001600160a01b038716906323b872dd90611450903390309086906004016155bf565b6020604051808303816000875af115801561146f573d6000803e3d6000fd5b505050506040513d601f19601f8201168201806040525081019061149391906155e3565b506001600160a01b038616600090815260126020526040812060040180548392906114bf90849061561c565b9091555050505050505050565b6001600160a01b03811660009081526012602052604081206003810154600490910154610b359161118e91615546565b6001600160a01b038116331461156c5760405162461bcd60e51b815260206004820152602f60248201527f416363657373436f6e74726f6c3a2063616e206f6e6c792072656e6f756e636560448201526e103937b632b9903337b91039b2b63360891b6064820152608401610aed565b6115768282613af0565b5050565b600f6020526000908152604090208054611593906154c7565b80601f01602080910402602001604051908101604052809291908181526020018280546115bf906154c7565b801561160c5780601f106115e15761010080835404028352916020019161160c565b820191906000526020600020905b8154815290600101906020018083116115ef57829003601f168201915b505050505081565b6000546001600160a01b0316331461163e5760405162461bcd60e51b8152600401610aed90615492565b61164781612bd4565b6116635760405162461bcd60e51b8152600401610aed90615501565b6001600160a01b03166000908152601260205260409020805461ff001916610100179055565b6000546001600160a01b031633146116b35760405162461bcd60e51b8152600401610aed90615492565b6116bc82612bd4565b6116d85760405162461bcd60e51b8152600401610aed90615501565b6001600160a01b039091166000908152601260205260409020600381019190915542601090910155565b6060601380548060200260200160405190810160405280929190818152602001828054801561175a57602002820191906000526020600020905b81546001600160a01b0316815260019091019060200180831161173c575b5050505050905090565b6000546001600160a01b0316331461178e5760405162461bcd60e51b8152600401610aed90615492565b61179782612bd4565b6117b35760405162461bcd60e51b8152600401610aed90615501565b600080546001600160a01b0384811683526012602052604090922060080154821691161461180a5761180a6117e783613817565b6001600160a01b0380851660009081526012602052604090206008015416612f41565b6001600160a01b0382811660009081526012602052604090206008810180546001600160a01b031916928416929092179091554260109091015561157661185083613817565b6001600160a01b038085166000908152601260205260409020600801541661121b565b6011818154811061188357600080fd5b6000918252602090912001546001600160a01b0316905081565b6001600160a01b03811660009081526012602052604090205460ff166118d55760405162461bcd60e51b8152600401610aed90615634565b61192581336040805160808101825260148183019081527318db185a5b481cdd185ada5b99c81c995dd85c9960621b60608301528152815160208181019093526000815291810191909152613b57565b50565b6000546001600160a01b031633146119525760405162461bcd60e51b8152600401610aed90615492565b6000828152600f602090815260409091208251610ec592840190614ab5565b61197a83613817565b61198381613856565b6119ac8484846040518060400160405280600581526020016430b236b4b760d91b8152506140f0565b50505050565b6119bb82612bd4565b611a075760405162461bcd60e51b815260206004820152601c60248201527f52657761726420746f6b656e20646f6573206e6f742065786973742e000000006044820152606401610aed565b60008111611a275760405162461bcd60e51b8152600401610aed90615565565b6001600160a01b0382166000908152601560209081526040808320338452909152902054811115611a9a5760405162461bcd60e51b815260206004820152601c60248201527f496e73756666696369656e74207265776172642062616c616e63652e000000006044820152606401610aed565b6001600160a01b038216600090815260156020908152604080832033845290915281208054839290611acd908490615605565b90915550506001600160a01b03821660008181526015602090815260408083203380855292529091204260069091015563a9059cbb906040516001600160e01b031960e084901b1681526001600160a01b039091166004820152602481018490526044016020604051808303816000875af1158015611b50573d6000803e3d6000fd5b505050506040513d601f19601f82011682018060405250810190610ec591906155e3565b611b7d81613817565b611b8681613856565b611b8f82612bd4565b611bab5760405162461bcd60e51b8152600401610aed90615501565b506001600160a01b03166000908152601260205260409020805460ff19169055565b600080611bd985612bd4565b611bf55760405162461bcd60e51b8152600401610aed90615501565b60008411611c155760405162461bcd60e51b8152600401610aed90615565565b600080604051602001611c35906619195c1bdcda5d60ca1b815260070190565b6040516020818303038152906040528051906020012085604051602001611c5c919061565f565b6040516020818303038152906040528051906020012003611cc6576001600160a01b038716600090815260126020526040902060090154600110611ca257600d54611cbf565b6001600160a01b0387166000908152601260205260409020600901545b9150611f4b565b60405167776974686472617760c01b60208201526028016040516020818303038152906040528051906020012085604051602001611d04919061565f565b6040516020818303038152906040528051906020012003611d6d576001600160a01b0387166000908152601260205260409020600a0154600110611d4a57600d54611cbf565b6001600160a01b0387166000908152601260205260409020600a01549150611f4b565b604051647374616b6560d81b60208201526025016040516020818303038152906040528051906020012085604051602001611da8919061565f565b6040516020818303038152906040528051906020012003611e5d576001600160a01b0387166000908152601260205260409020600b0154600110611dee57600a54611e0b565b6001600160a01b0387166000908152601260205260409020600b01545b6001600160a01b0388166000908152601260205260409020600d0154909250600110611e3957600a54611e56565b6001600160a01b0387166000908152601260205260409020600d01545b9050611f4b565b60405166756e7374616b6560c81b60208201526027016040516020818303038152906040528051906020012085604051602001611e9a919061565f565b6040516020818303038152906040528051906020012003611f4b576001600160a01b0387166000908152601260205260409020600c0154600110611ee057600a54611efd565b6001600160a01b0387166000908152601260205260409020600c01545b6001600160a01b0388166000908152601260205260409020600e0154909250600110611f2b57600a54611f48565b6001600160a01b0387166000908152601260205260409020600e01545b90505b6000611f578388614307565b90506000611f658389614307565b336000818152600e60209081526040808320546001600160a01b038f168452601083528184209484529390915290205491925060ff90811691168115611fb2576000935060009250611fbd565b8015611fbd57600092505b5091999098509650505050505050565b611fd682612bd4565b611ff25760405162461bcd60e51b8152600401610aed90615501565b600081116120125760405162461bcd60e51b8152600401610aed90615565565b6001600160a01b03821660009081526015602090815260408083203384529091529020600101548111156120885760405162461bcd60e51b815260206004820152601d60248201527f496e73756666696369656e74207374616b696e672062616c616e63652e0000006044820152606401610aed565b6120ce823360408051608081018252600791810191825266756e7374616b6560c81b6060820152908152602081016120c76120c287613a71565b614328565b9052613b57565b6001600160a01b038216600090815260156020908152604080832033845290915290206001015481900361217c57336000908152601460205260409020600190810154900361212f57336000908152601460205260409020805460ff191690555b33600090815260146020526040812060010180549161214d8361567b565b9190505550426014600061215e3390565b6001600160a01b031681526020810191909152604001600020600301555b6001600160a01b0382166000908152601560209081526040808320338452909152812060010180548392906121b2908490615605565b90915550506001600160a01b03821660008181526015602090815260408083203384528252808320426006909101559282526012905290812060050180548392906121fe908490615605565b925050819055504260126000846001600160a01b03166001600160a01b031681526020019081526020016000206010018190555060008061225f848460405180604001604052806007815260200166756e7374616b6560c81b815250611bcd565b91509150816000146122e45760025460405163a9059cbb60e01b81526001600160a01b039182166004820152602481018490529085169063a9059cbb906044016020604051808303816000875af11580156122be573d6000803e3d6000fd5b505050506040513d601f19601f820116820180604052508101906122e291906155e3565b505b8015612372576001600160a01b038481166000818152601260205260409081902060080154905163a9059cbb60e01b815292166004830152602482018390529063a9059cbb906044016020604051808303816000875af115801561234c573d6000803e3d6000fd5b505050506040513d601f19601f8201168201806040525081019061237091906155e3565b505b600061237e828461561c565b6123889085615605565b90506001600160a01b03851663a9059cbb336040516001600160e01b031960e084901b1681526001600160a01b039091166004820152602481018490526044016020604051808303816000875af11580156123e7573d6000803e3d6000fd5b505050506040513d601f19601f8201168201806040525081019061240b91906155e3565b505050505050565b6000546001600160a01b0316331461243d5760405162461bcd60e51b8152600401610aed90615492565b6124476000614431565b565b61245282613817565b61245b81613856565b61246483612bd4565b6124805760405162461bcd60e51b8152600401610aed90615501565b600554821080159061249457506006548211155b6124a56120c2600260030154613a71565b6124b66120c2600260040154613a71565b6040516020016124c7929190615692565b604051602081830303815290604052906124f45760405162461bcd60e51b8152600401610aed91906150f4565b50506001600160a01b039091166000908152601260205260409020600681019190915542601090910155565b600280546001600160a01b03191633178155600355600f6004556125446032614481565b6005556125526103e8614481565b60065561255f6064614481565b6007556000600855612571600a614481565b60095561257e6001614481565b600a9081556000600b5561259190614481565b600c5561259e6001614481565b600d556125ac600033614495565b61244733614431565b6000546001600160a01b031633146125df5760405162461bcd60e51b8152600401610aed90615492565b610ec5838383604051806040016040528060038152602001623232bb60e91b8152506140f0565b60009182526001602090815260408084206001600160a01b0393909316845291905290205460ff1690565b61263a87612bd4565b1561267f5760405162461bcd60e51b81526020600482015260156024820152742a37b5b2b71030b63932b0b23c9032bc34b9ba399760591b6044820152606401610aed565b61269c61268b88613817565b6000546001600160a01b0316614495565b6126ae6126a888613817565b33614495565b6011805460018082019092557f31ecc21a745e3968a04e9570e4425bc18fa8019c68028196b546d1669c200c680180546001600160a01b038a166001600160a01b0319918216811790925560009182526012602052604090912060028101889055600881018054909216331790915560098101829055600a8101829055600b8101829055600c81019190915542600f9091015561274b8787612d6b565b6127558785612449565b61275f8782612c8e565b61276a878484611971565b50505050505050565b61277c82613817565b61278581613856565b61278e83612bd4565b6127aa5760405162461bcd60e51b8152600401610aed90615501565b600082116127ca5760405162461bcd60e51b8152600401610aed90615565565b6001600160a01b0383166000908152601260205260409020600401548211156128355760405162461bcd60e51b815260206004820152601c60248201527f496e73756666696369656e74207265776172642062616c616e63652e000000006044820152606401610aed565b6001600160a01b03831660009081526012602052604081206004018054849290612860908490615605565b92505081905550600080612895858560405180604001604052806008815260200167776974686472617760c01b815250611bcd565b915091508160001461291a5760025460405163a9059cbb60e01b81526001600160a01b039182166004820152602481018490529086169063a9059cbb906044016020604051808303816000875af11580156128f4573d6000803e3d6000fd5b505050506040513d601f19601f8201168201806040525081019061291891906155e3565b505b60006129268386615605565b90506001600160a01b03861663a9059cbb336040516001600160e01b031960e084901b1681526001600160a01b039091166004820152602481018490526044016020604051808303816000875af1158015612985573d6000803e3d6000fd5b505050506040513d601f19601f8201168201806040525081019061276a91906155e3565b6000546001600160a01b031633146129d35760405162461bcd60e51b8152600401610aed90615492565b600592909255600655600755565b6129ea82613817565b6129f381613856565b506001600160a01b0391821660009081526010602090815260408083209390941682529190915220805460ff19166001179055565b6060601180548060200260200160405190810160405280929190818152602001828054801561175a576020028201919060005260206000209081546001600160a01b0316815260019091019060200180831161173c575050505050905090565b6012602052600090815260409020805460018201805460ff808416946101008504821694620100009004909116929091612ac1906154c7565b80601f0160208091040260200160405190810160405280929190818152602001828054612aed906154c7565b8015612b3a5780601f10612b0f57610100808354040283529160200191612b3a565b820191906000526020600020905b815481529060010190602001808311612b1d57829003601f168201915b50505060028401546003850154600486015460058701546006880154600789015460088a01546040805160c08101825260098d01548152600a8d01546020820152600b8d015491810191909152600c8c01546060820152600d8c01546080820152600e8c015460a0820152600f8c01546010909c01549a9b979a969950949750929591946001600160a01b0391821694939091169291908e565b6000805b601154811015612c3457826001600160a01b031660118281548110612bff57612bff61570b565b6000918252602090912001546001600160a01b031603612c225750600192915050565b80612c2c81615721565b915050612bd8565b50600092915050565b6000546001600160a01b03163314612c675760405162461bcd60e51b8152600401610aed90615492565b610ec5838383604051806040016040528060038152602001623232bb60e91b81525061449f565b612c9782613817565b612ca081613856565b612ca982613817565b612cb281613856565b612cbb84612bd4565b612cd75760405162461bcd60e51b8152600401610aed90615501565b612ce083612bd4565b612d2c5760405162461bcd60e51b815260206004820152601c60248201527f52657761726420746f6b656e20646f6573206e6f742065786973742e000000006044820152606401610aed565b50506001600160a01b0391821660009081526012602052604090206007810180546001600160a01b031916929093169190911790915542601090910155565b612d7482613817565b612d7d81613856565b612d8683612bd4565b612da25760405162461bcd60e51b8152600401610aed90615501565b600354825110801590612db85750600454825111155b600354612dc490614328565b600454612dd090614328565b604051602001612de192919061573a565b60405160208183030381529060405290612e0e5760405162461bcd60e51b8152600401610aed91906150f4565b506001600160a01b03831660009081526012602090815260409091208351612e3e92600190920191850190614ab5565b5050506001600160a01b0316600090815260126020526040902042601090910155565b612e8e60405180608001604052806000151581526020016000815260200160008152602001600081525090565b506001600160a01b03166000908152601460209081526040918290208251608081018452815460ff1615158152600182015492810192909252600281015492820192909252600390910154606082015290565b6000805b601354811015612c3457826001600160a01b031660138281548110612f0c57612f0c61570b565b6000918252602090912001546001600160a01b031603612f2f5750600192915050565b80612f3981615721565b915050612ee5565b60008281526001602081905260409091200154612f5d81613856565b610ec58383613af0565b612f7081613817565b612f7981613856565b612f8282612bd4565b612f9e5760405162461bcd60e51b8152600401610aed90615501565b506001600160a01b03166000908152601260205260409020805462ff000019169055565b6000546001600160a01b03163314612fec5760405162461bcd60e51b8152600401610aed90615492565b612ff581612bd4565b6130115760405162461bcd60e51b8152600401610aed90615501565b6001600160a01b03166000908152601260205260409020805461ff0019169055565b6000546001600160a01b0316331461305d5760405162461bcd60e51b8152600401610aed90615492565b6001600160a01b03166000908152600e60205260409020805460ff19166001179055565b6000546001600160a01b031633146130ab5760405162461bcd60e51b8152600401610aed90615492565b600892909255600955600a55565b6130c282613817565b6130cb81613856565b6130d483612bd4565b6130f05760405162461bcd60e51b8152600401610aed90615501565b506001600160a01b039091166000908152601260205260409020600281019190915542601090910155565b6000546001600160a01b031633146131455760405162461bcd60e51b8152600401610aed90615492565b6001600160a01b0381166131aa5760405162461bcd60e51b815260206004820152602660248201527f4f776e61626c653a206e6577206f776e657220697320746865207a65726f206160448201526564647265737360d01b6064820152608401610aed565b61192581614431565b6000546001600160a01b031633146131dd5760405162461bcd60e51b8152600401610aed90615492565b60405163a9059cbb60e01b81526001600160a01b0383811660048301526024820183905284169063a9059cbb906044016020604051808303816000875af115801561322c573d6000803e3d6000fd5b505050506040513d601f19601f820116820180604052508101906119ac91906155e3565b6001600160a01b03821660009081526012602052604090205460ff166132885760405162461bcd60e51b8152600401610aed90615634565b600081116132a85760405162461bcd60e51b8152600401610aed90615565565b806001600160a01b0383166370a08231336040516001600160e01b031960e084901b1681526001600160a01b039091166004820152602401602060405180830381865afa1580156132fd573d6000803e3d6000fd5b505050506040513d601f19601f8201168201806040525081019061332191906155a6565b101561336f5760405162461bcd60e51b815260206004820152601c60248201527f496e73756666696369656e742077616c6c65742062616c616e63652e000000006044820152606401610aed565b60008061339a8484604051806040016040528060058152602001647374616b6560d81b815250611bcd565b915091508160001461341f576002546040516323b872dd60e01b81526001600160a01b03868116926323b872dd926133da923392169087906004016155bf565b6020604051808303816000875af11580156133f9573d6000803e3d6000fd5b505050506040513d601f19601f8201168201806040525081019061341d91906155e3565b505b80156134af576001600160a01b03848116600081815260126020526040908190206008015490516323b872dd60e01b815291926323b872dd9261346a923392169086906004016155bf565b6020604051808303816000875af1158015613489573d6000803e3d6000fd5b505050506040513d601f19601f820116820180604052508101906134ad91906155e3565b505b60006134bb828461561c565b6134c59085615605565b6040516323b872dd60e01b81529091506001600160a01b038616906323b872dd906134f8903390309086906004016155bf565b6020604051808303816000875af1158015613517573d6000803e3d6000fd5b505050506040513d601f19601f8201168201806040525081019061353b91906155e3565b506001600160a01b038516600090815260156020908152604080832033845290915281206001015490036136b3573360009081526014602052604081206001015490036135b35761358b33612ee1565b6135985761359833614699565b336000908152601460205260409020805460ff191660011790555b3360009081526014602052604081206001018054916135d183615721565b9190505550601460006135e13390565b6001600160a01b031681526020810191909152604001600020600201541561362057336000908152601460205260409020426003909101819055613639565b3360009081526014602052604090204260029091018190555b506001600160a01b038581166000908152601560209081526040808320338452909152902060020154166136ae576001600160a01b038581166000908152601260209081526040808320600701546015835281842033855290925290912060020180546001600160a01b031916919092161790555b6136eb565b6136eb8533604080516080810182526005918101918252647374616b6560d81b6060820152908152602081016120c76120c28a613a71565b6001600160a01b03851660009081526015602090815260408083203384529091528120600101805483929061372190849061561c565b90915550506001600160a01b038516600090815260156020908152604080832033845290915290206005015415613783576001600160a01b038516600090815260156020908152604080832033845290915290204260069091018190556137b0565b6001600160a01b038516600090815260156020908152604080832033845290915290204260059091018190555b506001600160a01b038516600090815260126020526040812060050180548392906137dc90849061561c565b9091555050506001600160a01b03909316600090815260126020526040902042601090910155505050565b6013818154811061188357600080fd5b6040516bffffffffffffffffffffffff19606083901b166020820152600090603401604051602081830303815290604052805190602001209050919050565b6119258133614749565b60008115613a0d576001600160a01b03841660009081526012602052604090205460ff166138a05760405162461bcd60e51b8152600401610aed90615634565b6001600160a01b03841660009081526012602052604090205462010000900460ff1661391f5760405162461bcd60e51b815260206004820152602860248201527f546f6b656e20646f6573206e6f742068617665206d756c746920746f6b656e206044820152673932bbb0b932399760c11b6064820152608401610aed565b6001600160a01b03831660009081526012602052604090205460ff166139875760405162461bcd60e51b815260206004820152601860248201527f52657761726420746f6b656e206e6f74206163746976652e00000000000000006044820152606401610aed565b6001600160a01b03831660009081526012602052604090205462010000900460ff16613a0d5760405162461bcd60e51b815260206004820152602f60248201527f52657761726420746f6b656e20646f6573206e6f742068617665206d756c746960448201526e103a37b5b2b7103932bbb0b932399760891b6064820152608401610aed565b613a1685612ee1565b613a2357613a2385614699565b50506001600160a01b0391821660009081526015602090815260408083209585168352949052929092206002810180546001600160a01b031916939092169283179091554260069091015590565b6000610b35670de0b6b3a7640000836157d2565b613a8f8282612606565b6115765760008281526001602081815260408084206001600160a01b0386168086529252808420805460ff19169093179092559051339285917f2f8788117e7eff1d82e926ec794901d17c78024a50270940304540a733656f0d9190a45050565b613afa8282612606565b156115765760008281526001602090815260408083206001600160a01b0385168085529252808320805460ff1916905551339285917ff6391f5c32d9c69d2a47ea670b442974b53935d1edc7fd64eb21e047a839171b9190a45050565b6001600160a01b03831660009081526012602052604090205460ff16613b7c57505050565b6001600160a01b03821660009081526014602052604090205460ff16613ba157505050565b60405163d6c2074760e01b81523060048201526001600160a01b03808516602483015283166044820152600090819081908190819073__SavvyFinanceFarmLibrary_______________9063d6c207479060640160a060405180830381865af4158015613c12573d6000803e3d6000fd5b505050506040513d601f19601f82011682018060405250810190613c3691906157e6565b9450945094509450945084600003613c52575050505050505050565b6001600160a01b03808916600090815260126020526040808220600701549092168082529190205460ff16613c8c57505050505050505050565b6000613c97826114cc565b905086811015613cb657613caa8a611b74565b50505050505050505050565b6001600160a01b038216600090815260126020526040812060030154839181613cde8b614481565b613ce891906157d2565b90506000601560008f6001600160a01b03166001600160a01b0316815260200190815260200160002060008e6001600160a01b03166001600160a01b0316815260200190815260200160002060020160009054906101000a90046001600160a01b03169050836001600160a01b0316816001600160a01b031614613e02576001600160a01b03811660009081526012602052604090205460ff1615613e02576000613d92826114cc565b90508b8110613e00576001600160a01b0380831660009081526012602052604090206008015416613dc48685836147ad565b6001600160a01b038316600090815260126020526040902060030154929550919350849184613df28e614481565b613dfc91906157d2565b9350505b505b50613e0e83828e6147ad565b42601560008f6001600160a01b03166001600160a01b0316815260200190815260200160002060008e6001600160a01b03166001600160a01b0316815260200190815260200160002060040181905550613e66614b39565b601560008f6001600160a01b03166001600160a01b0316815260200190815260200160002060008e6001600160a01b03166001600160a01b03168152602001908152602001600020600301805490508160000181815250508c81602001906001600160a01b031690816001600160a01b0316815250508381604001906001600160a01b031690816001600160a01b03168152505082816060018181525050818160800181815250508d8160a001906001600160a01b031690816001600160a01b031681525050868160c0018181525050878160e0018181525050888161010001818152505089816101200181815250508b8161014001819052504281610160018181525050601560008f6001600160a01b03166001600160a01b0316815260200190815260200160002060008e6001600160a01b03166001600160a01b031681526020019081526020016000206003018190806001815401808255809150506001900390600052602060002090600e02016000909190919091506000820151816000015560208201518160010160006101000a8154816001600160a01b0302191690836001600160a01b0316021790555060408201518160020160006101000a8154816001600160a01b0302191690836001600160a01b03160217905550606082015181600301556080820151816004015560a08201518160050160006101000a8154816001600160a01b0302191690836001600160a01b0316021790555060c0820151816006015560e082015181600701556101008201518160080155610120820151816009015561014082015181600a019060026140c7929190614bae565b5061016082015181600c015561018082015181600d015550505050505050505050505050505050565b6140f984612bd4565b6141155760405162461bcd60e51b8152600401610aed90615501565b600854831080159061412957506009548311155b61413a6120c2600260060154613a71565b61414b6120c2600260070154613a71565b60405160200161415c929190615826565b604051602081830303815290604052906141895760405162461bcd60e51b8152600401610aed91906150f4565b50600854821080159061419e57506009548211155b6141af6120c2600260060154613a71565b6141c06120c2600260070154613a71565b6040516020016141d19291906158a0565b604051602081830303815290604052906141fe5760405162461bcd60e51b8152600401610aed91906150f4565b50604051623232bb60e91b60208201526023016040516020818303038152906040528051906020012081604051602001614238919061565f565b604051602081830303815290604052805190602001200361427d576001600160a01b0384166000908152601260205260409020600b8101849055600c01829055612e3e565b6040516430b236b4b760d91b602082015260250160405160208183030381529060405280519060200120816040516020016142b8919061565f565b6040516020818303038152906040528051906020012003612e3e57506001600160a01b03929092166000908152601260205260409020600d810191909155600e81019190915542601090910155565b6000826143146064614481565b61431e90846157d2565b6111939190615546565b60608160000361434f5750506040805180820190915260018152600360fc1b602082015290565b8160005b8115614379578061436381615721565b91506143729050600a836157d2565b9150614353565b60008167ffffffffffffffff81111561439457614394615154565b6040519080825280601f01601f1916602001820160405280156143be576020820181803683370190505b5090505b8415614429576143d3600183615605565b91506143e0600a866158d8565b6143eb90603061561c565b60f81b8183815181106144005761440061570b565b60200101906001600160f81b031916908160001a905350614422600a866157d2565b94506143c2565b949350505050565b600080546001600160a01b038381166001600160a01b0319831681178455604051919092169283917f8be0079c531659141344cd1fd0a4f28419497f9722a3daafe3b4186f6b6457e09190a35050565b6000610b3582670de0b6b3a7640000615546565b6115768282613a85565b6144a884612bd4565b6144c45760405162461bcd60e51b8152600401610aed90615501565b600b5483108015906144d85750600c548311155b6144e96120c2600260090154613a71565b6144fa6120c26002600a0154613a71565b60405160200161450b9291906158ec565b604051602081830303815290604052906145385760405162461bcd60e51b8152600401610aed91906150f4565b50600b54821080159061454d5750600c548211155b61455e6120c2600260090154613a71565b61456f6120c26002600a0154613a71565b604051602001614580929190615924565b604051602081830303815290604052906145ad5760405162461bcd60e51b8152600401610aed91906150f4565b50604051623232bb60e91b602082015260230160405160208183030381529060405280519060200120816040516020016145e7919061565f565b604051602081830303815290604052805190602001200361462c576001600160a01b038416600090815260126020526040902060098101849055600a01829055612e3e565b6040516430b236b4b760d91b60208201526025016040516020818303038152906040528051906020012081604051602001614667919061565f565b60408051601f1981840301905252505050506001600160a01b0316600090815260126020526040902042601090910155565b6146a281612ee1565b156146e85760405162461bcd60e51b815260206004820152601660248201527529ba30b5b2b91030b63932b0b23c9032bc34b9ba399760511b6044820152606401610aed565b60138054600181019091557f66de8ffda797e3de9c05e8fc57b3bf0ec28a930d40b0d285d93c06501cf6a0900180546001600160a01b039092166001600160a01b031990921682179055600090815260146020526040902042600290910155565b6147538282612606565b6115765761476b816001600160a01b0316601461485b565b61477683602061485b565b60405160200161478792919061599d565b60408051601f198184030181529082905262461bcd60e51b8252610aed916004016150f4565b6001600160a01b038316600090815260126020526040812060040180548492906147d8908490615605565b90915550506001600160a01b03808416600090815260126020908152604080832042601090910155601582528083209385168352929052908120805484929061482290849061561c565b90915550506001600160a01b03928316600090815260156020908152604080832093909516825291909152919091204260069091015550565b6060600061486a836002615546565b61487590600261561c565b67ffffffffffffffff81111561488d5761488d615154565b6040519080825280601f01601f1916602001820160405280156148b7576020820181803683370190505b509050600360fc1b816000815181106148d2576148d261570b565b60200101906001600160f81b031916908160001a905350600f60fb1b816001815181106149015761490161570b565b60200101906001600160f81b031916908160001a9053506000614925846002615546565b61493090600161561c565b90505b60018111156149a8576f181899199a1a9b1b9c1cb0b131b232b360811b85600f16601081106149645761496461570b565b1a60f81b82828151811061497a5761497a61570b565b60200101906001600160f81b031916908160001a90535060049490941c936149a18161567b565b9050614933565b5083156111935760405162461bcd60e51b815260206004820181905260248201527f537472696e67733a20686578206c656e67746820696e73756666696369656e746044820152606401610aed565b604051806101c0016040528060001515815260200160001515815260200160001515815260200160608152602001600081526020016000815260200160008152602001600081526020016000815260200160006001600160a01b0316815260200160006001600160a01b03168152602001614aa16040518060c001604052806000815260200160008152602001600081526020016000815260200160008152602001600081525090565b815260200160008152602001600081525090565b828054614ac1906154c7565b90600052602060002090601f016020900481019282614ae35760008555614b29565b82601f10614afc57805160ff1916838001178555614b29565b82800160010185558215614b29579182015b82811115614b29578251825591602001919060010190614b0e565b50614b35929150614bfa565b5090565b604051806101a001604052806000815260200160006001600160a01b0316815260200160006001600160a01b03168152602001600081526020016000815260200160006001600160a01b0316815260200160008152602001600081526020016000815260200160008152602001614aa1614c0f565b8260028101928215614bee579160200282015b82811115614bee5782518051614bde918491602090910190614ab5565b5091602001919060010190614bc1565b50614b35929150614c36565b5b80821115614b355760008155600101614bfb565b60405180604001604052806002905b6060815260200190600190039081614c1e5790505090565b80821115614b35576000614c4a8282614c53565b50600101614c36565b508054614c5f906154c7565b6000825580601f10614c6f575050565b601f0160209004906000526020600020908101906119259190614bfa565b600080600060608486031215614ca257600080fd5b505081359360208301359350604090920135919050565b600060208284031215614ccb57600080fd5b81356001600160e01b03198116811461119357600080fd5b80356001600160a01b0381168114614cfa57600080fd5b919050565b60008060408385031215614d1257600080fd5b614d1b83614ce3565b9150614d2960208401614ce3565b90509250929050565b60005b83811015614d4d578181015183820152602001614d35565b838111156119ac5750506000910152565b60008151808452614d76816020860160208601614d32565b601f01601f19169290920160200192915050565b600082604081018360005b6002811015614dc4578383038752614dae838351614d5e565b6020978801979093509190910190600101614d95565b509095945050505050565b600060208083526101008084018551838601528286015160408181880152808801519150606060018060a01b0383168189015280890151925060e0608081818b01528585518088526101209750878c019150878160051b8d01018a8801975060005b82811015614ef05761011f198e83030184528851805183528c8101516001600160a01b039081168e8501528982015181168a8501528882015189850152868201518785015260a0808301519091169084015260c0808201519084015286810151878401528b8101518c8401528a8101518b840152610140808201516101a08286018190529190614ec383870182614d8a565b6101608581015190880152610180948501519490960193909352505050978b0197928b0192600101614e31565b50838e015160a08e015260a08e015160c08e015260c08e0151858e0152809b50505050505050505050505092915050565b600060208284031215614f3357600080fd5b61119382614ce3565b60208152614f4f60208201835115159052565b60006020830151614f64604084018215159052565b5060408301518015156060840152506060830151610260806080850152614f8f610280850183614d5e565b9150608085015160a085015260a085015160c085015260c085015160e085015260e0850151610100818187015280870151915050610120818187015280870151915050610140614fe9818701836001600160a01b03169052565b8601519050610160615005868201836001600160a01b03169052565b860151905061018061504e86820183805182526020810151602083015260408101516040830152606081015160608301526080810151608083015260a081015160a08301525050565b860151610240860152506101a0909401519390920192909252919050565b60006020828403121561507e57600080fd5b5035919050565b6000806040838503121561509857600080fd5b50508035926020909101359150565b600080604083850312156150ba57600080fd5b82359150614d2960208401614ce3565b600080604083850312156150dd57600080fd5b6150e683614ce3565b946020939093013593505050565b6020815260006111936020830184614d5e565b6020808252825182820181905260009190848201906040850190845b818110156151485783516001600160a01b031683529284019291840191600101615123565b50909695505050505050565b634e487b7160e01b600052604160045260246000fd5b600082601f83011261517b57600080fd5b813567ffffffffffffffff8082111561519657615196615154565b604051601f8301601f19908116603f011681019082821181831017156151be576151be615154565b816040528381528660208588010111156151d757600080fd5b836020870160208301376000602085830101528094505050505092915050565b6000806040838503121561520a57600080fd5b82359150602083013567ffffffffffffffff81111561522857600080fd5b6152348582860161516a565b9150509250929050565b60008060006060848603121561525357600080fd5b61525c84614ce3565b95602085013595506040909401359392505050565b60008060006060848603121561528657600080fd5b61528f84614ce3565b925060208401359150604084013567ffffffffffffffff8111156152b257600080fd5b6152be8682870161516a565b9150509250925092565b600080600080600080600060e0888a0312156152e357600080fd5b6152ec88614ce3565b9650602088013567ffffffffffffffff81111561530857600080fd5b6153148a828b0161516a565b96505060408801359450606088013593506080880135925060a0880135915061533f60c08901614ce3565b905092959891949750929550565b8e151581528d151560208201528c151560408201526102606060820152600061537a61026083018e614d5e565b90508b60808301528a60a08301528960c08301528860e0830152876101008301526153b16101208301886001600160a01b03169052565b6001600160a01b0386166101408301528451610160830152602085015161018083015260408501516101a083015260608501516101c083015260808501516101e083015260a085015161020083015261022082019390935261024001529c9b505050505050505050505050565b6000806040838503121561543157600080fd5b61543a83614ce3565b9150602083013567ffffffffffffffff81111561522857600080fd5b60008060006060848603121561546b57600080fd5b61547484614ce3565b925061548260208501614ce3565b9150604084013590509250925092565b6020808252818101527f4f776e61626c653a2063616c6c6572206973206e6f7420746865206f776e6572604082015260600190565b600181811c908216806154db57607f821691505b6020821081036154fb57634e487b7160e01b600052602260045260246000fd5b50919050565b6020808252601590820152742a37b5b2b7103237b2b9903737ba1032bc34b9ba1760591b604082015260600190565b634e487b7160e01b600052601160045260246000fd5b600081600019048311821515161561556057615560615530565b500290565b60208082526021908201527f416d6f756e74206d7573742062652067726561746572207468616e207a65726f6040820152601760f91b606082015260800190565b6000602082840312156155b857600080fd5b5051919050565b6001600160a01b039384168152919092166020820152604081019190915260600190565b6000602082840312156155f557600080fd5b8151801515811461119357600080fd5b60008282101561561757615617615530565b500390565b6000821982111561562f5761562f615530565b500190565b6020808252601190820152702a37b5b2b7103737ba1030b1ba34bb329760791b604082015260600190565b60008251615671818460208701614d32565b9190910192915050565b60008161568a5761568a615530565b506000190190565b7f5374616b696e6720415052206d757374206265206265747765656e20000000008152600083516156ca81601c850160208801614d32565b650129030b732160d51b601c9184019182015283516156f0816022840160208801614d32565b61129760f11b60229290910191820152602401949350505050565b634e487b7160e01b600052603260045260246000fd5b60006001820161573357615733615530565b5060010190565b7f546f6b656e206e616d65206c656e677468206d75737420626520626574776565815261037160f51b60208201526000835161577d816022850160208801614d32565b6401030b732160dd1b60229184019182015283516157a2816027840160208801614d32565b601760f91b60279290910191820152602801949350505050565b634e487b7160e01b600052601260045260246000fd5b6000826157e1576157e16157bc565b500490565b600080600080600060a086880312156157fe57600080fd5b5050835160208501516040860151606087015160809097015192989197509594509092509050565b7f5374616b6520666565206d757374206265206265747765656e2000000000000081526000835161585e81601a850160208801614d32565b8083019050650129030b732160d51b601a8201528351615885816020840160208801614d32565b61129760f11b60209290910191820152602201949350505050565b7f556e7374616b6520666565206d757374206265206265747765656e20000000008152600083516156ca81601c850160208801614d32565b6000826158e7576158e76157bc565b500690565b7f4465706f73697420666565206d757374206265206265747765656e20000000008152600083516156ca81601c850160208801614d32565b7f576974686472617720666565206d757374206265206265747765656e2000000081526000835161595c81601d850160208801614d32565b650129030b732160d51b601d918401918201528351615982816023840160208801614d32565b61129760f11b60239290910191820152602501949350505050565b7f416363657373436f6e74726f6c3a206163636f756e74200000000000000000008152600083516159d5816017850160208801614d32565b7001034b99036b4b9b9b4b733903937b6329607d1b6017918401918201528351615a06816028840160208801614d32565b0160280194935050505056fea2646970667358221220d2ae6abfc88764db46307f6086012b53341fb3a094ca63f5805707d42b8ebd5d64736f6c634300080d0033","bytecodeSha1":"d6a36785dc81999bd01dfeb74d2e7e05036691d7","compiler":{"evm_version":"istanbul","optimizer":{"enabled":true,"runs":200},"version":"0.8.13+commit.abaa5c0e"},"contractName":"SavvyFinanceFarm","deployedBytecode":"608060405234801561001057600080fd5b50600436106103cf5760003560e01c80636c82a726116101ff578063b4767ca81161011a578063e57f14e1116100ad578063f2fde38b1161007c578063f2fde38b14610a77578063f5537ede14610a8a578063f739ed9e14610a9d578063fd5e6dd114610ab057600080fd5b8063e57f14e114610a10578063e97b061a14610a23578063ed2b79f814610a36578063f16d094f14610a4957600080fd5b8063cfa10ca0116100e9578063cfa10ca0146109c4578063d547741f146109d7578063e012e276146109ea578063e4ec108c146109fd57600080fd5b8063b4767ca814610943578063b678c3a414610956578063c370c86d14610969578063c601f3521461097c57600080fd5b80639e281a9811610192578063aa6ca80811610161578063aa6ca808146108a0578063ac66c6e0146108a8578063acb422c5146108d5578063b33f78ca1461093057600080fd5b80639e281a981461085f578063a217fddf14610872578063a4fb252b1461087a578063a5ecd1221461088d57600080fd5b80638d0c8f26116101ce5780638d0c8f26146108155780638da5cb5b1461082857806391d14854146108395780639aaf3cb61461084c57600080fd5b80636c82a726146107df578063715018a6146107f257806375d7f0d9146107fa5780638129fc1c1461080d57600080fd5b8063338b5dea116102ef5780634f64b2be116102825780635d9a4000116102515780635d9a40001461077e57806361ee19551461079157806368173bcf146107a45780636bcfd0c4146107b757600080fd5b80634f64b2be1461070a5780634fbee1931461073557806350aee08d1461075857806356e0341c1461076b57600080fd5b80634130276b116102be5780634130276b146106bc578063431f63c9146106cf57806343352d61146106e257806349a5b196146106f757600080fd5b8063338b5dea1461066357806334738dfa1461067657806336568abe146106895780633a215f461461069c57600080fd5b80631742140911610367578063248a9ca311610336578063248a9ca3146105865780632d94c6cd146105aa5780632da999ff1461063d5780632f2ff15d1461065057600080fd5b8063174214091461049d5780632081ea63146104b057806320e44e43146104d1578063236b43921461057357600080fd5b80630d1ce2d2116103a35780630d1ce2d21461044457806313316bcf1461045757806313ff7e9f1461046a57806316a2f82a1461048a57600080fd5b8062285e33146103d457806301ffc9a7146103e957806304f78063146104115780630b3e728c14610431575b600080fd5b6103e76103e2366004614c8d565b610ac3565b005b6103fc6103f7366004614cb9565b610b04565b60405190151581526020015b60405180910390f35b61042461041f366004614cff565b610b3b565b6040516104089190614dcf565b6103e761043f366004614f21565b610d99565b6103e7610452366004614f21565b610e5c565b6103e7610465366004614cff565b610eb8565b61047d610478366004614f21565b610eca565b6040516104089190614f3c565b6103e7610498366004614f21565b6110b9565b6103e76104ab366004614cff565b611104565b6104c36104be366004614cff565b611148565b604051908152602001610408565b600254600354600454600554600654600754600854600954600a54600b54600c54600d546105109b6001600160a01b03169a999897969594939291908c565b604080516001600160a01b03909d168d5260208d019b909b52998b019890985260608a0196909652608089019490945260a088019290925260c087015260e086015261010085015261012084015261014083015261016082015261018001610408565b6103e7610581366004614f21565b61119a565b6104c361059436600461506c565b6000908152600160208190526040909120015490565b6106026105b8366004614cff565b6015602090815260009283526040808420909152908252902080546001820154600283015460048401546005850154600690950154939492936001600160a01b0390921692909186565b6040805196875260208701959095526001600160a01b03909316938501939093526060840152608083019190915260a082015260c001610408565b6103e761064b366004615085565b6111e6565b6103e761065e3660046150a7565b61121b565b6103e76106713660046150ca565b611241565b6104c3610684366004614f21565b6114cc565b6103e76106973660046150a7565b6114fc565b6106af6106aa36600461506c565b61157a565b60405161040891906150f4565b6103e76106ca366004614f21565b611614565b6103e76106dd3660046150ca565b611689565b6106ea611702565b6040516104089190615107565b6103e7610705366004614cff565b611764565b61071d61071836600461506c565b611873565b6040516001600160a01b039091168152602001610408565b6103fc610743366004614f21565b600e6020526000908152604090205460ff1681565b6103e7610766366004614f21565b61189d565b6103e76107793660046151f7565b611928565b6103e761078c36600461523e565b611971565b6103e761079f3660046150ca565b6119b2565b6103e76107b2366004614f21565b611b74565b6107ca6107c5366004615271565b611bcd565b60408051928352602083019190915201610408565b6103e76107ed3660046150ca565b611fcd565b6103e7612413565b6103e76108083660046150ca565b612449565b6103e7612520565b6103e761082336600461523e565b6125b5565b6000546001600160a01b031661071d565b6103fc6108473660046150a7565b612606565b6103e761085a3660046152c8565b612631565b6103e761086d3660046150ca565b612773565b6104c3600081565b6103e7610888366004614c8d565b6129a9565b6103e761089b366004614cff565b6129e1565b6106ea612a28565b6108bb6108b6366004614f21565b612a88565b6040516104089e9d9c9b9a9998979695949392919061534d565b61090e6108e3366004614f21565b601460205260009081526040902080546001820154600283015460039093015460ff90921692909184565b6040805194151585526020850193909352918301526060820152608001610408565b6103fc61093e366004614f21565b612bd4565b6103e761095136600461523e565b612c3d565b6103e7610964366004614cff565b612c8e565b6103e761097736600461541e565b612d6b565b61098f61098a366004614f21565b612e61565b604051610408919081511515815260208083015190820152604080830151908201526060918201519181019190915260800190565b6103fc6109d2366004614f21565b612ee1565b6103e76109e53660046150a7565b612f41565b6103e76109f8366004614f21565b612f67565b6103e7610a0b366004614f21565b612fc2565b6103e7610a1e366004614f21565b613033565b6103e7610a31366004614c8d565b613081565b6103e7610a443660046150ca565b6130b9565b6103fc610a57366004614cff565b601060209081526000928352604080842090915290825290205460ff1681565b6103e7610a85366004614f21565b61311b565b6103e7610a98366004615456565b6131b3565b6103e7610aab3660046150ca565b613250565b61071d610abe36600461506c565b613807565b6000546001600160a01b03163314610af65760405162461bcd60e51b8152600401610aed90615492565b60405180910390fd5b600b92909255600c55600d55565b60006001600160e01b03198216637965db0b60e01b1480610b3557506301ffc9a760e01b6001600160e01b03198316145b92915050565b610b846040518060e00160405280600081526020016000815260200160006001600160a01b03168152602001606081526020016000815260200160008152602001600081525090565b6001600160a01b03808416600090815260156020908152604080832086851684528252808320815160e081018352815481526001820154818501526002820154909516858301526003810180548351818602810186019094528084529194606087019491929184015b82821015610d6b5760008481526020808220604080516101a081018252600e87029092018054835260018101546001600160a01b03908116948401949094526002808201548516848401526003820154606085015260048201546080850152600582015490941660a0840152600681015460c0840152600781015460e084015260088101546101008401526009810154610120840152815180830190925291939192610140850192600a85019190835b82821015610d40578382018054610cb3906154c7565b80601f0160208091040260200160405190810160405280929190818152602001828054610cdf906154c7565b8015610d2c5780601f10610d0157610100808354040283529160200191610d2c565b820191906000526020600020905b815481529060010190602001808311610d0f57829003601f168201915b505050505081526020019060010190610c9d565b505050508152602001600c8201548152602001600d8201548152505081526020019060010190610bed565b5050505081526020016004820154815260200160058201548152602001600682015481525050905092915050565b610da281613817565b610dab81613856565b610db482612bd4565b610dd05760405162461bcd60e51b8152600401610aed90615501565b6001600160a01b038216600090815260126020526040902054610100900460ff16610e335760405162461bcd60e51b81526020600482015260136024820152722a37b5b2b7103737ba103b32b934b334b2b21760691b6044820152606401610aed565b506001600160a01b03166000908152601260205260409020805462ff0000191662010000179055565b610e6581613817565b610e6e81613856565b610e7782612bd4565b610e935760405162461bcd60e51b8152600401610aed90615501565b506001600160a01b03166000908152601260205260409020805460ff19166001179055565b610ec53383836001613860565b505050565b610ed26149f7565b6001600160a01b03821660009081526012602090815260409182902082516101c081018452815460ff8082161515835261010082048116151594830194909452620100009004909216151592820192909252600182018054919291606084019190610f3c906154c7565b80601f0160208091040260200160405190810160405280929190818152602001828054610f68906154c7565b8015610fb55780601f10610f8a57610100808354040283529160200191610fb5565b820191906000526020600020905b815481529060010190602001808311610f9857829003601f168201915b5050505050815260200160028201548152602001600382015481526020016004820154815260200160058201548152602001600682015481526020016007820160009054906101000a90046001600160a01b03166001600160a01b03166001600160a01b031681526020016008820160009054906101000a90046001600160a01b03166001600160a01b03166001600160a01b03168152602001600982016040518060c001604052908160008201548152602001600182015481526020016002820154815260200160038201548152602001600482015481526020016005820154815250508152602001600f82015481526020016010820154815250509050919050565b6000546001600160a01b031633146110e35760405162461bcd60e51b8152600401610aed90615492565b6001600160a01b03166000908152600e60205260409020805460ff19169055565b61110d82613817565b61111681613856565b506001600160a01b0391821660009081526010602090815260408083209390941682529190915220805460ff19169055565b6001600160a01b038083166000908152601260209081526040808320600301546015835281842094861684529390915281206001015490916111939161118e9190615546565b613a71565b9392505050565b6000546001600160a01b031633146111c45760405162461bcd60e51b8152600401610aed90615492565b600280546001600160a01b0319166001600160a01b0392909216919091179055565b6000546001600160a01b031633146112105760405162461bcd60e51b8152600401610aed90615492565b600391909155600455565b6000828152600160208190526040909120015461123781613856565b610ec58383613a85565b61124a82613817565b61125381613856565b61125c83612bd4565b6112785760405162461bcd60e51b8152600401610aed90615501565b600082116112985760405162461bcd60e51b8152600401610aed90615565565b816001600160a01b0384166370a08231336040516001600160e01b031960e084901b1681526001600160a01b039091166004820152602401602060405180830381865afa1580156112ed573d6000803e3d6000fd5b505050506040513d601f19601f8201168201806040525081019061131191906155a6565b101561135f5760405162461bcd60e51b815260206004820152601c60248201527f496e73756666696369656e742077616c6c65742062616c616e63652e000000006044820152606401610aed565b60008061138c85856040518060400160405280600781526020016619195c1bdcda5d60ca1b815250611bcd565b9150915081600014611411576002546040516323b872dd60e01b81526001600160a01b03878116926323b872dd926113cc923392169087906004016155bf565b6020604051808303816000875af11580156113eb573d6000803e3d6000fd5b505050506040513d601f19601f8201168201806040525081019061140f91906155e3565b505b600061141d8386615605565b6040516323b872dd60e01b81529091506001600160a01b038716906323b872dd90611450903390309086906004016155bf565b6020604051808303816000875af115801561146f573d6000803e3d6000fd5b505050506040513d601f19601f8201168201806040525081019061149391906155e3565b506001600160a01b038616600090815260126020526040812060040180548392906114bf90849061561c565b9091555050505050505050565b6001600160a01b03811660009081526012602052604081206003810154600490910154610b359161118e91615546565b6001600160a01b038116331461156c5760405162461bcd60e51b815260206004820152602f60248201527f416363657373436f6e74726f6c3a2063616e206f6e6c792072656e6f756e636560448201526e103937b632b9903337b91039b2b63360891b6064820152608401610aed565b6115768282613af0565b5050565b600f6020526000908152604090208054611593906154c7565b80601f01602080910402602001604051908101604052809291908181526020018280546115bf906154c7565b801561160c5780601f106115e15761010080835404028352916020019161160c565b820191906000526020600020905b8154815290600101906020018083116115ef57829003601f168201915b505050505081565b6000546001600160a01b0316331461163e5760405162461bcd60e51b8152600401610aed90615492565b61164781612bd4565b6116635760405162461bcd60e51b8152600401610aed90615501565b6001600160a01b03166000908152601260205260409020805461ff001916610100179055565b6000546001600160a01b031633146116b35760405162461bcd60e51b8152600401610aed90615492565b6116bc82612bd4565b6116d85760405162461bcd60e51b8152600401610aed90615501565b6001600160a01b039091166000908152601260205260409020600381019190915542601090910155565b6060601380548060200260200160405190810160405280929190818152602001828054801561175a57602002820191906000526020600020905b81546001600160a01b0316815260019091019060200180831161173c575b5050505050905090565b6000546001600160a01b0316331461178e5760405162461bcd60e51b8152600401610aed90615492565b61179782612bd4565b6117b35760405162461bcd60e51b8152600401610aed90615501565b600080546001600160a01b0384811683526012602052604090922060080154821691161461180a5761180a6117e783613817565b6001600160a01b0380851660009081526012602052604090206008015416612f41565b6001600160a01b0382811660009081526012602052604090206008810180546001600160a01b031916928416929092179091554260109091015561157661185083613817565b6001600160a01b038085166000908152601260205260409020600801541661121b565b6011818154811061188357600080fd5b6000918252602090912001546001600160a01b0316905081565b6001600160a01b03811660009081526012602052604090205460ff166118d55760405162461bcd60e51b8152600401610aed90615634565b61192581336040805160808101825260148183019081527318db185a5b481cdd185ada5b99c81c995dd85c9960621b60608301528152815160208181019093526000815291810191909152613b57565b50565b6000546001600160a01b031633146119525760405162461bcd60e51b8152600401610aed90615492565b6000828152600f602090815260409091208251610ec592840190614ab5565b61197a83613817565b61198381613856565b6119ac8484846040518060400160405280600581526020016430b236b4b760d91b8152506140f0565b50505050565b6119bb82612bd4565b611a075760405162461bcd60e51b815260206004820152601c60248201527f52657761726420746f6b656e20646f6573206e6f742065786973742e000000006044820152606401610aed565b60008111611a275760405162461bcd60e51b8152600401610aed90615565565b6001600160a01b0382166000908152601560209081526040808320338452909152902054811115611a9a5760405162461bcd60e51b815260206004820152601c60248201527f496e73756666696369656e74207265776172642062616c616e63652e000000006044820152606401610aed565b6001600160a01b038216600090815260156020908152604080832033845290915281208054839290611acd908490615605565b90915550506001600160a01b03821660008181526015602090815260408083203380855292529091204260069091015563a9059cbb906040516001600160e01b031960e084901b1681526001600160a01b039091166004820152602481018490526044016020604051808303816000875af1158015611b50573d6000803e3d6000fd5b505050506040513d601f19601f82011682018060405250810190610ec591906155e3565b611b7d81613817565b611b8681613856565b611b8f82612bd4565b611bab5760405162461bcd60e51b8152600401610aed90615501565b506001600160a01b03166000908152601260205260409020805460ff19169055565b600080611bd985612bd4565b611bf55760405162461bcd60e51b8152600401610aed90615501565b60008411611c155760405162461bcd60e51b8152600401610aed90615565565b600080604051602001611c35906619195c1bdcda5d60ca1b815260070190565b6040516020818303038152906040528051906020012085604051602001611c5c919061565f565b6040516020818303038152906040528051906020012003611cc6576001600160a01b038716600090815260126020526040902060090154600110611ca257600d54611cbf565b6001600160a01b0387166000908152601260205260409020600901545b9150611f4b565b60405167776974686472617760c01b60208201526028016040516020818303038152906040528051906020012085604051602001611d04919061565f565b6040516020818303038152906040528051906020012003611d6d576001600160a01b0387166000908152601260205260409020600a0154600110611d4a57600d54611cbf565b6001600160a01b0387166000908152601260205260409020600a01549150611f4b565b604051647374616b6560d81b60208201526025016040516020818303038152906040528051906020012085604051602001611da8919061565f565b6040516020818303038152906040528051906020012003611e5d576001600160a01b0387166000908152601260205260409020600b0154600110611dee57600a54611e0b565b6001600160a01b0387166000908152601260205260409020600b01545b6001600160a01b0388166000908152601260205260409020600d0154909250600110611e3957600a54611e56565b6001600160a01b0387166000908152601260205260409020600d01545b9050611f4b565b60405166756e7374616b6560c81b60208201526027016040516020818303038152906040528051906020012085604051602001611e9a919061565f565b6040516020818303038152906040528051906020012003611f4b576001600160a01b0387166000908152601260205260409020600c0154600110611ee057600a54611efd565b6001600160a01b0387166000908152601260205260409020600c01545b6001600160a01b0388166000908152601260205260409020600e0154909250600110611f2b57600a54611f48565b6001600160a01b0387166000908152601260205260409020600e01545b90505b6000611f578388614307565b90506000611f658389614307565b336000818152600e60209081526040808320546001600160a01b038f168452601083528184209484529390915290205491925060ff90811691168115611fb2576000935060009250611fbd565b8015611fbd57600092505b5091999098509650505050505050565b611fd682612bd4565b611ff25760405162461bcd60e51b8152600401610aed90615501565b600081116120125760405162461bcd60e51b8152600401610aed90615565565b6001600160a01b03821660009081526015602090815260408083203384529091529020600101548111156120885760405162461bcd60e51b815260206004820152601d60248201527f496e73756666696369656e74207374616b696e672062616c616e63652e0000006044820152606401610aed565b6120ce823360408051608081018252600791810191825266756e7374616b6560c81b6060820152908152602081016120c76120c287613a71565b614328565b9052613b57565b6001600160a01b038216600090815260156020908152604080832033845290915290206001015481900361217c57336000908152601460205260409020600190810154900361212f57336000908152601460205260409020805460ff191690555b33600090815260146020526040812060010180549161214d8361567b565b9190505550426014600061215e3390565b6001600160a01b031681526020810191909152604001600020600301555b6001600160a01b0382166000908152601560209081526040808320338452909152812060010180548392906121b2908490615605565b90915550506001600160a01b03821660008181526015602090815260408083203384528252808320426006909101559282526012905290812060050180548392906121fe908490615605565b925050819055504260126000846001600160a01b03166001600160a01b031681526020019081526020016000206010018190555060008061225f848460405180604001604052806007815260200166756e7374616b6560c81b815250611bcd565b91509150816000146122e45760025460405163a9059cbb60e01b81526001600160a01b039182166004820152602481018490529085169063a9059cbb906044016020604051808303816000875af11580156122be573d6000803e3d6000fd5b505050506040513d601f19601f820116820180604052508101906122e291906155e3565b505b8015612372576001600160a01b038481166000818152601260205260409081902060080154905163a9059cbb60e01b815292166004830152602482018390529063a9059cbb906044016020604051808303816000875af115801561234c573d6000803e3d6000fd5b505050506040513d601f19601f8201168201806040525081019061237091906155e3565b505b600061237e828461561c565b6123889085615605565b90506001600160a01b03851663a9059cbb336040516001600160e01b031960e084901b1681526001600160a01b039091166004820152602481018490526044016020604051808303816000875af11580156123e7573d6000803e3d6000fd5b505050506040513d601f19601f8201168201806040525081019061240b91906155e3565b505050505050565b6000546001600160a01b0316331461243d5760405162461bcd60e51b8152600401610aed90615492565b6124476000614431565b565b61245282613817565b61245b81613856565b61246483612bd4565b6124805760405162461bcd60e51b8152600401610aed90615501565b600554821080159061249457506006548211155b6124a56120c2600260030154613a71565b6124b66120c2600260040154613a71565b6040516020016124c7929190615692565b604051602081830303815290604052906124f45760405162461bcd60e51b8152600401610aed91906150f4565b50506001600160a01b039091166000908152601260205260409020600681019190915542601090910155565b600280546001600160a01b03191633178155600355600f6004556125446032614481565b6005556125526103e8614481565b60065561255f6064614481565b6007556000600855612571600a614481565b60095561257e6001614481565b600a9081556000600b5561259190614481565b600c5561259e6001614481565b600d556125ac600033614495565b61244733614431565b6000546001600160a01b031633146125df5760405162461bcd60e51b8152600401610aed90615492565b610ec5838383604051806040016040528060038152602001623232bb60e91b8152506140f0565b60009182526001602090815260408084206001600160a01b0393909316845291905290205460ff1690565b61263a87612bd4565b1561267f5760405162461bcd60e51b81526020600482015260156024820152742a37b5b2b71030b63932b0b23c9032bc34b9ba399760591b6044820152606401610aed565b61269c61268b88613817565b6000546001600160a01b0316614495565b6126ae6126a888613817565b33614495565b6011805460018082019092557f31ecc21a745e3968a04e9570e4425bc18fa8019c68028196b546d1669c200c680180546001600160a01b038a166001600160a01b0319918216811790925560009182526012602052604090912060028101889055600881018054909216331790915560098101829055600a8101829055600b8101829055600c81019190915542600f9091015561274b8787612d6b565b6127558785612449565b61275f8782612c8e565b61276a878484611971565b50505050505050565b61277c82613817565b61278581613856565b61278e83612bd4565b6127aa5760405162461bcd60e51b8152600401610aed90615501565b600082116127ca5760405162461bcd60e51b8152600401610aed90615565565b6001600160a01b0383166000908152601260205260409020600401548211156128355760405162461bcd60e51b815260206004820152601c60248201527f496e73756666696369656e74207265776172642062616c616e63652e000000006044820152606401610aed565b6001600160a01b03831660009081526012602052604081206004018054849290612860908490615605565b92505081905550600080612895858560405180604001604052806008815260200167776974686472617760c01b815250611bcd565b915091508160001461291a5760025460405163a9059cbb60e01b81526001600160a01b039182166004820152602481018490529086169063a9059cbb906044016020604051808303816000875af11580156128f4573d6000803e3d6000fd5b505050506040513d601f19601f8201168201806040525081019061291891906155e3565b505b60006129268386615605565b90506001600160a01b03861663a9059cbb336040516001600160e01b031960e084901b1681526001600160a01b039091166004820152602481018490526044016020604051808303816000875af1158015612985573d6000803e3d6000fd5b505050506040513d601f19601f8201168201806040525081019061276a91906155e3565b6000546001600160a01b031633146129d35760405162461bcd60e51b8152600401610aed90615492565b600592909255600655600755565b6129ea82613817565b6129f381613856565b506001600160a01b0391821660009081526010602090815260408083209390941682529190915220805460ff19166001179055565b6060601180548060200260200160405190810160405280929190818152602001828054801561175a576020028201919060005260206000209081546001600160a01b0316815260019091019060200180831161173c575050505050905090565b6012602052600090815260409020805460018201805460ff808416946101008504821694620100009004909116929091612ac1906154c7565b80601f0160208091040260200160405190810160405280929190818152602001828054612aed906154c7565b8015612b3a5780601f10612b0f57610100808354040283529160200191612b3a565b820191906000526020600020905b815481529060010190602001808311612b1d57829003601f168201915b50505060028401546003850154600486015460058701546006880154600789015460088a01546040805160c08101825260098d01548152600a8d01546020820152600b8d015491810191909152600c8c01546060820152600d8c01546080820152600e8c015460a0820152600f8c01546010909c01549a9b979a969950949750929591946001600160a01b0391821694939091169291908e565b6000805b601154811015612c3457826001600160a01b031660118281548110612bff57612bff61570b565b6000918252602090912001546001600160a01b031603612c225750600192915050565b80612c2c81615721565b915050612bd8565b50600092915050565b6000546001600160a01b03163314612c675760405162461bcd60e51b8152600401610aed90615492565b610ec5838383604051806040016040528060038152602001623232bb60e91b81525061449f565b612c9782613817565b612ca081613856565b612ca982613817565b612cb281613856565b612cbb84612bd4565b612cd75760405162461bcd60e51b8152600401610aed90615501565b612ce083612bd4565b612d2c5760405162461bcd60e51b815260206004820152601c60248201527f52657761726420746f6b656e20646f6573206e6f742065786973742e000000006044820152606401610aed565b50506001600160a01b0391821660009081526012602052604090206007810180546001600160a01b031916929093169190911790915542601090910155565b612d7482613817565b612d7d81613856565b612d8683612bd4565b612da25760405162461bcd60e51b8152600401610aed90615501565b600354825110801590612db85750600454825111155b600354612dc490614328565b600454612dd090614328565b604051602001612de192919061573a565b60405160208183030381529060405290612e0e5760405162461bcd60e51b8152600401610aed91906150f4565b506001600160a01b03831660009081526012602090815260409091208351612e3e92600190920191850190614ab5565b5050506001600160a01b0316600090815260126020526040902042601090910155565b612e8e60405180608001604052806000151581526020016000815260200160008152602001600081525090565b506001600160a01b03166000908152601460209081526040918290208251608081018452815460ff1615158152600182015492810192909252600281015492820192909252600390910154606082015290565b6000805b601354811015612c3457826001600160a01b031660138281548110612f0c57612f0c61570b565b6000918252602090912001546001600160a01b031603612f2f5750600192915050565b80612f3981615721565b915050612ee5565b60008281526001602081905260409091200154612f5d81613856565b610ec58383613af0565b612f7081613817565b612f7981613856565b612f8282612bd4565b612f9e5760405162461bcd60e51b8152600401610aed90615501565b506001600160a01b03166000908152601260205260409020805462ff000019169055565b6000546001600160a01b03163314612fec5760405162461bcd60e51b8152600401610aed90615492565b612ff581612bd4565b6130115760405162461bcd60e51b8152600401610aed90615501565b6001600160a01b03166000908152601260205260409020805461ff0019169055565b6000546001600160a01b0316331461305d5760405162461bcd60e51b8152600401610aed90615492565b6001600160a01b03166000908152600e60205260409020805460ff19166001179055565b6000546001600160a01b031633146130ab5760405162461bcd60e51b8152600401610aed90615492565b600892909255600955600a55565b6130c282613817565b6130cb81613856565b6130d483612bd4565b6130f05760405162461bcd60e51b8152600401610aed90615501565b506001600160a01b039091166000908152601260205260409020600281019190915542601090910155565b6000546001600160a01b031633146131455760405162461bcd60e51b8152600401610aed90615492565b6001600160a01b0381166131aa5760405162461bcd60e51b815260206004820152602660248201527f4f776e61626c653a206e6577206f776e657220697320746865207a65726f206160448201526564647265737360d01b6064820152608401610aed565b61192581614431565b6000546001600160a01b031633146131dd5760405162461bcd60e51b8152600401610aed90615492565b60405163a9059cbb60e01b81526001600160a01b0383811660048301526024820183905284169063a9059cbb906044016020604051808303816000875af115801561322c573d6000803e3d6000fd5b505050506040513d601f19601f820116820180604052508101906119ac91906155e3565b6001600160a01b03821660009081526012602052604090205460ff166132885760405162461bcd60e51b8152600401610aed90615634565b600081116132a85760405162461bcd60e51b8152600401610aed90615565565b806001600160a01b0383166370a08231336040516001600160e01b031960e084901b1681526001600160a01b039091166004820152602401602060405180830381865afa1580156132fd573d6000803e3d6000fd5b505050506040513d601f19601f8201168201806040525081019061332191906155a6565b101561336f5760405162461bcd60e51b815260206004820152601c60248201527f496e73756666696369656e742077616c6c65742062616c616e63652e000000006044820152606401610aed565b60008061339a8484604051806040016040528060058152602001647374616b6560d81b815250611bcd565b915091508160001461341f576002546040516323b872dd60e01b81526001600160a01b03868116926323b872dd926133da923392169087906004016155bf565b6020604051808303816000875af11580156133f9573d6000803e3d6000fd5b505050506040513d601f19601f8201168201806040525081019061341d91906155e3565b505b80156134af576001600160a01b03848116600081815260126020526040908190206008015490516323b872dd60e01b815291926323b872dd9261346a923392169086906004016155bf565b6020604051808303816000875af1158015613489573d6000803e3d6000fd5b505050506040513d601f19601f820116820180604052508101906134ad91906155e3565b505b60006134bb828461561c565b6134c59085615605565b6040516323b872dd60e01b81529091506001600160a01b038616906323b872dd906134f8903390309086906004016155bf565b6020604051808303816000875af1158015613517573d6000803e3d6000fd5b505050506040513d601f19601f8201168201806040525081019061353b91906155e3565b506001600160a01b038516600090815260156020908152604080832033845290915281206001015490036136b3573360009081526014602052604081206001015490036135b35761358b33612ee1565b6135985761359833614699565b336000908152601460205260409020805460ff191660011790555b3360009081526014602052604081206001018054916135d183615721565b9190505550601460006135e13390565b6001600160a01b031681526020810191909152604001600020600201541561362057336000908152601460205260409020426003909101819055613639565b3360009081526014602052604090204260029091018190555b506001600160a01b038581166000908152601560209081526040808320338452909152902060020154166136ae576001600160a01b038581166000908152601260209081526040808320600701546015835281842033855290925290912060020180546001600160a01b031916919092161790555b6136eb565b6136eb8533604080516080810182526005918101918252647374616b6560d81b6060820152908152602081016120c76120c28a613a71565b6001600160a01b03851660009081526015602090815260408083203384529091528120600101805483929061372190849061561c565b90915550506001600160a01b038516600090815260156020908152604080832033845290915290206005015415613783576001600160a01b038516600090815260156020908152604080832033845290915290204260069091018190556137b0565b6001600160a01b038516600090815260156020908152604080832033845290915290204260059091018190555b506001600160a01b038516600090815260126020526040812060050180548392906137dc90849061561c565b9091555050506001600160a01b03909316600090815260126020526040902042601090910155505050565b6013818154811061188357600080fd5b6040516bffffffffffffffffffffffff19606083901b166020820152600090603401604051602081830303815290604052805190602001209050919050565b6119258133614749565b60008115613a0d576001600160a01b03841660009081526012602052604090205460ff166138a05760405162461bcd60e51b8152600401610aed90615634565b6001600160a01b03841660009081526012602052604090205462010000900460ff1661391f5760405162461bcd60e51b815260206004820152602860248201527f546f6b656e20646f6573206e6f742068617665206d756c746920746f6b656e206044820152673932bbb0b932399760c11b6064820152608401610aed565b6001600160a01b03831660009081526012602052604090205460ff166139875760405162461bcd60e51b815260206004820152601860248201527f52657761726420746f6b656e206e6f74206163746976652e00000000000000006044820152606401610aed565b6001600160a01b03831660009081526012602052604090205462010000900460ff16613a0d5760405162461bcd60e51b815260206004820152602f60248201527f52657761726420746f6b656e20646f6573206e6f742068617665206d756c746960448201526e103a37b5b2b7103932bbb0b932399760891b6064820152608401610aed565b613a1685612ee1565b613a2357613a2385614699565b50506001600160a01b0391821660009081526015602090815260408083209585168352949052929092206002810180546001600160a01b031916939092169283179091554260069091015590565b6000610b35670de0b6b3a7640000836157d2565b613a8f8282612606565b6115765760008281526001602081815260408084206001600160a01b0386168086529252808420805460ff19169093179092559051339285917f2f8788117e7eff1d82e926ec794901d17c78024a50270940304540a733656f0d9190a45050565b613afa8282612606565b156115765760008281526001602090815260408083206001600160a01b0385168085529252808320805460ff1916905551339285917ff6391f5c32d9c69d2a47ea670b442974b53935d1edc7fd64eb21e047a839171b9190a45050565b6001600160a01b03831660009081526012602052604090205460ff16613b7c57505050565b6001600160a01b03821660009081526014602052604090205460ff16613ba157505050565b60405163d6c2074760e01b81523060048201526001600160a01b03808516602483015283166044820152600090819081908190819073__$a7d6485c38e7d9de487c3737fec92217c9$__9063d6c207479060640160a060405180830381865af4158015613c12573d6000803e3d6000fd5b505050506040513d601f19601f82011682018060405250810190613c3691906157e6565b9450945094509450945084600003613c52575050505050505050565b6001600160a01b03808916600090815260126020526040808220600701549092168082529190205460ff16613c8c57505050505050505050565b6000613c97826114cc565b905086811015613cb657613caa8a611b74565b50505050505050505050565b6001600160a01b038216600090815260126020526040812060030154839181613cde8b614481565b613ce891906157d2565b90506000601560008f6001600160a01b03166001600160a01b0316815260200190815260200160002060008e6001600160a01b03166001600160a01b0316815260200190815260200160002060020160009054906101000a90046001600160a01b03169050836001600160a01b0316816001600160a01b031614613e02576001600160a01b03811660009081526012602052604090205460ff1615613e02576000613d92826114cc565b90508b8110613e00576001600160a01b0380831660009081526012602052604090206008015416613dc48685836147ad565b6001600160a01b038316600090815260126020526040902060030154929550919350849184613df28e614481565b613dfc91906157d2565b9350505b505b50613e0e83828e6147ad565b42601560008f6001600160a01b03166001600160a01b0316815260200190815260200160002060008e6001600160a01b03166001600160a01b0316815260200190815260200160002060040181905550613e66614b39565b601560008f6001600160a01b03166001600160a01b0316815260200190815260200160002060008e6001600160a01b03166001600160a01b03168152602001908152602001600020600301805490508160000181815250508c81602001906001600160a01b031690816001600160a01b0316815250508381604001906001600160a01b031690816001600160a01b03168152505082816060018181525050818160800181815250508d8160a001906001600160a01b031690816001600160a01b031681525050868160c0018181525050878160e0018181525050888161010001818152505089816101200181815250508b8161014001819052504281610160018181525050601560008f6001600160a01b03166001600160a01b0316815260200190815260200160002060008e6001600160a01b03166001600160a01b031681526020019081526020016000206003018190806001815401808255809150506001900390600052602060002090600e02016000909190919091506000820151816000015560208201518160010160006101000a8154816001600160a01b0302191690836001600160a01b0316021790555060408201518160020160006101000a8154816001600160a01b0302191690836001600160a01b03160217905550606082015181600301556080820151816004015560a08201518160050160006101000a8154816001600160a01b0302191690836001600160a01b0316021790555060c0820151816006015560e082015181600701556101008201518160080155610120820151816009015561014082015181600a019060026140c7929190614bae565b5061016082015181600c015561018082015181600d015550505050505050505050505050505050565b6140f984612bd4565b6141155760405162461bcd60e51b8152600401610aed90615501565b600854831080159061412957506009548311155b61413a6120c2600260060154613a71565b61414b6120c2600260070154613a71565b60405160200161415c929190615826565b604051602081830303815290604052906141895760405162461bcd60e51b8152600401610aed91906150f4565b50600854821080159061419e57506009548211155b6141af6120c2600260060154613a71565b6141c06120c2600260070154613a71565b6040516020016141d19291906158a0565b604051602081830303815290604052906141fe5760405162461bcd60e51b8152600401610aed91906150f4565b50604051623232bb60e91b60208201526023016040516020818303038152906040528051906020012081604051602001614238919061565f565b604051602081830303815290604052805190602001200361427d576001600160a01b0384166000908152601260205260409020600b8101849055600c01829055612e3e565b6040516430b236b4b760d91b602082015260250160405160208183030381529060405280519060200120816040516020016142b8919061565f565b6040516020818303038152906040528051906020012003612e3e57506001600160a01b03929092166000908152601260205260409020600d810191909155600e81019190915542601090910155565b6000826143146064614481565b61431e90846157d2565b6111939190615546565b60608160000361434f5750506040805180820190915260018152600360fc1b602082015290565b8160005b8115614379578061436381615721565b91506143729050600a836157d2565b9150614353565b60008167ffffffffffffffff81111561439457614394615154565b6040519080825280601f01601f1916602001820160405280156143be576020820181803683370190505b5090505b8415614429576143d3600183615605565b91506143e0600a866158d8565b6143eb90603061561c565b60f81b8183815181106144005761440061570b565b60200101906001600160f81b031916908160001a905350614422600a866157d2565b94506143c2565b949350505050565b600080546001600160a01b038381166001600160a01b0319831681178455604051919092169283917f8be0079c531659141344cd1fd0a4f28419497f9722a3daafe3b4186f6b6457e09190a35050565b6000610b3582670de0b6b3a7640000615546565b6115768282613a85565b6144a884612bd4565b6144c45760405162461bcd60e51b8152600401610aed90615501565b600b5483108015906144d85750600c548311155b6144e96120c2600260090154613a71565b6144fa6120c26002600a0154613a71565b60405160200161450b9291906158ec565b604051602081830303815290604052906145385760405162461bcd60e51b8152600401610aed91906150f4565b50600b54821080159061454d5750600c548211155b61455e6120c2600260090154613a71565b61456f6120c26002600a0154613a71565b604051602001614580929190615924565b604051602081830303815290604052906145ad5760405162461bcd60e51b8152600401610aed91906150f4565b50604051623232bb60e91b602082015260230160405160208183030381529060405280519060200120816040516020016145e7919061565f565b604051602081830303815290604052805190602001200361462c576001600160a01b038416600090815260126020526040902060098101849055600a01829055612e3e565b6040516430b236b4b760d91b60208201526025016040516020818303038152906040528051906020012081604051602001614667919061565f565b60408051601f1981840301905252505050506001600160a01b0316600090815260126020526040902042601090910155565b6146a281612ee1565b156146e85760405162461bcd60e51b815260206004820152601660248201527529ba30b5b2b91030b63932b0b23c9032bc34b9ba399760511b6044820152606401610aed565b60138054600181019091557f66de8ffda797e3de9c05e8fc57b3bf0ec28a930d40b0d285d93c06501cf6a0900180546001600160a01b039092166001600160a01b031990921682179055600090815260146020526040902042600290910155565b6147538282612606565b6115765761476b816001600160a01b0316601461485b565b61477683602061485b565b60405160200161478792919061599d565b60408051601f198184030181529082905262461bcd60e51b8252610aed916004016150f4565b6001600160a01b038316600090815260126020526040812060040180548492906147d8908490615605565b90915550506001600160a01b03808416600090815260126020908152604080832042601090910155601582528083209385168352929052908120805484929061482290849061561c565b90915550506001600160a01b03928316600090815260156020908152604080832093909516825291909152919091204260069091015550565b6060600061486a836002615546565b61487590600261561c565b67ffffffffffffffff81111561488d5761488d615154565b6040519080825280601f01601f1916602001820160405280156148b7576020820181803683370190505b509050600360fc1b816000815181106148d2576148d261570b565b60200101906001600160f81b031916908160001a905350600f60fb1b816001815181106149015761490161570b565b60200101906001600160f81b031916908160001a9053506000614925846002615546565b61493090600161561c565b90505b60018111156149a8576f181899199a1a9b1b9c1cb0b131b232b360811b85600f16601081106149645761496461570b565b1a60f81b82828151811061497a5761497a61570b565b60200101906001600160f81b031916908160001a90535060049490941c936149a18161567b565b9050614933565b5083156111935760405162461bcd60e51b815260206004820181905260248201527f537472696e67733a20686578206c656e67746820696e73756666696369656e746044820152606401610aed565b604051806101c0016040528060001515815260200160001515815260200160001515815260200160608152602001600081526020016000815260200160008152602001600081526020016000815260200160006001600160a01b0316815260200160006001600160a01b03168152602001614aa16040518060c001604052806000815260200160008152602001600081526020016000815260200160008152602001600081525090565b815260200160008152602001600081525090565b828054614ac1906154c7565b90600052602060002090601f016020900481019282614ae35760008555614b29565b82601f10614afc57805160ff1916838001178555614b29565b82800160010185558215614b29579182015b82811115614b29578251825591602001919060010190614b0e565b50614b35929150614bfa565b5090565b604051806101a001604052806000815260200160006001600160a01b0316815260200160006001600160a01b03168152602001600081526020016000815260200160006001600160a01b0316815260200160008152602001600081526020016000815260200160008152602001614aa1614c0f565b8260028101928215614bee579160200282015b82811115614bee5782518051614bde918491602090910190614ab5565b5091602001919060010190614bc1565b50614b35929150614c36565b5b80821115614b355760008155600101614bfb565b60405180604001604052806002905b6060815260200190600190039081614c1e5790505090565b80821115614b35576000614c4a8282614c53565b50600101614c36565b508054614c5f906154c7565b6000825580601f10614c6f575050565b601f0160209004906000526020600020908101906119259190614bfa565b600080600060608486031215614ca257600080fd5b505081359360208301359350604090920135919050565b600060208284031215614ccb57600080fd5b81356001600160e01b03198116811461119357600080fd5b80356001600160a01b0381168114614cfa57600080fd5b919050565b60008060408385031215614d1257600080fd5b614d1b83614ce3565b9150614d2960208401614ce3565b90509250929050565b60005b83811015614d4d578181015183820152602001614d35565b838111156119ac5750506000910152565b60008151808452614d76816020860160208601614d32565b601f01601f19169290920160200192915050565b600082604081018360005b6002811015614dc4578383038752614dae838351614d5e565b6020978801979093509190910190600101614d95565b509095945050505050565b600060208083526101008084018551838601528286015160408181880152808801519150606060018060a01b0383168189015280890151925060e0608081818b01528585518088526101209750878c019150878160051b8d01018a8801975060005b82811015614ef05761011f198e83030184528851805183528c8101516001600160a01b039081168e8501528982015181168a8501528882015189850152868201518785015260a0808301519091169084015260c0808201519084015286810151878401528b8101518c8401528a8101518b840152610140808201516101a08286018190529190614ec383870182614d8a565b6101608581015190880152610180948501519490960193909352505050978b0197928b0192600101614e31565b50838e015160a08e015260a08e015160c08e015260c08e0151858e0152809b50505050505050505050505092915050565b600060208284031215614f3357600080fd5b61119382614ce3565b60208152614f4f60208201835115159052565b60006020830151614f64604084018215159052565b5060408301518015156060840152506060830151610260806080850152614f8f610280850183614d5e565b9150608085015160a085015260a085015160c085015260c085015160e085015260e0850151610100818187015280870151915050610120818187015280870151915050610140614fe9818701836001600160a01b03169052565b8601519050610160615005868201836001600160a01b03169052565b860151905061018061504e86820183805182526020810151602083015260408101516040830152606081015160608301526080810151608083015260a081015160a08301525050565b860151610240860152506101a0909401519390920192909252919050565b60006020828403121561507e57600080fd5b5035919050565b6000806040838503121561509857600080fd5b50508035926020909101359150565b600080604083850312156150ba57600080fd5b82359150614d2960208401614ce3565b600080604083850312156150dd57600080fd5b6150e683614ce3565b946020939093013593505050565b6020815260006111936020830184614d5e565b6020808252825182820181905260009190848201906040850190845b818110156151485783516001600160a01b031683529284019291840191600101615123565b50909695505050505050565b634e487b7160e01b600052604160045260246000fd5b600082601f83011261517b57600080fd5b813567ffffffffffffffff8082111561519657615196615154565b604051601f8301601f19908116603f011681019082821181831017156151be576151be615154565b816040528381528660208588010111156151d757600080fd5b836020870160208301376000602085830101528094505050505092915050565b6000806040838503121561520a57600080fd5b82359150602083013567ffffffffffffffff81111561522857600080fd5b6152348582860161516a565b9150509250929050565b60008060006060848603121561525357600080fd5b61525c84614ce3565b95602085013595506040909401359392505050565b60008060006060848603121561528657600080fd5b61528f84614ce3565b925060208401359150604084013567ffffffffffffffff8111156152b257600080fd5b6152be8682870161516a565b9150509250925092565b600080600080600080600060e0888a0312156152e357600080fd5b6152ec88614ce3565b9650602088013567ffffffffffffffff81111561530857600080fd5b6153148a828b0161516a565b96505060408801359450606088013593506080880135925060a0880135915061533f60c08901614ce3565b905092959891949750929550565b8e151581528d151560208201528c151560408201526102606060820152600061537a61026083018e614d5e565b90508b60808301528a60a08301528960c08301528860e0830152876101008301526153b16101208301886001600160a01b03169052565b6001600160a01b0386166101408301528451610160830152602085015161018083015260408501516101a083015260608501516101c083015260808501516101e083015260a085015161020083015261022082019390935261024001529c9b505050505050505050505050565b6000806040838503121561543157600080fd5b61543a83614ce3565b9150602083013567ffffffffffffffff81111561522857600080fd5b60008060006060848603121561546b57600080fd5b61547484614ce3565b925061548260208501614ce3565b9150604084013590509250925092565b6020808252818101527f4f776e61626c653a2063616c6c6572206973206e6f7420746865206f776e6572604082015260600190565b600181811c908216806154db57607f821691505b6020821081036154fb57634e487b7160e01b600052602260045260246000fd5b50919050565b6020808252601590820152742a37b5b2b7103237b2b9903737ba1032bc34b9ba1760591b604082015260600190565b634e487b7160e01b600052601160045260246000fd5b600081600019048311821515161561556057615560615530565b500290565b60208082526021908201527f416d6f756e74206d7573742062652067726561746572207468616e207a65726f6040820152601760f91b606082015260800190565b6000602082840312156155b857600080fd5b5051919050565b6001600160a01b039384168152919092166020820152604081019190915260600190565b6000602082840312156155f557600080fd5b8151801515811461119357600080fd5b60008282101561561757615617615530565b500390565b6000821982111561562f5761562f615530565b500190565b6020808252601190820152702a37b5b2b7103737ba1030b1ba34bb329760791b604082015260600190565b60008251615671818460208701614d32565b9190910192915050565b60008161568a5761568a615530565b506000190190565b7f5374616b696e6720415052206d757374206265206265747765656e20000000008152600083516156ca81601c850160208801614d32565b650129030b732160d51b601c9184019182015283516156f0816022840160208801614d32565b61129760f11b60229290910191820152602401949350505050565b634e487b7160e01b600052603260045260246000fd5b60006001820161573357615733615530565b5060010190565b7f546f6b656e206e616d65206c656e677468206d75737420626520626574776565815261037160f51b60208201526000835161577d816022850160208801614d32565b6401030b732160dd1b60229184019182015283516157a2816027840160208801614d32565b601760f91b60279290910191820152602801949350505050565b634e487b7160e01b600052601260045260246000fd5b6000826157e1576157e16157bc565b500490565b600080600080600060a086880312156157fe57600080fd5b5050835160208501516040860151606087015160809097015192989197509594509092509050565b7f5374616b6520666565206d757374206265206265747765656e2000000000000081526000835161585e81601a850160208801614d32565b8083019050650129030b732160d51b601a8201528351615885816020840160208801614d32565b61129760f11b60209290910191820152602201949350505050565b7f556e7374616b6520666565206d757374206265206265747765656e20000000008152600083516156ca81601c850160208801614d32565b6000826158e7576158e76157bc565b500690565b7f4465706f73697420666565206d757374206265206265747765656e20000000008152600083516156ca81601c850160208801614d32565b7f576974686472617720666565206d757374206265206265747765656e2000000081526000835161595c81601d850160208801614d32565b650129030b732160d51b601d918401918201528351615982816023840160208801614d32565b61129760f11b60239290910191820152602501949350505050565b7f416363657373436f6e74726f6c3a206163636f756e74200000000000000000008152600083516159d5816017850160208801614d32565b7001034b99036b4b9b9b4b733903937b6329607d1b6017918401918201528351615a06816028840160208801614d32565b0160280194935050505056fea2646970667358221220d2ae6abfc88764db46307f6086012b53341fb3a094ca63f5805707d42b8ebd5d64736f6c634300080d0033","language":"Solidity","natspec":{"kind":"dev","methods":{"getRoleAdmin(bytes32)":{"details":"Returns the admin role that controls `role`. See {grantRole} and {revokeRole}. To change a role's admin, use {_setRoleAdmin}."},"grantRole(bytes32,address)":{"details":"Grants `role` to `account`. If `account` had not been already granted `role`, emits a {RoleGranted} event. Requirements: - the caller must have ``role``'s admin role."},"hasRole(bytes32,address)":{"details":"Returns `true` if `account` has been granted `role`."},"owner()":{"details":"Returns the address of the current owner."},"renounceOwnership()":{"details":"Leaves the contract without owner. It will not be possible to call `onlyOwner` functions anymore. Can only be called by the current owner. NOTE: Renouncing ownership will leave the contract without an owner, thereby removing any functionality that is only available to the owner."},"renounceRole(bytes32,address)":{"details":"Revokes `role` from the calling account. Roles are often managed via {grantRole} and {revokeRole}: this function's purpose is to provide a mechanism for accounts to lose their privileges if they are compromised (such as when a trusted device is misplaced). If the calling account had been revoked `role`, emits a {RoleRevoked} event. Requirements: - the caller must be `account`."},"revokeRole(bytes32,address)":{"details":"Revokes `role` from `account`. If `account` had been granted `role`, emits a {RoleRevoked} event. Requirements: - the caller must have ``role``'s admin role."},"supportsInterface(bytes4)":{"details":"See {IERC165-supportsInterface}."},"transferOwnership(address)":{"details":"Transfers ownership of the contract to a new account (`newOwner`). Can only be called by the current owner."}},"version":1},"opcodes":"PUSH1 0x80 PUSH1 0x40 MSTORE CALLVALUE DUP1 ISZERO PUSH2 0x10 JUMPI PUSH1 0x0 DUP1 REVERT JUMPDEST POP PUSH1 0x4 CALLDATASIZE LT PUSH2 0x3CF JUMPI PUSH1 0x0 CALLDATALOAD PUSH1 0xE0 SHR DUP1 PUSH4 0x6C82A726 GT PUSH2 0x1FF JUMPI DUP1 PUSH4 0xB4767CA8 GT PUSH2 0x11A JUMPI DUP1 PUSH4 0xE57F14E1 GT PUSH2 0xAD JUMPI DUP1 PUSH4 0xF2FDE38B GT PUSH2 0x7C JUMPI DUP1 PUSH4 0xF2FDE38B EQ PUSH2 0xA77 JUMPI DUP1 PUSH4 0xF5537EDE EQ PUSH2 0xA8A JUMPI DUP1 PUSH4 0xF739ED9E EQ PUSH2 0xA9D JUMPI DUP1 PUSH4 0xFD5E6DD1 EQ PUSH2 0xAB0 JUMPI PUSH1 0x0 DUP1 REVERT JUMPDEST DUP1 PUSH4 0xE57F14E1 EQ PUSH2 0xA10 JUMPI DUP1 PUSH4 0xE97B061A EQ PUSH2 0xA23 JUMPI DUP1 PUSH4 0xED2B79F8 EQ PUSH2 0xA36 JUMPI DUP1 PUSH4 0xF16D094F EQ PUSH2 0xA49 JUMPI PUSH1 0x0 DUP1 REVERT JUMPDEST DUP1 PUSH4 0xCFA10CA0 GT PUSH2 0xE9 JUMPI DUP1 PUSH4 0xCFA10CA0 EQ PUSH2 0x9C4 JUMPI DUP1 PUSH4 0xD547741F EQ PUSH2 0x9D7 JUMPI DUP1 PUSH4 0xE012E276 EQ PUSH2 0x9EA JUMPI DUP1 PUSH4 0xE4EC108C EQ PUSH2 0x9FD JUMPI PUSH1 0x0 DUP1 REVERT JUMPDEST DUP1 PUSH4 0xB4767CA8 EQ PUSH2 0x943 JUMPI DUP1 PUSH4 0xB678C3A4 EQ PUSH2 0x956 JUMPI DUP1 PUSH4 0xC370C86D EQ PUSH2 0x969 JUMPI DUP1 PUSH4 0xC601F352 EQ PUSH2 0x97C JUMPI PUSH1 0x0 DUP1 REVERT JUMPDEST DUP1 PUSH4 0x9E281A98 GT PUSH2 0x192 JUMPI DUP1 PUSH4 0xAA6CA808 GT PUSH2 0x161 JUMPI DUP1 PUSH4 0xAA6CA808 EQ PUSH2 0x8A0 JUMPI DUP1 PUSH4 0xAC66C6E0 EQ PUSH2 0x8A8 JUMPI DUP1 PUSH4 0xACB422C5 EQ PUSH2 0x8D5 JUMPI DUP1 PUSH4 0xB33F78CA EQ PUSH2 0x930 JUMPI PUSH1 0x0 DUP1 REVERT JUMPDEST DUP1 PUSH4 0x9E281A98 EQ PUSH2 0x85F JUMPI DUP1 PUSH4 0xA217FDDF EQ PUSH2 0x872 JUMPI DUP1 PUSH4 0xA4FB252B EQ PUSH2 0x87A JUMPI DUP1 PUSH4 0xA5ECD122 EQ PUSH2 0x88D JUMPI PUSH1 0x0 DUP1 REVERT JUMPDEST DUP1 PUSH4 0x8D0C8F26 GT PUSH2 0x1CE JUMPI DUP1 PUSH4 0x8D0C8F26 EQ PUSH2 0x815 JUMPI DUP1 PUSH4 0x8DA5CB5B EQ PUSH2 0x828 JUMPI DUP1 PUSH4 0x91D14854 EQ PUSH2 0x839 JUMPI DUP1 PUSH4 0x9AAF3CB6 EQ PUSH2 0x84C JUMPI PUSH1 0x0 DUP1 REVERT JUMPDEST DUP1 PUSH4 0x6C82A726 EQ PUSH2 0x7DF JUMPI DUP1 PUSH4 0x715018A6 EQ PUSH2 0x7F2 JUMPI DUP1 PUSH4 0x75D7F0D9 EQ PUSH2 0x7FA JUMPI DUP1 PUSH4 0x8129FC1C EQ PUSH2 0x80D JUMPI PUSH1 0x0 DUP1 REVERT JUMPDEST DUP1 PUSH4 0x338B5DEA GT PUSH2 0x2EF JUMPI DUP1 PUSH4 0x4F64B2BE GT PUSH2 0x282 JUMPI DUP1 PUSH4 0x5D9A4000 GT PUSH2 0x251 JUMPI DUP1 PUSH4 0x5D9A4000 EQ PUSH2 0x77E JUMPI DUP1 PUSH4 0x61EE1955 EQ PUSH2 0x791 JUMPI DUP1 PUSH4 0x68173BCF EQ PUSH2 0x7A4 JUMPI DUP1 PUSH4 0x6BCFD0C4 EQ PUSH2 0x7B7 JUMPI PUSH1 0x0 DUP1 REVERT JUMPDEST DUP1 PUSH4 0x4F64B2BE EQ PUSH2 0x70A JUMPI DUP1 PUSH4 0x4FBEE193 EQ PUSH2 0x735 JUMPI DUP1 PUSH4 0x50AEE08D EQ PUSH2 0x758 JUMPI DUP1 PUSH4 0x56E0341C EQ PUSH2 0x76B JUMPI PUSH1 0x0 DUP1 REVERT JUMPDEST DUP1 PUSH4 0x4130276B GT PUSH2 0x2BE JUMPI DUP1 PUSH4 0x4130276B EQ PUSH2 0x6BC JUMPI DUP1 PUSH4 0x431F63C9 EQ PUSH2 0x6CF JUMPI DUP1 PUSH4 0x43352D61 EQ PUSH2 0x6E2 JUMPI DUP1 PUSH4 0x49A5B196 EQ PUSH2 0x6F7 JUMPI PUSH1 0x0 DUP1 REVERT JUMPDEST DUP1 PUSH4 0x338B5DEA EQ PUSH2 0x663 JUMPI DUP1 PUSH4 0x34738DFA EQ PUSH2 0x676 JUMPI DUP1 PUSH4 0x36568ABE EQ PUSH2 0x689 JUMPI DUP1 PUSH4 0x3A215F46 EQ PUSH2 0x69C JUMPI PUSH1 0x0 DUP1 REVERT JUMPDEST DUP1 PUSH4 0x17421409 GT PUSH2 0x367 JUMPI DUP1 PUSH4 0x248A9CA3 GT PUSH2 0x336 JUMPI DUP1 PUSH4 0x248A9CA3 EQ PUSH2 0x586 JUMPI DUP1 PUSH4 0x2D94C6CD EQ PUSH2 0x5AA JUMPI DUP1 PUSH4 0x2DA999FF EQ PUSH2 0x63D JUMPI DUP1 PUSH4 0x2F2FF15D EQ PUSH2 0x650 JUMPI PUSH1 0x0 DUP1 REVERT JUMPDEST DUP1 PUSH4 0x17421409 EQ PUSH2 0x49D JUMPI DUP1 PUSH4 0x2081EA63 EQ PUSH2 0x4B0 JUMPI DUP1 PUSH4 0x20E44E43 EQ PUSH2 0x4D1 JUMPI DUP1 PUSH4 0x236B4392 EQ PUSH2 0x573 JUMPI PUSH1 0x0 DUP1 REVERT JUMPDEST DUP1 PUSH4 0xD1CE2D2 GT PUSH2 0x3A3 JUMPI DUP1 PUSH4 0xD1CE2D2 EQ PUSH2 0x444 JUMPI DUP1 PUSH4 0x13316BCF EQ PUSH2 0x457 JUMPI DUP1 PUSH4 0x13FF7E9F EQ PUSH2 0x46A JUMPI DUP1 PUSH4 0x16A2F82A EQ PUSH2 0x48A JUMPI PUSH1 0x0 DUP1 REVERT JUMPDEST DUP1 PUSH3 0x285E33 EQ PUSH2 0x3D4 JUMPI DUP1 PUSH4 0x1FFC9A7 EQ PUSH2 0x3E9 JUMPI DUP1 PUSH4 0x4F78063 EQ PUSH2 0x411 JUMPI DUP1 PUSH4 0xB3E728C EQ PUSH2 0x431 JUMPI JUMPDEST PUSH1 0x0 DUP1 REVERT JUMPDEST PUSH2 0x3E7 PUSH2 0x3E2 CALLDATASIZE PUSH1 0x4 PUSH2 0x4C8D JUMP JUMPDEST PUSH2 0xAC3 JUMP JUMPDEST STOP JUMPDEST PUSH2 0x3FC PUSH2 0x3F7 CALLDATASIZE PUSH1 0x4 PUSH2 0x4CB9 JUMP JUMPDEST PUSH2 0xB04 JUMP JUMPDEST PUSH1 0x40 MLOAD SWAP1 ISZERO ISZERO DUP2 MSTORE PUSH1 0x20 ADD JUMPDEST PUSH1 0x40 MLOAD DUP1 SWAP2 SUB SWAP1 RETURN JUMPDEST PUSH2 0x424 PUSH2 0x41F CALLDATASIZE PUSH1 0x4 PUSH2 0x4CFF JUMP JUMPDEST PUSH2 0xB3B JUMP JUMPDEST PUSH1 0x40 MLOAD PUSH2 0x408 SWAP2 SWAP1 PUSH2 0x4DCF JUMP JUMPDEST PUSH2 0x3E7 PUSH2 0x43F CALLDATASIZE PUSH1 0x4 PUSH2 0x4F21 JUMP JUMPDEST PUSH2 0xD99 JUMP JUMPDEST PUSH2 0x3E7 PUSH2 0x452 CALLDATASIZE PUSH1 0x4 PUSH2 0x4F21 JUMP JUMPDEST PUSH2 0xE5C JUMP JUMPDEST PUSH2 0x3E7 PUSH2 0x465 CALLDATASIZE PUSH1 0x4 PUSH2 0x4CFF JUMP JUMPDEST PUSH2 0xEB8 JUMP JUMPDEST PUSH2 0x47D PUSH2 0x478 CALLDATASIZE PUSH1 0x4 PUSH2 0x4F21 JUMP JUMPDEST PUSH2 0xECA JUMP JUMPDEST PUSH1 0x40 MLOAD PUSH2 0x408 SWAP2 SWAP1 PUSH2 0x4F3C JUMP JUMPDEST PUSH2 0x3E7 PUSH2 0x498 CALLDATASIZE PUSH1 0x4 PUSH2 0x4F21 JUMP JUMPDEST PUSH2 0x10B9 JUMP JUMPDEST PUSH2 0x3E7 PUSH2 0x4AB CALLDATASIZE PUSH1 0x4 PUSH2 0x4CFF JUMP JUMPDEST PUSH2 0x1104 JUMP JUMPDEST PUSH2 0x4C3 PUSH2 0x4BE CALLDATASIZE PUSH1 0x4 PUSH2 0x4CFF JUMP JUMPDEST PUSH2 0x1148 JUMP JUMPDEST PUSH1 0x40 MLOAD SWAP1 DUP2 MSTORE PUSH1 0x20 ADD PUSH2 0x408 JUMP JUMPDEST PUSH1 0x2 SLOAD PUSH1 0x3 SLOAD PUSH1 0x4 SLOAD PUSH1 0x5 SLOAD PUSH1 0x6 SLOAD PUSH1 0x7 SLOAD PUSH1 0x8 SLOAD PUSH1 0x9 SLOAD PUSH1 0xA SLOAD PUSH1 0xB SLOAD PUSH1 0xC SLOAD PUSH1 0xD SLOAD PUSH2 0x510 SWAP12 PUSH1 0x1 PUSH1 0x1 PUSH1 0xA0 SHL SUB AND SWAP11 SWAP10 SWAP9 SWAP8 SWAP7 SWAP6 SWAP5 SWAP4 SWAP3 SWAP2 SWAP1 DUP13 JUMP JUMPDEST PUSH1 0x40 DUP1 MLOAD PUSH1 0x1 PUSH1 0x1 PUSH1 0xA0 SHL SUB SWAP1 SWAP14 AND DUP14 MSTORE PUSH1 0x20 DUP14 ADD SWAP12 SWAP1 SWAP12 MSTORE SWAP10 DUP12 ADD SWAP9 SWAP1 SWAP9 MSTORE PUSH1 0x60 DUP11 ADD SWAP7 SWAP1 SWAP7 MSTORE PUSH1 0x80 DUP10 ADD SWAP5 SWAP1 SWAP5 MSTORE PUSH1 0xA0 DUP9 ADD SWAP3 SWAP1 SWAP3 MSTORE PUSH1 0xC0 DUP8 ADD MSTORE PUSH1 0xE0 DUP7 ADD MSTORE PUSH2 0x100 DUP6 ADD MSTORE PUSH2 0x120 DUP5 ADD MSTORE PUSH2 0x140 DUP4 ADD MSTORE PUSH2 0x160 DUP3 ADD MSTORE PUSH2 0x180 ADD PUSH2 0x408 JUMP JUMPDEST PUSH2 0x3E7 PUSH2 0x581 CALLDATASIZE PUSH1 0x4 PUSH2 0x4F21 JUMP JUMPDEST PUSH2 0x119A JUMP JUMPDEST PUSH2 0x4C3 PUSH2 0x594 CALLDATASIZE PUSH1 0x4 PUSH2 0x506C JUMP JUMPDEST PUSH1 0x0 SWAP1 DUP2 MSTORE PUSH1 0x1 PUSH1 0x20 DUP2 SWAP1 MSTORE PUSH1 0x40 SWAP1 SWAP2 KECCAK256 ADD SLOAD SWAP1 JUMP JUMPDEST PUSH2 0x602 PUSH2 0x5B8 CALLDATASIZE PUSH1 0x4 PUSH2 0x4CFF JUMP JUMPDEST PUSH1 0x15 PUSH1 0x20 SWAP1 DUP2 MSTORE PUSH1 0x0 SWAP3 DUP4 MSTORE PUSH1 0x40 DUP1 DUP5 KECCAK256 SWAP1 SWAP2 MSTORE SWAP1 DUP3 MSTORE SWAP1 KECCAK256 DUP1 SLOAD PUSH1 0x1 DUP3 ADD SLOAD PUSH1 0x2 DUP4 ADD SLOAD PUSH1 0x4 DUP5 ADD SLOAD PUSH1 0x5 DUP6 ADD SLOAD PUSH1 0x6 SWAP1 SWAP6 ADD SLOAD SWAP4 SWAP5 SWAP3 SWAP4 PUSH1 0x1 PUSH1 0x1 PUSH1 0xA0 SHL SUB SWAP1 SWAP3 AND SWAP3 SWAP1 SWAP2 DUP7 JUMP JUMPDEST PUSH1 0x40 DUP1 MLOAD SWAP7 DUP8 MSTORE PUSH1 0x20 DUP8 ADD SWAP6 SWAP1 SWAP6 MSTORE PUSH1 0x1 PUSH1 0x1 PUSH1 0xA0 SHL SUB SWAP1 SWAP4 AND SWAP4 DUP6 ADD SWAP4 SWAP1 SWAP4 MSTORE PUSH1 0x60 DUP5 ADD MSTORE PUSH1 0x80 DUP4 ADD SWAP2 SWAP1 SWAP2 MSTORE PUSH1 0xA0 DUP3 ADD MSTORE PUSH1 0xC0 ADD PUSH2 0x408 JUMP JUMPDEST PUSH2 0x3E7 PUSH2 0x64B CALLDATASIZE PUSH1 0x4 PUSH2 0x5085 JUMP JUMPDEST PUSH2 0x11E6 JUMP JUMPDEST PUSH2 0x3E7 PUSH2 0x65E CALLDATASIZE PUSH1 0x4 PUSH2 0x50A7 JUMP JUMPDEST PUSH2 0x121B JUMP JUMPDEST PUSH2 0x3E7 PUSH2 0x671 CALLDATASIZE PUSH1 0x4 PUSH2 0x50CA JUMP JUMPDEST PUSH2 0x1241 JUMP JUMPDEST PUSH2 0x4C3 PUSH2 0x684 CALLDATASIZE PUSH1 0x4 PUSH2 0x4F21 JUMP JUMPDEST PUSH2 0x14CC JUMP JUMPDEST PUSH2 0x3E7 PUSH2 0x697 CALLDATASIZE PUSH1 0x4 PUSH2 0x50A7 JUMP JUMPDEST PUSH2 0x14FC JUMP JUMPDEST PUSH2 0x6AF PUSH2 0x6AA CALLDATASIZE PUSH1 0x4 PUSH2 0x506C JUMP JUMPDEST PUSH2 0x157A JUMP JUMPDEST PUSH1 0x40 MLOAD PUSH2 0x408 SWAP2 SWAP1 PUSH2 0x50F4 JUMP JUMPDEST PUSH2 0x3E7 PUSH2 0x6CA CALLDATASIZE PUSH1 0x4 PUSH2 0x4F21 JUMP JUMPDEST PUSH2 0x1614 JUMP JUMPDEST PUSH2 0x3E7 PUSH2 0x6DD CALLDATASIZE PUSH1 0x4 PUSH2 0x50CA JUMP JUMPDEST PUSH2 0x1689 JUMP JUMPDEST PUSH2 0x6EA PUSH2 0x1702 JUMP JUMPDEST PUSH1 0x40 MLOAD PUSH2 0x408 SWAP2 SWAP1 PUSH2 0x5107 JUMP JUMPDEST PUSH2 0x3E7 PUSH2 0x705 CALLDATASIZE PUSH1 0x4 PUSH2 0x4CFF JUMP JUMPDEST PUSH2 0x1764 JUMP JUMPDEST PUSH2 0x71D PUSH2 0x718 CALLDATASIZE PUSH1 0x4 PUSH2 0x506C JUMP JUMPDEST PUSH2 0x1873 JUMP JUMPDEST PUSH1 0x40 MLOAD PUSH1 0x1 PUSH1 0x1 PUSH1 0xA0 SHL SUB SWAP1 SWAP2 AND DUP2 MSTORE PUSH1 0x20 ADD PUSH2 0x408 JUMP JUMPDEST PUSH2 0x3FC PUSH2 0x743 CALLDATASIZE PUSH1 0x4 PUSH2 0x4F21 JUMP JUMPDEST PUSH1 0xE PUSH1 0x20 MSTORE PUSH1 0x0 SWAP1 DUP2 MSTORE PUSH1 0x40 SWAP1 KECCAK256 SLOAD PUSH1 0xFF AND DUP2 JUMP JUMPDEST PUSH2 0x3E7 PUSH2 0x766 CALLDATASIZE PUSH1 0x4 PUSH2 0x4F21 JUMP JUMPDEST PUSH2 0x189D JUMP JUMPDEST PUSH2 0x3E7 PUSH2 0x779 CALLDATASIZE PUSH1 0x4 PUSH2 0x51F7 JUMP JUMPDEST PUSH2 0x1928 JUMP JUMPDEST PUSH2 0x3E7 PUSH2 0x78C CALLDATASIZE PUSH1 0x4 PUSH2 0x523E JUMP JUMPDEST PUSH2 0x1971 JUMP JUMPDEST PUSH2 0x3E7 PUSH2 0x79F CALLDATASIZE PUSH1 0x4 PUSH2 0x50CA JUMP JUMPDEST PUSH2 0x19B2 JUMP JUMPDEST PUSH2 0x3E7 PUSH2 0x7B2 CALLDATASIZE PUSH1 0x4 PUSH2 0x4F21 JUMP JUMPDEST PUSH2 0x1B74 JUMP JUMPDEST PUSH2 0x7CA PUSH2 0x7C5 CALLDATASIZE PUSH1 0x4 PUSH2 0x5271 JUMP JUMPDEST PUSH2 0x1BCD JUMP JUMPDEST PUSH1 0x40 DUP1 MLOAD SWAP3 DUP4 MSTORE PUSH1 0x20 DUP4 ADD SWAP2 SWAP1 SWAP2 MSTORE ADD PUSH2 0x408 JUMP JUMPDEST PUSH2 0x3E7 PUSH2 0x7ED CALLDATASIZE PUSH1 0x4 PUSH2 0x50CA JUMP JUMPDEST PUSH2 0x1FCD JUMP JUMPDEST PUSH2 0x3E7 PUSH2 0x2413 JUMP JUMPDEST PUSH2 0x3E7 PUSH2 0x808 CALLDATASIZE PUSH1 0x4 PUSH2 0x50CA JUMP JUMPDEST PUSH2 0x2449 JUMP JUMPDEST PUSH2 0x3E7 PUSH2 0x2520 JUMP JUMPDEST PUSH2 0x3E7 PUSH2 0x823 CALLDATASIZE PUSH1 0x4 PUSH2 0x523E JUMP JUMPDEST PUSH2 0x25B5 JUMP JUMPDEST PUSH1 0x0 SLOAD PUSH1 0x1 PUSH1 0x1 PUSH1 0xA0 SHL SUB AND PUSH2 0x71D JUMP JUMPDEST PUSH2 0x3FC PUSH2 0x847 CALLDATASIZE PUSH1 0x4 PUSH2 0x50A7 JUMP JUMPDEST PUSH2 0x2606 JUMP JUMPDEST PUSH2 0x3E7 PUSH2 0x85A CALLDATASIZE PUSH1 0x4 PUSH2 0x52C8 JUMP JUMPDEST PUSH2 0x2631 JUMP JUMPDEST PUSH2 0x3E7 PUSH2 0x86D CALLDATASIZE PUSH1 0x4 PUSH2 0x50CA JUMP JUMPDEST PUSH2 0x2773 JUMP JUMPDEST PUSH2 0x4C3 PUSH1 0x0 DUP2 JUMP JUMPDEST PUSH2 0x3E7 PUSH2 0x888 CALLDATASIZE PUSH1 0x4 PUSH2 0x4C8D JUMP JUMPDEST PUSH2 0x29A9 JUMP JUMPDEST PUSH2 0x3E7 PUSH2 0x89B CALLDATASIZE PUSH1 0x4 PUSH2 0x4CFF JUMP JUMPDEST PUSH2 0x29E1 JUMP JUMPDEST PUSH2 0x6EA PUSH2 0x2A28 JUMP JUMPDEST PUSH2 0x8BB PUSH2 0x8B6 CALLDATASIZE PUSH1 0x4 PUSH2 0x4F21 JUMP JUMPDEST PUSH2 0x2A88 JUMP JUMPDEST PUSH1 0x40 MLOAD PUSH2 0x408 SWAP15 SWAP14 SWAP13 SWAP12 SWAP11 SWAP10 SWAP9 SWAP8 SWAP7 SWAP6 SWAP5 SWAP4 SWAP3 SWAP2 SWAP1 PUSH2 0x534D JUMP JUMPDEST PUSH2 0x90E PUSH2 0x8E3 CALLDATASIZE PUSH1 0x4 PUSH2 0x4F21 JUMP JUMPDEST PUSH1 0x14 PUSH1 0x20 MSTORE PUSH1 0x0 SWAP1 DUP2 MSTORE PUSH1 0x40 SWAP1 KECCAK256 DUP1 SLOAD PUSH1 0x1 DUP3 ADD SLOAD PUSH1 0x2 DUP4 ADD SLOAD PUSH1 0x3 SWAP1 SWAP4 ADD SLOAD PUSH1 0xFF SWAP1 SWAP3 AND SWAP3 SWAP1 SWAP2 DUP5 JUMP JUMPDEST PUSH1 0x40 DUP1 MLOAD SWAP5 ISZERO ISZERO DUP6 MSTORE PUSH1 0x20 DUP6 ADD SWAP4 SWAP1 SWAP4 MSTORE SWAP2 DUP4 ADD MSTORE PUSH1 0x60 DUP3 ADD MSTORE PUSH1 0x80 ADD PUSH2 0x408 JUMP JUMPDEST PUSH2 0x3FC PUSH2 0x93E CALLDATASIZE PUSH1 0x4 PUSH2 0x4F21 JUMP JUMPDEST PUSH2 0x2BD4 JUMP JUMPDEST PUSH2 0x3E7 PUSH2 0x951 CALLDATASIZE PUSH1 0x4 PUSH2 0x523E JUMP JUMPDEST PUSH2 0x2C3D JUMP JUMPDEST PUSH2 0x3E7 PUSH2 0x964 CALLDATASIZE PUSH1 0x4 PUSH2 0x4CFF JUMP JUMPDEST PUSH2 0x2C8E JUMP JUMPDEST PUSH2 0x3E7 PUSH2 0x977 CALLDATASIZE PUSH1 0x4 PUSH2 0x541E JUMP JUMPDEST PUSH2 0x2D6B JUMP JUMPDEST PUSH2 0x98F PUSH2 0x98A CALLDATASIZE PUSH1 0x4 PUSH2 0x4F21 JUMP JUMPDEST PUSH2 0x2E61 JUMP JUMPDEST PUSH1 0x40 MLOAD PUSH2 0x408 SWAP2 SWAP1 DUP2 MLOAD ISZERO ISZERO DUP2 MSTORE PUSH1 0x20 DUP1 DUP4 ADD MLOAD SWAP1 DUP3 ADD MSTORE PUSH1 0x40 DUP1 DUP4 ADD MLOAD SWAP1 DUP3 ADD MSTORE PUSH1 0x60 SWAP2 DUP3 ADD MLOAD SWAP2 DUP2 ADD SWAP2 SWAP1 SWAP2 MSTORE PUSH1 0x80 ADD SWAP1 JUMP JUMPDEST PUSH2 0x3FC PUSH2 0x9D2 CALLDATASIZE PUSH1 0x4 PUSH2 0x4F21 JUMP JUMPDEST PUSH2 0x2EE1 JUMP JUMPDEST PUSH2 0x3E7 PUSH2 0x9E5 CALLDATASIZE PUSH1 0x4 PUSH2 0x50A7 JUMP JUMPDEST PUSH2 0x2F41 JUMP JUMPDEST PUSH2 0x3E7 PUSH2 0x9F8 CALLDATASIZE PUSH1 0x4 PUSH2 0x4F21 JUMP JUMPDEST PUSH2 0x2F67 JUMP JUMPDEST PUSH2 0x3E7 PUSH2 0xA0B CALLDATASIZE PUSH1 0x4 PUSH2 0x4F21 JUMP JUMPDEST PUSH2 0x2FC2 JUMP JUMPDEST PUSH2 0x3E7 PUSH2 0xA1E CALLDATASIZE PUSH1 0x4 PUSH2 0x4F21 JUMP JUMPDEST PUSH2 0x3033 JUMP JUMPDEST PUSH2 0x3E7 PUSH2 0xA31 CALLDATASIZE PUSH1 0x4 PUSH2 0x4C8D JUMP JUMPDEST PUSH2 0x3081 JUMP JUMPDEST PUSH2 0x3E7 PUSH2 0xA44 CALLDATASIZE PUSH1 0x4 PUSH2 0x50CA JUMP JUMPDEST PUSH2 0x30B9 JUMP JUMPDEST PUSH2 0x3FC PUSH2 0xA57 CALLDATASIZE PUSH1 0x4 PUSH2 0x4CFF JUMP JUMPDEST PUSH1 0x10 PUSH1 0x20 SWAP1 DUP2 MSTORE PUSH1 0x0 SWAP3 DUP4 MSTORE PUSH1 0x40 DUP1 DUP5 KECCAK256 SWAP1 SWAP2 MSTORE SWAP1 DUP3 MSTORE SWAP1 KECCAK256 SLOAD PUSH1 0xFF AND DUP2 JUMP JUMPDEST PUSH2 0x3E7 PUSH2 0xA85 CALLDATASIZE PUSH1 0x4 PUSH2 0x4F21 JUMP JUMPDEST PUSH2 0x311B JUMP JUMPDEST PUSH2 0x3E7 PUSH2 0xA98 CALLDATASIZE PUSH1 0x4 PUSH2 0x5456 JUMP JUMPDEST PUSH2 0x31B3 JUMP JUMPDEST PUSH2 0x3E7 PUSH2 0xAAB CALLDATASIZE PUSH1 0x4 PUSH2 0x50CA JUMP JUMPDEST PUSH2 0x3250 JUMP JUMPDEST PUSH2 0x71D PUSH2 0xABE CALLDATASIZE PUSH1 0x4 PUSH2 0x506C JUMP JUMPDEST PUSH2 0x3807 JUMP JUMPDEST PUSH1 0x0 SLOAD PUSH1 0x1 PUSH1 0x1 PUSH1 0xA0 SHL SUB AND CALLER EQ PUSH2 0xAF6 JUMPI PUSH1 0x40 MLOAD PUSH3 0x461BCD PUSH1 0xE5 SHL DUP2 MSTORE PUSH1 0x4 ADD PUSH2 0xAED SWAP1 PUSH2 0x5492 JUMP JUMPDEST PUSH1 0x40 MLOAD DUP1 SWAP2 SUB SWAP1 REVERT JUMPDEST PUSH1 0xB SWAP3 SWAP1 SWAP3 SSTORE PUSH1 0xC SSTORE PUSH1 0xD SSTORE JUMP JUMPDEST PUSH1 0x0 PUSH1 0x1 PUSH1 0x1 PUSH1 0xE0 SHL SUB NOT DUP3 AND PUSH4 0x7965DB0B PUSH1 0xE0 SHL EQ DUP1 PUSH2 0xB35 JUMPI POP PUSH4 0x1FFC9A7 PUSH1 0xE0 SHL PUSH1 0x1 PUSH1 0x1 PUSH1 0xE0 SHL SUB NOT DUP4 AND EQ JUMPDEST SWAP3 SWAP2 POP POP JUMP JUMPDEST PUSH2 0xB84 PUSH1 0x40 MLOAD DUP1 PUSH1 0xE0 ADD PUSH1 0x40 MSTORE DUP1 PUSH1 0x0 DUP2 MSTORE PUSH1 0x20 ADD PUSH1 0x0 DUP2 MSTORE PUSH1 0x20 ADD PUSH1 0x0 PUSH1 0x1 PUSH1 0x1 PUSH1 0xA0 SHL SUB AND DUP2 MSTORE PUSH1 0x20 ADD PUSH1 0x60 DUP2 MSTORE PUSH1 0x20 ADD PUSH1 0x0 DUP2 MSTORE PUSH1 0x20 ADD PUSH1 0x0 DUP2 MSTORE PUSH1 0x20 ADD PUSH1 0x0 DUP2 MSTORE POP SWAP1 JUMP JUMPDEST PUSH1 0x1 PUSH1 0x1 PUSH1 0xA0 SHL SUB DUP1 DUP5 AND PUSH1 0x0 SWAP1 DUP2 MSTORE PUSH1 0x15 PUSH1 0x20 SWAP1 DUP2 MSTORE PUSH1 0x40 DUP1 DUP4 KECCAK256 DUP7 DUP6 AND DUP5 MSTORE DUP3 MSTORE DUP1 DUP4 KECCAK256 DUP2 MLOAD PUSH1 0xE0 DUP2 ADD DUP4 MSTORE DUP2 SLOAD DUP2 MSTORE PUSH1 0x1 DUP3 ADD SLOAD DUP2 DUP6 ADD MSTORE PUSH1 0x2 DUP3 ADD SLOAD SWAP1 SWAP6 AND DUP6 DUP4 ADD MSTORE PUSH1 0x3 DUP2 ADD DUP1 SLOAD DUP4 MLOAD DUP2 DUP7 MUL DUP2 ADD DUP7 ADD SWAP1 SWAP5 MSTORE DUP1 DUP5 MSTORE SWAP2 SWAP5 PUSH1 0x60 DUP8 ADD SWAP5 SWAP2 SWAP3 SWAP2 DUP5 ADD JUMPDEST DUP3 DUP3 LT ISZERO PUSH2 0xD6B JUMPI PUSH1 0x0 DUP5 DUP2 MSTORE PUSH1 0x20 DUP1 DUP3 KECCAK256 PUSH1 0x40 DUP1 MLOAD PUSH2 0x1A0 DUP2 ADD DUP3 MSTORE PUSH1 0xE DUP8 MUL SWAP1 SWAP3 ADD DUP1 SLOAD DUP4 MSTORE PUSH1 0x1 DUP2 ADD SLOAD PUSH1 0x1 PUSH1 0x1 PUSH1 0xA0 SHL SUB SWAP1 DUP2 AND SWAP5 DUP5 ADD SWAP5 SWAP1 SWAP5 MSTORE PUSH1 0x2 DUP1 DUP3 ADD SLOAD DUP6 AND DUP5 DUP5 ADD MSTORE PUSH1 0x3 DUP3 ADD SLOAD PUSH1 0x60 DUP6 ADD MSTORE PUSH1 0x4 DUP3 ADD SLOAD PUSH1 0x80 DUP6 ADD MSTORE PUSH1 0x5 DUP3 ADD SLOAD SWAP1 SWAP5 AND PUSH1 0xA0 DUP5 ADD MSTORE PUSH1 0x6 DUP2 ADD SLOAD PUSH1 0xC0 DUP5 ADD MSTORE PUSH1 0x7 DUP2 ADD SLOAD PUSH1 0xE0 DUP5 ADD MSTORE PUSH1 0x8 DUP2 ADD SLOAD PUSH2 0x100 DUP5 ADD MSTORE PUSH1 0x9 DUP2 ADD SLOAD PUSH2 0x120 DUP5 ADD MSTORE DUP2 MLOAD DUP1 DUP4 ADD SWAP1 SWAP3 MSTORE SWAP2 SWAP4 SWAP2 SWAP3 PUSH2 0x140 DUP6 ADD SWAP3 PUSH1 0xA DUP6 ADD SWAP2 SWAP1 DUP4 JUMPDEST DUP3 DUP3 LT ISZERO PUSH2 0xD40 JUMPI DUP4 DUP3 ADD DUP1 SLOAD PUSH2 0xCB3 SWAP1 PUSH2 0x54C7 JUMP JUMPDEST DUP1 PUSH1 0x1F ADD PUSH1 0x20 DUP1 SWAP2 DIV MUL PUSH1 0x20 ADD PUSH1 0x40 MLOAD SWAP1 DUP2 ADD PUSH1 0x40 MSTORE DUP1 SWAP3 SWAP2 SWAP1 DUP2 DUP2 MSTORE PUSH1 0x20 ADD DUP3 DUP1 SLOAD PUSH2 0xCDF SWAP1 PUSH2 0x54C7 JUMP JUMPDEST DUP1 ISZERO PUSH2 0xD2C JUMPI DUP1 PUSH1 0x1F LT PUSH2 0xD01 JUMPI PUSH2 0x100 DUP1 DUP4 SLOAD DIV MUL DUP4 MSTORE SWAP2 PUSH1 0x20 ADD SWAP2 PUSH2 0xD2C JUMP JUMPDEST DUP3 ADD SWAP2 SWAP1 PUSH1 0x0 MSTORE PUSH1 0x20 PUSH1 0x0 KECCAK256 SWAP1 JUMPDEST DUP2 SLOAD DUP2 MSTORE SWAP1 PUSH1 0x1 ADD SWAP1 PUSH1 0x20 ADD DUP1 DUP4 GT PUSH2 0xD0F JUMPI DUP3 SWAP1 SUB PUSH1 0x1F AND DUP3 ADD SWAP2 JUMPDEST POP POP POP POP POP DUP2 MSTORE PUSH1 0x20 ADD SWAP1 PUSH1 0x1 ADD SWAP1 PUSH2 0xC9D JUMP JUMPDEST POP POP POP POP DUP2 MSTORE PUSH1 0x20 ADD PUSH1 0xC DUP3 ADD SLOAD DUP2 MSTORE PUSH1 0x20 ADD PUSH1 0xD DUP3 ADD SLOAD DUP2 MSTORE POP POP DUP2 MSTORE PUSH1 0x20 ADD SWAP1 PUSH1 0x1 ADD SWAP1 PUSH2 0xBED JUMP JUMPDEST POP POP POP POP DUP2 MSTORE PUSH1 0x20 ADD PUSH1 0x4 DUP3 ADD SLOAD DUP2 MSTORE PUSH1 0x20 ADD PUSH1 0x5 DUP3 ADD SLOAD DUP2 MSTORE PUSH1 0x20 ADD PUSH1 0x6 DUP3 ADD SLOAD DUP2 MSTORE POP POP SWAP1 POP SWAP3 SWAP2 POP POP JUMP JUMPDEST PUSH2 0xDA2 DUP2 PUSH2 0x3817 JUMP JUMPDEST PUSH2 0xDAB DUP2 PUSH2 0x3856 JUMP JUMPDEST PUSH2 0xDB4 DUP3 PUSH2 0x2BD4 JUMP JUMPDEST PUSH2 0xDD0 JUMPI PUSH1 0x40 MLOAD PUSH3 0x461BCD PUSH1 0xE5 SHL DUP2 MSTORE PUSH1 0x4 ADD PUSH2 0xAED SWAP1 PUSH2 0x5501 JUMP JUMPDEST PUSH1 0x1 PUSH1 0x1 PUSH1 0xA0 SHL SUB DUP3 AND PUSH1 0x0 SWAP1 DUP2 MSTORE PUSH1 0x12 PUSH1 0x20 MSTORE PUSH1 0x40 SWAP1 KECCAK256 SLOAD PUSH2 0x100 SWAP1 DIV PUSH1 0xFF AND PUSH2 0xE33 JUMPI PUSH1 0x40 MLOAD PUSH3 0x461BCD PUSH1 0xE5 SHL DUP2 MSTORE PUSH1 0x20 PUSH1 0x4 DUP3 ADD MSTORE PUSH1 0x13 PUSH1 0x24 DUP3 ADD MSTORE PUSH19 0x2A37B5B2B7103737BA103B32B934B334B2B217 PUSH1 0x69 SHL PUSH1 0x44 DUP3 ADD MSTORE PUSH1 0x64 ADD PUSH2 0xAED JUMP JUMPDEST POP PUSH1 0x1 PUSH1 0x1 PUSH1 0xA0 SHL SUB AND PUSH1 0x0 SWAP1 DUP2 MSTORE PUSH1 0x12 PUSH1 0x20 MSTORE PUSH1 0x40 SWAP1 KECCAK256 DUP1 SLOAD PUSH3 0xFF0000 NOT AND PUSH3 0x10000 OR SWAP1 SSTORE JUMP JUMPDEST PUSH2 0xE65 DUP2 PUSH2 0x3817 JUMP JUMPDEST PUSH2 0xE6E DUP2 PUSH2 0x3856 JUMP JUMPDEST PUSH2 0xE77 DUP3 PUSH2 0x2BD4 JUMP JUMPDEST PUSH2 0xE93 JUMPI PUSH1 0x40 MLOAD PUSH3 0x461BCD PUSH1 0xE5 SHL DUP2 MSTORE PUSH1 0x4 ADD PUSH2 0xAED SWAP1 PUSH2 0x5501 JUMP JUMPDEST POP PUSH1 0x1 PUSH1 0x1 PUSH1 0xA0 SHL SUB AND PUSH1 0x0 SWAP1 DUP2 MSTORE PUSH1 0x12 PUSH1 0x20 MSTORE PUSH1 0x40 SWAP1 KECCAK256 DUP1 SLOAD PUSH1 0xFF NOT AND PUSH1 0x1 OR SWAP1 SSTORE JUMP JUMPDEST PUSH2 0xEC5 CALLER DUP4 DUP4 PUSH1 0x1 PUSH2 0x3860 JUMP JUMPDEST POP POP POP JUMP JUMPDEST PUSH2 0xED2 PUSH2 0x49F7 JUMP JUMPDEST PUSH1 0x1 PUSH1 0x1 PUSH1 0xA0 SHL SUB DUP3 AND PUSH1 0x0 SWAP1 DUP2 MSTORE PUSH1 0x12 PUSH1 0x20 SWAP1 DUP2 MSTORE PUSH1 0x40 SWAP2 DUP3 SWAP1 KECCAK256 DUP3 MLOAD PUSH2 0x1C0 DUP2 ADD DUP5 MSTORE DUP2 SLOAD PUSH1 0xFF DUP1 DUP3 AND ISZERO ISZERO DUP4 MSTORE PUSH2 0x100 DUP3 DIV DUP2 AND ISZERO ISZERO SWAP5 DUP4 ADD SWAP5 SWAP1 SWAP5 MSTORE PUSH3 0x10000 SWAP1 DIV SWAP1 SWAP3 AND ISZERO ISZERO SWAP3 DUP3 ADD SWAP3 SWAP1 SWAP3 MSTORE PUSH1 0x1 DUP3 ADD DUP1 SLOAD SWAP2 SWAP3 SWAP2 PUSH1 0x60 DUP5 ADD SWAP2 SWAP1 PUSH2 0xF3C SWAP1 PUSH2 0x54C7 JUMP JUMPDEST DUP1 PUSH1 0x1F ADD PUSH1 0x20 DUP1 SWAP2 DIV MUL PUSH1 0x20 ADD PUSH1 0x40 MLOAD SWAP1 DUP2 ADD PUSH1 0x40 MSTORE DUP1 SWAP3 SWAP2 SWAP1 DUP2 DUP2 MSTORE PUSH1 0x20 ADD DUP3 DUP1 SLOAD PUSH2 0xF68 SWAP1 PUSH2 0x54C7 JUMP JUMPDEST DUP1 ISZERO PUSH2 0xFB5 JUMPI DUP1 PUSH1 0x1F LT PUSH2 0xF8A JUMPI PUSH2 0x100 DUP1 DUP4 SLOAD DIV MUL DUP4 MSTORE SWAP2 PUSH1 0x20 ADD SWAP2 PUSH2 0xFB5 JUMP JUMPDEST DUP3 ADD SWAP2 SWAP1 PUSH1 0x0 MSTORE PUSH1 0x20 PUSH1 0x0 KECCAK256 SWAP1 JUMPDEST DUP2 SLOAD DUP2 MSTORE SWAP1 PUSH1 0x1 ADD SWAP1 PUSH1 0x20 ADD DUP1 DUP4 GT PUSH2 0xF98 JUMPI DUP3 SWAP1 SUB PUSH1 0x1F AND DUP3 ADD SWAP2 JUMPDEST POP POP POP POP POP DUP2 MSTORE PUSH1 0x20 ADD PUSH1 0x2 DUP3 ADD SLOAD DUP2 MSTORE PUSH1 0x20 ADD PUSH1 0x3 DUP3 ADD SLOAD DUP2 MSTORE PUSH1 0x20 ADD PUSH1 0x4 DUP3 ADD SLOAD DUP2 MSTORE PUSH1 0x20 ADD PUSH1 0x5 DUP3 ADD SLOAD DUP2 MSTORE PUSH1 0x20 ADD PUSH1 0x6 DUP3 ADD SLOAD DUP2 MSTORE PUSH1 0x20 ADD PUSH1 0x7 DUP3 ADD PUSH1 0x0 SWAP1 SLOAD SWAP1 PUSH2 0x100 EXP SWAP1 DIV PUSH1 0x1 PUSH1 0x1 PUSH1 0xA0 SHL SUB AND PUSH1 0x1 PUSH1 0x1 PUSH1 0xA0 SHL SUB AND PUSH1 0x1 PUSH1 0x1 PUSH1 0xA0 SHL SUB AND DUP2 MSTORE PUSH1 0x20 ADD PUSH1 0x8 DUP3 ADD PUSH1 0x0 SWAP1 SLOAD SWAP1 PUSH2 0x100 EXP SWAP1 DIV PUSH1 0x1 PUSH1 0x1 PUSH1 0xA0 SHL SUB AND PUSH1 0x1 PUSH1 0x1 PUSH1 0xA0 SHL SUB AND PUSH1 0x1 PUSH1 0x1 PUSH1 0xA0 SHL SUB AND DUP2 MSTORE PUSH1 0x20 ADD PUSH1 0x9 DUP3 ADD PUSH1 0x40 MLOAD DUP1 PUSH1 0xC0 ADD PUSH1 0x40 MSTORE SWAP1 DUP2 PUSH1 0x0 DUP3 ADD SLOAD DUP2 MSTORE PUSH1 0x20 ADD PUSH1 0x1 DUP3 ADD SLOAD DUP2 MSTORE PUSH1 0x20 ADD PUSH1 0x2 DUP3 ADD SLOAD DUP2 MSTORE PUSH1 0x20 ADD PUSH1 0x3 DUP3 ADD SLOAD DUP2 MSTORE PUSH1 0x20 ADD PUSH1 0x4 DUP3 ADD SLOAD DUP2 MSTORE PUSH1 0x20 ADD PUSH1 0x5 DUP3 ADD SLOAD DUP2 MSTORE POP POP DUP2 MSTORE PUSH1 0x20 ADD PUSH1 0xF DUP3 ADD SLOAD DUP2 MSTORE PUSH1 0x20 ADD PUSH1 0x10 DUP3 ADD SLOAD DUP2 MSTORE POP POP SWAP1 POP SWAP2 SWAP1 POP JUMP JUMPDEST PUSH1 0x0 SLOAD PUSH1 0x1 PUSH1 0x1 PUSH1 0xA0 SHL SUB AND CALLER EQ PUSH2 0x10E3 JUMPI PUSH1 0x40 MLOAD PUSH3 0x461BCD PUSH1 0xE5 SHL DUP2 MSTORE PUSH1 0x4 ADD PUSH2 0xAED SWAP1 PUSH2 0x5492 JUMP JUMPDEST PUSH1 0x1 PUSH1 0x1 PUSH1 0xA0 SHL SUB AND PUSH1 0x0 SWAP1 DUP2 MSTORE PUSH1 0xE PUSH1 0x20 MSTORE PUSH1 0x40 SWAP1 KECCAK256 DUP1 SLOAD PUSH1 0xFF NOT AND SWAP1 SSTORE JUMP JUMPDEST PUSH2 0x110D DUP3 PUSH2 0x3817 JUMP JUMPDEST PUSH2 0x1116 DUP2 PUSH2 0x3856 JUMP JUMPDEST POP PUSH1 0x1 PUSH1 0x1 PUSH1 0xA0 SHL SUB SWAP2 DUP3 AND PUSH1 0x0 SWAP1 DUP2 MSTORE PUSH1 0x10 PUSH1 0x20 SWAP1 DUP2 MSTORE PUSH1 0x40 DUP1 DUP4 KECCAK256 SWAP4 SWAP1 SWAP5 AND DUP3 MSTORE SWAP2 SWAP1 SWAP2 MSTORE KECCAK256 DUP1 SLOAD PUSH1 0xFF NOT AND SWAP1 SSTORE JUMP JUMPDEST PUSH1 0x1 PUSH1 0x1 PUSH1 0xA0 SHL SUB DUP1 DUP4 AND PUSH1 0x0 SWAP1 DUP2 MSTORE PUSH1 0x12 PUSH1 0x20 SWAP1 DUP2 MSTORE PUSH1 0x40 DUP1 DUP4 KECCAK256 PUSH1 0x3 ADD SLOAD PUSH1 0x15 DUP4 MSTORE DUP2 DUP5 KECCAK256 SWAP5 DUP7 AND DUP5 MSTORE SWAP4 SWAP1 SWAP2 MSTORE DUP2 KECCAK256 PUSH1 0x1 ADD SLOAD SWAP1 SWAP2 PUSH2 0x1193 SWAP2 PUSH2 0x118E SWAP2 SWAP1 PUSH2 0x5546 JUMP JUMPDEST PUSH2 0x3A71 JUMP JUMPDEST SWAP4 SWAP3 POP POP POP JUMP JUMPDEST PUSH1 0x0 SLOAD PUSH1 0x1 PUSH1 0x1 PUSH1 0xA0 SHL SUB AND CALLER EQ PUSH2 0x11C4 JUMPI PUSH1 0x40 MLOAD PUSH3 0x461BCD PUSH1 0xE5 SHL DUP2 MSTORE PUSH1 0x4 ADD PUSH2 0xAED SWAP1 PUSH2 0x5492 JUMP JUMPDEST PUSH1 0x2 DUP1 SLOAD PUSH1 0x1 PUSH1 0x1 PUSH1 0xA0 SHL SUB NOT AND PUSH1 0x1 PUSH1 0x1 PUSH1 0xA0 SHL SUB SWAP3 SWAP1 SWAP3 AND SWAP2 SWAP1 SWAP2 OR SWAP1 SSTORE JUMP JUMPDEST PUSH1 0x0 SLOAD PUSH1 0x1 PUSH1 0x1 PUSH1 0xA0 SHL SUB AND CALLER EQ PUSH2 0x1210 JUMPI PUSH1 0x40 MLOAD PUSH3 0x461BCD PUSH1 0xE5 SHL DUP2 MSTORE PUSH1 0x4 ADD PUSH2 0xAED SWAP1 PUSH2 0x5492 JUMP JUMPDEST PUSH1 0x3 SWAP2 SWAP1 SWAP2 SSTORE PUSH1 0x4 SSTORE JUMP JUMPDEST PUSH1 0x0 DUP3 DUP2 MSTORE PUSH1 0x1 PUSH1 0x20 DUP2 SWAP1 MSTORE PUSH1 0x40 SWAP1 SWAP2 KECCAK256 ADD SLOAD PUSH2 0x1237 DUP2 PUSH2 0x3856 JUMP JUMPDEST PUSH2 0xEC5 DUP4 DUP4 PUSH2 0x3A85 JUMP JUMPDEST PUSH2 0x124A DUP3 PUSH2 0x3817 JUMP JUMPDEST PUSH2 0x1253 DUP2 PUSH2 0x3856 JUMP JUMPDEST PUSH2 0x125C DUP4 PUSH2 0x2BD4 JUMP JUMPDEST PUSH2 0x1278 JUMPI PUSH1 0x40 MLOAD PUSH3 0x461BCD PUSH1 0xE5 SHL DUP2 MSTORE PUSH1 0x4 ADD PUSH2 0xAED SWAP1 PUSH2 0x5501 JUMP JUMPDEST PUSH1 0x0 DUP3 GT PUSH2 0x1298 JUMPI PUSH1 0x40 MLOAD PUSH3 0x461BCD PUSH1 0xE5 SHL DUP2 MSTORE PUSH1 0x4 ADD PUSH2 0xAED SWAP1 PUSH2 0x5565 JUMP JUMPDEST DUP2 PUSH1 0x1 PUSH1 0x1 PUSH1 0xA0 SHL SUB DUP5 AND PUSH4 0x70A08231 CALLER PUSH1 0x40 MLOAD PUSH1 0x1 PUSH1 0x1 PUSH1 0xE0 SHL SUB NOT PUSH1 0xE0 DUP5 SWAP1 SHL AND DUP2 MSTORE PUSH1 0x1 PUSH1 0x1 PUSH1 0xA0 SHL SUB SWAP1 SWAP2 AND PUSH1 0x4 DUP3 ADD MSTORE PUSH1 0x24 ADD PUSH1 0x20 PUSH1 0x40 MLOAD DUP1 DUP4 SUB DUP2 DUP7 GAS STATICCALL ISZERO DUP1 ISZERO PUSH2 0x12ED JUMPI RETURNDATASIZE PUSH1 0x0 DUP1 RETURNDATACOPY RETURNDATASIZE PUSH1 0x0 REVERT JUMPDEST POP POP POP POP PUSH1 0x40 MLOAD RETURNDATASIZE PUSH1 0x1F NOT PUSH1 0x1F DUP3 ADD AND DUP3 ADD DUP1 PUSH1 0x40 MSTORE POP DUP2 ADD SWAP1 PUSH2 0x1311 SWAP2 SWAP1 PUSH2 0x55A6 JUMP JUMPDEST LT ISZERO PUSH2 0x135F JUMPI PUSH1 0x40 MLOAD PUSH3 0x461BCD PUSH1 0xE5 SHL DUP2 MSTORE PUSH1 0x20 PUSH1 0x4 DUP3 ADD MSTORE PUSH1 0x1C PUSH1 0x24 DUP3 ADD MSTORE PUSH32 0x496E73756666696369656E742077616C6C65742062616C616E63652E00000000 PUSH1 0x44 DUP3 ADD MSTORE PUSH1 0x64 ADD PUSH2 0xAED JUMP JUMPDEST PUSH1 0x0 DUP1 PUSH2 0x138C DUP6 DUP6 PUSH1 0x40 MLOAD DUP1 PUSH1 0x40 ADD PUSH1 0x40 MSTORE DUP1 PUSH1 0x7 DUP2 MSTORE PUSH1 0x20 ADD PUSH7 0x19195C1BDCDA5D PUSH1 0xCA SHL DUP2 MSTORE POP PUSH2 0x1BCD JUMP JUMPDEST SWAP2 POP SWAP2 POP DUP2 PUSH1 0x0 EQ PUSH2 0x1411 JUMPI PUSH1 0x2 SLOAD PUSH1 0x40 MLOAD PUSH4 0x23B872DD PUSH1 0xE0 SHL DUP2 MSTORE PUSH1 0x1 PUSH1 0x1 PUSH1 0xA0 SHL SUB DUP8 DUP2 AND SWAP3 PUSH4 0x23B872DD SWAP3 PUSH2 0x13CC SWAP3 CALLER SWAP3 AND SWAP1 DUP8 SWAP1 PUSH1 0x4 ADD PUSH2 0x55BF JUMP JUMPDEST PUSH1 0x20 PUSH1 0x40 MLOAD DUP1 DUP4 SUB DUP2 PUSH1 0x0 DUP8 GAS CALL ISZERO DUP1 ISZERO PUSH2 0x13EB JUMPI RETURNDATASIZE PUSH1 0x0 DUP1 RETURNDATACOPY RETURNDATASIZE PUSH1 0x0 REVERT JUMPDEST POP POP POP POP PUSH1 0x40 MLOAD RETURNDATASIZE PUSH1 0x1F NOT PUSH1 0x1F DUP3 ADD AND DUP3 ADD DUP1 PUSH1 0x40 MSTORE POP DUP2 ADD SWAP1 PUSH2 0x140F SWAP2 SWAP1 PUSH2 0x55E3 JUMP JUMPDEST POP JUMPDEST PUSH1 0x0 PUSH2 0x141D DUP4 DUP7 PUSH2 0x5605 JUMP JUMPDEST PUSH1 0x40 MLOAD PUSH4 0x23B872DD PUSH1 0xE0 SHL DUP2 MSTORE SWAP1 SWAP2 POP PUSH1 0x1 PUSH1 0x1 PUSH1 0xA0 SHL SUB DUP8 AND SWAP1 PUSH4 0x23B872DD SWAP1 PUSH2 0x1450 SWAP1 CALLER SWAP1 ADDRESS SWAP1 DUP7 SWAP1 PUSH1 0x4 ADD PUSH2 0x55BF JUMP JUMPDEST PUSH1 0x20 PUSH1 0x40 MLOAD DUP1 DUP4 SUB DUP2 PUSH1 0x0 DUP8 GAS CALL ISZERO DUP1 ISZERO PUSH2 0x146F JUMPI RETURNDATASIZE PUSH1 0x0 DUP1 RETURNDATACOPY RETURNDATASIZE PUSH1 0x0 REVERT JUMPDEST POP POP POP POP PUSH1 0x40 MLOAD RETURNDATASIZE PUSH1 0x1F NOT PUSH1 0x1F DUP3 ADD AND DUP3 ADD DUP1 PUSH1 0x40 MSTORE POP DUP2 ADD SWAP1 PUSH2 0x1493 SWAP2 SWAP1 PUSH2 0x55E3 JUMP JUMPDEST POP PUSH1 0x1 PUSH1 0x1 PUSH1 0xA0 SHL SUB DUP7 AND PUSH1 0x0 SWAP1 DUP2 MSTORE PUSH1 0x12 PUSH1 0x20 MSTORE PUSH1 0x40 DUP2 KECCAK256 PUSH1 0x4 ADD DUP1 SLOAD DUP4 SWAP3 SWAP1 PUSH2 0x14BF SWAP1 DUP5 SWAP1 PUSH2 0x561C JUMP JUMPDEST SWAP1 SWAP2 SSTORE POP POP POP POP POP POP POP POP JUMP JUMPDEST PUSH1 0x1 PUSH1 0x1 PUSH1 0xA0 SHL SUB DUP2 AND PUSH1 0x0 SWAP1 DUP2 MSTORE PUSH1 0x12 PUSH1 0x20 MSTORE PUSH1 0x40 DUP2 KECCAK256 PUSH1 0x3 DUP2 ADD SLOAD PUSH1 0x4 SWAP1 SWAP2 ADD SLOAD PUSH2 0xB35 SWAP2 PUSH2 0x118E SWAP2 PUSH2 0x5546 JUMP JUMPDEST PUSH1 0x1 PUSH1 0x1 PUSH1 0xA0 SHL SUB DUP2 AND CALLER EQ PUSH2 0x156C JUMPI PUSH1 0x40 MLOAD PUSH3 0x461BCD PUSH1 0xE5 SHL DUP2 MSTORE PUSH1 0x20 PUSH1 0x4 DUP3 ADD MSTORE PUSH1 0x2F PUSH1 0x24 DUP3 ADD MSTORE PUSH32 0x416363657373436F6E74726F6C3A2063616E206F6E6C792072656E6F756E6365 PUSH1 0x44 DUP3 ADD MSTORE PUSH15 0x103937B632B9903337B91039B2B633 PUSH1 0x89 SHL PUSH1 0x64 DUP3 ADD MSTORE PUSH1 0x84 ADD PUSH2 0xAED JUMP JUMPDEST PUSH2 0x1576 DUP3 DUP3 PUSH2 0x3AF0 JUMP JUMPDEST POP POP JUMP JUMPDEST PUSH1 0xF PUSH1 0x20 MSTORE PUSH1 0x0 SWAP1 DUP2 MSTORE PUSH1 0x40 SWAP1 KECCAK256 DUP1 SLOAD PUSH2 0x1593 SWAP1 PUSH2 0x54C7 JUMP JUMPDEST DUP1 PUSH1 0x1F ADD PUSH1 0x20 DUP1 SWAP2 DIV MUL PUSH1 0x20 ADD PUSH1 0x40 MLOAD SWAP1 DUP2 ADD PUSH1 0x40 MSTORE DUP1 SWAP3 SWAP2 SWAP1 DUP2 DUP2 MSTORE PUSH1 0x20 ADD DUP3 DUP1 SLOAD PUSH2 0x15BF SWAP1 PUSH2 0x54C7 JUMP JUMPDEST DUP1 ISZERO PUSH2 0x160C JUMPI DUP1 PUSH1 0x1F LT PUSH2 0x15E1 JUMPI PUSH2 0x100 DUP1 DUP4 SLOAD DIV MUL DUP4 MSTORE SWAP2 PUSH1 0x20 ADD SWAP2 PUSH2 0x160C JUMP JUMPDEST DUP3 ADD SWAP2 SWAP1 PUSH1 0x0 MSTORE PUSH1 0x20 PUSH1 0x0 KECCAK256 SWAP1 JUMPDEST DUP2 SLOAD DUP2 MSTORE SWAP1 PUSH1 0x1 ADD SWAP1 PUSH1 0x20 ADD DUP1 DUP4 GT PUSH2 0x15EF JUMPI DUP3 SWAP1 SUB PUSH1 0x1F AND DUP3 ADD SWAP2 JUMPDEST POP POP POP POP POP DUP2 JUMP JUMPDEST PUSH1 0x0 SLOAD PUSH1 0x1 PUSH1 0x1 PUSH1 0xA0 SHL SUB AND CALLER EQ PUSH2 0x163E JUMPI PUSH1 0x40 MLOAD PUSH3 0x461BCD PUSH1 0xE5 SHL DUP2 MSTORE PUSH1 0x4 ADD PUSH2 0xAED SWAP1 PUSH2 0x5492 JUMP JUMPDEST PUSH2 0x1647 DUP2 PUSH2 0x2BD4 JUMP JUMPDEST PUSH2 0x1663 JUMPI PUSH1 0x40 MLOAD PUSH3 0x461BCD PUSH1 0xE5 SHL DUP2 MSTORE PUSH1 0x4 ADD PUSH2 0xAED SWAP1 PUSH2 0x5501 JUMP JUMPDEST PUSH1 0x1 PUSH1 0x1 PUSH1 0xA0 SHL SUB AND PUSH1 0x0 SWAP1 DUP2 MSTORE PUSH1 0x12 PUSH1 0x20 MSTORE PUSH1 0x40 SWAP1 KECCAK256 DUP1 SLOAD PUSH2 0xFF00 NOT AND PUSH2 0x100 OR SWAP1 SSTORE JUMP JUMPDEST PUSH1 0x0 SLOAD PUSH1 0x1 PUSH1 0x1 PUSH1 0xA0 SHL SUB AND CALLER EQ PUSH2 0x16B3 JUMPI PUSH1 0x40 MLOAD PUSH3 0x461BCD PUSH1 0xE5 SHL DUP2 MSTORE PUSH1 0x4 ADD PUSH2 0xAED SWAP1 PUSH2 0x5492 JUMP JUMPDEST PUSH2 0x16BC DUP3 PUSH2 0x2BD4 JUMP JUMPDEST PUSH2 0x16D8 JUMPI PUSH1 0x40 MLOAD PUSH3 0x461BCD PUSH1 0xE5 SHL DUP2 MSTORE PUSH1 0x4 ADD PUSH2 0xAED SWAP1 PUSH2 0x5501 JUMP JUMPDEST PUSH1 0x1 PUSH1 0x1 PUSH1 0xA0 SHL SUB SWAP1 SWAP2 AND PUSH1 0x0 SWAP1 DUP2 MSTORE PUSH1 0x12 PUSH1 0x20 MSTORE PUSH1 0x40 SWAP1 KECCAK256 PUSH1 0x3 DUP2 ADD SWAP2 SWAP1 SWAP2 SSTORE TIMESTAMP PUSH1 0x10 SWAP1 SWAP2 ADD SSTORE JUMP JUMPDEST PUSH1 0x60 PUSH1 0x13 DUP1 SLOAD DUP1 PUSH1 0x20 MUL PUSH1 0x20 ADD PUSH1 0x40 MLOAD SWAP1 DUP2 ADD PUSH1 0x40 MSTORE DUP1 SWAP3 SWAP2 SWAP1 DUP2 DUP2 MSTORE PUSH1 0x20 ADD DUP3 DUP1 SLOAD DUP1 ISZERO PUSH2 0x175A JUMPI PUSH1 0x20 MUL DUP3 ADD SWAP2 SWAP1 PUSH1 0x0 MSTORE PUSH1 0x20 PUSH1 0x0 KECCAK256 SWAP1 JUMPDEST DUP2 SLOAD PUSH1 0x1 PUSH1 0x1 PUSH1 0xA0 SHL SUB AND DUP2 MSTORE PUSH1 0x1 SWAP1 SWAP2 ADD SWAP1 PUSH1 0x20 ADD DUP1 DUP4 GT PUSH2 0x173C JUMPI JUMPDEST POP POP POP POP POP SWAP1 POP SWAP1 JUMP JUMPDEST PUSH1 0x0 SLOAD PUSH1 0x1 PUSH1 0x1 PUSH1 0xA0 SHL SUB AND CALLER EQ PUSH2 0x178E JUMPI PUSH1 0x40 MLOAD PUSH3 0x461BCD PUSH1 0xE5 SHL DUP2 MSTORE PUSH1 0x4 ADD PUSH2 0xAED SWAP1 PUSH2 0x5492 JUMP JUMPDEST PUSH2 0x1797 DUP3 PUSH2 0x2BD4 JUMP JUMPDEST PUSH2 0x17B3 JUMPI PUSH1 0x40 MLOAD PUSH3 0x461BCD PUSH1 0xE5 SHL DUP2 MSTORE PUSH1 0x4 ADD PUSH2 0xAED SWAP1 PUSH2 0x5501 JUMP JUMPDEST PUSH1 0x0 DUP1 SLOAD PUSH1 0x1 PUSH1 0x1 PUSH1 0xA0 SHL SUB DUP5 DUP2 AND DUP4 MSTORE PUSH1 0x12 PUSH1 0x20 MSTORE PUSH1 0x40 SWAP1 SWAP3 KECCAK256 PUSH1 0x8 ADD SLOAD DUP3 AND SWAP2 AND EQ PUSH2 0x180A JUMPI PUSH2 0x180A PUSH2 0x17E7 DUP4 PUSH2 0x3817 JUMP JUMPDEST PUSH1 0x1 PUSH1 0x1 PUSH1 0xA0 SHL SUB DUP1 DUP6 AND PUSH1 0x0 SWAP1 DUP2 MSTORE PUSH1 0x12 PUSH1 0x20 MSTORE PUSH1 0x40 SWAP1 KECCAK256 PUSH1 0x8 ADD SLOAD AND PUSH2 0x2F41 JUMP JUMPDEST PUSH1 0x1 PUSH1 0x1 PUSH1 0xA0 SHL SUB DUP3 DUP2 AND PUSH1 0x0 SWAP1 DUP2 MSTORE PUSH1 0x12 PUSH1 0x20 MSTORE PUSH1 0x40 SWAP1 KECCAK256 PUSH1 0x8 DUP2 ADD DUP1 SLOAD PUSH1 0x1 PUSH1 0x1 PUSH1 0xA0 SHL SUB NOT AND SWAP3 DUP5 AND SWAP3 SWAP1 SWAP3 OR SWAP1 SWAP2 SSTORE TIMESTAMP PUSH1 0x10 SWAP1 SWAP2 ADD SSTORE PUSH2 0x1576 PUSH2 0x1850 DUP4 PUSH2 0x3817 JUMP JUMPDEST PUSH1 0x1 PUSH1 0x1 PUSH1 0xA0 SHL SUB DUP1 DUP6 AND PUSH1 0x0 SWAP1 DUP2 MSTORE PUSH1 0x12 PUSH1 0x20 MSTORE PUSH1 0x40 SWAP1 KECCAK256 PUSH1 0x8 ADD SLOAD AND PUSH2 0x121B JUMP JUMPDEST PUSH1 0x11 DUP2 DUP2 SLOAD DUP2 LT PUSH2 0x1883 JUMPI PUSH1 0x0 DUP1 REVERT JUMPDEST PUSH1 0x0 SWAP2 DUP3 MSTORE PUSH1 0x20 SWAP1 SWAP2 KECCAK256 ADD SLOAD PUSH1 0x1 PUSH1 0x1 PUSH1 0xA0 SHL SUB AND SWAP1 POP DUP2 JUMP JUMPDEST PUSH1 0x1 PUSH1 0x1 PUSH1 0xA0 SHL SUB DUP2 AND PUSH1 0x0 SWAP1 DUP2 MSTORE PUSH1 0x12 PUSH1 0x20 MSTORE PUSH1 0x40 SWAP1 KECCAK256 SLOAD PUSH1 0xFF AND PUSH2 0x18D5 JUMPI PUSH1 0x40 MLOAD PUSH3 0x461BCD PUSH1 0xE5 SHL DUP2 MSTORE PUSH1 0x4 ADD PUSH2 0xAED SWAP1 PUSH2 0x5634 JUMP JUMPDEST PUSH2 0x1925 DUP2 CALLER PUSH1 0x40 DUP1 MLOAD PUSH1 0x80 DUP2 ADD DUP3 MSTORE PUSH1 0x14 DUP2 DUP4 ADD SWAP1 DUP2 MSTORE PUSH20 0x18DB185A5B481CDD185ADA5B99C81C995DD85C99 PUSH1 0x62 SHL PUSH1 0x60 DUP4 ADD MSTORE DUP2 MSTORE DUP2 MLOAD PUSH1 0x20 DUP2 DUP2 ADD SWAP1 SWAP4 MSTORE PUSH1 0x0 DUP2 MSTORE SWAP2 DUP2 ADD SWAP2 SWAP1 SWAP2 MSTORE PUSH2 0x3B57 JUMP JUMPDEST POP JUMP JUMPDEST PUSH1 0x0 SLOAD PUSH1 0x1 PUSH1 0x1 PUSH1 0xA0 SHL SUB AND CALLER EQ PUSH2 0x1952 JUMPI PUSH1 0x40 MLOAD PUSH3 0x461BCD PUSH1 0xE5 SHL DUP2 MSTORE PUSH1 0x4 ADD PUSH2 0xAED SWAP1 PUSH2 0x5492 JUMP JUMPDEST PUSH1 0x0 DUP3 DUP2 MSTORE PUSH1 0xF PUSH1 0x20 SWAP1 DUP2 MSTORE PUSH1 0x40 SWAP1 SWAP2 KECCAK256 DUP3 MLOAD PUSH2 0xEC5 SWAP3 DUP5 ADD SWAP1 PUSH2 0x4AB5 JUMP JUMPDEST PUSH2 0x197A DUP4 PUSH2 0x3817 JUMP JUMPDEST PUSH2 0x1983 DUP2 PUSH2 0x3856 JUMP JUMPDEST PUSH2 0x19AC DUP5 DUP5 DUP5 PUSH1 0x40 MLOAD DUP1 PUSH1 0x40 ADD PUSH1 0x40 MSTORE DUP1 PUSH1 0x5 DUP2 MSTORE PUSH1 0x20 ADD PUSH5 0x30B236B4B7 PUSH1 0xD9 SHL DUP2 MSTORE POP PUSH2 0x40F0 JUMP JUMPDEST POP POP POP POP JUMP JUMPDEST PUSH2 0x19BB DUP3 PUSH2 0x2BD4 JUMP JUMPDEST PUSH2 0x1A07 JUMPI PUSH1 0x40 MLOAD PUSH3 0x461BCD PUSH1 0xE5 SHL DUP2 MSTORE PUSH1 0x20 PUSH1 0x4 DUP3 ADD MSTORE PUSH1 0x1C PUSH1 0x24 DUP3 ADD MSTORE PUSH32 0x52657761726420746F6B656E20646F6573206E6F742065786973742E00000000 PUSH1 0x44 DUP3 ADD MSTORE PUSH1 0x64 ADD PUSH2 0xAED JUMP JUMPDEST PUSH1 0x0 DUP2 GT PUSH2 0x1A27 JUMPI PUSH1 0x40 MLOAD PUSH3 0x461BCD PUSH1 0xE5 SHL DUP2 MSTORE PUSH1 0x4 ADD PUSH2 0xAED SWAP1 PUSH2 0x5565 JUMP JUMPDEST PUSH1 0x1 PUSH1 0x1 PUSH1 0xA0 SHL SUB DUP3 AND PUSH1 0x0 SWAP1 DUP2 MSTORE PUSH1 0x15 PUSH1 0x20 SWAP1 DUP2 MSTORE PUSH1 0x40 DUP1 DUP4 KECCAK256 CALLER DUP5 MSTORE SWAP1 SWAP2 MSTORE SWAP1 KECCAK256 SLOAD DUP2 GT ISZERO PUSH2 0x1A9A JUMPI PUSH1 0x40 MLOAD PUSH3 0x461BCD PUSH1 0xE5 SHL DUP2 MSTORE PUSH1 0x20 PUSH1 0x4 DUP3 ADD MSTORE PUSH1 0x1C PUSH1 0x24 DUP3 ADD MSTORE PUSH32 0x496E73756666696369656E74207265776172642062616C616E63652E00000000 PUSH1 0x44 DUP3 ADD MSTORE PUSH1 0x64 ADD PUSH2 0xAED JUMP JUMPDEST PUSH1 0x1 PUSH1 0x1 PUSH1 0xA0 SHL SUB DUP3 AND PUSH1 0x0 SWAP1 DUP2 MSTORE PUSH1 0x15 PUSH1 0x20 SWAP1 DUP2 MSTORE PUSH1 0x40 DUP1 DUP4 KECCAK256 CALLER DUP5 MSTORE SWAP1 SWAP2 MSTORE DUP2 KECCAK256 DUP1 SLOAD DUP4 SWAP3 SWAP1 PUSH2 0x1ACD SWAP1 DUP5 SWAP1 PUSH2 0x5605 JUMP JUMPDEST SWAP1 SWAP2 SSTORE POP POP PUSH1 0x1 PUSH1 0x1 PUSH1 0xA0 SHL SUB DUP3 AND PUSH1 0x0 DUP2 DUP2 MSTORE PUSH1 0x15 PUSH1 0x20 SWAP1 DUP2 MSTORE PUSH1 0x40 DUP1 DUP4 KECCAK256 CALLER DUP1 DUP6 MSTORE SWAP3 MSTORE SWAP1 SWAP2 KECCAK256 TIMESTAMP PUSH1 0x6 SWAP1 SWAP2 ADD SSTORE PUSH4 0xA9059CBB SWAP1 PUSH1 0x40 MLOAD PUSH1 0x1 PUSH1 0x1 PUSH1 0xE0 SHL SUB NOT PUSH1 0xE0 DUP5 SWAP1 SHL AND DUP2 MSTORE PUSH1 0x1 PUSH1 0x1 PUSH1 0xA0 SHL SUB SWAP1 SWAP2 AND PUSH1 0x4 DUP3 ADD MSTORE PUSH1 0x24 DUP2 ADD DUP5 SWAP1 MSTORE PUSH1 0x44 ADD PUSH1 0x20 PUSH1 0x40 MLOAD DUP1 DUP4 SUB DUP2 PUSH1 0x0 DUP8 GAS CALL ISZERO DUP1 ISZERO PUSH2 0x1B50 JUMPI RETURNDATASIZE PUSH1 0x0 DUP1 RETURNDATACOPY RETURNDATASIZE PUSH1 0x0 REVERT JUMPDEST POP POP POP POP PUSH1 0x40 MLOAD RETURNDATASIZE PUSH1 0x1F NOT PUSH1 0x1F DUP3 ADD AND DUP3 ADD DUP1 PUSH1 0x40 MSTORE POP DUP2 ADD SWAP1 PUSH2 0xEC5 SWAP2 SWAP1 PUSH2 0x55E3 JUMP JUMPDEST PUSH2 0x1B7D DUP2 PUSH2 0x3817 JUMP JUMPDEST PUSH2 0x1B86 DUP2 PUSH2 0x3856 JUMP JUMPDEST PUSH2 0x1B8F DUP3 PUSH2 0x2BD4 JUMP JUMPDEST PUSH2 0x1BAB JUMPI PUSH1 0x40 MLOAD PUSH3 0x461BCD PUSH1 0xE5 SHL DUP2 MSTORE PUSH1 0x4 ADD PUSH2 0xAED SWAP1 PUSH2 0x5501 JUMP JUMPDEST POP PUSH1 0x1 PUSH1 0x1 PUSH1 0xA0 SHL SUB AND PUSH1 0x0 SWAP1 DUP2 MSTORE PUSH1 0x12 PUSH1 0x20 MSTORE PUSH1 0x40 SWAP1 KECCAK256 DUP1 SLOAD PUSH1 0xFF NOT AND SWAP1 SSTORE JUMP JUMPDEST PUSH1 0x0 DUP1 PUSH2 0x1BD9 DUP6 PUSH2 0x2BD4 JUMP JUMPDEST PUSH2 0x1BF5 JUMPI PUSH1 0x40 MLOAD PUSH3 0x461BCD PUSH1 0xE5 SHL DUP2 MSTORE PUSH1 0x4 ADD PUSH2 0xAED SWAP1 PUSH2 0x5501 JUMP JUMPDEST PUSH1 0x0 DUP5 GT PUSH2 0x1C15 JUMPI PUSH1 0x40 MLOAD PUSH3 0x461BCD PUSH1 0xE5 SHL DUP2 MSTORE PUSH1 0x4 ADD PUSH2 0xAED SWAP1 PUSH2 0x5565 JUMP JUMPDEST PUSH1 0x0 DUP1 PUSH1 0x40 MLOAD PUSH1 0x20 ADD PUSH2 0x1C35 SWAP1 PUSH7 0x19195C1BDCDA5D PUSH1 0xCA SHL DUP2 MSTORE PUSH1 0x7 ADD SWAP1 JUMP JUMPDEST PUSH1 0x40 MLOAD PUSH1 0x20 DUP2 DUP4 SUB SUB DUP2 MSTORE SWAP1 PUSH1 0x40 MSTORE DUP1 MLOAD SWAP1 PUSH1 0x20 ADD KECCAK256 DUP6 PUSH1 0x40 MLOAD PUSH1 0x20 ADD PUSH2 0x1C5C SWAP2 SWAP1 PUSH2 0x565F JUMP JUMPDEST PUSH1 0x40 MLOAD PUSH1 0x20 DUP2 DUP4 SUB SUB DUP2 MSTORE SWAP1 PUSH1 0x40 MSTORE DUP1 MLOAD SWAP1 PUSH1 0x20 ADD KECCAK256 SUB PUSH2 0x1CC6 JUMPI PUSH1 0x1 PUSH1 0x1 PUSH1 0xA0 SHL SUB DUP8 AND PUSH1 0x0 SWAP1 DUP2 MSTORE PUSH1 0x12 PUSH1 0x20 MSTORE PUSH1 0x40 SWAP1 KECCAK256 PUSH1 0x9 ADD SLOAD PUSH1 0x1 LT PUSH2 0x1CA2 JUMPI PUSH1 0xD SLOAD PUSH2 0x1CBF JUMP JUMPDEST PUSH1 0x1 PUSH1 0x1 PUSH1 0xA0 SHL SUB DUP8 AND PUSH1 0x0 SWAP1 DUP2 MSTORE PUSH1 0x12 PUSH1 0x20 MSTORE PUSH1 0x40 SWAP1 KECCAK256 PUSH1 0x9 ADD SLOAD JUMPDEST SWAP2 POP PUSH2 0x1F4B JUMP JUMPDEST PUSH1 0x40 MLOAD PUSH8 0x7769746864726177 PUSH1 0xC0 SHL PUSH1 0x20 DUP3 ADD MSTORE PUSH1 0x28 ADD PUSH1 0x40 MLOAD PUSH1 0x20 DUP2 DUP4 SUB SUB DUP2 MSTORE SWAP1 PUSH1 0x40 MSTORE DUP1 MLOAD SWAP1 PUSH1 0x20 ADD KECCAK256 DUP6 PUSH1 0x40 MLOAD PUSH1 0x20 ADD PUSH2 0x1D04 SWAP2 SWAP1 PUSH2 0x565F JUMP JUMPDEST PUSH1 0x40 MLOAD PUSH1 0x20 DUP2 DUP4 SUB SUB DUP2 MSTORE SWAP1 PUSH1 0x40 MSTORE DUP1 MLOAD SWAP1 PUSH1 0x20 ADD KECCAK256 SUB PUSH2 0x1D6D JUMPI PUSH1 0x1 PUSH1 0x1 PUSH1 0xA0 SHL SUB DUP8 AND PUSH1 0x0 SWAP1 DUP2 MSTORE PUSH1 0x12 PUSH1 0x20 MSTORE PUSH1 0x40 SWAP1 KECCAK256 PUSH1 0xA ADD SLOAD PUSH1 0x1 LT PUSH2 0x1D4A JUMPI PUSH1 0xD SLOAD PUSH2 0x1CBF JUMP JUMPDEST PUSH1 0x1 PUSH1 0x1 PUSH1 0xA0 SHL SUB DUP8 AND PUSH1 0x0 SWAP1 DUP2 MSTORE PUSH1 0x12 PUSH1 0x20 MSTORE PUSH1 0x40 SWAP1 KECCAK256 PUSH1 0xA ADD SLOAD SWAP2 POP PUSH2 0x1F4B JUMP JUMPDEST PUSH1 0x40 MLOAD PUSH5 0x7374616B65 PUSH1 0xD8 SHL PUSH1 0x20 DUP3 ADD MSTORE PUSH1 0x25 ADD PUSH1 0x40 MLOAD PUSH1 0x20 DUP2 DUP4 SUB SUB DUP2 MSTORE SWAP1 PUSH1 0x40 MSTORE DUP1 MLOAD SWAP1 PUSH1 0x20 ADD KECCAK256 DUP6 PUSH1 0x40 MLOAD PUSH1 0x20 ADD PUSH2 0x1DA8 SWAP2 SWAP1 PUSH2 0x565F JUMP JUMPDEST PUSH1 0x40 MLOAD PUSH1 0x20 DUP2 DUP4 SUB SUB DUP2 MSTORE SWAP1 PUSH1 0x40 MSTORE DUP1 MLOAD SWAP1 PUSH1 0x20 ADD KECCAK256 SUB PUSH2 0x1E5D JUMPI PUSH1 0x1 PUSH1 0x1 PUSH1 0xA0 SHL SUB DUP8 AND PUSH1 0x0 SWAP1 DUP2 MSTORE PUSH1 0x12 PUSH1 0x20 MSTORE PUSH1 0x40 SWAP1 KECCAK256 PUSH1 0xB ADD SLOAD PUSH1 0x1 LT PUSH2 0x1DEE JUMPI PUSH1 0xA SLOAD PUSH2 0x1E0B JUMP JUMPDEST PUSH1 0x1 PUSH1 0x1 PUSH1 0xA0 SHL SUB DUP8 AND PUSH1 0x0 SWAP1 DUP2 MSTORE PUSH1 0x12 PUSH1 0x20 MSTORE PUSH1 0x40 SWAP1 KECCAK256 PUSH1 0xB ADD SLOAD JUMPDEST PUSH1 0x1 PUSH1 0x1 PUSH1 0xA0 SHL SUB DUP9 AND PUSH1 0x0 SWAP1 DUP2 MSTORE PUSH1 0x12 PUSH1 0x20 MSTORE PUSH1 0x40 SWAP1 KECCAK256 PUSH1 0xD ADD SLOAD SWAP1 SWAP3 POP PUSH1 0x1 LT PUSH2 0x1E39 JUMPI PUSH1 0xA SLOAD PUSH2 0x1E56 JUMP JUMPDEST PUSH1 0x1 PUSH1 0x1 PUSH1 0xA0 SHL SUB DUP8 AND PUSH1 0x0 SWAP1 DUP2 MSTORE PUSH1 0x12 PUSH1 0x20 MSTORE PUSH1 0x40 SWAP1 KECCAK256 PUSH1 0xD ADD SLOAD JUMPDEST SWAP1 POP PUSH2 0x1F4B JUMP JUMPDEST PUSH1 0x40 MLOAD PUSH7 0x756E7374616B65 PUSH1 0xC8 SHL PUSH1 0x20 DUP3 ADD MSTORE PUSH1 0x27 ADD PUSH1 0x40 MLOAD PUSH1 0x20 DUP2 DUP4 SUB SUB DUP2 MSTORE SWAP1 PUSH1 0x40 MSTORE DUP1 MLOAD SWAP1 PUSH1 0x20 ADD KECCAK256 DUP6 PUSH1 0x40 MLOAD PUSH1 0x20 ADD PUSH2 0x1E9A SWAP2 SWAP1 PUSH2 0x565F JUMP JUMPDEST PUSH1 0x40 MLOAD PUSH1 0x20 DUP2 DUP4 SUB SUB DUP2 MSTORE SWAP1 PUSH1 0x40 MSTORE DUP1 MLOAD SWAP1 PUSH1 0x20 ADD KECCAK256 SUB PUSH2 0x1F4B JUMPI PUSH1 0x1 PUSH1 0x1 PUSH1 0xA0 SHL SUB DUP8 AND PUSH1 0x0 SWAP1 DUP2 MSTORE PUSH1 0x12 PUSH1 0x20 MSTORE PUSH1 0x40 SWAP1 KECCAK256 PUSH1 0xC ADD SLOAD PUSH1 0x1 LT PUSH2 0x1EE0 JUMPI PUSH1 0xA SLOAD PUSH2 0x1EFD JUMP JUMPDEST PUSH1 0x1 PUSH1 0x1 PUSH1 0xA0 SHL SUB DUP8 AND PUSH1 0x0 SWAP1 DUP2 MSTORE PUSH1 0x12 PUSH1 0x20 MSTORE PUSH1 0x40 SWAP1 KECCAK256 PUSH1 0xC ADD SLOAD JUMPDEST PUSH1 0x1 PUSH1 0x1 PUSH1 0xA0 SHL SUB DUP9 AND PUSH1 0x0 SWAP1 DUP2 MSTORE PUSH1 0x12 PUSH1 0x20 MSTORE PUSH1 0x40 SWAP1 KECCAK256 PUSH1 0xE ADD SLOAD SWAP1 SWAP3 POP PUSH1 0x1 LT PUSH2 0x1F2B JUMPI PUSH1 0xA SLOAD PUSH2 0x1F48 JUMP JUMPDEST PUSH1 0x1 PUSH1 0x1 PUSH1 0xA0 SHL SUB DUP8 AND PUSH1 0x0 SWAP1 DUP2 MSTORE PUSH1 0x12 PUSH1 0x20 MSTORE PUSH1 0x40 SWAP1 KECCAK256 PUSH1 0xE ADD SLOAD JUMPDEST SWAP1 POP JUMPDEST PUSH1 0x0 PUSH2 0x1F57 DUP4 DUP9 PUSH2 0x4307 JUMP JUMPDEST SWAP1 POP PUSH1 0x0 PUSH2 0x1F65 DUP4 DUP10 PUSH2 0x4307 JUMP JUMPDEST CALLER PUSH1 0x0 DUP2 DUP2 MSTORE PUSH1 0xE PUSH1 0x20 SWAP1 DUP2 MSTORE PUSH1 0x40 DUP1 DUP4 KECCAK256 SLOAD PUSH1 0x1 PUSH1 0x1 PUSH1 0xA0 SHL SUB DUP16 AND DUP5 MSTORE PUSH1 0x10 DUP4 MSTORE DUP2 DUP5 KECCAK256 SWAP5 DUP5 MSTORE SWAP4 SWAP1 SWAP2 MSTORE SWAP1 KECCAK256 SLOAD SWAP2 SWAP3 POP PUSH1 0xFF SWAP1 DUP2 AND SWAP2 AND DUP2 ISZERO PUSH2 0x1FB2 JUMPI PUSH1 0x0 SWAP4 POP PUSH1 0x0 SWAP3 POP PUSH2 0x1FBD JUMP JUMPDEST DUP1 ISZERO PUSH2 0x1FBD JUMPI PUSH1 0x0 SWAP3 POP JUMPDEST POP SWAP2 SWAP10 SWAP1 SWAP9 POP SWAP7 POP POP POP POP POP POP POP JUMP JUMPDEST PUSH2 0x1FD6 DUP3 PUSH2 0x2BD4 JUMP JUMPDEST PUSH2 0x1FF2 JUMPI PUSH1 0x40 MLOAD PUSH3 0x461BCD PUSH1 0xE5 SHL DUP2 MSTORE PUSH1 0x4 ADD PUSH2 0xAED SWAP1 PUSH2 0x5501 JUMP JUMPDEST PUSH1 0x0 DUP2 GT PUSH2 0x2012 JUMPI PUSH1 0x40 MLOAD PUSH3 0x461BCD PUSH1 0xE5 SHL DUP2 MSTORE PUSH1 0x4 ADD PUSH2 0xAED SWAP1 PUSH2 0x5565 JUMP JUMPDEST PUSH1 0x1 PUSH1 0x1 PUSH1 0xA0 SHL SUB DUP3 AND PUSH1 0x0 SWAP1 DUP2 MSTORE PUSH1 0x15 PUSH1 0x20 SWAP1 DUP2 MSTORE PUSH1 0x40 DUP1 DUP4 KECCAK256 CALLER DUP5 MSTORE SWAP1 SWAP2 MSTORE SWAP1 KECCAK256 PUSH1 0x1 ADD SLOAD DUP2 GT ISZERO PUSH2 0x2088 JUMPI PUSH1 0x40 MLOAD PUSH3 0x461BCD PUSH1 0xE5 SHL DUP2 MSTORE PUSH1 0x20 PUSH1 0x4 DUP3 ADD MSTORE PUSH1 0x1D PUSH1 0x24 DUP3 ADD MSTORE PUSH32 0x496E73756666696369656E74207374616B696E672062616C616E63652E000000 PUSH1 0x44 DUP3 ADD MSTORE PUSH1 0x64 ADD PUSH2 0xAED JUMP JUMPDEST PUSH2 0x20CE DUP3 CALLER PUSH1 0x40 DUP1 MLOAD PUSH1 0x80 DUP2 ADD DUP3 MSTORE PUSH1 0x7 SWAP2 DUP2 ADD SWAP2 DUP3 MSTORE PUSH7 0x756E7374616B65 PUSH1 0xC8 SHL PUSH1 0x60 DUP3 ADD MSTORE SWAP1 DUP2 MSTORE PUSH1 0x20 DUP2 ADD PUSH2 0x20C7 PUSH2 0x20C2 DUP8 PUSH2 0x3A71 JUMP JUMPDEST PUSH2 0x4328 JUMP JUMPDEST SWAP1 MSTORE PUSH2 0x3B57 JUMP JUMPDEST PUSH1 0x1 PUSH1 0x1 PUSH1 0xA0 SHL SUB DUP3 AND PUSH1 0x0 SWAP1 DUP2 MSTORE PUSH1 0x15 PUSH1 0x20 SWAP1 DUP2 MSTORE PUSH1 0x40 DUP1 DUP4 KECCAK256 CALLER DUP5 MSTORE SWAP1 SWAP2 MSTORE SWAP1 KECCAK256 PUSH1 0x1 ADD SLOAD DUP2 SWAP1 SUB PUSH2 0x217C JUMPI CALLER PUSH1 0x0 SWAP1 DUP2 MSTORE PUSH1 0x14 PUSH1 0x20 MSTORE PUSH1 0x40 SWAP1 KECCAK256 PUSH1 0x1 SWAP1 DUP2 ADD SLOAD SWAP1 SUB PUSH2 0x212F JUMPI CALLER PUSH1 0x0 SWAP1 DUP2 MSTORE PUSH1 0x14 PUSH1 0x20 MSTORE PUSH1 0x40 SWAP1 KECCAK256 DUP1 SLOAD PUSH1 0xFF NOT AND SWAP1 SSTORE JUMPDEST CALLER PUSH1 0x0 SWAP1 DUP2 MSTORE PUSH1 0x14 PUSH1 0x20 MSTORE PUSH1 0x40 DUP2 KECCAK256 PUSH1 0x1 ADD DUP1 SLOAD SWAP2 PUSH2 0x214D DUP4 PUSH2 0x567B JUMP JUMPDEST SWAP2 SWAP1 POP SSTORE POP TIMESTAMP PUSH1 0x14 PUSH1 0x0 PUSH2 0x215E CALLER SWAP1 JUMP JUMPDEST PUSH1 0x1 PUSH1 0x1 PUSH1 0xA0 SHL SUB AND DUP2 MSTORE PUSH1 0x20 DUP2 ADD SWAP2 SWAP1 SWAP2 MSTORE PUSH1 0x40 ADD PUSH1 0x0 KECCAK256 PUSH1 0x3 ADD SSTORE JUMPDEST PUSH1 0x1 PUSH1 0x1 PUSH1 0xA0 SHL SUB DUP3 AND PUSH1 0x0 SWAP1 DUP2 MSTORE PUSH1 0x15 PUSH1 0x20 SWAP1 DUP2 MSTORE PUSH1 0x40 DUP1 DUP4 KECCAK256 CALLER DUP5 MSTORE SWAP1 SWAP2 MSTORE DUP2 KECCAK256 PUSH1 0x1 ADD DUP1 SLOAD DUP4 SWAP3 SWAP1 PUSH2 0x21B2 SWAP1 DUP5 SWAP1 PUSH2 0x5605 JUMP JUMPDEST SWAP1 SWAP2 SSTORE POP POP PUSH1 0x1 PUSH1 0x1 PUSH1 0xA0 SHL SUB DUP3 AND PUSH1 0x0 DUP2 DUP2 MSTORE PUSH1 0x15 PUSH1 0x20 SWAP1 DUP2 MSTORE PUSH1 0x40 DUP1 DUP4 KECCAK256 CALLER DUP5 MSTORE DUP3 MSTORE DUP1 DUP4 KECCAK256 TIMESTAMP PUSH1 0x6 SWAP1 SWAP2 ADD SSTORE SWAP3 DUP3 MSTORE PUSH1 0x12 SWAP1 MSTORE SWAP1 DUP2 KECCAK256 PUSH1 0x5 ADD DUP1 SLOAD DUP4 SWAP3 SWAP1 PUSH2 0x21FE SWAP1 DUP5 SWAP1 PUSH2 0x5605 JUMP JUMPDEST SWAP3 POP POP DUP2 SWAP1 SSTORE POP TIMESTAMP PUSH1 0x12 PUSH1 0x0 DUP5 PUSH1 0x1 PUSH1 0x1 PUSH1 0xA0 SHL SUB AND PUSH1 0x1 PUSH1 0x1 PUSH1 0xA0 SHL SUB AND DUP2 MSTORE PUSH1 0x20 ADD SWAP1 DUP2 MSTORE PUSH1 0x20 ADD PUSH1 0x0 KECCAK256 PUSH1 0x10 ADD DUP2 SWAP1 SSTORE POP PUSH1 0x0 DUP1 PUSH2 0x225F DUP5 DUP5 PUSH1 0x40 MLOAD DUP1 PUSH1 0x40 ADD PUSH1 0x40 MSTORE DUP1 PUSH1 0x7 DUP2 MSTORE PUSH1 0x20 ADD PUSH7 0x756E7374616B65 PUSH1 0xC8 SHL DUP2 MSTORE POP PUSH2 0x1BCD JUMP JUMPDEST SWAP2 POP SWAP2 POP DUP2 PUSH1 0x0 EQ PUSH2 0x22E4 JUMPI PUSH1 0x2 SLOAD PUSH1 0x40 MLOAD PUSH4 0xA9059CBB PUSH1 0xE0 SHL DUP2 MSTORE PUSH1 0x1 PUSH1 0x1 PUSH1 0xA0 SHL SUB SWAP2 DUP3 AND PUSH1 0x4 DUP3 ADD MSTORE PUSH1 0x24 DUP2 ADD DUP5 SWAP1 MSTORE SWAP1 DUP6 AND SWAP1 PUSH4 0xA9059CBB SWAP1 PUSH1 0x44 ADD PUSH1 0x20 PUSH1 0x40 MLOAD DUP1 DUP4 SUB DUP2 PUSH1 0x0 DUP8 GAS CALL ISZERO DUP1 ISZERO PUSH2 0x22BE JUMPI RETURNDATASIZE PUSH1 0x0 DUP1 RETURNDATACOPY RETURNDATASIZE PUSH1 0x0 REVERT JUMPDEST POP POP POP POP PUSH1 0x40 MLOAD RETURNDATASIZE PUSH1 0x1F NOT PUSH1 0x1F DUP3 ADD AND DUP3 ADD DUP1 PUSH1 0x40 MSTORE POP DUP2 ADD SWAP1 PUSH2 0x22E2 SWAP2 SWAP1 PUSH2 0x55E3 JUMP JUMPDEST POP JUMPDEST DUP1 ISZERO PUSH2 0x2372 JUMPI PUSH1 0x1 PUSH1 0x1 PUSH1 0xA0 SHL SUB DUP5 DUP2 AND PUSH1 0x0 DUP2 DUP2 MSTORE PUSH1 0x12 PUSH1 0x20 MSTORE PUSH1 0x40 SWAP1 DUP2 SWAP1 KECCAK256 PUSH1 0x8 ADD SLOAD SWAP1 MLOAD PUSH4 0xA9059CBB PUSH1 0xE0 SHL DUP2 MSTORE SWAP3 AND PUSH1 0x4 DUP4 ADD MSTORE PUSH1 0x24 DUP3 ADD DUP4 SWAP1 MSTORE SWAP1 PUSH4 0xA9059CBB SWAP1 PUSH1 0x44 ADD PUSH1 0x20 PUSH1 0x40 MLOAD DUP1 DUP4 SUB DUP2 PUSH1 0x0 DUP8 GAS CALL ISZERO DUP1 ISZERO PUSH2 0x234C JUMPI RETURNDATASIZE PUSH1 0x0 DUP1 RETURNDATACOPY RETURNDATASIZE PUSH1 0x0 REVERT JUMPDEST POP POP POP POP PUSH1 0x40 MLOAD RETURNDATASIZE PUSH1 0x1F NOT PUSH1 0x1F DUP3 ADD AND DUP3 ADD DUP1 PUSH1 0x40 MSTORE POP DUP2 ADD SWAP1 PUSH2 0x2370 SWAP2 SWAP1 PUSH2 0x55E3 JUMP JUMPDEST POP JUMPDEST PUSH1 0x0 PUSH2 0x237E DUP3 DUP5 PUSH2 0x561C JUMP JUMPDEST PUSH2 0x2388 SWAP1 DUP6 PUSH2 0x5605 JUMP JUMPDEST SWAP1 POP PUSH1 0x1 PUSH1 0x1 PUSH1 0xA0 SHL SUB DUP6 AND PUSH4 0xA9059CBB CALLER PUSH1 0x40 MLOAD PUSH1 0x1 PUSH1 0x1 PUSH1 0xE0 SHL SUB NOT PUSH1 0xE0 DUP5 SWAP1 SHL AND DUP2 MSTORE PUSH1 0x1 PUSH1 0x1 PUSH1 0xA0 SHL SUB SWAP1 SWAP2 AND PUSH1 0x4 DUP3 ADD MSTORE PUSH1 0x24 DUP2 ADD DUP5 SWAP1 MSTORE PUSH1 0x44 ADD PUSH1 0x20 PUSH1 0x40 MLOAD DUP1 DUP4 SUB DUP2 PUSH1 0x0 DUP8 GAS CALL ISZERO DUP1 ISZERO PUSH2 0x23E7 JUMPI RETURNDATASIZE PUSH1 0x0 DUP1 RETURNDATACOPY RETURNDATASIZE PUSH1 0x0 REVERT JUMPDEST POP POP POP POP PUSH1 0x40 MLOAD RETURNDATASIZE PUSH1 0x1F NOT PUSH1 0x1F DUP3 ADD AND DUP3 ADD DUP1 PUSH1 0x40 MSTORE POP DUP2 ADD SWAP1 PUSH2 0x240B SWAP2 SWAP1 PUSH2 0x55E3 JUMP JUMPDEST POP POP POP POP POP POP JUMP JUMPDEST PUSH1 0x0 SLOAD PUSH1 0x1 PUSH1 0x1 PUSH1 0xA0 SHL SUB AND CALLER EQ PUSH2 0x243D JUMPI PUSH1 0x40 MLOAD PUSH3 0x461BCD PUSH1 0xE5 SHL DUP2 MSTORE PUSH1 0x4 ADD PUSH2 0xAED SWAP1 PUSH2 0x5492 JUMP JUMPDEST PUSH2 0x2447 PUSH1 0x0 PUSH2 0x4431 JUMP JUMPDEST JUMP JUMPDEST PUSH2 0x2452 DUP3 PUSH2 0x3817 JUMP JUMPDEST PUSH2 0x245B DUP2 PUSH2 0x3856 JUMP JUMPDEST PUSH2 0x2464 DUP4 PUSH2 0x2BD4 JUMP JUMPDEST PUSH2 0x2480 JUMPI PUSH1 0x40 MLOAD PUSH3 0x461BCD PUSH1 0xE5 SHL DUP2 MSTORE PUSH1 0x4 ADD PUSH2 0xAED SWAP1 PUSH2 0x5501 JUMP JUMPDEST PUSH1 0x5 SLOAD DUP3 LT DUP1 ISZERO SWAP1 PUSH2 0x2494 JUMPI POP PUSH1 0x6 SLOAD DUP3 GT ISZERO JUMPDEST PUSH2 0x24A5 PUSH2 0x20C2 PUSH1 0x2 PUSH1 0x3 ADD SLOAD PUSH2 0x3A71 JUMP JUMPDEST PUSH2 0x24B6 PUSH2 0x20C2 PUSH1 0x2 PUSH1 0x4 ADD SLOAD PUSH2 0x3A71 JUMP JUMPDEST PUSH1 0x40 MLOAD PUSH1 0x20 ADD PUSH2 0x24C7 SWAP3 SWAP2 SWAP1 PUSH2 0x5692 JUMP JUMPDEST PUSH1 0x40 MLOAD PUSH1 0x20 DUP2 DUP4 SUB SUB DUP2 MSTORE SWAP1 PUSH1 0x40 MSTORE SWAP1 PUSH2 0x24F4 JUMPI PUSH1 0x40 MLOAD PUSH3 0x461BCD PUSH1 0xE5 SHL DUP2 MSTORE PUSH1 0x4 ADD PUSH2 0xAED SWAP2 SWAP1 PUSH2 0x50F4 JUMP JUMPDEST POP POP PUSH1 0x1 PUSH1 0x1 PUSH1 0xA0 SHL SUB SWAP1 SWAP2 AND PUSH1 0x0 SWAP1 DUP2 MSTORE PUSH1 0x12 PUSH1 0x20 MSTORE PUSH1 0x40 SWAP1 KECCAK256 PUSH1 0x6 DUP2 ADD SWAP2 SWAP1 SWAP2 SSTORE TIMESTAMP PUSH1 0x10 SWAP1 SWAP2 ADD SSTORE JUMP JUMPDEST PUSH1 0x2 DUP1 SLOAD PUSH1 0x1 PUSH1 0x1 PUSH1 0xA0 SHL SUB NOT AND CALLER OR DUP2 SSTORE PUSH1 0x3 SSTORE PUSH1 0xF PUSH1 0x4 SSTORE PUSH2 0x2544 PUSH1 0x32 PUSH2 0x4481 JUMP JUMPDEST PUSH1 0x5 SSTORE PUSH2 0x2552 PUSH2 0x3E8 PUSH2 0x4481 JUMP JUMPDEST PUSH1 0x6 SSTORE PUSH2 0x255F PUSH1 0x64 PUSH2 0x4481 JUMP JUMPDEST PUSH1 0x7 SSTORE PUSH1 0x0 PUSH1 0x8 SSTORE PUSH2 0x2571 PUSH1 0xA PUSH2 0x4481 JUMP JUMPDEST PUSH1 0x9 SSTORE PUSH2 0x257E PUSH1 0x1 PUSH2 0x4481 JUMP JUMPDEST PUSH1 0xA SWAP1 DUP2 SSTORE PUSH1 0x0 PUSH1 0xB SSTORE PUSH2 0x2591 SWAP1 PUSH2 0x4481 JUMP JUMPDEST PUSH1 0xC SSTORE PUSH2 0x259E PUSH1 0x1 PUSH2 0x4481 JUMP JUMPDEST PUSH1 0xD SSTORE PUSH2 0x25AC PUSH1 0x0 CALLER PUSH2 0x4495 JUMP JUMPDEST PUSH2 0x2447 CALLER PUSH2 0x4431 JUMP JUMPDEST PUSH1 0x0 SLOAD PUSH1 0x1 PUSH1 0x1 PUSH1 0xA0 SHL SUB AND CALLER EQ PUSH2 0x25DF JUMPI PUSH1 0x40 MLOAD PUSH3 0x461BCD PUSH1 0xE5 SHL DUP2 MSTORE PUSH1 0x4 ADD PUSH2 0xAED SWAP1 PUSH2 0x5492 JUMP JUMPDEST PUSH2 0xEC5 DUP4 DUP4 DUP4 PUSH1 0x40 MLOAD DUP1 PUSH1 0x40 ADD PUSH1 0x40 MSTORE DUP1 PUSH1 0x3 DUP2 MSTORE PUSH1 0x20 ADD PUSH3 0x3232BB PUSH1 0xE9 SHL DUP2 MSTORE POP PUSH2 0x40F0 JUMP JUMPDEST PUSH1 0x0 SWAP2 DUP3 MSTORE PUSH1 0x1 PUSH1 0x20 SWAP1 DUP2 MSTORE PUSH1 0x40 DUP1 DUP5 KECCAK256 PUSH1 0x1 PUSH1 0x1 PUSH1 0xA0 SHL SUB SWAP4 SWAP1 SWAP4 AND DUP5 MSTORE SWAP2 SWAP1 MSTORE SWAP1 KECCAK256 SLOAD PUSH1 0xFF AND SWAP1 JUMP JUMPDEST PUSH2 0x263A DUP8 PUSH2 0x2BD4 JUMP JUMPDEST ISZERO PUSH2 0x267F JUMPI PUSH1 0x40 MLOAD PUSH3 0x461BCD PUSH1 0xE5 SHL DUP2 MSTORE PUSH1 0x20 PUSH1 0x4 DUP3 ADD MSTORE PUSH1 0x15 PUSH1 0x24 DUP3 ADD MSTORE PUSH21 0x2A37B5B2B71030B63932B0B23C9032BC34B9BA3997 PUSH1 0x59 SHL PUSH1 0x44 DUP3 ADD MSTORE PUSH1 0x64 ADD PUSH2 0xAED JUMP JUMPDEST PUSH2 0x269C PUSH2 0x268B DUP9 PUSH2 0x3817 JUMP JUMPDEST PUSH1 0x0 SLOAD PUSH1 0x1 PUSH1 0x1 PUSH1 0xA0 SHL SUB AND PUSH2 0x4495 JUMP JUMPDEST PUSH2 0x26AE PUSH2 0x26A8 DUP9 PUSH2 0x3817 JUMP JUMPDEST CALLER PUSH2 0x4495 JUMP JUMPDEST PUSH1 0x11 DUP1 SLOAD PUSH1 0x1 DUP1 DUP3 ADD SWAP1 SWAP3 SSTORE PUSH32 0x31ECC21A745E3968A04E9570E4425BC18FA8019C68028196B546D1669C200C68 ADD DUP1 SLOAD PUSH1 0x1 PUSH1 0x1 PUSH1 0xA0 SHL SUB DUP11 AND PUSH1 0x1 PUSH1 0x1 PUSH1 0xA0 SHL SUB NOT SWAP2 DUP3 AND DUP2 OR SWAP1 SWAP3 SSTORE PUSH1 0x0 SWAP2 DUP3 MSTORE PUSH1 0x12 PUSH1 0x20 MSTORE PUSH1 0x40 SWAP1 SWAP2 KECCAK256 PUSH1 0x2 DUP2 ADD DUP9 SWAP1 SSTORE PUSH1 0x8 DUP2 ADD DUP1 SLOAD SWAP1 SWAP3 AND CALLER OR SWAP1 SWAP2 SSTORE PUSH1 0x9 DUP2 ADD DUP3 SWAP1 SSTORE PUSH1 0xA DUP2 ADD DUP3 SWAP1 SSTORE PUSH1 0xB DUP2 ADD DUP3 SWAP1 SSTORE PUSH1 0xC DUP2 ADD SWAP2 SWAP1 SWAP2 SSTORE TIMESTAMP PUSH1 0xF SWAP1 SWAP2 ADD SSTORE PUSH2 0x274B DUP8 DUP8 PUSH2 0x2D6B JUMP JUMPDEST PUSH2 0x2755 DUP8 DUP6 PUSH2 0x2449 JUMP JUMPDEST PUSH2 0x275F DUP8 DUP3 PUSH2 0x2C8E JUMP JUMPDEST PUSH2 0x276A DUP8 DUP5 DUP5 PUSH2 0x1971 JUMP JUMPDEST POP POP POP POP POP POP POP JUMP JUMPDEST PUSH2 0x277C DUP3 PUSH2 0x3817 JUMP JUMPDEST PUSH2 0x2785 DUP2 PUSH2 0x3856 JUMP JUMPDEST PUSH2 0x278E DUP4 PUSH2 0x2BD4 JUMP JUMPDEST PUSH2 0x27AA JUMPI PUSH1 0x40 MLOAD PUSH3 0x461BCD PUSH1 0xE5 SHL DUP2 MSTORE PUSH1 0x4 ADD PUSH2 0xAED SWAP1 PUSH2 0x5501 JUMP JUMPDEST PUSH1 0x0 DUP3 GT PUSH2 0x27CA JUMPI PUSH1 0x40 MLOAD PUSH3 0x461BCD PUSH1 0xE5 SHL DUP2 MSTORE PUSH1 0x4 ADD PUSH2 0xAED SWAP1 PUSH2 0x5565 JUMP JUMPDEST PUSH1 0x1 PUSH1 0x1 PUSH1 0xA0 SHL SUB DUP4 AND PUSH1 0x0 SWAP1 DUP2 MSTORE PUSH1 0x12 PUSH1 0x20 MSTORE PUSH1 0x40 SWAP1 KECCAK256 PUSH1 0x4 ADD SLOAD DUP3 GT ISZERO PUSH2 0x2835 JUMPI PUSH1 0x40 MLOAD PUSH3 0x461BCD PUSH1 0xE5 SHL DUP2 MSTORE PUSH1 0x20 PUSH1 0x4 DUP3 ADD MSTORE PUSH1 0x1C PUSH1 0x24 DUP3 ADD MSTORE PUSH32 0x496E73756666696369656E74207265776172642062616C616E63652E00000000 PUSH1 0x44 DUP3 ADD MSTORE PUSH1 0x64 ADD PUSH2 0xAED JUMP JUMPDEST PUSH1 0x1 PUSH1 0x1 PUSH1 0xA0 SHL SUB DUP4 AND PUSH1 0x0 SWAP1 DUP2 MSTORE PUSH1 0x12 PUSH1 0x20 MSTORE PUSH1 0x40 DUP2 KECCAK256 PUSH1 0x4 ADD DUP1 SLOAD DUP5 SWAP3 SWAP1 PUSH2 0x2860 SWAP1 DUP5 SWAP1 PUSH2 0x5605 JUMP JUMPDEST SWAP3 POP POP DUP2 SWAP1 SSTORE POP PUSH1 0x0 DUP1 PUSH2 0x2895 DUP6 DUP6 PUSH1 0x40 MLOAD DUP1 PUSH1 0x40 ADD PUSH1 0x40 MSTORE DUP1 PUSH1 0x8 DUP2 MSTORE PUSH1 0x20 ADD PUSH8 0x7769746864726177 PUSH1 0xC0 SHL DUP2 MSTORE POP PUSH2 0x1BCD JUMP JUMPDEST SWAP2 POP SWAP2 POP DUP2 PUSH1 0x0 EQ PUSH2 0x291A JUMPI PUSH1 0x2 SLOAD PUSH1 0x40 MLOAD PUSH4 0xA9059CBB PUSH1 0xE0 SHL DUP2 MSTORE PUSH1 0x1 PUSH1 0x1 PUSH1 0xA0 SHL SUB SWAP2 DUP3 AND PUSH1 0x4 DUP3 ADD MSTORE PUSH1 0x24 DUP2 ADD DUP5 SWAP1 MSTORE SWAP1 DUP7 AND SWAP1 PUSH4 0xA9059CBB SWAP1 PUSH1 0x44 ADD PUSH1 0x20 PUSH1 0x40 MLOAD DUP1 DUP4 SUB DUP2 PUSH1 0x0 DUP8 GAS CALL ISZERO DUP1 ISZERO PUSH2 0x28F4 JUMPI RETURNDATASIZE PUSH1 0x0 DUP1 RETURNDATACOPY RETURNDATASIZE PUSH1 0x0 REVERT JUMPDEST POP POP POP POP PUSH1 0x40 MLOAD RETURNDATASIZE PUSH1 0x1F NOT PUSH1 0x1F DUP3 ADD AND DUP3 ADD DUP1 PUSH1 0x40 MSTORE POP DUP2 ADD SWAP1 PUSH2 0x2918 SWAP2 SWAP1 PUSH2 0x55E3 JUMP JUMPDEST POP JUMPDEST PUSH1 0x0 PUSH2 0x2926 DUP4 DUP7 PUSH2 0x5605 JUMP JUMPDEST SWAP1 POP PUSH1 0x1 PUSH1 0x1 PUSH1 0xA0 SHL SUB DUP7 AND PUSH4 0xA9059CBB CALLER PUSH1 0x40 MLOAD PUSH1 0x1 PUSH1 0x1 PUSH1 0xE0 SHL SUB NOT PUSH1 0xE0 DUP5 SWAP1 SHL AND DUP2 MSTORE PUSH1 0x1 PUSH1 0x1 PUSH1 0xA0 SHL SUB SWAP1 SWAP2 AND PUSH1 0x4 DUP3 ADD MSTORE PUSH1 0x24 DUP2 ADD DUP5 SWAP1 MSTORE PUSH1 0x44 ADD PUSH1 0x20 PUSH1 0x40 MLOAD DUP1 DUP4 SUB DUP2 PUSH1 0x0 DUP8 GAS CALL ISZERO DUP1 ISZERO PUSH2 0x2985 JUMPI RETURNDATASIZE PUSH1 0x0 DUP1 RETURNDATACOPY RETURNDATASIZE PUSH1 0x0 REVERT JUMPDEST POP POP POP POP PUSH1 0x40 MLOAD RETURNDATASIZE PUSH1 0x1F NOT PUSH1 0x1F DUP3 ADD AND DUP3 ADD DUP1 PUSH1 0x40 MSTORE POP DUP2 ADD SWAP1 PUSH2 0x276A SWAP2 SWAP1 PUSH2 0x55E3 JUMP JUMPDEST PUSH1 0x0 SLOAD PUSH1 0x1 PUSH1 0x1 PUSH1 0xA0 SHL SUB AND CALLER EQ PUSH2 0x29D3 JUMPI PUSH1 0x40 MLOAD PUSH3 0x461BCD PUSH1 0xE5 SHL DUP2 MSTORE PUSH1 0x4 ADD PUSH2 0xAED SWAP1 PUSH2 0x5492 JUMP JUMPDEST PUSH1 0x5 SWAP3 SWAP1 SWAP3 SSTORE PUSH1 0x6 SSTORE PUSH1 0x7 SSTORE JUMP JUMPDEST PUSH2 0x29EA DUP3 PUSH2 0x3817 JUMP JUMPDEST PUSH2 0x29F3 DUP2 PUSH2 0x3856 JUMP JUMPDEST POP PUSH1 0x1 PUSH1 0x1 PUSH1 0xA0 SHL SUB SWAP2 DUP3 AND PUSH1 0x0 SWAP1 DUP2 MSTORE PUSH1 0x10 PUSH1 0x20 SWAP1 DUP2 MSTORE PUSH1 0x40 DUP1 DUP4 KECCAK256 SWAP4 SWAP1 SWAP5 AND DUP3 MSTORE SWAP2 SWAP1 SWAP2 MSTORE KECCAK256 DUP1 SLOAD PUSH1 0xFF NOT AND PUSH1 0x1 OR SWAP1 SSTORE JUMP JUMPDEST PUSH1 0x60 PUSH1 0x11 DUP1 SLOAD DUP1 PUSH1 0x20 MUL PUSH1 0x20 ADD PUSH1 0x40 MLOAD SWAP1 DUP2 ADD PUSH1 0x40 MSTORE DUP1 SWAP3 SWAP2 SWAP1 DUP2 DUP2 MSTORE PUSH1 0x20 ADD DUP3 DUP1 SLOAD DUP1 ISZERO PUSH2 0x175A JUMPI PUSH1 0x20 MUL DUP3 ADD SWAP2 SWAP1 PUSH1 0x0 MSTORE PUSH1 0x20 PUSH1 0x0 KECCAK256 SWAP1 DUP2 SLOAD PUSH1 0x1 PUSH1 0x1 PUSH1 0xA0 SHL SUB AND DUP2 MSTORE PUSH1 0x1 SWAP1 SWAP2 ADD SWAP1 PUSH1 0x20 ADD DUP1 DUP4 GT PUSH2 0x173C JUMPI POP POP POP POP POP SWAP1 POP SWAP1 JUMP JUMPDEST PUSH1 0x12 PUSH1 0x20 MSTORE PUSH1 0x0 SWAP1 DUP2 MSTORE PUSH1 0x40 SWAP1 KECCAK256 DUP1 SLOAD PUSH1 0x1 DUP3 ADD DUP1 SLOAD PUSH1 0xFF DUP1 DUP5 AND SWAP5 PUSH2 0x100 DUP6 DIV DUP3 AND SWAP5 PUSH3 0x10000 SWAP1 DIV SWAP1 SWAP2 AND SWAP3 SWAP1 SWAP2 PUSH2 0x2AC1 SWAP1 PUSH2 0x54C7 JUMP JUMPDEST DUP1 PUSH1 0x1F ADD PUSH1 0x20 DUP1 SWAP2 DIV MUL PUSH1 0x20 ADD PUSH1 0x40 MLOAD SWAP1 DUP2 ADD PUSH1 0x40 MSTORE DUP1 SWAP3 SWAP2 SWAP1 DUP2 DUP2 MSTORE PUSH1 0x20 ADD DUP3 DUP1 SLOAD PUSH2 0x2AED SWAP1 PUSH2 0x54C7 JUMP JUMPDEST DUP1 ISZERO PUSH2 0x2B3A JUMPI DUP1 PUSH1 0x1F LT PUSH2 0x2B0F JUMPI PUSH2 0x100 DUP1 DUP4 SLOAD DIV MUL DUP4 MSTORE SWAP2 PUSH1 0x20 ADD SWAP2 PUSH2 0x2B3A JUMP JUMPDEST DUP3 ADD SWAP2 SWAP1 PUSH1 0x0 MSTORE PUSH1 0x20 PUSH1 0x0 KECCAK256 SWAP1 JUMPDEST DUP2 SLOAD DUP2 MSTORE SWAP1 PUSH1 0x1 ADD SWAP1 PUSH1 0x20 ADD DUP1 DUP4 GT PUSH2 0x2B1D JUMPI DUP3 SWAP1 SUB PUSH1 0x1F AND DUP3 ADD SWAP2 JUMPDEST POP POP POP PUSH1 0x2 DUP5 ADD SLOAD PUSH1 0x3 DUP6 ADD SLOAD PUSH1 0x4 DUP7 ADD SLOAD PUSH1 0x5 DUP8 ADD SLOAD PUSH1 0x6 DUP9 ADD SLOAD PUSH1 0x7 DUP10 ADD SLOAD PUSH1 0x8 DUP11 ADD SLOAD PUSH1 0x40 DUP1 MLOAD PUSH1 0xC0 DUP2 ADD DUP3 MSTORE PUSH1 0x9 DUP14 ADD SLOAD DUP2 MSTORE PUSH1 0xA DUP14 ADD SLOAD PUSH1 0x20 DUP3 ADD MSTORE PUSH1 0xB DUP14 ADD SLOAD SWAP2 DUP2 ADD SWAP2 SWAP1 SWAP2 MSTORE PUSH1 0xC DUP13 ADD SLOAD PUSH1 0x60 DUP3 ADD MSTORE PUSH1 0xD DUP13 ADD SLOAD PUSH1 0x80 DUP3 ADD MSTORE PUSH1 0xE DUP13 ADD SLOAD PUSH1 0xA0 DUP3 ADD MSTORE PUSH1 0xF DUP13 ADD SLOAD PUSH1 0x10 SWAP1 SWAP13 ADD SLOAD SWAP11 SWAP12 SWAP8 SWAP11 SWAP7 SWAP10 POP SWAP5 SWAP8 POP SWAP3 SWAP6 SWAP2 SWAP5 PUSH1 0x1 PUSH1 0x1 PUSH1 0xA0 SHL SUB SWAP2 DUP3 AND SWAP5 SWAP4 SWAP1 SWAP2 AND SWAP3 SWAP2 SWAP1 DUP15 JUMP JUMPDEST PUSH1 0x0 DUP1 JUMPDEST PUSH1 0x11 SLOAD DUP2 LT ISZERO PUSH2 0x2C34 JUMPI DUP3 PUSH1 0x1 PUSH1 0x1 PUSH1 0xA0 SHL SUB AND PUSH1 0x11 DUP3 DUP2 SLOAD DUP2 LT PUSH2 0x2BFF JUMPI PUSH2 0x2BFF PUSH2 0x570B JUMP JUMPDEST PUSH1 0x0 SWAP2 DUP3 MSTORE PUSH1 0x20 SWAP1 SWAP2 KECCAK256 ADD SLOAD PUSH1 0x1 PUSH1 0x1 PUSH1 0xA0 SHL SUB AND SUB PUSH2 0x2C22 JUMPI POP PUSH1 0x1 SWAP3 SWAP2 POP POP JUMP JUMPDEST DUP1 PUSH2 0x2C2C DUP2 PUSH2 0x5721 JUMP JUMPDEST SWAP2 POP POP PUSH2 0x2BD8 JUMP JUMPDEST POP PUSH1 0x0 SWAP3 SWAP2 POP POP JUMP JUMPDEST PUSH1 0x0 SLOAD PUSH1 0x1 PUSH1 0x1 PUSH1 0xA0 SHL SUB AND CALLER EQ PUSH2 0x2C67 JUMPI PUSH1 0x40 MLOAD PUSH3 0x461BCD PUSH1 0xE5 SHL DUP2 MSTORE PUSH1 0x4 ADD PUSH2 0xAED SWAP1 PUSH2 0x5492 JUMP JUMPDEST PUSH2 0xEC5 DUP4 DUP4 DUP4 PUSH1 0x40 MLOAD DUP1 PUSH1 0x40 ADD PUSH1 0x40 MSTORE DUP1 PUSH1 0x3 DUP2 MSTORE PUSH1 0x20 ADD PUSH3 0x3232BB PUSH1 0xE9 SHL DUP2 MSTORE POP PUSH2 0x449F JUMP JUMPDEST PUSH2 0x2C97 DUP3 PUSH2 0x3817 JUMP JUMPDEST PUSH2 0x2CA0 DUP2 PUSH2 0x3856 JUMP JUMPDEST PUSH2 0x2CA9 DUP3 PUSH2 0x3817 JUMP JUMPDEST PUSH2 0x2CB2 DUP2 PUSH2 0x3856 JUMP JUMPDEST PUSH2 0x2CBB DUP5 PUSH2 0x2BD4 JUMP JUMPDEST PUSH2 0x2CD7 JUMPI PUSH1 0x40 MLOAD PUSH3 0x461BCD PUSH1 0xE5 SHL DUP2 MSTORE PUSH1 0x4 ADD PUSH2 0xAED SWAP1 PUSH2 0x5501 JUMP JUMPDEST PUSH2 0x2CE0 DUP4 PUSH2 0x2BD4 JUMP JUMPDEST PUSH2 0x2D2C JUMPI PUSH1 0x40 MLOAD PUSH3 0x461BCD PUSH1 0xE5 SHL DUP2 MSTORE PUSH1 0x20 PUSH1 0x4 DUP3 ADD MSTORE PUSH1 0x1C PUSH1 0x24 DUP3 ADD MSTORE PUSH32 0x52657761726420746F6B656E20646F6573206E6F742065786973742E00000000 PUSH1 0x44 DUP3 ADD MSTORE PUSH1 0x64 ADD PUSH2 0xAED JUMP JUMPDEST POP POP PUSH1 0x1 PUSH1 0x1 PUSH1 0xA0 SHL SUB SWAP2 DUP3 AND PUSH1 0x0 SWAP1 DUP2 MSTORE PUSH1 0x12 PUSH1 0x20 MSTORE PUSH1 0x40 SWAP1 KECCAK256 PUSH1 0x7 DUP2 ADD DUP1 SLOAD PUSH1 0x1 PUSH1 0x1 PUSH1 0xA0 SHL SUB NOT AND SWAP3 SWAP1 SWAP4 AND SWAP2 SWAP1 SWAP2 OR SWAP1 SWAP2 SSTORE TIMESTAMP PUSH1 0x10 SWAP1 SWAP2 ADD SSTORE JUMP JUMPDEST PUSH2 0x2D74 DUP3 PUSH2 0x3817 JUMP JUMPDEST PUSH2 0x2D7D DUP2 PUSH2 0x3856 JUMP JUMPDEST PUSH2 0x2D86 DUP4 PUSH2 0x2BD4 JUMP JUMPDEST PUSH2 0x2DA2 JUMPI PUSH1 0x40 MLOAD PUSH3 0x461BCD PUSH1 0xE5 SHL DUP2 MSTORE PUSH1 0x4 ADD PUSH2 0xAED SWAP1 PUSH2 0x5501 JUMP JUMPDEST PUSH1 0x3 SLOAD DUP3 MLOAD LT DUP1 ISZERO SWAP1 PUSH2 0x2DB8 JUMPI POP PUSH1 0x4 SLOAD DUP3 MLOAD GT ISZERO JUMPDEST PUSH1 0x3 SLOAD PUSH2 0x2DC4 SWAP1 PUSH2 0x4328 JUMP JUMPDEST PUSH1 0x4 SLOAD PUSH2 0x2DD0 SWAP1 PUSH2 0x4328 JUMP JUMPDEST PUSH1 0x40 MLOAD PUSH1 0x20 ADD PUSH2 0x2DE1 SWAP3 SWAP2 SWAP1 PUSH2 0x573A JUMP JUMPDEST PUSH1 0x40 MLOAD PUSH1 0x20 DUP2 DUP4 SUB SUB DUP2 MSTORE SWAP1 PUSH1 0x40 MSTORE SWAP1 PUSH2 0x2E0E JUMPI PUSH1 0x40 MLOAD PUSH3 0x461BCD PUSH1 0xE5 SHL DUP2 MSTORE PUSH1 0x4 ADD PUSH2 0xAED SWAP2 SWAP1 PUSH2 0x50F4 JUMP JUMPDEST POP PUSH1 0x1 PUSH1 0x1 PUSH1 0xA0 SHL SUB DUP4 AND PUSH1 0x0 SWAP1 DUP2 MSTORE PUSH1 0x12 PUSH1 0x20 SWAP1 DUP2 MSTORE PUSH1 0x40 SWAP1 SWAP2 KECCAK256 DUP4 MLOAD PUSH2 0x2E3E SWAP3 PUSH1 0x1 SWAP1 SWAP3 ADD SWAP2 DUP6 ADD SWAP1 PUSH2 0x4AB5 JUMP JUMPDEST POP POP POP PUSH1 0x1 PUSH1 0x1 PUSH1 0xA0 SHL SUB AND PUSH1 0x0 SWAP1 DUP2 MSTORE PUSH1 0x12 PUSH1 0x20 MSTORE PUSH1 0x40 SWAP1 KECCAK256 TIMESTAMP PUSH1 0x10 SWAP1 SWAP2 ADD SSTORE JUMP JUMPDEST PUSH2 0x2E8E PUSH1 0x40 MLOAD DUP1 PUSH1 0x80 ADD PUSH1 0x40 MSTORE DUP1 PUSH1 0x0 ISZERO ISZERO DUP2 MSTORE PUSH1 0x20 ADD PUSH1 0x0 DUP2 MSTORE PUSH1 0x20 ADD PUSH1 0x0 DUP2 MSTORE PUSH1 0x20 ADD PUSH1 0x0 DUP2 MSTORE POP SWAP1 JUMP JUMPDEST POP PUSH1 0x1 PUSH1 0x1 PUSH1 0xA0 SHL SUB AND PUSH1 0x0 SWAP1 DUP2 MSTORE PUSH1 0x14 PUSH1 0x20 SWAP1 DUP2 MSTORE PUSH1 0x40 SWAP2 DUP3 SWAP1 KECCAK256 DUP3 MLOAD PUSH1 0x80 DUP2 ADD DUP5 MSTORE DUP2 SLOAD PUSH1 0xFF AND ISZERO ISZERO DUP2 MSTORE PUSH1 0x1 DUP3 ADD SLOAD SWAP3 DUP2 ADD SWAP3 SWAP1 SWAP3 MSTORE PUSH1 0x2 DUP2 ADD SLOAD SWAP3 DUP3 ADD SWAP3 SWAP1 SWAP3 MSTORE PUSH1 0x3 SWAP1 SWAP2 ADD SLOAD PUSH1 0x60 DUP3 ADD MSTORE SWAP1 JUMP JUMPDEST PUSH1 0x0 DUP1 JUMPDEST PUSH1 0x13 SLOAD DUP2 LT ISZERO PUSH2 0x2C34 JUMPI DUP3 PUSH1 0x1 PUSH1 0x1 PUSH1 0xA0 SHL SUB AND PUSH1 0x13 DUP3 DUP2 SLOAD DUP2 LT PUSH2 0x2F0C JUMPI PUSH2 0x2F0C PUSH2 0x570B JUMP JUMPDEST PUSH1 0x0 SWAP2 DUP3 MSTORE PUSH1 0x20 SWAP1 SWAP2 KECCAK256 ADD SLOAD PUSH1 0x1 PUSH1 0x1 PUSH1 0xA0 SHL SUB AND SUB PUSH2 0x2F2F JUMPI POP PUSH1 0x1 SWAP3 SWAP2 POP POP JUMP JUMPDEST DUP1 PUSH2 0x2F39 DUP2 PUSH2 0x5721 JUMP JUMPDEST SWAP2 POP POP PUSH2 0x2EE5 JUMP JUMPDEST PUSH1 0x0 DUP3 DUP2 MSTORE PUSH1 0x1 PUSH1 0x20 DUP2 SWAP1 MSTORE PUSH1 0x40 SWAP1 SWAP2 KECCAK256 ADD SLOAD PUSH2 0x2F5D DUP2 PUSH2 0x3856 JUMP JUMPDEST PUSH2 0xEC5 DUP4 DUP4 PUSH2 0x3AF0 JUMP JUMPDEST PUSH2 0x2F70 DUP2 PUSH2 0x3817 JUMP JUMPDEST PUSH2 0x2F79 DUP2 PUSH2 0x3856 JUMP JUMPDEST PUSH2 0x2F82 DUP3 PUSH2 0x2BD4 JUMP JUMPDEST PUSH2 0x2F9E JUMPI PUSH1 0x40 MLOAD PUSH3 0x461BCD PUSH1 0xE5 SHL DUP2 MSTORE PUSH1 0x4 ADD PUSH2 0xAED SWAP1 PUSH2 0x5501 JUMP JUMPDEST POP PUSH1 0x1 PUSH1 0x1 PUSH1 0xA0 SHL SUB AND PUSH1 0x0 SWAP1 DUP2 MSTORE PUSH1 0x12 PUSH1 0x20 MSTORE PUSH1 0x40 SWAP1 KECCAK256 DUP1 SLOAD PUSH3 0xFF0000 NOT AND SWAP1 SSTORE JUMP JUMPDEST PUSH1 0x0 SLOAD PUSH1 0x1 PUSH1 0x1 PUSH1 0xA0 SHL SUB AND CALLER EQ PUSH2 0x2FEC JUMPI PUSH1 0x40 MLOAD PUSH3 0x461BCD PUSH1 0xE5 SHL DUP2 MSTORE PUSH1 0x4 ADD PUSH2 0xAED SWAP1 PUSH2 0x5492 JUMP JUMPDEST PUSH2 0x2FF5 DUP2 PUSH2 0x2BD4 JUMP JUMPDEST PUSH2 0x3011 JUMPI PUSH1 0x40 MLOAD PUSH3 0x461BCD PUSH1 0xE5 SHL DUP2 MSTORE PUSH1 0x4 ADD PUSH2 0xAED SWAP1 PUSH2 0x5501 JUMP JUMPDEST PUSH1 0x1 PUSH1 0x1 PUSH1 0xA0 SHL SUB AND PUSH1 0x0 SWAP1 DUP2 MSTORE PUSH1 0x12 PUSH1 0x20 MSTORE PUSH1 0x40 SWAP1 KECCAK256 DUP1 SLOAD PUSH2 0xFF00 NOT AND SWAP1 SSTORE JUMP JUMPDEST PUSH1 0x0 SLOAD PUSH1 0x1 PUSH1 0x1 PUSH1 0xA0 SHL SUB AND CALLER EQ PUSH2 0x305D JUMPI PUSH1 0x40 MLOAD PUSH3 0x461BCD PUSH1 0xE5 SHL DUP2 MSTORE PUSH1 0x4 ADD PUSH2 0xAED SWAP1 PUSH2 0x5492 JUMP JUMPDEST PUSH1 0x1 PUSH1 0x1 PUSH1 0xA0 SHL SUB AND PUSH1 0x0 SWAP1 DUP2 MSTORE PUSH1 0xE PUSH1 0x20 MSTORE PUSH1 0x40 SWAP1 KECCAK256 DUP1 SLOAD PUSH1 0xFF NOT AND PUSH1 0x1 OR SWAP1 SSTORE JUMP JUMPDEST PUSH1 0x0 SLOAD PUSH1 0x1 PUSH1 0x1 PUSH1 0xA0 SHL SUB AND CALLER EQ PUSH2 0x30AB JUMPI PUSH1 0x40 MLOAD PUSH3 0x461BCD PUSH1 0xE5 SHL DUP2 MSTORE PUSH1 0x4 ADD PUSH2 0xAED SWAP1 PUSH2 0x5492 JUMP JUMPDEST PUSH1 0x8 SWAP3 SWAP1 SWAP3 SSTORE PUSH1 0x9 SSTORE PUSH1 0xA SSTORE JUMP JUMPDEST PUSH2 0x30C2 DUP3 PUSH2 0x3817 JUMP JUMPDEST PUSH2 0x30CB DUP2 PUSH2 0x3856 JUMP JUMPDEST PUSH2 0x30D4 DUP4 PUSH2 0x2BD4 JUMP JUMPDEST PUSH2 0x30F0 JUMPI PUSH1 0x40 MLOAD PUSH3 0x461BCD PUSH1 0xE5 SHL DUP2 MSTORE PUSH1 0x4 ADD PUSH2 0xAED SWAP1 PUSH2 0x5501 JUMP JUMPDEST POP PUSH1 0x1 PUSH1 0x1 PUSH1 0xA0 SHL SUB SWAP1 SWAP2 AND PUSH1 0x0 SWAP1 DUP2 MSTORE PUSH1 0x12 PUSH1 0x20 MSTORE PUSH1 0x40 SWAP1 KECCAK256 PUSH1 0x2 DUP2 ADD SWAP2 SWAP1 SWAP2 SSTORE TIMESTAMP PUSH1 0x10 SWAP1 SWAP2 ADD SSTORE JUMP JUMPDEST PUSH1 0x0 SLOAD PUSH1 0x1 PUSH1 0x1 PUSH1 0xA0 SHL SUB AND CALLER EQ PUSH2 0x3145 JUMPI PUSH1 0x40 MLOAD PUSH3 0x461BCD PUSH1 0xE5 SHL DUP2 MSTORE PUSH1 0x4 ADD PUSH2 0xAED SWAP1 PUSH2 0x5492 JUMP JUMPDEST PUSH1 0x1 PUSH1 0x1 PUSH1 0xA0 SHL SUB DUP2 AND PUSH2 0x31AA JUMPI PUSH1 0x40 MLOAD PUSH3 0x461BCD PUSH1 0xE5 SHL DUP2 MSTORE PUSH1 0x20 PUSH1 0x4 DUP3 ADD MSTORE PUSH1 0x26 PUSH1 0x24 DUP3 ADD MSTORE PUSH32 0x4F776E61626C653A206E6577206F776E657220697320746865207A65726F2061 PUSH1 0x44 DUP3 ADD MSTORE PUSH6 0x646472657373 PUSH1 0xD0 SHL PUSH1 0x64 DUP3 ADD MSTORE PUSH1 0x84 ADD PUSH2 0xAED JUMP JUMPDEST PUSH2 0x1925 DUP2 PUSH2 0x4431 JUMP JUMPDEST PUSH1 0x0 SLOAD PUSH1 0x1 PUSH1 0x1 PUSH1 0xA0 SHL SUB AND CALLER EQ PUSH2 0x31DD JUMPI PUSH1 0x40 MLOAD PUSH3 0x461BCD PUSH1 0xE5 SHL DUP2 MSTORE PUSH1 0x4 ADD PUSH2 0xAED SWAP1 PUSH2 0x5492 JUMP JUMPDEST PUSH1 0x40 MLOAD PUSH4 0xA9059CBB PUSH1 0xE0 SHL DUP2 MSTORE PUSH1 0x1 PUSH1 0x1 PUSH1 0xA0 SHL SUB DUP4 DUP2 AND PUSH1 0x4 DUP4 ADD MSTORE PUSH1 0x24 DUP3 ADD DUP4 SWAP1 MSTORE DUP5 AND SWAP1 PUSH4 0xA9059CBB SWAP1 PUSH1 0x44 ADD PUSH1 0x20 PUSH1 0x40 MLOAD DUP1 DUP4 SUB DUP2 PUSH1 0x0 DUP8 GAS CALL ISZERO DUP1 ISZERO PUSH2 0x322C JUMPI RETURNDATASIZE PUSH1 0x0 DUP1 RETURNDATACOPY RETURNDATASIZE PUSH1 0x0 REVERT JUMPDEST POP POP POP POP PUSH1 0x40 MLOAD RETURNDATASIZE PUSH1 0x1F NOT PUSH1 0x1F DUP3 ADD AND DUP3 ADD DUP1 PUSH1 0x40 MSTORE POP DUP2 ADD SWAP1 PUSH2 0x19AC SWAP2 SWAP1 PUSH2 0x55E3 JUMP JUMPDEST PUSH1 0x1 PUSH1 0x1 PUSH1 0xA0 SHL SUB DUP3 AND PUSH1 0x0 SWAP1 DUP2 MSTORE PUSH1 0x12 PUSH1 0x20 MSTORE PUSH1 0x40 SWAP1 KECCAK256 SLOAD PUSH1 0xFF AND PUSH2 0x3288 JUMPI PUSH1 0x40 MLOAD PUSH3 0x461BCD PUSH1 0xE5 SHL DUP2 MSTORE PUSH1 0x4 ADD PUSH2 0xAED SWAP1 PUSH2 0x5634 JUMP JUMPDEST PUSH1 0x0 DUP2 GT PUSH2 0x32A8 JUMPI PUSH1 0x40 MLOAD PUSH3 0x461BCD PUSH1 0xE5 SHL DUP2 MSTORE PUSH1 0x4 ADD PUSH2 0xAED SWAP1 PUSH2 0x5565 JUMP JUMPDEST DUP1 PUSH1 0x1 PUSH1 0x1 PUSH1 0xA0 SHL SUB DUP4 AND PUSH4 0x70A08231 CALLER PUSH1 0x40 MLOAD PUSH1 0x1 PUSH1 0x1 PUSH1 0xE0 SHL SUB NOT PUSH1 0xE0 DUP5 SWAP1 SHL AND DUP2 MSTORE PUSH1 0x1 PUSH1 0x1 PUSH1 0xA0 SHL SUB SWAP1 SWAP2 AND PUSH1 0x4 DUP3 ADD MSTORE PUSH1 0x24 ADD PUSH1 0x20 PUSH1 0x40 MLOAD DUP1 DUP4 SUB DUP2 DUP7 GAS STATICCALL ISZERO DUP1 ISZERO PUSH2 0x32FD JUMPI RETURNDATASIZE PUSH1 0x0 DUP1 RETURNDATACOPY RETURNDATASIZE PUSH1 0x0 REVERT JUMPDEST POP POP POP POP PUSH1 0x40 MLOAD RETURNDATASIZE PUSH1 0x1F NOT PUSH1 0x1F DUP3 ADD AND DUP3 ADD DUP1 PUSH1 0x40 MSTORE POP DUP2 ADD SWAP1 PUSH2 0x3321 SWAP2 SWAP1 PUSH2 0x55A6 JUMP JUMPDEST LT ISZERO PUSH2 0x336F JUMPI PUSH1 0x40 MLOAD PUSH3 0x461BCD PUSH1 0xE5 SHL DUP2 MSTORE PUSH1 0x20 PUSH1 0x4 DUP3 ADD MSTORE PUSH1 0x1C PUSH1 0x24 DUP3 ADD MSTORE PUSH32 0x496E73756666696369656E742077616C6C65742062616C616E63652E00000000 PUSH1 0x44 DUP3 ADD MSTORE PUSH1 0x64 ADD PUSH2 0xAED JUMP JUMPDEST PUSH1 0x0 DUP1 PUSH2 0x339A DUP5 DUP5 PUSH1 0x40 MLOAD DUP1 PUSH1 0x40 ADD PUSH1 0x40 MSTORE DUP1 PUSH1 0x5 DUP2 MSTORE PUSH1 0x20 ADD PUSH5 0x7374616B65 PUSH1 0xD8 SHL DUP2 MSTORE POP PUSH2 0x1BCD JUMP JUMPDEST SWAP2 POP SWAP2 POP DUP2 PUSH1 0x0 EQ PUSH2 0x341F JUMPI PUSH1 0x2 SLOAD PUSH1 0x40 MLOAD PUSH4 0x23B872DD PUSH1 0xE0 SHL DUP2 MSTORE PUSH1 0x1 PUSH1 0x1 PUSH1 0xA0 SHL SUB DUP7 DUP2 AND SWAP3 PUSH4 0x23B872DD SWAP3 PUSH2 0x33DA SWAP3 CALLER SWAP3 AND SWAP1 DUP8 SWAP1 PUSH1 0x4 ADD PUSH2 0x55BF JUMP JUMPDEST PUSH1 0x20 PUSH1 0x40 MLOAD DUP1 DUP4 SUB DUP2 PUSH1 0x0 DUP8 GAS CALL ISZERO DUP1 ISZERO PUSH2 0x33F9 JUMPI RETURNDATASIZE PUSH1 0x0 DUP1 RETURNDATACOPY RETURNDATASIZE PUSH1 0x0 REVERT JUMPDEST POP POP POP POP PUSH1 0x40 MLOAD RETURNDATASIZE PUSH1 0x1F NOT PUSH1 0x1F DUP3 ADD AND DUP3 ADD DUP1 PUSH1 0x40 MSTORE POP DUP2 ADD SWAP1 PUSH2 0x341D SWAP2 SWAP1 PUSH2 0x55E3 JUMP JUMPDEST POP JUMPDEST DUP1 ISZERO PUSH2 0x34AF JUMPI PUSH1 0x1 PUSH1 0x1 PUSH1 0xA0 SHL SUB DUP5 DUP2 AND PUSH1 0x0 DUP2 DUP2 MSTORE PUSH1 0x12 PUSH1 0x20 MSTORE PUSH1 0x40 SWAP1 DUP2 SWAP1 KECCAK256 PUSH1 0x8 ADD SLOAD SWAP1 MLOAD PUSH4 0x23B872DD PUSH1 0xE0 SHL DUP2 MSTORE SWAP2 SWAP3 PUSH4 0x23B872DD SWAP3 PUSH2 0x346A SWAP3 CALLER SWAP3 AND SWAP1 DUP7 SWAP1 PUSH1 0x4 ADD PUSH2 0x55BF JUMP JUMPDEST PUSH1 0x20 PUSH1 0x40 MLOAD DUP1 DUP4 SUB DUP2 PUSH1 0x0 DUP8 GAS CALL ISZERO DUP1 ISZERO PUSH2 0x3489 JUMPI RETURNDATASIZE PUSH1 0x0 DUP1 RETURNDATACOPY RETURNDATASIZE PUSH1 0x0 REVERT JUMPDEST POP POP POP POP PUSH1 0x40 MLOAD RETURNDATASIZE PUSH1 0x1F NOT PUSH1 0x1F DUP3 ADD AND DUP3 ADD DUP1 PUSH1 0x40 MSTORE POP DUP2 ADD SWAP1 PUSH2 0x34AD SWAP2 SWAP1 PUSH2 0x55E3 JUMP JUMPDEST POP JUMPDEST PUSH1 0x0 PUSH2 0x34BB DUP3 DUP5 PUSH2 0x561C JUMP JUMPDEST PUSH2 0x34C5 SWAP1 DUP6 PUSH2 0x5605 JUMP JUMPDEST PUSH1 0x40 MLOAD PUSH4 0x23B872DD PUSH1 0xE0 SHL DUP2 MSTORE SWAP1 SWAP2 POP PUSH1 0x1 PUSH1 0x1 PUSH1 0xA0 SHL SUB DUP7 AND SWAP1 PUSH4 0x23B872DD SWAP1 PUSH2 0x34F8 SWAP1 CALLER SWAP1 ADDRESS SWAP1 DUP7 SWAP1 PUSH1 0x4 ADD PUSH2 0x55BF JUMP JUMPDEST PUSH1 0x20 PUSH1 0x40 MLOAD DUP1 DUP4 SUB DUP2 PUSH1 0x0 DUP8 GAS CALL ISZERO DUP1 ISZERO PUSH2 0x3517 JUMPI RETURNDATASIZE PUSH1 0x0 DUP1 RETURNDATACOPY RETURNDATASIZE PUSH1 0x0 REVERT JUMPDEST POP POP POP POP PUSH1 0x40 MLOAD RETURNDATASIZE PUSH1 0x1F NOT PUSH1 0x1F DUP3 ADD AND DUP3 ADD DUP1 PUSH1 0x40 MSTORE POP DUP2 ADD SWAP1 PUSH2 0x353B SWAP2 SWAP1 PUSH2 0x55E3 JUMP JUMPDEST POP PUSH1 0x1 PUSH1 0x1 PUSH1 0xA0 SHL SUB DUP6 AND PUSH1 0x0 SWAP1 DUP2 MSTORE PUSH1 0x15 PUSH1 0x20 SWAP1 DUP2 MSTORE PUSH1 0x40 DUP1 DUP4 KECCAK256 CALLER DUP5 MSTORE SWAP1 SWAP2 MSTORE DUP2 KECCAK256 PUSH1 0x1 ADD SLOAD SWAP1 SUB PUSH2 0x36B3 JUMPI CALLER PUSH1 0x0 SWAP1 DUP2 MSTORE PUSH1 0x14 PUSH1 0x20 MSTORE PUSH1 0x40 DUP2 KECCAK256 PUSH1 0x1 ADD SLOAD SWAP1 SUB PUSH2 0x35B3 JUMPI PUSH2 0x358B CALLER PUSH2 0x2EE1 JUMP JUMPDEST PUSH2 0x3598 JUMPI PUSH2 0x3598 CALLER PUSH2 0x4699 JUMP JUMPDEST CALLER PUSH1 0x0 SWAP1 DUP2 MSTORE PUSH1 0x14 PUSH1 0x20 MSTORE PUSH1 0x40 SWAP1 KECCAK256 DUP1 SLOAD PUSH1 0xFF NOT AND PUSH1 0x1 OR SWAP1 SSTORE JUMPDEST CALLER PUSH1 0x0 SWAP1 DUP2 MSTORE PUSH1 0x14 PUSH1 0x20 MSTORE PUSH1 0x40 DUP2 KECCAK256 PUSH1 0x1 ADD DUP1 SLOAD SWAP2 PUSH2 0x35D1 DUP4 PUSH2 0x5721 JUMP JUMPDEST SWAP2 SWAP1 POP SSTORE POP PUSH1 0x14 PUSH1 0x0 PUSH2 0x35E1 CALLER SWAP1 JUMP JUMPDEST PUSH1 0x1 PUSH1 0x1 PUSH1 0xA0 SHL SUB AND DUP2 MSTORE PUSH1 0x20 DUP2 ADD SWAP2 SWAP1 SWAP2 MSTORE PUSH1 0x40 ADD PUSH1 0x0 KECCAK256 PUSH1 0x2 ADD SLOAD ISZERO PUSH2 0x3620 JUMPI CALLER PUSH1 0x0 SWAP1 DUP2 MSTORE PUSH1 0x14 PUSH1 0x20 MSTORE PUSH1 0x40 SWAP1 KECCAK256 TIMESTAMP PUSH1 0x3 SWAP1 SWAP2 ADD DUP2 SWAP1 SSTORE PUSH2 0x3639 JUMP JUMPDEST CALLER PUSH1 0x0 SWAP1 DUP2 MSTORE PUSH1 0x14 PUSH1 0x20 MSTORE PUSH1 0x40 SWAP1 KECCAK256 TIMESTAMP PUSH1 0x2 SWAP1 SWAP2 ADD DUP2 SWAP1 SSTORE JUMPDEST POP PUSH1 0x1 PUSH1 0x1 PUSH1 0xA0 SHL SUB DUP6 DUP2 AND PUSH1 0x0 SWAP1 DUP2 MSTORE PUSH1 0x15 PUSH1 0x20 SWAP1 DUP2 MSTORE PUSH1 0x40 DUP1 DUP4 KECCAK256 CALLER DUP5 MSTORE SWAP1 SWAP2 MSTORE SWAP1 KECCAK256 PUSH1 0x2 ADD SLOAD AND PUSH2 0x36AE JUMPI PUSH1 0x1 PUSH1 0x1 PUSH1 0xA0 SHL SUB DUP6 DUP2 AND PUSH1 0x0 SWAP1 DUP2 MSTORE PUSH1 0x12 PUSH1 0x20 SWAP1 DUP2 MSTORE PUSH1 0x40 DUP1 DUP4 KECCAK256 PUSH1 0x7 ADD SLOAD PUSH1 0x15 DUP4 MSTORE DUP2 DUP5 KECCAK256 CALLER DUP6 MSTORE SWAP1 SWAP3 MSTORE SWAP1 SWAP2 KECCAK256 PUSH1 0x2 ADD DUP1 SLOAD PUSH1 0x1 PUSH1 0x1 PUSH1 0xA0 SHL SUB NOT AND SWAP2 SWAP1 SWAP3 AND OR SWAP1 SSTORE JUMPDEST PUSH2 0x36EB JUMP JUMPDEST PUSH2 0x36EB DUP6 CALLER PUSH1 0x40 DUP1 MLOAD PUSH1 0x80 DUP2 ADD DUP3 MSTORE PUSH1 0x5 SWAP2 DUP2 ADD SWAP2 DUP3 MSTORE PUSH5 0x7374616B65 PUSH1 0xD8 SHL PUSH1 0x60 DUP3 ADD MSTORE SWAP1 DUP2 MSTORE PUSH1 0x20 DUP2 ADD PUSH2 0x20C7 PUSH2 0x20C2 DUP11 PUSH2 0x3A71 JUMP JUMPDEST PUSH1 0x1 PUSH1 0x1 PUSH1 0xA0 SHL SUB DUP6 AND PUSH1 0x0 SWAP1 DUP2 MSTORE PUSH1 0x15 PUSH1 0x20 SWAP1 DUP2 MSTORE PUSH1 0x40 DUP1 DUP4 KECCAK256 CALLER DUP5 MSTORE SWAP1 SWAP2 MSTORE DUP2 KECCAK256 PUSH1 0x1 ADD DUP1 SLOAD DUP4 SWAP3 SWAP1 PUSH2 0x3721 SWAP1 DUP5 SWAP1 PUSH2 0x561C JUMP JUMPDEST SWAP1 SWAP2 SSTORE POP POP PUSH1 0x1 PUSH1 0x1 PUSH1 0xA0 SHL SUB DUP6 AND PUSH1 0x0 SWAP1 DUP2 MSTORE PUSH1 0x15 PUSH1 0x20 SWAP1 DUP2 MSTORE PUSH1 0x40 DUP1 DUP4 KECCAK256 CALLER DUP5 MSTORE SWAP1 SWAP2 MSTORE SWAP1 KECCAK256 PUSH1 0x5 ADD SLOAD ISZERO PUSH2 0x3783 JUMPI PUSH1 0x1 PUSH1 0x1 PUSH1 0xA0 SHL SUB DUP6 AND PUSH1 0x0 SWAP1 DUP2 MSTORE PUSH1 0x15 PUSH1 0x20 SWAP1 DUP2 MSTORE PUSH1 0x40 DUP1 DUP4 KECCAK256 CALLER DUP5 MSTORE SWAP1 SWAP2 MSTORE SWAP1 KECCAK256 TIMESTAMP PUSH1 0x6 SWAP1 SWAP2 ADD DUP2 SWAP1 SSTORE PUSH2 0x37B0 JUMP JUMPDEST PUSH1 0x1 PUSH1 0x1 PUSH1 0xA0 SHL SUB DUP6 AND PUSH1 0x0 SWAP1 DUP2 MSTORE PUSH1 0x15 PUSH1 0x20 SWAP1 DUP2 MSTORE PUSH1 0x40 DUP1 DUP4 KECCAK256 CALLER DUP5 MSTORE SWAP1 SWAP2 MSTORE SWAP1 KECCAK256 TIMESTAMP PUSH1 0x5 SWAP1 SWAP2 ADD DUP2 SWAP1 SSTORE JUMPDEST POP PUSH1 0x1 PUSH1 0x1 PUSH1 0xA0 SHL SUB DUP6 AND PUSH1 0x0 SWAP1 DUP2 MSTORE PUSH1 0x12 PUSH1 0x20 MSTORE PUSH1 0x40 DUP2 KECCAK256 PUSH1 0x5 ADD DUP1 SLOAD DUP4 SWAP3 SWAP1 PUSH2 0x37DC SWAP1 DUP5 SWAP1 PUSH2 0x561C JUMP JUMPDEST SWAP1 SWAP2 SSTORE POP POP POP PUSH1 0x1 PUSH1 0x1 PUSH1 0xA0 SHL SUB SWAP1 SWAP4 AND PUSH1 0x0 SWAP1 DUP2 MSTORE PUSH1 0x12 PUSH1 0x20 MSTORE PUSH1 0x40 SWAP1 KECCAK256 TIMESTAMP PUSH1 0x10 SWAP1 SWAP2 ADD SSTORE POP POP POP JUMP JUMPDEST PUSH1 0x13 DUP2 DUP2 SLOAD DUP2 LT PUSH2 0x1883 JUMPI PUSH1 0x0 DUP1 REVERT JUMPDEST PUSH1 0x40 MLOAD PUSH12 0xFFFFFFFFFFFFFFFFFFFFFFFF NOT PUSH1 0x60 DUP4 SWAP1 SHL AND PUSH1 0x20 DUP3 ADD MSTORE PUSH1 0x0 SWAP1 PUSH1 0x34 ADD PUSH1 0x40 MLOAD PUSH1 0x20 DUP2 DUP4 SUB SUB DUP2 MSTORE SWAP1 PUSH1 0x40 MSTORE DUP1 MLOAD SWAP1 PUSH1 0x20 ADD KECCAK256 SWAP1 POP SWAP2 SWAP1 POP JUMP JUMPDEST PUSH2 0x1925 DUP2 CALLER PUSH2 0x4749 JUMP JUMPDEST PUSH1 0x0 DUP2 ISZERO PUSH2 0x3A0D JUMPI PUSH1 0x1 PUSH1 0x1 PUSH1 0xA0 SHL SUB DUP5 AND PUSH1 0x0 SWAP1 DUP2 MSTORE PUSH1 0x12 PUSH1 0x20 MSTORE PUSH1 0x40 SWAP1 KECCAK256 SLOAD PUSH1 0xFF AND PUSH2 0x38A0 JUMPI PUSH1 0x40 MLOAD PUSH3 0x461BCD PUSH1 0xE5 SHL DUP2 MSTORE PUSH1 0x4 ADD PUSH2 0xAED SWAP1 PUSH2 0x5634 JUMP JUMPDEST PUSH1 0x1 PUSH1 0x1 PUSH1 0xA0 SHL SUB DUP5 AND PUSH1 0x0 SWAP1 DUP2 MSTORE PUSH1 0x12 PUSH1 0x20 MSTORE PUSH1 0x40 SWAP1 KECCAK256 SLOAD PUSH3 0x10000 SWAP1 DIV PUSH1 0xFF AND PUSH2 0x391F JUMPI PUSH1 0x40 MLOAD PUSH3 0x461BCD PUSH1 0xE5 SHL DUP2 MSTORE PUSH1 0x20 PUSH1 0x4 DUP3 ADD MSTORE PUSH1 0x28 PUSH1 0x24 DUP3 ADD MSTORE PUSH32 0x546F6B656E20646F6573206E6F742068617665206D756C746920746F6B656E20 PUSH1 0x44 DUP3 ADD MSTORE PUSH8 0x3932BBB0B9323997 PUSH1 0xC1 SHL PUSH1 0x64 DUP3 ADD MSTORE PUSH1 0x84 ADD PUSH2 0xAED JUMP JUMPDEST PUSH1 0x1 PUSH1 0x1 PUSH1 0xA0 SHL SUB DUP4 AND PUSH1 0x0 SWAP1 DUP2 MSTORE PUSH1 0x12 PUSH1 0x20 MSTORE PUSH1 0x40 SWAP1 KECCAK256 SLOAD PUSH1 0xFF AND PUSH2 0x3987 JUMPI PUSH1 0x40 MLOAD PUSH3 0x461BCD PUSH1 0xE5 SHL DUP2 MSTORE PUSH1 0x20 PUSH1 0x4 DUP3 ADD MSTORE PUSH1 0x18 PUSH1 0x24 DUP3 ADD MSTORE PUSH32 0x52657761726420746F6B656E206E6F74206163746976652E0000000000000000 PUSH1 0x44 DUP3 ADD MSTORE PUSH1 0x64 ADD PUSH2 0xAED JUMP JUMPDEST PUSH1 0x1 PUSH1 0x1 PUSH1 0xA0 SHL SUB DUP4 AND PUSH1 0x0 SWAP1 DUP2 MSTORE PUSH1 0x12 PUSH1 0x20 MSTORE PUSH1 0x40 SWAP1 KECCAK256 SLOAD PUSH3 0x10000 SWAP1 DIV PUSH1 0xFF AND PUSH2 0x3A0D JUMPI PUSH1 0x40 MLOAD PUSH3 0x461BCD PUSH1 0xE5 SHL DUP2 MSTORE PUSH1 0x20 PUSH1 0x4 DUP3 ADD MSTORE PUSH1 0x2F PUSH1 0x24 DUP3 ADD MSTORE PUSH32 0x52657761726420746F6B656E20646F6573206E6F742068617665206D756C7469 PUSH1 0x44 DUP3 ADD MSTORE PUSH15 0x103A37B5B2B7103932BBB0B9323997 PUSH1 0x89 SHL PUSH1 0x64 DUP3 ADD MSTORE PUSH1 0x84 ADD PUSH2 0xAED JUMP JUMPDEST PUSH2 0x3A16 DUP6 PUSH2 0x2EE1 JUMP JUMPDEST PUSH2 0x3A23 JUMPI PUSH2 0x3A23 DUP6 PUSH2 0x4699 JUMP JUMPDEST POP POP PUSH1 0x1 PUSH1 0x1 PUSH1 0xA0 SHL SUB SWAP2 DUP3 AND PUSH1 0x0 SWAP1 DUP2 MSTORE PUSH1 0x15 PUSH1 0x20 SWAP1 DUP2 MSTORE PUSH1 0x40 DUP1 DUP4 KECCAK256 SWAP6 DUP6 AND DUP4 MSTORE SWAP5 SWAP1 MSTORE SWAP3 SWAP1 SWAP3 KECCAK256 PUSH1 0x2 DUP2 ADD DUP1 SLOAD PUSH1 0x1 PUSH1 0x1 PUSH1 0xA0 SHL SUB NOT AND SWAP4 SWAP1 SWAP3 AND SWAP3 DUP4 OR SWAP1 SWAP2 SSTORE TIMESTAMP PUSH1 0x6 SWAP1 SWAP2 ADD SSTORE SWAP1 JUMP JUMPDEST PUSH1 0x0 PUSH2 0xB35 PUSH8 0xDE0B6B3A7640000 DUP4 PUSH2 0x57D2 JUMP JUMPDEST PUSH2 0x3A8F DUP3 DUP3 PUSH2 0x2606 JUMP JUMPDEST PUSH2 0x1576 JUMPI PUSH1 0x0 DUP3 DUP2 MSTORE PUSH1 0x1 PUSH1 0x20 DUP2 DUP2 MSTORE PUSH1 0x40 DUP1 DUP5 KECCAK256 PUSH1 0x1 PUSH1 0x1 PUSH1 0xA0 SHL SUB DUP7 AND DUP1 DUP7 MSTORE SWAP3 MSTORE DUP1 DUP5 KECCAK256 DUP1 SLOAD PUSH1 0xFF NOT AND SWAP1 SWAP4 OR SWAP1 SWAP3 SSTORE SWAP1 MLOAD CALLER SWAP3 DUP6 SWAP2 PUSH32 0x2F8788117E7EFF1D82E926EC794901D17C78024A50270940304540A733656F0D SWAP2 SWAP1 LOG4 POP POP JUMP JUMPDEST PUSH2 0x3AFA DUP3 DUP3 PUSH2 0x2606 JUMP JUMPDEST ISZERO PUSH2 0x1576 JUMPI PUSH1 0x0 DUP3 DUP2 MSTORE PUSH1 0x1 PUSH1 0x20 SWAP1 DUP2 MSTORE PUSH1 0x40 DUP1 DUP4 KECCAK256 PUSH1 0x1 PUSH1 0x1 PUSH1 0xA0 SHL SUB DUP6 AND DUP1 DUP6 MSTORE SWAP3 MSTORE DUP1 DUP4 KECCAK256 DUP1 SLOAD PUSH1 0xFF NOT AND SWAP1 SSTORE MLOAD CALLER SWAP3 DUP6 SWAP2 PUSH32 0xF6391F5C32D9C69D2A47EA670B442974B53935D1EDC7FD64EB21E047A839171B SWAP2 SWAP1 LOG4 POP POP JUMP JUMPDEST PUSH1 0x1 PUSH1 0x1 PUSH1 0xA0 SHL SUB DUP4 AND PUSH1 0x0 SWAP1 DUP2 MSTORE PUSH1 0x12 PUSH1 0x20 MSTORE PUSH1 0x40 SWAP1 KECCAK256 SLOAD PUSH1 0xFF AND PUSH2 0x3B7C JUMPI POP POP POP JUMP JUMPDEST PUSH1 0x1 PUSH1 0x1 PUSH1 0xA0 SHL SUB DUP3 AND PUSH1 0x0 SWAP1 DUP2 MSTORE PUSH1 0x14 PUSH1 0x20 MSTORE PUSH1 0x40 SWAP1 KECCAK256 SLOAD PUSH1 0xFF AND PUSH2 0x3BA1 JUMPI POP POP POP JUMP JUMPDEST PUSH1 0x40 MLOAD PUSH4 0xD6C20747 PUSH1 0xE0 SHL DUP2 MSTORE ADDRESS PUSH1 0x4 DUP3 ADD MSTORE PUSH1 0x1 PUSH1 0x1 PUSH1 0xA0 SHL SUB DUP1 DUP6 AND PUSH1 0x24 DUP4 ADD MSTORE DUP4 AND PUSH1 0x44 DUP3 ADD MSTORE PUSH1 0x0 SWAP1 DUP2 SWAP1 DUP2 SWAP1 DUP2 SWAP1 DUP2 SWAP1 PUSH20 0x0 SWAP1 PUSH4 0xD6C20747 SWAP1 PUSH1 0x64 ADD PUSH1 0xA0 PUSH1 0x40 MLOAD DUP1 DUP4 SUB DUP2 DUP7 GAS DELEGATECALL ISZERO DUP1 ISZERO PUSH2 0x3C12 JUMPI RETURNDATASIZE PUSH1 0x0 DUP1 RETURNDATACOPY RETURNDATASIZE PUSH1 0x0 REVERT JUMPDEST POP POP POP POP PUSH1 0x40 MLOAD RETURNDATASIZE PUSH1 0x1F NOT PUSH1 0x1F DUP3 ADD AND DUP3 ADD DUP1 PUSH1 0x40 MSTORE POP DUP2 ADD SWAP1 PUSH2 0x3C36 SWAP2 SWAP1 PUSH2 0x57E6 JUMP JUMPDEST SWAP5 POP SWAP5 POP SWAP5 POP SWAP5 POP SWAP5 POP DUP5 PUSH1 0x0 SUB PUSH2 0x3C52 JUMPI POP POP POP POP POP POP POP POP JUMP JUMPDEST PUSH1 0x1 PUSH1 0x1 PUSH1 0xA0 SHL SUB DUP1 DUP10 AND PUSH1 0x0 SWAP1 DUP2 MSTORE PUSH1 0x12 PUSH1 0x20 MSTORE PUSH1 0x40 DUP1 DUP3 KECCAK256 PUSH1 0x7 ADD SLOAD SWAP1 SWAP3 AND DUP1 DUP3 MSTORE SWAP2 SWAP1 KECCAK256 SLOAD PUSH1 0xFF AND PUSH2 0x3C8C JUMPI POP POP POP POP POP POP POP POP POP JUMP JUMPDEST PUSH1 0x0 PUSH2 0x3C97 DUP3 PUSH2 0x14CC JUMP JUMPDEST SWAP1 POP DUP7 DUP2 LT ISZERO PUSH2 0x3CB6 JUMPI PUSH2 0x3CAA DUP11 PUSH2 0x1B74 JUMP JUMPDEST POP POP POP POP POP POP POP POP POP POP JUMP JUMPDEST PUSH1 0x1 PUSH1 0x1 PUSH1 0xA0 SHL SUB DUP3 AND PUSH1 0x0 SWAP1 DUP2 MSTORE PUSH1 0x12 PUSH1 0x20 MSTORE PUSH1 0x40 DUP2 KECCAK256 PUSH1 0x3 ADD SLOAD DUP4 SWAP2 DUP2 PUSH2 0x3CDE DUP12 PUSH2 0x4481 JUMP JUMPDEST PUSH2 0x3CE8 SWAP2 SWAP1 PUSH2 0x57D2 JUMP JUMPDEST SWAP1 POP PUSH1 0x0 PUSH1 0x15 PUSH1 0x0 DUP16 PUSH1 0x1 PUSH1 0x1 PUSH1 0xA0 SHL SUB AND PUSH1 0x1 PUSH1 0x1 PUSH1 0xA0 SHL SUB AND DUP2 MSTORE PUSH1 0x20 ADD SWAP1 DUP2 MSTORE PUSH1 0x20 ADD PUSH1 0x0 KECCAK256 PUSH1 0x0 DUP15 PUSH1 0x1 PUSH1 0x1 PUSH1 0xA0 SHL SUB AND PUSH1 0x1 PUSH1 0x1 PUSH1 0xA0 SHL SUB AND DUP2 MSTORE PUSH1 0x20 ADD SWAP1 DUP2 MSTORE PUSH1 0x20 ADD PUSH1 0x0 KECCAK256 PUSH1 0x2 ADD PUSH1 0x0 SWAP1 SLOAD SWAP1 PUSH2 0x100 EXP SWAP1 DIV PUSH1 0x1 PUSH1 0x1 PUSH1 0xA0 SHL SUB AND SWAP1 POP DUP4 PUSH1 0x1 PUSH1 0x1 PUSH1 0xA0 SHL SUB AND DUP2 PUSH1 0x1 PUSH1 0x1 PUSH1 0xA0 SHL SUB AND EQ PUSH2 0x3E02 JUMPI PUSH1 0x1 PUSH1 0x1 PUSH1 0xA0 SHL SUB DUP2 AND PUSH1 0x0 SWAP1 DUP2 MSTORE PUSH1 0x12 PUSH1 0x20 MSTORE PUSH1 0x40 SWAP1 KECCAK256 SLOAD PUSH1 0xFF AND ISZERO PUSH2 0x3E02 JUMPI PUSH1 0x0 PUSH2 0x3D92 DUP3 PUSH2 0x14CC JUMP JUMPDEST SWAP1 POP DUP12 DUP2 LT PUSH2 0x3E00 JUMPI PUSH1 0x1 PUSH1 0x1 PUSH1 0xA0 SHL SUB DUP1 DUP4 AND PUSH1 0x0 SWAP1 DUP2 MSTORE PUSH1 0x12 PUSH1 0x20 MSTORE PUSH1 0x40 SWAP1 KECCAK256 PUSH1 0x8 ADD SLOAD AND PUSH2 0x3DC4 DUP7 DUP6 DUP4 PUSH2 0x47AD JUMP JUMPDEST PUSH1 0x1 PUSH1 0x1 PUSH1 0xA0 SHL SUB DUP4 AND PUSH1 0x0 SWAP1 DUP2 MSTORE PUSH1 0x12 PUSH1 0x20 MSTORE PUSH1 0x40 SWAP1 KECCAK256 PUSH1 0x3 ADD SLOAD SWAP3 SWAP6 POP SWAP2 SWAP4 POP DUP5 SWAP2 DUP5 PUSH2 0x3DF2 DUP15 PUSH2 0x4481 JUMP JUMPDEST PUSH2 0x3DFC SWAP2 SWAP1 PUSH2 0x57D2 JUMP JUMPDEST SWAP4 POP POP JUMPDEST POP JUMPDEST POP PUSH2 0x3E0E DUP4 DUP3 DUP15 PUSH2 0x47AD JUMP JUMPDEST TIMESTAMP PUSH1 0x15 PUSH1 0x0 DUP16 PUSH1 0x1 PUSH1 0x1 PUSH1 0xA0 SHL SUB AND PUSH1 0x1 PUSH1 0x1 PUSH1 0xA0 SHL SUB AND DUP2 MSTORE PUSH1 0x20 ADD SWAP1 DUP2 MSTORE PUSH1 0x20 ADD PUSH1 0x0 KECCAK256 PUSH1 0x0 DUP15 PUSH1 0x1 PUSH1 0x1 PUSH1 0xA0 SHL SUB AND PUSH1 0x1 PUSH1 0x1 PUSH1 0xA0 SHL SUB AND DUP2 MSTORE PUSH1 0x20 ADD SWAP1 DUP2 MSTORE PUSH1 0x20 ADD PUSH1 0x0 KECCAK256 PUSH1 0x4 ADD DUP2 SWAP1 SSTORE POP PUSH2 0x3E66 PUSH2 0x4B39 JUMP JUMPDEST PUSH1 0x15 PUSH1 0x0 DUP16 PUSH1 0x1 PUSH1 0x1 PUSH1 0xA0 SHL SUB AND PUSH1 0x1 PUSH1 0x1 PUSH1 0xA0 SHL SUB AND DUP2 MSTORE PUSH1 0x20 ADD SWAP1 DUP2 MSTORE PUSH1 0x20 ADD PUSH1 0x0 KECCAK256 PUSH1 0x0 DUP15 PUSH1 0x1 PUSH1 0x1 PUSH1 0xA0 SHL SUB AND PUSH1 0x1 PUSH1 0x1 PUSH1 0xA0 SHL SUB AND DUP2 MSTORE PUSH1 0x20 ADD SWAP1 DUP2 MSTORE PUSH1 0x20 ADD PUSH1 0x0 KECCAK256 PUSH1 0x3 ADD DUP1 SLOAD SWAP1 POP DUP2 PUSH1 0x0 ADD DUP2 DUP2 MSTORE POP POP DUP13 DUP2 PUSH1 0x20 ADD SWAP1 PUSH1 0x1 PUSH1 0x1 PUSH1 0xA0 SHL SUB AND SWAP1 DUP2 PUSH1 0x1 PUSH1 0x1 PUSH1 0xA0 SHL SUB AND DUP2 MSTORE POP POP DUP4 DUP2 PUSH1 0x40 ADD SWAP1 PUSH1 0x1 PUSH1 0x1 PUSH1 0xA0 SHL SUB AND SWAP1 DUP2 PUSH1 0x1 PUSH1 0x1 PUSH1 0xA0 SHL SUB AND DUP2 MSTORE POP POP DUP3 DUP2 PUSH1 0x60 ADD DUP2 DUP2 MSTORE POP POP DUP2 DUP2 PUSH1 0x80 ADD DUP2 DUP2 MSTORE POP POP DUP14 DUP2 PUSH1 0xA0 ADD SWAP1 PUSH1 0x1 PUSH1 0x1 PUSH1 0xA0 SHL SUB AND SWAP1 DUP2 PUSH1 0x1 PUSH1 0x1 PUSH1 0xA0 SHL SUB AND DUP2 MSTORE POP POP DUP7 DUP2 PUSH1 0xC0 ADD DUP2 DUP2 MSTORE POP POP DUP8 DUP2 PUSH1 0xE0 ADD DUP2 DUP2 MSTORE POP POP DUP9 DUP2 PUSH2 0x100 ADD DUP2 DUP2 MSTORE POP POP DUP10 DUP2 PUSH2 0x120 ADD DUP2 DUP2 MSTORE POP POP DUP12 DUP2 PUSH2 0x140 ADD DUP2 SWAP1 MSTORE POP TIMESTAMP DUP2 PUSH2 0x160 ADD DUP2 DUP2 MSTORE POP POP PUSH1 0x15 PUSH1 0x0 DUP16 PUSH1 0x1 PUSH1 0x1 PUSH1 0xA0 SHL SUB AND PUSH1 0x1 PUSH1 0x1 PUSH1 0xA0 SHL SUB AND DUP2 MSTORE PUSH1 0x20 ADD SWAP1 DUP2 MSTORE PUSH1 0x20 ADD PUSH1 0x0 KECCAK256 PUSH1 0x0 DUP15 PUSH1 0x1 PUSH1 0x1 PUSH1 0xA0 SHL SUB AND PUSH1 0x1 PUSH1 0x1 PUSH1 0xA0 SHL SUB AND DUP2 MSTORE PUSH1 0x20 ADD SWAP1 DUP2 MSTORE PUSH1 0x20 ADD PUSH1 0x0 KECCAK256 PUSH1 0x3 ADD DUP2 SWAP1 DUP1 PUSH1 0x1 DUP2 SLOAD ADD DUP1 DUP3 SSTORE DUP1 SWAP2 POP POP PUSH1 0x1 SWAP1 SUB SWAP1 PUSH1 0x0 MSTORE PUSH1 0x20 PUSH1 0x0 KECCAK256 SWAP1 PUSH1 0xE MUL ADD PUSH1 0x0 SWAP1 SWAP2 SWAP1 SWAP2 SWAP1 SWAP2 POP PUSH1 0x0 DUP3 ADD MLOAD DUP2 PUSH1 0x0 ADD SSTORE PUSH1 0x20 DUP3 ADD MLOAD DUP2 PUSH1 0x1 ADD PUSH1 0x0 PUSH2 0x100 EXP DUP2 SLOAD DUP2 PUSH1 0x1 PUSH1 0x1 PUSH1 0xA0 SHL SUB MUL NOT AND SWAP1 DUP4 PUSH1 0x1 PUSH1 0x1 PUSH1 0xA0 SHL SUB AND MUL OR SWAP1 SSTORE POP PUSH1 0x40 DUP3 ADD MLOAD DUP2 PUSH1 0x2 ADD PUSH1 0x0 PUSH2 0x100 EXP DUP2 SLOAD DUP2 PUSH1 0x1 PUSH1 0x1 PUSH1 0xA0 SHL SUB MUL NOT AND SWAP1 DUP4 PUSH1 0x1 PUSH1 0x1 PUSH1 0xA0 SHL SUB AND MUL OR SWAP1 SSTORE POP PUSH1 0x60 DUP3 ADD MLOAD DUP2 PUSH1 0x3 ADD SSTORE PUSH1 0x80 DUP3 ADD MLOAD DUP2 PUSH1 0x4 ADD SSTORE PUSH1 0xA0 DUP3 ADD MLOAD DUP2 PUSH1 0x5 ADD PUSH1 0x0 PUSH2 0x100 EXP DUP2 SLOAD DUP2 PUSH1 0x1 PUSH1 0x1 PUSH1 0xA0 SHL SUB MUL NOT AND SWAP1 DUP4 PUSH1 0x1 PUSH1 0x1 PUSH1 0xA0 SHL SUB AND MUL OR SWAP1 SSTORE POP PUSH1 0xC0 DUP3 ADD MLOAD DUP2 PUSH1 0x6 ADD SSTORE PUSH1 0xE0 DUP3 ADD MLOAD DUP2 PUSH1 0x7 ADD SSTORE PUSH2 0x100 DUP3 ADD MLOAD DUP2 PUSH1 0x8 ADD SSTORE PUSH2 0x120 DUP3 ADD MLOAD DUP2 PUSH1 0x9 ADD SSTORE PUSH2 0x140 DUP3 ADD MLOAD DUP2 PUSH1 0xA ADD SWAP1 PUSH1 0x2 PUSH2 0x40C7 SWAP3 SWAP2 SWAP1 PUSH2 0x4BAE JUMP JUMPDEST POP PUSH2 0x160 DUP3 ADD MLOAD DUP2 PUSH1 0xC ADD SSTORE PUSH2 0x180 DUP3 ADD MLOAD DUP2 PUSH1 0xD ADD SSTORE POP POP POP POP POP POP POP POP POP POP POP POP POP POP POP POP JUMP JUMPDEST PUSH2 0x40F9 DUP5 PUSH2 0x2BD4 JUMP JUMPDEST PUSH2 0x4115 JUMPI PUSH1 0x40 MLOAD PUSH3 0x461BCD PUSH1 0xE5 SHL DUP2 MSTORE PUSH1 0x4 ADD PUSH2 0xAED SWAP1 PUSH2 0x5501 JUMP JUMPDEST PUSH1 0x8 SLOAD DUP4 LT DUP1 ISZERO SWAP1 PUSH2 0x4129 JUMPI POP PUSH1 0x9 SLOAD DUP4 GT ISZERO JUMPDEST PUSH2 0x413A PUSH2 0x20C2 PUSH1 0x2 PUSH1 0x6 ADD SLOAD PUSH2 0x3A71 JUMP JUMPDEST PUSH2 0x414B PUSH2 0x20C2 PUSH1 0x2 PUSH1 0x7 ADD SLOAD PUSH2 0x3A71 JUMP JUMPDEST PUSH1 0x40 MLOAD PUSH1 0x20 ADD PUSH2 0x415C SWAP3 SWAP2 SWAP1 PUSH2 0x5826 JUMP JUMPDEST PUSH1 0x40 MLOAD PUSH1 0x20 DUP2 DUP4 SUB SUB DUP2 MSTORE SWAP1 PUSH1 0x40 MSTORE SWAP1 PUSH2 0x4189 JUMPI PUSH1 0x40 MLOAD PUSH3 0x461BCD PUSH1 0xE5 SHL DUP2 MSTORE PUSH1 0x4 ADD PUSH2 0xAED SWAP2 SWAP1 PUSH2 0x50F4 JUMP JUMPDEST POP PUSH1 0x8 SLOAD DUP3 LT DUP1 ISZERO SWAP1 PUSH2 0x419E JUMPI POP PUSH1 0x9 SLOAD DUP3 GT ISZERO JUMPDEST PUSH2 0x41AF PUSH2 0x20C2 PUSH1 0x2 PUSH1 0x6 ADD SLOAD PUSH2 0x3A71 JUMP JUMPDEST PUSH2 0x41C0 PUSH2 0x20C2 PUSH1 0x2 PUSH1 0x7 ADD SLOAD PUSH2 0x3A71 JUMP JUMPDEST PUSH1 0x40 MLOAD PUSH1 0x20 ADD PUSH2 0x41D1 SWAP3 SWAP2 SWAP1 PUSH2 0x58A0 JUMP JUMPDEST PUSH1 0x40 MLOAD PUSH1 0x20 DUP2 DUP4 SUB SUB DUP2 MSTORE SWAP1 PUSH1 0x40 MSTORE SWAP1 PUSH2 0x41FE JUMPI PUSH1 0x40 MLOAD PUSH3 0x461BCD PUSH1 0xE5 SHL DUP2 MSTORE PUSH1 0x4 ADD PUSH2 0xAED SWAP2 SWAP1 PUSH2 0x50F4 JUMP JUMPDEST POP PUSH1 0x40 MLOAD PUSH3 0x3232BB PUSH1 0xE9 SHL PUSH1 0x20 DUP3 ADD MSTORE PUSH1 0x23 ADD PUSH1 0x40 MLOAD PUSH1 0x20 DUP2 DUP4 SUB SUB DUP2 MSTORE SWAP1 PUSH1 0x40 MSTORE DUP1 MLOAD SWAP1 PUSH1 0x20 ADD KECCAK256 DUP2 PUSH1 0x40 MLOAD PUSH1 0x20 ADD PUSH2 0x4238 SWAP2 SWAP1 PUSH2 0x565F JUMP JUMPDEST PUSH1 0x40 MLOAD PUSH1 0x20 DUP2 DUP4 SUB SUB DUP2 MSTORE SWAP1 PUSH1 0x40 MSTORE DUP1 MLOAD SWAP1 PUSH1 0x20 ADD KECCAK256 SUB PUSH2 0x427D JUMPI PUSH1 0x1 PUSH1 0x1 PUSH1 0xA0 SHL SUB DUP5 AND PUSH1 0x0 SWAP1 DUP2 MSTORE PUSH1 0x12 PUSH1 0x20 MSTORE PUSH1 0x40 SWAP1 KECCAK256 PUSH1 0xB DUP2 ADD DUP5 SWAP1 SSTORE PUSH1 0xC ADD DUP3 SWAP1 SSTORE PUSH2 0x2E3E JUMP JUMPDEST PUSH1 0x40 MLOAD PUSH5 0x30B236B4B7 PUSH1 0xD9 SHL PUSH1 0x20 DUP3 ADD MSTORE PUSH1 0x25 ADD PUSH1 0x40 MLOAD PUSH1 0x20 DUP2 DUP4 SUB SUB DUP2 MSTORE SWAP1 PUSH1 0x40 MSTORE DUP1 MLOAD SWAP1 PUSH1 0x20 ADD KECCAK256 DUP2 PUSH1 0x40 MLOAD PUSH1 0x20 ADD PUSH2 0x42B8 SWAP2 SWAP1 PUSH2 0x565F JUMP JUMPDEST PUSH1 0x40 MLOAD PUSH1 0x20 DUP2 DUP4 SUB SUB DUP2 MSTORE SWAP1 PUSH1 0x40 MSTORE DUP1 MLOAD SWAP1 PUSH1 0x20 ADD KECCAK256 SUB PUSH2 0x2E3E JUMPI POP PUSH1 0x1 PUSH1 0x1 PUSH1 0xA0 SHL SUB SWAP3 SWAP1 SWAP3 AND PUSH1 0x0 SWAP1 DUP2 MSTORE PUSH1 0x12 PUSH1 0x20 MSTORE PUSH1 0x40 SWAP1 KECCAK256 PUSH1 0xD DUP2 ADD SWAP2 SWAP1 SWAP2 SSTORE PUSH1 0xE DUP2 ADD SWAP2 SWAP1 SWAP2 SSTORE TIMESTAMP PUSH1 0x10 SWAP1 SWAP2 ADD SSTORE JUMP JUMPDEST PUSH1 0x0 DUP3 PUSH2 0x4314 PUSH1 0x64 PUSH2 0x4481 JUMP JUMPDEST PUSH2 0x431E SWAP1 DUP5 PUSH2 0x57D2 JUMP JUMPDEST PUSH2 0x1193 SWAP2 SWAP1 PUSH2 0x5546 JUMP JUMPDEST PUSH1 0x60 DUP2 PUSH1 0x0 SUB PUSH2 0x434F JUMPI POP POP PUSH1 0x40 DUP1 MLOAD DUP1 DUP3 ADD SWAP1 SWAP2 MSTORE PUSH1 0x1 DUP2 MSTORE PUSH1 0x3 PUSH1 0xFC SHL PUSH1 0x20 DUP3 ADD MSTORE SWAP1 JUMP JUMPDEST DUP2 PUSH1 0x0 JUMPDEST DUP2 ISZERO PUSH2 0x4379 JUMPI DUP1 PUSH2 0x4363 DUP2 PUSH2 0x5721 JUMP JUMPDEST SWAP2 POP PUSH2 0x4372 SWAP1 POP PUSH1 0xA DUP4 PUSH2 0x57D2 JUMP JUMPDEST SWAP2 POP PUSH2 0x4353 JUMP JUMPDEST PUSH1 0x0 DUP2 PUSH8 0xFFFFFFFFFFFFFFFF DUP2 GT ISZERO PUSH2 0x4394 JUMPI PUSH2 0x4394 PUSH2 0x5154 JUMP JUMPDEST PUSH1 0x40 MLOAD SWAP1 DUP1 DUP3 MSTORE DUP1 PUSH1 0x1F ADD PUSH1 0x1F NOT AND PUSH1 0x20 ADD DUP3 ADD PUSH1 0x40 MSTORE DUP1 ISZERO PUSH2 0x43BE JUMPI PUSH1 0x20 DUP3 ADD DUP2 DUP1 CALLDATASIZE DUP4 CALLDATACOPY ADD SWAP1 POP JUMPDEST POP SWAP1 POP JUMPDEST DUP5 ISZERO PUSH2 0x4429 JUMPI PUSH2 0x43D3 PUSH1 0x1 DUP4 PUSH2 0x5605 JUMP JUMPDEST SWAP2 POP PUSH2 0x43E0 PUSH1 0xA DUP7 PUSH2 0x58D8 JUMP JUMPDEST PUSH2 0x43EB SWAP1 PUSH1 0x30 PUSH2 0x561C JUMP JUMPDEST PUSH1 0xF8 SHL DUP2 DUP4 DUP2 MLOAD DUP2 LT PUSH2 0x4400 JUMPI PUSH2 0x4400 PUSH2 0x570B JUMP JUMPDEST PUSH1 0x20 ADD ADD SWAP1 PUSH1 0x1 PUSH1 0x1 PUSH1 0xF8 SHL SUB NOT AND SWAP1 DUP2 PUSH1 0x0 BYTE SWAP1 MSTORE8 POP PUSH2 0x4422 PUSH1 0xA DUP7 PUSH2 0x57D2 JUMP JUMPDEST SWAP5 POP PUSH2 0x43C2 JUMP JUMPDEST SWAP5 SWAP4 POP POP POP POP JUMP JUMPDEST PUSH1 0x0 DUP1 SLOAD PUSH1 0x1 PUSH1 0x1 PUSH1 0xA0 SHL SUB DUP4 DUP2 AND PUSH1 0x1 PUSH1 0x1 PUSH1 0xA0 SHL SUB NOT DUP4 AND DUP2 OR DUP5 SSTORE PUSH1 0x40 MLOAD SWAP2 SWAP1 SWAP3 AND SWAP3 DUP4 SWAP2 PUSH32 0x8BE0079C531659141344CD1FD0A4F28419497F9722A3DAAFE3B4186F6B6457E0 SWAP2 SWAP1 LOG3 POP POP JUMP JUMPDEST PUSH1 0x0 PUSH2 0xB35 DUP3 PUSH8 0xDE0B6B3A7640000 PUSH2 0x5546 JUMP JUMPDEST PUSH2 0x1576 DUP3 DUP3 PUSH2 0x3A85 JUMP JUMPDEST PUSH2 0x44A8 DUP5 PUSH2 0x2BD4 JUMP JUMPDEST PUSH2 0x44C4 JUMPI PUSH1 0x40 MLOAD PUSH3 0x461BCD PUSH1 0xE5 SHL DUP2 MSTORE PUSH1 0x4 ADD PUSH2 0xAED SWAP1 PUSH2 0x5501 JUMP JUMPDEST PUSH1 0xB SLOAD DUP4 LT DUP1 ISZERO SWAP1 PUSH2 0x44D8 JUMPI POP PUSH1 0xC SLOAD DUP4 GT ISZERO JUMPDEST PUSH2 0x44E9 PUSH2 0x20C2 PUSH1 0x2 PUSH1 0x9 ADD SLOAD PUSH2 0x3A71 JUMP JUMPDEST PUSH2 0x44FA PUSH2 0x20C2 PUSH1 0x2 PUSH1 0xA ADD SLOAD PUSH2 0x3A71 JUMP JUMPDEST PUSH1 0x40 MLOAD PUSH1 0x20 ADD PUSH2 0x450B SWAP3 SWAP2 SWAP1 PUSH2 0x58EC JUMP JUMPDEST PUSH1 0x40 MLOAD PUSH1 0x20 DUP2 DUP4 SUB SUB DUP2 MSTORE SWAP1 PUSH1 0x40 MSTORE SWAP1 PUSH2 0x4538 JUMPI PUSH1 0x40 MLOAD PUSH3 0x461BCD PUSH1 0xE5 SHL DUP2 MSTORE PUSH1 0x4 ADD PUSH2 0xAED SWAP2 SWAP1 PUSH2 0x50F4 JUMP JUMPDEST POP PUSH1 0xB SLOAD DUP3 LT DUP1 ISZERO SWAP1 PUSH2 0x454D JUMPI POP PUSH1 0xC SLOAD DUP3 GT ISZERO JUMPDEST PUSH2 0x455E PUSH2 0x20C2 PUSH1 0x2 PUSH1 0x9 ADD SLOAD PUSH2 0x3A71 JUMP JUMPDEST PUSH2 0x456F PUSH2 0x20C2 PUSH1 0x2 PUSH1 0xA ADD SLOAD PUSH2 0x3A71 JUMP JUMPDEST PUSH1 0x40 MLOAD PUSH1 0x20 ADD PUSH2 0x4580 SWAP3 SWAP2 SWAP1 PUSH2 0x5924 JUMP JUMPDEST PUSH1 0x40 MLOAD PUSH1 0x20 DUP2 DUP4 SUB SUB DUP2 MSTORE SWAP1 PUSH1 0x40 MSTORE SWAP1 PUSH2 0x45AD JUMPI PUSH1 0x40 MLOAD PUSH3 0x461BCD PUSH1 0xE5 SHL DUP2 MSTORE PUSH1 0x4 ADD PUSH2 0xAED SWAP2 SWAP1 PUSH2 0x50F4 JUMP JUMPDEST POP PUSH1 0x40 MLOAD PUSH3 0x3232BB PUSH1 0xE9 SHL PUSH1 0x20 DUP3 ADD MSTORE PUSH1 0x23 ADD PUSH1 0x40 MLOAD PUSH1 0x20 DUP2 DUP4 SUB SUB DUP2 MSTORE SWAP1 PUSH1 0x40 MSTORE DUP1 MLOAD SWAP1 PUSH1 0x20 ADD KECCAK256 DUP2 PUSH1 0x40 MLOAD PUSH1 0x20 ADD PUSH2 0x45E7 SWAP2 SWAP1 PUSH2 0x565F JUMP JUMPDEST PUSH1 0x40 MLOAD PUSH1 0x20 DUP2 DUP4 SUB SUB DUP2 MSTORE SWAP1 PUSH1 0x40 MSTORE DUP1 MLOAD SWAP1 PUSH1 0x20 ADD KECCAK256 SUB PUSH2 0x462C JUMPI PUSH1 0x1 PUSH1 0x1 PUSH1 0xA0 SHL SUB DUP5 AND PUSH1 0x0 SWAP1 DUP2 MSTORE PUSH1 0x12 PUSH1 0x20 MSTORE PUSH1 0x40 SWAP1 KECCAK256 PUSH1 0x9 DUP2 ADD DUP5 SWAP1 SSTORE PUSH1 0xA ADD DUP3 SWAP1 SSTORE PUSH2 0x2E3E JUMP JUMPDEST PUSH1 0x40 MLOAD PUSH5 0x30B236B4B7 PUSH1 0xD9 SHL PUSH1 0x20 DUP3 ADD MSTORE PUSH1 0x25 ADD PUSH1 0x40 MLOAD PUSH1 0x20 DUP2 DUP4 SUB SUB DUP2 MSTORE SWAP1 PUSH1 0x40 MSTORE DUP1 MLOAD SWAP1 PUSH1 0x20 ADD KECCAK256 DUP2 PUSH1 0x40 MLOAD PUSH1 0x20 ADD PUSH2 0x4667 SWAP2 SWAP1 PUSH2 0x565F JUMP JUMPDEST PUSH1 0x40 DUP1 MLOAD PUSH1 0x1F NOT DUP2 DUP5 SUB ADD SWAP1 MSTORE MSTORE POP POP POP POP PUSH1 0x1 PUSH1 0x1 PUSH1 0xA0 SHL SUB AND PUSH1 0x0 SWAP1 DUP2 MSTORE PUSH1 0x12 PUSH1 0x20 MSTORE PUSH1 0x40 SWAP1 KECCAK256 TIMESTAMP PUSH1 0x10 SWAP1 SWAP2 ADD SSTORE JUMP JUMPDEST PUSH2 0x46A2 DUP2 PUSH2 0x2EE1 JUMP JUMPDEST ISZERO PUSH2 0x46E8 JUMPI PUSH1 0x40 MLOAD PUSH3 0x461BCD PUSH1 0xE5 SHL DUP2 MSTORE PUSH1 0x20 PUSH1 0x4 DUP3 ADD MSTORE PUSH1 0x16 PUSH1 0x24 DUP3 ADD MSTORE PUSH22 0x29BA30B5B2B91030B63932B0B23C9032BC34B9BA3997 PUSH1 0x51 SHL PUSH1 0x44 DUP3 ADD MSTORE PUSH1 0x64 ADD PUSH2 0xAED JUMP JUMPDEST PUSH1 0x13 DUP1 SLOAD PUSH1 0x1 DUP2 ADD SWAP1 SWAP2 SSTORE PUSH32 0x66DE8FFDA797E3DE9C05E8FC57B3BF0EC28A930D40B0D285D93C06501CF6A090 ADD DUP1 SLOAD PUSH1 0x1 PUSH1 0x1 PUSH1 0xA0 SHL SUB SWAP1 SWAP3 AND PUSH1 0x1 PUSH1 0x1 PUSH1 0xA0 SHL SUB NOT SWAP1 SWAP3 AND DUP3 OR SWAP1 SSTORE PUSH1 0x0 SWAP1 DUP2 MSTORE PUSH1 0x14 PUSH1 0x20 MSTORE PUSH1 0x40 SWAP1 KECCAK256 TIMESTAMP PUSH1 0x2 SWAP1 SWAP2 ADD SSTORE JUMP JUMPDEST PUSH2 0x4753 DUP3 DUP3 PUSH2 0x2606 JUMP JUMPDEST PUSH2 0x1576 JUMPI PUSH2 0x476B DUP2 PUSH1 0x1 PUSH1 0x1 PUSH1 0xA0 SHL SUB AND PUSH1 0x14 PUSH2 0x485B JUMP JUMPDEST PUSH2 0x4776 DUP4 PUSH1 0x20 PUSH2 0x485B JUMP JUMPDEST PUSH1 0x40 MLOAD PUSH1 0x20 ADD PUSH2 0x4787 SWAP3 SWAP2 SWAP1 PUSH2 0x599D JUMP JUMPDEST PUSH1 0x40 DUP1 MLOAD PUSH1 0x1F NOT DUP2 DUP5 SUB ADD DUP2 MSTORE SWAP1 DUP3 SWAP1 MSTORE PUSH3 0x461BCD PUSH1 0xE5 SHL DUP3 MSTORE PUSH2 0xAED SWAP2 PUSH1 0x4 ADD PUSH2 0x50F4 JUMP JUMPDEST PUSH1 0x1 PUSH1 0x1 PUSH1 0xA0 SHL SUB DUP4 AND PUSH1 0x0 SWAP1 DUP2 MSTORE PUSH1 0x12 PUSH1 0x20 MSTORE PUSH1 0x40 DUP2 KECCAK256 PUSH1 0x4 ADD DUP1 SLOAD DUP5 SWAP3 SWAP1 PUSH2 0x47D8 SWAP1 DUP5 SWAP1 PUSH2 0x5605 JUMP JUMPDEST SWAP1 SWAP2 SSTORE POP POP PUSH1 0x1 PUSH1 0x1 PUSH1 0xA0 SHL SUB DUP1 DUP5 AND PUSH1 0x0 SWAP1 DUP2 MSTORE PUSH1 0x12 PUSH1 0x20 SWAP1 DUP2 MSTORE PUSH1 0x40 DUP1 DUP4 KECCAK256 TIMESTAMP PUSH1 0x10 SWAP1 SWAP2 ADD SSTORE PUSH1 0x15 DUP3 MSTORE DUP1 DUP4 KECCAK256 SWAP4 DUP6 AND DUP4 MSTORE SWAP3 SWAP1 MSTORE SWAP1 DUP2 KECCAK256 DUP1 SLOAD DUP5 SWAP3 SWAP1 PUSH2 0x4822 SWAP1 DUP5 SWAP1 PUSH2 0x561C JUMP JUMPDEST SWAP1 SWAP2 SSTORE POP POP PUSH1 0x1 PUSH1 0x1 PUSH1 0xA0 SHL SUB SWAP3 DUP4 AND PUSH1 0x0 SWAP1 DUP2 MSTORE PUSH1 0x15 PUSH1 0x20 SWAP1 DUP2 MSTORE PUSH1 0x40 DUP1 DUP4 KECCAK256 SWAP4 SWAP1 SWAP6 AND DUP3 MSTORE SWAP2 SWAP1 SWAP2 MSTORE SWAP2 SWAP1 SWAP2 KECCAK256 TIMESTAMP PUSH1 0x6 SWAP1 SWAP2 ADD SSTORE POP JUMP JUMPDEST PUSH1 0x60 PUSH1 0x0 PUSH2 0x486A DUP4 PUSH1 0x2 PUSH2 0x5546 JUMP JUMPDEST PUSH2 0x4875 SWAP1 PUSH1 0x2 PUSH2 0x561C JUMP JUMPDEST PUSH8 0xFFFFFFFFFFFFFFFF DUP2 GT ISZERO PUSH2 0x488D JUMPI PUSH2 0x488D PUSH2 0x5154 JUMP JUMPDEST PUSH1 0x40 MLOAD SWAP1 DUP1 DUP3 MSTORE DUP1 PUSH1 0x1F ADD PUSH1 0x1F NOT AND PUSH1 0x20 ADD DUP3 ADD PUSH1 0x40 MSTORE DUP1 ISZERO PUSH2 0x48B7 JUMPI PUSH1 0x20 DUP3 ADD DUP2 DUP1 CALLDATASIZE DUP4 CALLDATACOPY ADD SWAP1 POP JUMPDEST POP SWAP1 POP PUSH1 0x3 PUSH1 0xFC SHL DUP2 PUSH1 0x0 DUP2 MLOAD DUP2 LT PUSH2 0x48D2 JUMPI PUSH2 0x48D2 PUSH2 0x570B JUMP JUMPDEST PUSH1 0x20 ADD ADD SWAP1 PUSH1 0x1 PUSH1 0x1 PUSH1 0xF8 SHL SUB NOT AND SWAP1 DUP2 PUSH1 0x0 BYTE SWAP1 MSTORE8 POP PUSH1 0xF PUSH1 0xFB SHL DUP2 PUSH1 0x1 DUP2 MLOAD DUP2 LT PUSH2 0x4901 JUMPI PUSH2 0x4901 PUSH2 0x570B JUMP JUMPDEST PUSH1 0x20 ADD ADD SWAP1 PUSH1 0x1 PUSH1 0x1 PUSH1 0xF8 SHL SUB NOT AND SWAP1 DUP2 PUSH1 0x0 BYTE SWAP1 MSTORE8 POP PUSH1 0x0 PUSH2 0x4925 DUP5 PUSH1 0x2 PUSH2 0x5546 JUMP JUMPDEST PUSH2 0x4930 SWAP1 PUSH1 0x1 PUSH2 0x561C JUMP JUMPDEST SWAP1 POP JUMPDEST PUSH1 0x1 DUP2 GT ISZERO PUSH2 0x49A8 JUMPI PUSH16 0x181899199A1A9B1B9C1CB0B131B232B3 PUSH1 0x81 SHL DUP6 PUSH1 0xF AND PUSH1 0x10 DUP2 LT PUSH2 0x4964 JUMPI PUSH2 0x4964 PUSH2 0x570B JUMP JUMPDEST BYTE PUSH1 0xF8 SHL DUP3 DUP3 DUP2 MLOAD DUP2 LT PUSH2 0x497A JUMPI PUSH2 0x497A PUSH2 0x570B JUMP JUMPDEST PUSH1 0x20 ADD ADD SWAP1 PUSH1 0x1 PUSH1 0x1 PUSH1 0xF8 SHL SUB NOT AND SWAP1 DUP2 PUSH1 0x0 BYTE SWAP1 MSTORE8 POP PUSH1 0x4 SWAP5 SWAP1 SWAP5 SHR SWAP4 PUSH2 0x49A1 DUP2 PUSH2 0x567B JUMP JUMPDEST SWAP1 POP PUSH2 0x4933 JUMP JUMPDEST POP DUP4 ISZERO PUSH2 0x1193 JUMPI PUSH1 0x40 MLOAD PUSH3 0x461BCD PUSH1 0xE5 SHL DUP2 MSTORE PUSH1 0x20 PUSH1 0x4 DUP3 ADD DUP2 SWAP1 MSTORE PUSH1 0x24 DUP3 ADD MSTORE PUSH32 0x537472696E67733A20686578206C656E67746820696E73756666696369656E74 PUSH1 0x44 DUP3 ADD MSTORE PUSH1 0x64 ADD PUSH2 0xAED JUMP JUMPDEST PUSH1 0x40 MLOAD DUP1 PUSH2 0x1C0 ADD PUSH1 0x40 MSTORE DUP1 PUSH1 0x0 ISZERO ISZERO DUP2 MSTORE PUSH1 0x20 ADD PUSH1 0x0 ISZERO ISZERO DUP2 MSTORE PUSH1 0x20 ADD PUSH1 0x0 ISZERO ISZERO DUP2 MSTORE PUSH1 0x20 ADD PUSH1 0x60 DUP2 MSTORE PUSH1 0x20 ADD PUSH1 0x0 DUP2 MSTORE PUSH1 0x20 ADD PUSH1 0x0 DUP2 MSTORE PUSH1 0x20 ADD PUSH1 0x0 DUP2 MSTORE PUSH1 0x20 ADD PUSH1 0x0 DUP2 MSTORE PUSH1 0x20 ADD PUSH1 0x0 DUP2 MSTORE PUSH1 0x20 ADD PUSH1 0x0 PUSH1 0x1 PUSH1 0x1 PUSH1 0xA0 SHL SUB AND DUP2 MSTORE PUSH1 0x20 ADD PUSH1 0x0 PUSH1 0x1 PUSH1 0x1 PUSH1 0xA0 SHL SUB AND DUP2 MSTORE PUSH1 0x20 ADD PUSH2 0x4AA1 PUSH1 0x40 MLOAD DUP1 PUSH1 0xC0 ADD PUSH1 0x40 MSTORE DUP1 PUSH1 0x0 DUP2 MSTORE PUSH1 0x20 ADD PUSH1 0x0 DUP2 MSTORE PUSH1 0x20 ADD PUSH1 0x0 DUP2 MSTORE PUSH1 0x20 ADD PUSH1 0x0 DUP2 MSTORE PUSH1 0x20 ADD PUSH1 0x0 DUP2 MSTORE PUSH1 0x20 ADD PUSH1 0x0 DUP2 MSTORE POP SWAP1 JUMP JUMPDEST DUP2 MSTORE PUSH1 0x20 ADD PUSH1 0x0 DUP2 MSTORE PUSH1 0x20 ADD PUSH1 0x0 DUP2 MSTORE POP SWAP1 JUMP JUMPDEST DUP3 DUP1 SLOAD PUSH2 0x4AC1 SWAP1 PUSH2 0x54C7 JUMP JUMPDEST SWAP1 PUSH1 0x0 MSTORE PUSH1 0x20 PUSH1 0x0 KECCAK256 SWAP1 PUSH1 0x1F ADD PUSH1 0x20 SWAP1 DIV DUP2 ADD SWAP3 DUP3 PUSH2 0x4AE3 JUMPI PUSH1 0x0 DUP6 SSTORE PUSH2 0x4B29 JUMP JUMPDEST DUP3 PUSH1 0x1F LT PUSH2 0x4AFC JUMPI DUP1 MLOAD PUSH1 0xFF NOT AND DUP4 DUP1 ADD OR DUP6 SSTORE PUSH2 0x4B29 JUMP JUMPDEST DUP3 DUP1 ADD PUSH1 0x1 ADD DUP6 SSTORE DUP3 ISZERO PUSH2 0x4B29 JUMPI SWAP2 DUP3 ADD JUMPDEST DUP3 DUP2 GT ISZERO PUSH2 0x4B29 JUMPI DUP3 MLOAD DUP3 SSTORE SWAP2 PUSH1 0x20 ADD SWAP2 SWAP1 PUSH1 0x1 ADD SWAP1 PUSH2 0x4B0E JUMP JUMPDEST POP PUSH2 0x4B35 SWAP3 SWAP2 POP PUSH2 0x4BFA JUMP JUMPDEST POP SWAP1 JUMP JUMPDEST PUSH1 0x40 MLOAD DUP1 PUSH2 0x1A0 ADD PUSH1 0x40 MSTORE DUP1 PUSH1 0x0 DUP2 MSTORE PUSH1 0x20 ADD PUSH1 0x0 PUSH1 0x1 PUSH1 0x1 PUSH1 0xA0 SHL SUB AND DUP2 MSTORE PUSH1 0x20 ADD PUSH1 0x0 PUSH1 0x1 PUSH1 0x1 PUSH1 0xA0 SHL SUB AND DUP2 MSTORE PUSH1 0x20 ADD PUSH1 0x0 DUP2 MSTORE PUSH1 0x20 ADD PUSH1 0x0 DUP2 MSTORE PUSH1 0x20 ADD PUSH1 0x0 PUSH1 0x1 PUSH1 0x1 PUSH1 0xA0 SHL SUB AND DUP2 MSTORE PUSH1 0x20 ADD PUSH1 0x0 DUP2 MSTORE PUSH1 0x20 ADD PUSH1 0x0 DUP2 MSTORE PUSH1 0x20 ADD PUSH1 0x0 DUP2 MSTORE PUSH1 0x20 ADD PUSH1 0x0 DUP2 MSTORE PUSH1 0x20 ADD PUSH2 0x4AA1 PUSH2 0x4C0F JUMP JUMPDEST DUP3 PUSH1 0x2 DUP2 ADD SWAP3 DUP3 ISZERO PUSH2 0x4BEE JUMPI SWAP2 PUSH1 0x20 MUL DUP3 ADD JUMPDEST DUP3 DUP2 GT ISZERO PUSH2 0x4BEE JUMPI DUP3 MLOAD DUP1 MLOAD PUSH2 0x4BDE SWAP2 DUP5 SWAP2 PUSH1 0x20 SWAP1 SWAP2 ADD SWAP1 PUSH2 0x4AB5 JUMP JUMPDEST POP SWAP2 PUSH1 0x20 ADD SWAP2 SWAP1 PUSH1 0x1 ADD SWAP1 PUSH2 0x4BC1 JUMP JUMPDEST POP PUSH2 0x4B35 SWAP3 SWAP2 POP PUSH2 0x4C36 JUMP JUMPDEST JUMPDEST DUP1 DUP3 GT ISZERO PUSH2 0x4B35 JUMPI PUSH1 0x0 DUP2 SSTORE PUSH1 0x1 ADD PUSH2 0x4BFB JUMP JUMPDEST PUSH1 0x40 MLOAD DUP1 PUSH1 0x40 ADD PUSH1 0x40 MSTORE DUP1 PUSH1 0x2 SWAP1 JUMPDEST PUSH1 0x60 DUP2 MSTORE PUSH1 0x20 ADD SWAP1 PUSH1 0x1 SWAP1 SUB SWAP1 DUP2 PUSH2 0x4C1E JUMPI SWAP1 POP POP SWAP1 JUMP JUMPDEST DUP1 DUP3 GT ISZERO PUSH2 0x4B35 JUMPI PUSH1 0x0 PUSH2 0x4C4A DUP3 DUP3 PUSH2 0x4C53 JUMP JUMPDEST POP PUSH1 0x1 ADD PUSH2 0x4C36 JUMP JUMPDEST POP DUP1 SLOAD PUSH2 0x4C5F SWAP1 PUSH2 0x54C7 JUMP JUMPDEST PUSH1 0x0 DUP3 SSTORE DUP1 PUSH1 0x1F LT PUSH2 0x4C6F JUMPI POP POP JUMP JUMPDEST PUSH1 0x1F ADD PUSH1 0x20 SWAP1 DIV SWAP1 PUSH1 0x0 MSTORE PUSH1 0x20 PUSH1 0x0 KECCAK256 SWAP1 DUP2 ADD SWAP1 PUSH2 0x1925 SWAP2 SWAP1 PUSH2 0x4BFA JUMP JUMPDEST PUSH1 0x0 DUP1 PUSH1 0x0 PUSH1 0x60 DUP5 DUP7 SUB SLT ISZERO PUSH2 0x4CA2 JUMPI PUSH1 0x0 DUP1 REVERT JUMPDEST POP POP DUP2 CALLDATALOAD SWAP4 PUSH1 0x20 DUP4 ADD CALLDATALOAD SWAP4 POP PUSH1 0x40 SWAP1 SWAP3 ADD CALLDATALOAD SWAP2 SWAP1 POP JUMP JUMPDEST PUSH1 0x0 PUSH1 0x20 DUP3 DUP5 SUB SLT ISZERO PUSH2 0x4CCB JUMPI PUSH1 0x0 DUP1 REVERT JUMPDEST DUP2 CALLDATALOAD PUSH1 0x1 PUSH1 0x1 PUSH1 0xE0 SHL SUB NOT DUP2 AND DUP2 EQ PUSH2 0x1193 JUMPI PUSH1 0x0 DUP1 REVERT JUMPDEST DUP1 CALLDATALOAD PUSH1 0x1 PUSH1 0x1 PUSH1 0xA0 SHL SUB DUP2 AND DUP2 EQ PUSH2 0x4CFA JUMPI PUSH1 0x0 DUP1 REVERT JUMPDEST SWAP2 SWAP1 POP JUMP JUMPDEST PUSH1 0x0 DUP1 PUSH1 0x40 DUP4 DUP6 SUB SLT ISZERO PUSH2 0x4D12 JUMPI PUSH1 0x0 DUP1 REVERT JUMPDEST PUSH2 0x4D1B DUP4 PUSH2 0x4CE3 JUMP JUMPDEST SWAP2 POP PUSH2 0x4D29 PUSH1 0x20 DUP5 ADD PUSH2 0x4CE3 JUMP JUMPDEST SWAP1 POP SWAP3 POP SWAP3 SWAP1 POP JUMP JUMPDEST PUSH1 0x0 JUMPDEST DUP4 DUP2 LT ISZERO PUSH2 0x4D4D JUMPI DUP2 DUP2 ADD MLOAD DUP4 DUP3 ADD MSTORE PUSH1 0x20 ADD PUSH2 0x4D35 JUMP JUMPDEST DUP4 DUP2 GT ISZERO PUSH2 0x19AC JUMPI POP POP PUSH1 0x0 SWAP2 ADD MSTORE JUMP JUMPDEST PUSH1 0x0 DUP2 MLOAD DUP1 DUP5 MSTORE PUSH2 0x4D76 DUP2 PUSH1 0x20 DUP7 ADD PUSH1 0x20 DUP7 ADD PUSH2 0x4D32 JUMP JUMPDEST PUSH1 0x1F ADD PUSH1 0x1F NOT AND SWAP3 SWAP1 SWAP3 ADD PUSH1 0x20 ADD SWAP3 SWAP2 POP POP JUMP JUMPDEST PUSH1 0x0 DUP3 PUSH1 0x40 DUP2 ADD DUP4 PUSH1 0x0 JUMPDEST PUSH1 0x2 DUP2 LT ISZERO PUSH2 0x4DC4 JUMPI DUP4 DUP4 SUB DUP8 MSTORE PUSH2 0x4DAE DUP4 DUP4 MLOAD PUSH2 0x4D5E JUMP JUMPDEST PUSH1 0x20 SWAP8 DUP9 ADD SWAP8 SWAP1 SWAP4 POP SWAP2 SWAP1 SWAP2 ADD SWAP1 PUSH1 0x1 ADD PUSH2 0x4D95 JUMP JUMPDEST POP SWAP1 SWAP6 SWAP5 POP POP POP POP POP JUMP JUMPDEST PUSH1 0x0 PUSH1 0x20 DUP1 DUP4 MSTORE PUSH2 0x100 DUP1 DUP5 ADD DUP6 MLOAD DUP4 DUP7 ADD MSTORE DUP3 DUP7 ADD MLOAD PUSH1 0x40 DUP2 DUP2 DUP9 ADD MSTORE DUP1 DUP9 ADD MLOAD SWAP2 POP PUSH1 0x60 PUSH1 0x1 DUP1 PUSH1 0xA0 SHL SUB DUP4 AND DUP2 DUP10 ADD MSTORE DUP1 DUP10 ADD MLOAD SWAP3 POP PUSH1 0xE0 PUSH1 0x80 DUP2 DUP2 DUP12 ADD MSTORE DUP6 DUP6 MLOAD DUP1 DUP9 MSTORE PUSH2 0x120 SWAP8 POP DUP8 DUP13 ADD SWAP2 POP DUP8 DUP2 PUSH1 0x5 SHL DUP14 ADD ADD DUP11 DUP9 ADD SWAP8 POP PUSH1 0x0 JUMPDEST DUP3 DUP2 LT ISZERO PUSH2 0x4EF0 JUMPI PUSH2 0x11F NOT DUP15 DUP4 SUB ADD DUP5 MSTORE DUP9 MLOAD DUP1 MLOAD DUP4 MSTORE DUP13 DUP2 ADD MLOAD PUSH1 0x1 PUSH1 0x1 PUSH1 0xA0 SHL SUB SWAP1 DUP2 AND DUP15 DUP6 ADD MSTORE DUP10 DUP3 ADD MLOAD DUP2 AND DUP11 DUP6 ADD MSTORE DUP9 DUP3 ADD MLOAD DUP10 DUP6 ADD MSTORE DUP7 DUP3 ADD MLOAD DUP8 DUP6 ADD MSTORE PUSH1 0xA0 DUP1 DUP4 ADD MLOAD SWAP1 SWAP2 AND SWAP1 DUP5 ADD MSTORE PUSH1 0xC0 DUP1 DUP3 ADD MLOAD SWAP1 DUP5 ADD MSTORE DUP7 DUP2 ADD MLOAD DUP8 DUP5 ADD MSTORE DUP12 DUP2 ADD MLOAD DUP13 DUP5 ADD MSTORE DUP11 DUP2 ADD MLOAD DUP12 DUP5 ADD MSTORE PUSH2 0x140 DUP1 DUP3 ADD MLOAD PUSH2 0x1A0 DUP3 DUP7 ADD DUP2 SWAP1 MSTORE SWAP2 SWAP1 PUSH2 0x4EC3 DUP4 DUP8 ADD DUP3 PUSH2 0x4D8A JUMP JUMPDEST PUSH2 0x160 DUP6 DUP2 ADD MLOAD SWAP1 DUP9 ADD MSTORE PUSH2 0x180 SWAP5 DUP6 ADD MLOAD SWAP5 SWAP1 SWAP7 ADD SWAP4 SWAP1 SWAP4 MSTORE POP POP POP SWAP8 DUP12 ADD SWAP8 SWAP3 DUP12 ADD SWAP3 PUSH1 0x1 ADD PUSH2 0x4E31 JUMP JUMPDEST POP DUP4 DUP15 ADD MLOAD PUSH1 0xA0 DUP15 ADD MSTORE PUSH1 0xA0 DUP15 ADD MLOAD PUSH1 0xC0 DUP15 ADD MSTORE PUSH1 0xC0 DUP15 ADD MLOAD DUP6 DUP15 ADD MSTORE DUP1 SWAP12 POP POP POP POP POP POP POP POP POP POP POP POP SWAP3 SWAP2 POP POP JUMP JUMPDEST PUSH1 0x0 PUSH1 0x20 DUP3 DUP5 SUB SLT ISZERO PUSH2 0x4F33 JUMPI PUSH1 0x0 DUP1 REVERT JUMPDEST PUSH2 0x1193 DUP3 PUSH2 0x4CE3 JUMP JUMPDEST PUSH1 0x20 DUP2 MSTORE PUSH2 0x4F4F PUSH1 0x20 DUP3 ADD DUP4 MLOAD ISZERO ISZERO SWAP1 MSTORE JUMP JUMPDEST PUSH1 0x0 PUSH1 0x20 DUP4 ADD MLOAD PUSH2 0x4F64 PUSH1 0x40 DUP5 ADD DUP3 ISZERO ISZERO SWAP1 MSTORE JUMP JUMPDEST POP PUSH1 0x40 DUP4 ADD MLOAD DUP1 ISZERO ISZERO PUSH1 0x60 DUP5 ADD MSTORE POP PUSH1 0x60 DUP4 ADD MLOAD PUSH2 0x260 DUP1 PUSH1 0x80 DUP6 ADD MSTORE PUSH2 0x4F8F PUSH2 0x280 DUP6 ADD DUP4 PUSH2 0x4D5E JUMP JUMPDEST SWAP2 POP PUSH1 0x80 DUP6 ADD MLOAD PUSH1 0xA0 DUP6 ADD MSTORE PUSH1 0xA0 DUP6 ADD MLOAD PUSH1 0xC0 DUP6 ADD MSTORE PUSH1 0xC0 DUP6 ADD MLOAD PUSH1 0xE0 DUP6 ADD MSTORE PUSH1 0xE0 DUP6 ADD MLOAD PUSH2 0x100 DUP2 DUP2 DUP8 ADD MSTORE DUP1 DUP8 ADD MLOAD SWAP2 POP POP PUSH2 0x120 DUP2 DUP2 DUP8 ADD MSTORE DUP1 DUP8 ADD MLOAD SWAP2 POP POP PUSH2 0x140 PUSH2 0x4FE9 DUP2 DUP8 ADD DUP4 PUSH1 0x1 PUSH1 0x1 PUSH1 0xA0 SHL SUB AND SWAP1 MSTORE JUMP JUMPDEST DUP7 ADD MLOAD SWAP1 POP PUSH2 0x160 PUSH2 0x5005 DUP7 DUP3 ADD DUP4 PUSH1 0x1 PUSH1 0x1 PUSH1 0xA0 SHL SUB AND SWAP1 MSTORE JUMP JUMPDEST DUP7 ADD MLOAD SWAP1 POP PUSH2 0x180 PUSH2 0x504E DUP7 DUP3 ADD DUP4 DUP1 MLOAD DUP3 MSTORE PUSH1 0x20 DUP2 ADD MLOAD PUSH1 0x20 DUP4 ADD MSTORE PUSH1 0x40 DUP2 ADD MLOAD PUSH1 0x40 DUP4 ADD MSTORE PUSH1 0x60 DUP2 ADD MLOAD PUSH1 0x60 DUP4 ADD MSTORE PUSH1 0x80 DUP2 ADD MLOAD PUSH1 0x80 DUP4 ADD MSTORE PUSH1 0xA0 DUP2 ADD MLOAD PUSH1 0xA0 DUP4 ADD MSTORE POP POP JUMP JUMPDEST DUP7 ADD MLOAD PUSH2 0x240 DUP7 ADD MSTORE POP PUSH2 0x1A0 SWAP1 SWAP5 ADD MLOAD SWAP4 SWAP1 SWAP3 ADD SWAP3 SWAP1 SWAP3 MSTORE SWAP2 SWAP1 POP JUMP JUMPDEST PUSH1 0x0 PUSH1 0x20 DUP3 DUP5 SUB SLT ISZERO PUSH2 0x507E JUMPI PUSH1 0x0 DUP1 REVERT JUMPDEST POP CALLDATALOAD SWAP2 SWAP1 POP JUMP JUMPDEST PUSH1 0x0 DUP1 PUSH1 0x40 DUP4 DUP6 SUB SLT ISZERO PUSH2 0x5098 JUMPI PUSH1 0x0 DUP1 REVERT JUMPDEST POP POP DUP1 CALLDATALOAD SWAP3 PUSH1 0x20 SWAP1 SWAP2 ADD CALLDATALOAD SWAP2 POP JUMP JUMPDEST PUSH1 0x0 DUP1 PUSH1 0x40 DUP4 DUP6 SUB SLT ISZERO PUSH2 0x50BA JUMPI PUSH1 0x0 DUP1 REVERT JUMPDEST DUP3 CALLDATALOAD SWAP2 POP PUSH2 0x4D29 PUSH1 0x20 DUP5 ADD PUSH2 0x4CE3 JUMP JUMPDEST PUSH1 0x0 DUP1 PUSH1 0x40 DUP4 DUP6 SUB SLT ISZERO PUSH2 0x50DD JUMPI PUSH1 0x0 DUP1 REVERT JUMPDEST PUSH2 0x50E6 DUP4 PUSH2 0x4CE3 JUMP JUMPDEST SWAP5 PUSH1 0x20 SWAP4 SWAP1 SWAP4 ADD CALLDATALOAD SWAP4 POP POP POP JUMP JUMPDEST PUSH1 0x20 DUP2 MSTORE PUSH1 0x0 PUSH2 0x1193 PUSH1 0x20 DUP4 ADD DUP5 PUSH2 0x4D5E JUMP JUMPDEST PUSH1 0x20 DUP1 DUP3 MSTORE DUP3 MLOAD DUP3 DUP3 ADD DUP2 SWAP1 MSTORE PUSH1 0x0 SWAP2 SWAP1 DUP5 DUP3 ADD SWAP1 PUSH1 0x40 DUP6 ADD SWAP1 DUP5 JUMPDEST DUP2 DUP2 LT ISZERO PUSH2 0x5148 JUMPI DUP4 MLOAD PUSH1 0x1 PUSH1 0x1 PUSH1 0xA0 SHL SUB AND DUP4 MSTORE SWAP3 DUP5 ADD SWAP3 SWAP2 DUP5 ADD SWAP2 PUSH1 0x1 ADD PUSH2 0x5123 JUMP JUMPDEST POP SWAP1 SWAP7 SWAP6 POP POP POP POP POP POP JUMP JUMPDEST PUSH4 0x4E487B71 PUSH1 0xE0 SHL PUSH1 0x0 MSTORE PUSH1 0x41 PUSH1 0x4 MSTORE PUSH1 0x24 PUSH1 0x0 REVERT JUMPDEST PUSH1 0x0 DUP3 PUSH1 0x1F DUP4 ADD SLT PUSH2 0x517B JUMPI PUSH1 0x0 DUP1 REVERT JUMPDEST DUP2 CALLDATALOAD PUSH8 0xFFFFFFFFFFFFFFFF DUP1 DUP3 GT ISZERO PUSH2 0x5196 JUMPI PUSH2 0x5196 PUSH2 0x5154 JUMP JUMPDEST PUSH1 0x40 MLOAD PUSH1 0x1F DUP4 ADD PUSH1 0x1F NOT SWAP1 DUP2 AND PUSH1 0x3F ADD AND DUP2 ADD SWAP1 DUP3 DUP3 GT DUP2 DUP4 LT OR ISZERO PUSH2 0x51BE JUMPI PUSH2 0x51BE PUSH2 0x5154 JUMP JUMPDEST DUP2 PUSH1 0x40 MSTORE DUP4 DUP2 MSTORE DUP7 PUSH1 0x20 DUP6 DUP9 ADD ADD GT ISZERO PUSH2 0x51D7 JUMPI PUSH1 0x0 DUP1 REVERT JUMPDEST DUP4 PUSH1 0x20 DUP8 ADD PUSH1 0x20 DUP4 ADD CALLDATACOPY PUSH1 0x0 PUSH1 0x20 DUP6 DUP4 ADD ADD MSTORE DUP1 SWAP5 POP POP POP POP POP SWAP3 SWAP2 POP POP JUMP JUMPDEST PUSH1 0x0 DUP1 PUSH1 0x40 DUP4 DUP6 SUB SLT ISZERO PUSH2 0x520A JUMPI PUSH1 0x0 DUP1 REVERT JUMPDEST DUP3 CALLDATALOAD SWAP2 POP PUSH1 0x20 DUP4 ADD CALLDATALOAD PUSH8 0xFFFFFFFFFFFFFFFF DUP2 GT ISZERO PUSH2 0x5228 JUMPI PUSH1 0x0 DUP1 REVERT JUMPDEST PUSH2 0x5234 DUP6 DUP3 DUP7 ADD PUSH2 0x516A JUMP JUMPDEST SWAP2 POP POP SWAP3 POP SWAP3 SWAP1 POP JUMP JUMPDEST PUSH1 0x0 DUP1 PUSH1 0x0 PUSH1 0x60 DUP5 DUP7 SUB SLT ISZERO PUSH2 0x5253 JUMPI PUSH1 0x0 DUP1 REVERT JUMPDEST PUSH2 0x525C DUP5 PUSH2 0x4CE3 JUMP JUMPDEST SWAP6 PUSH1 0x20 DUP6 ADD CALLDATALOAD SWAP6 POP PUSH1 0x40 SWAP1 SWAP5 ADD CALLDATALOAD SWAP4 SWAP3 POP POP POP JUMP JUMPDEST PUSH1 0x0 DUP1 PUSH1 0x0 PUSH1 0x60 DUP5 DUP7 SUB SLT ISZERO PUSH2 0x5286 JUMPI PUSH1 0x0 DUP1 REVERT JUMPDEST PUSH2 0x528F DUP5 PUSH2 0x4CE3 JUMP JUMPDEST SWAP3 POP PUSH1 0x20 DUP5 ADD CALLDATALOAD SWAP2 POP PUSH1 0x40 DUP5 ADD CALLDATALOAD PUSH8 0xFFFFFFFFFFFFFFFF DUP2 GT ISZERO PUSH2 0x52B2 JUMPI PUSH1 0x0 DUP1 REVERT JUMPDEST PUSH2 0x52BE DUP7 DUP3 DUP8 ADD PUSH2 0x516A JUMP JUMPDEST SWAP2 POP POP SWAP3 POP SWAP3 POP SWAP3 JUMP JUMPDEST PUSH1 0x0 DUP1 PUSH1 0x0 DUP1 PUSH1 0x0 DUP1 PUSH1 0x0 PUSH1 0xE0 DUP9 DUP11 SUB SLT ISZERO PUSH2 0x52E3 JUMPI PUSH1 0x0 DUP1 REVERT JUMPDEST PUSH2 0x52EC DUP9 PUSH2 0x4CE3 JUMP JUMPDEST SWAP7 POP PUSH1 0x20 DUP9 ADD CALLDATALOAD PUSH8 0xFFFFFFFFFFFFFFFF DUP2 GT ISZERO PUSH2 0x5308 JUMPI PUSH1 0x0 DUP1 REVERT JUMPDEST PUSH2 0x5314 DUP11 DUP3 DUP12 ADD PUSH2 0x516A JUMP JUMPDEST SWAP7 POP POP PUSH1 0x40 DUP9 ADD CALLDATALOAD SWAP5 POP PUSH1 0x60 DUP9 ADD CALLDATALOAD SWAP4 POP PUSH1 0x80 DUP9 ADD CALLDATALOAD SWAP3 POP PUSH1 0xA0 DUP9 ADD CALLDATALOAD SWAP2 POP PUSH2 0x533F PUSH1 0xC0 DUP10 ADD PUSH2 0x4CE3 JUMP JUMPDEST SWAP1 POP SWAP3 SWAP6 SWAP9 SWAP2 SWAP5 SWAP8 POP SWAP3 SWAP6 POP JUMP JUMPDEST DUP15 ISZERO ISZERO DUP2 MSTORE DUP14 ISZERO ISZERO PUSH1 0x20 DUP3 ADD MSTORE DUP13 ISZERO ISZERO PUSH1 0x40 DUP3 ADD MSTORE PUSH2 0x260 PUSH1 0x60 DUP3 ADD MSTORE PUSH1 0x0 PUSH2 0x537A PUSH2 0x260 DUP4 ADD DUP15 PUSH2 0x4D5E JUMP JUMPDEST SWAP1 POP DUP12 PUSH1 0x80 DUP4 ADD MSTORE DUP11 PUSH1 0xA0 DUP4 ADD MSTORE DUP10 PUSH1 0xC0 DUP4 ADD MSTORE DUP9 PUSH1 0xE0 DUP4 ADD MSTORE DUP8 PUSH2 0x100 DUP4 ADD MSTORE PUSH2 0x53B1 PUSH2 0x120 DUP4 ADD DUP9 PUSH1 0x1 PUSH1 0x1 PUSH1 0xA0 SHL SUB AND SWAP1 MSTORE JUMP JUMPDEST PUSH1 0x1 PUSH1 0x1 PUSH1 0xA0 SHL SUB DUP7 AND PUSH2 0x140 DUP4 ADD MSTORE DUP5 MLOAD PUSH2 0x160 DUP4 ADD MSTORE PUSH1 0x20 DUP6 ADD MLOAD PUSH2 0x180 DUP4 ADD MSTORE PUSH1 0x40 DUP6 ADD MLOAD PUSH2 0x1A0 DUP4 ADD MSTORE PUSH1 0x60 DUP6 ADD MLOAD PUSH2 0x1C0 DUP4 ADD MSTORE PUSH1 0x80 DUP6 ADD MLOAD PUSH2 0x1E0 DUP4 ADD MSTORE PUSH1 0xA0 DUP6 ADD MLOAD PUSH2 0x200 DUP4 ADD MSTORE PUSH2 0x220 DUP3 ADD SWAP4 SWAP1 SWAP4 MSTORE PUSH2 0x240 ADD MSTORE SWAP13 SWAP12 POP POP POP POP POP POP POP POP POP POP POP POP JUMP JUMPDEST PUSH1 0x0 DUP1 PUSH1 0x40 DUP4 DUP6 SUB SLT ISZERO PUSH2 0x5431 JUMPI PUSH1 0x0 DUP1 REVERT JUMPDEST PUSH2 0x543A DUP4 PUSH2 0x4CE3 JUMP JUMPDEST SWAP2 POP PUSH1 0x20 DUP4 ADD CALLDATALOAD PUSH8 0xFFFFFFFFFFFFFFFF DUP2 GT ISZERO PUSH2 0x5228 JUMPI PUSH1 0x0 DUP1 REVERT JUMPDEST PUSH1 0x0 DUP1 PUSH1 0x0 PUSH1 0x60 DUP5 DUP7 SUB SLT ISZERO PUSH2 0x546B JUMPI PUSH1 0x0 DUP1 REVERT JUMPDEST PUSH2 0x5474 DUP5 PUSH2 0x4CE3 JUMP JUMPDEST SWAP3 POP PUSH2 0x5482 PUSH1 0x20 DUP6 ADD PUSH2 0x4CE3 JUMP JUMPDEST SWAP2 POP PUSH1 0x40 DUP5 ADD CALLDATALOAD SWAP1 POP SWAP3 POP SWAP3 POP SWAP3 JUMP JUMPDEST PUSH1 0x20 DUP1 DUP3 MSTORE DUP2 DUP2 ADD MSTORE PUSH32 0x4F776E61626C653A2063616C6C6572206973206E6F7420746865206F776E6572 PUSH1 0x40 DUP3 ADD MSTORE PUSH1 0x60 ADD SWAP1 JUMP JUMPDEST PUSH1 0x1 DUP2 DUP2 SHR SWAP1 DUP3 AND DUP1 PUSH2 0x54DB JUMPI PUSH1 0x7F DUP3 AND SWAP2 POP JUMPDEST PUSH1 0x20 DUP3 LT DUP2 SUB PUSH2 0x54FB JUMPI PUSH4 0x4E487B71 PUSH1 0xE0 SHL PUSH1 0x0 MSTORE PUSH1 0x22 PUSH1 0x4 MSTORE PUSH1 0x24 PUSH1 0x0 REVERT JUMPDEST POP SWAP2 SWAP1 POP JUMP JUMPDEST PUSH1 0x20 DUP1 DUP3 MSTORE PUSH1 0x15 SWAP1 DUP3 ADD MSTORE PUSH21 0x2A37B5B2B7103237B2B9903737BA1032BC34B9BA17 PUSH1 0x59 SHL PUSH1 0x40 DUP3 ADD MSTORE PUSH1 0x60 ADD SWAP1 JUMP JUMPDEST PUSH4 0x4E487B71 PUSH1 0xE0 SHL PUSH1 0x0 MSTORE PUSH1 0x11 PUSH1 0x4 MSTORE PUSH1 0x24 PUSH1 0x0 REVERT JUMPDEST PUSH1 0x0 DUP2 PUSH1 0x0 NOT DIV DUP4 GT DUP3 ISZERO ISZERO AND ISZERO PUSH2 0x5560 JUMPI PUSH2 0x5560 PUSH2 0x5530 JUMP JUMPDEST POP MUL SWAP1 JUMP JUMPDEST PUSH1 0x20 DUP1 DUP3 MSTORE PUSH1 0x21 SWAP1 DUP3 ADD MSTORE PUSH32 0x416D6F756E74206D7573742062652067726561746572207468616E207A65726F PUSH1 0x40 DUP3 ADD MSTORE PUSH1 0x17 PUSH1 0xF9 SHL PUSH1 0x60 DUP3 ADD MSTORE PUSH1 0x80 ADD SWAP1 JUMP JUMPDEST PUSH1 0x0 PUSH1 0x20 DUP3 DUP5 SUB SLT ISZERO PUSH2 0x55B8 JUMPI PUSH1 0x0 DUP1 REVERT JUMPDEST POP MLOAD SWAP2 SWAP1 POP JUMP JUMPDEST PUSH1 0x1 PUSH1 0x1 PUSH1 0xA0 SHL SUB SWAP4 DUP5 AND DUP2 MSTORE SWAP2 SWAP1 SWAP3 AND PUSH1 0x20 DUP3 ADD MSTORE PUSH1 0x40 DUP2 ADD SWAP2 SWAP1 SWAP2 MSTORE PUSH1 0x60 ADD SWAP1 JUMP JUMPDEST PUSH1 0x0 PUSH1 0x20 DUP3 DUP5 SUB SLT ISZERO PUSH2 0x55F5 JUMPI PUSH1 0x0 DUP1 REVERT JUMPDEST DUP2 MLOAD DUP1 ISZERO ISZERO DUP2 EQ PUSH2 0x1193 JUMPI PUSH1 0x0 DUP1 REVERT JUMPDEST PUSH1 0x0 DUP3 DUP3 LT ISZERO PUSH2 0x5617 JUMPI PUSH2 0x5617 PUSH2 0x5530 JUMP JUMPDEST POP SUB SWAP1 JUMP JUMPDEST PUSH1 0x0 DUP3 NOT DUP3 GT ISZERO PUSH2 0x562F JUMPI PUSH2 0x562F PUSH2 0x5530 JUMP JUMPDEST POP ADD SWAP1 JUMP JUMPDEST PUSH1 0x20 DUP1 DUP3 MSTORE PUSH1 0x11 SWAP1 DUP3 ADD MSTORE PUSH17 0x2A37B5B2B7103737BA1030B1BA34BB3297 PUSH1 0x79 SHL PUSH1 0x40 DUP3 ADD MSTORE PUSH1 0x60 ADD SWAP1 JUMP JUMPDEST PUSH1 0x0 DUP3 MLOAD PUSH2 0x5671 DUP2 DUP5 PUSH1 0x20 DUP8 ADD PUSH2 0x4D32 JUMP JUMPDEST SWAP2 SWAP1 SWAP2 ADD SWAP3 SWAP2 POP POP JUMP JUMPDEST PUSH1 0x0 DUP2 PUSH2 0x568A JUMPI PUSH2 0x568A PUSH2 0x5530 JUMP JUMPDEST POP PUSH1 0x0 NOT ADD SWAP1 JUMP JUMPDEST PUSH32 0x5374616B696E6720415052206D757374206265206265747765656E2000000000 DUP2 MSTORE PUSH1 0x0 DUP4 MLOAD PUSH2 0x56CA DUP2 PUSH1 0x1C DUP6 ADD PUSH1 0x20 DUP9 ADD PUSH2 0x4D32 JUMP JUMPDEST PUSH6 0x129030B7321 PUSH1 0xD5 SHL PUSH1 0x1C SWAP2 DUP5 ADD SWAP2 DUP3 ADD MSTORE DUP4 MLOAD PUSH2 0x56F0 DUP2 PUSH1 0x22 DUP5 ADD PUSH1 0x20 DUP9 ADD PUSH2 0x4D32 JUMP JUMPDEST PUSH2 0x1297 PUSH1 0xF1 SHL PUSH1 0x22 SWAP3 SWAP1 SWAP2 ADD SWAP2 DUP3 ADD MSTORE PUSH1 0x24 ADD SWAP5 SWAP4 POP POP POP POP JUMP JUMPDEST PUSH4 0x4E487B71 PUSH1 0xE0 SHL PUSH1 0x0 MSTORE PUSH1 0x32 PUSH1 0x4 MSTORE PUSH1 0x24 PUSH1 0x0 REVERT JUMPDEST PUSH1 0x0 PUSH1 0x1 DUP3 ADD PUSH2 0x5733 JUMPI PUSH2 0x5733 PUSH2 0x5530 JUMP JUMPDEST POP PUSH1 0x1 ADD SWAP1 JUMP JUMPDEST PUSH32 0x546F6B656E206E616D65206C656E677468206D75737420626520626574776565 DUP2 MSTORE PUSH2 0x371 PUSH1 0xF5 SHL PUSH1 0x20 DUP3 ADD MSTORE PUSH1 0x0 DUP4 MLOAD PUSH2 0x577D DUP2 PUSH1 0x22 DUP6 ADD PUSH1 0x20 DUP9 ADD PUSH2 0x4D32 JUMP JUMPDEST PUSH5 0x1030B7321 PUSH1 0xDD SHL PUSH1 0x22 SWAP2 DUP5 ADD SWAP2 DUP3 ADD MSTORE DUP4 MLOAD PUSH2 0x57A2 DUP2 PUSH1 0x27 DUP5 ADD PUSH1 0x20 DUP9 ADD PUSH2 0x4D32 JUMP JUMPDEST PUSH1 0x17 PUSH1 0xF9 SHL PUSH1 0x27 SWAP3 SWAP1 SWAP2 ADD SWAP2 DUP3 ADD MSTORE PUSH1 0x28 ADD SWAP5 SWAP4 POP POP POP POP JUMP JUMPDEST PUSH4 0x4E487B71 PUSH1 0xE0 SHL PUSH1 0x0 MSTORE PUSH1 0x12 PUSH1 0x4 MSTORE PUSH1 0x24 PUSH1 0x0 REVERT JUMPDEST PUSH1 0x0 DUP3 PUSH2 0x57E1 JUMPI PUSH2 0x57E1 PUSH2 0x57BC JUMP JUMPDEST POP DIV SWAP1 JUMP JUMPDEST PUSH1 0x0 DUP1 PUSH1 0x0 DUP1 PUSH1 0x0 PUSH1 0xA0 DUP7 DUP9 SUB SLT ISZERO PUSH2 0x57FE JUMPI PUSH1 0x0 DUP1 REVERT JUMPDEST POP POP DUP4 MLOAD PUSH1 0x20 DUP6 ADD MLOAD PUSH1 0x40 DUP7 ADD MLOAD PUSH1 0x60 DUP8 ADD MLOAD PUSH1 0x80 SWAP1 SWAP8 ADD MLOAD SWAP3 SWAP9 SWAP2 SWAP8 POP SWAP6 SWAP5 POP SWAP1 SWAP3 POP SWAP1 POP JUMP JUMPDEST PUSH32 0x5374616B6520666565206D757374206265206265747765656E20000000000000 DUP2 MSTORE PUSH1 0x0 DUP4 MLOAD PUSH2 0x585E DUP2 PUSH1 0x1A DUP6 ADD PUSH1 0x20 DUP9 ADD PUSH2 0x4D32 JUMP JUMPDEST DUP1 DUP4 ADD SWAP1 POP PUSH6 0x129030B7321 PUSH1 0xD5 SHL PUSH1 0x1A DUP3 ADD MSTORE DUP4 MLOAD PUSH2 0x5885 DUP2 PUSH1 0x20 DUP5 ADD PUSH1 0x20 DUP9 ADD PUSH2 0x4D32 JUMP JUMPDEST PUSH2 0x1297 PUSH1 0xF1 SHL PUSH1 0x20 SWAP3 SWAP1 SWAP2 ADD SWAP2 DUP3 ADD MSTORE PUSH1 0x22 ADD SWAP5 SWAP4 POP POP POP POP JUMP JUMPDEST PUSH32 0x556E7374616B6520666565206D757374206265206265747765656E2000000000 DUP2 MSTORE PUSH1 0x0 DUP4 MLOAD PUSH2 0x56CA DUP2 PUSH1 0x1C DUP6 ADD PUSH1 0x20 DUP9 ADD PUSH2 0x4D32 JUMP JUMPDEST PUSH1 0x0 DUP3 PUSH2 0x58E7 JUMPI PUSH2 0x58E7 PUSH2 0x57BC JUMP JUMPDEST POP MOD SWAP1 JUMP JUMPDEST PUSH32 0x4465706F73697420666565206D757374206265206265747765656E2000000000 DUP2 MSTORE PUSH1 0x0 DUP4 MLOAD PUSH2 0x56CA DUP2 PUSH1 0x1C DUP6 ADD PUSH1 0x20 DUP9 ADD PUSH2 0x4D32 JUMP JUMPDEST PUSH32 0x576974686472617720666565206D757374206265206265747765656E20000000 DUP2 MSTORE PUSH1 0x0 DUP4 MLOAD PUSH2 0x595C DUP2 PUSH1 0x1D DUP6 ADD PUSH1 0x20 DUP9 ADD PUSH2 0x4D32 JUMP JUMPDEST PUSH6 0x129030B7321 PUSH1 0xD5 SHL PUSH1 0x1D SWAP2 DUP5 ADD SWAP2 DUP3 ADD MSTORE DUP4 MLOAD PUSH2 0x5982 DUP2 PUSH1 0x23 DUP5 ADD PUSH1 0x20 DUP9 ADD PUSH2 0x4D32 JUMP JUMPDEST PUSH2 0x1297 PUSH1 0xF1 SHL PUSH1 0x23 SWAP3 SWAP1 SWAP2 ADD SWAP2 DUP3 ADD MSTORE PUSH1 0x25 ADD SWAP5 SWAP4 POP POP POP POP JUMP JUMPDEST PUSH32 0x416363657373436F6E74726F6C3A206163636F756E7420000000000000000000 DUP2 MSTORE PUSH1 0x0 DUP4 MLOAD PUSH2 0x59D5 DUP2 PUSH1 0x17 DUP6 ADD PUSH1 0x20 DUP9 ADD PUSH2 0x4D32 JUMP JUMPDEST PUSH17 0x1034B99036B4B9B9B4B733903937B6329 PUSH1 0x7D SHL PUSH1 0x17 SWAP2 DUP5 ADD SWAP2 DUP3 ADD MSTORE DUP4 MLOAD PUSH2 0x5A06 DUP2 PUSH1 0x28 DUP5 ADD PUSH1 0x20 DUP9 ADD PUSH2 0x4D32 JUMP JUMPDEST ADD PUSH1 0x28 ADD SWAP5 SWAP4 POP POP POP POP JUMP INVALID LOG2 PUSH5 0x6970667358 0x22 SLT KECCAK256 0xD2 0xAE PUSH11 0xBFC88764DB46307F608601 0x2B MSTORE8 CALLVALUE 0x1F 0xB3 LOG0 SWAP5 0xCA PUSH4 0xF5805707 0xD4 0x2B DUP15 0xBD 0x5D PUSH5 0x736F6C6343 STOP ADDMOD 0xD STOP CALLER ","sha1":"8940f335e8f479c9555a20fe2dece5e8fc1aec30","source":"// SPDX-License-Identifier: MIT\npragma solidity ^0.8.0;\n\nimport \"./SavvyFinanceFarmToken.sol\";\nimport \"./SavvyFinanceFarmStaker.sol\";\nimport {SavvyFinanceFarmLibrary as Lib} from \"./SavvyFinanceFarmLibrary.sol\";\n\ncontract SavvyFinanceFarm is SavvyFinanceFarmToken, SavvyFinanceFarmStaker {\n    struct TokenStakerRewardDetails {\n        uint256 id;\n        address staker;\n        address rewardToken;\n        uint256 rewardTokenPrice;\n        uint256 rewardTokenAmount;\n        address stakedToken;\n        uint256 stakedTokenPrice;\n        uint256 stakedTokenAmount;\n        uint256 stakingApr;\n        uint256 stakingDurationInSeconds;\n        string[2] triggeredBy;\n        uint256 timestampAdded;\n        uint256 timestampLastUpdated;\n    }\n    struct TokenStakerDetails {\n        uint256 rewardBalance;\n        uint256 stakingBalance;\n        address stakingRewardToken;\n        TokenStakerRewardDetails[] stakingRewards;\n        uint256 timestampLastRewarded;\n        uint256 timestampAdded;\n        uint256 timestampLastUpdated;\n    }\n    // token => staker => TokenStakerDetails\n    mapping(address => mapping(address => TokenStakerDetails))\n        public tokensStakersData;\n\n    // event Stake(address indexed staker, address indexed token, uint256 amount);\n    // event Unstake(\n    //     address indexed staker,\n    //     address indexed token,\n    //     uint256 amount\n    // );\n    // event IssueStakingReward(\n    //     address indexed staker,\n    //     address indexed token,\n    //     TokenStakerRewardDetails rewardData\n    // );\n    // event WithdrawStakingReward(\n    //     address indexed staker,\n    //     address indexed reward_token,\n    //     uint256 amount\n    // );\n\n    function getTokenStakerData(address _token, address _staker)\n        public\n        view\n        returns (TokenStakerDetails memory)\n    {\n        return tokensStakersData[_token][_staker];\n    }\n\n    function getStakingValue(address _token, address _staker)\n        public\n        view\n        returns (uint256)\n    {\n        return\n            _fromWei(\n                tokensStakersData[_token][_staker].stakingBalance *\n                    tokensData[_token].price\n            );\n    }\n\n    function setStakingRewardToken(address _token, address _reward_token)\n        public\n    {\n        _setStakingRewardToken(_msgSender(), _token, _reward_token, true);\n    }\n\n    function stakeToken(address _token, uint256 _amount) public {\n        require(tokensData[_token].isActive, \"Token not active.\");\n        require(_amount > 0, \"Amount must be greater than zero.\");\n        require(\n            IERC20(_token).balanceOf(_msgSender()) >= _amount,\n            \"Insufficient wallet balance.\"\n        );\n\n        (\n            uint256 devStakeFeeAmount,\n            uint256 adminStakeFeeAmount\n        ) = getTokenFeeAmounts(_token, _amount, \"stake\");\n        if (devStakeFeeAmount != 0)\n            IERC20(_token).transferFrom(\n                _msgSender(),\n                configData.developmentWallet,\n                devStakeFeeAmount\n            );\n        if (adminStakeFeeAmount != 0)\n            IERC20(_token).transferFrom(\n                _msgSender(),\n                tokensData[_token].admin,\n                adminStakeFeeAmount\n            );\n        uint256 stakeAmount = _amount -\n            (devStakeFeeAmount + adminStakeFeeAmount);\n        IERC20(_token).transferFrom(_msgSender(), address(this), stakeAmount);\n\n        if (tokensStakersData[_token][_msgSender()].stakingBalance == 0) {\n            if (stakersData[_msgSender()].uniqueTokensStaked == 0) {\n                if (!stakerExists(_msgSender())) _addStaker(_msgSender());\n                stakersData[_msgSender()].isActive = true;\n            }\n\n            stakersData[_msgSender()].uniqueTokensStaked++;\n            stakersData[_msgSender()].timestampAdded == 0\n                ? stakersData[_msgSender()].timestampAdded = block.timestamp\n                : stakersData[_msgSender()].timestampLastUpdated = block\n                .timestamp;\n\n            if (\n                tokensStakersData[_token][_msgSender()].stakingRewardToken ==\n                address(0x0)\n            )\n                tokensStakersData[_token][_msgSender()]\n                    .stakingRewardToken = tokensData[_token].rewardToken;\n        } else {\n            _issueStakingReward(\n                _token,\n                _msgSender(),\n                [\"stake\", Strings.toString(_fromWei(_amount))]\n            );\n        }\n\n        tokensStakersData[_token][_msgSender()].stakingBalance += stakeAmount;\n        tokensStakersData[_token][_msgSender()].timestampAdded == 0\n            ? tokensStakersData[_token][_msgSender()].timestampAdded = block\n                .timestamp\n            : tokensStakersData[_token][_msgSender()]\n                .timestampLastUpdated = block.timestamp;\n        tokensData[_token].stakingBalance += stakeAmount;\n        tokensData[_token].timestampLastUpdated = block.timestamp;\n\n        // emit Stake(_msgSender(), _token, stakeAmount);\n    }\n\n    function unstakeToken(address _token, uint256 _amount) public {\n        require(tokenExists(_token), \"Token does not exist.\");\n        require(_amount > 0, \"Amount must be greater than zero.\");\n        require(\n            tokensStakersData[_token][_msgSender()].stakingBalance >= _amount,\n            \"Insufficient staking balance.\"\n        );\n\n        _issueStakingReward(\n            _token,\n            _msgSender(),\n            [\"unstake\", Strings.toString(_fromWei(_amount))]\n        );\n\n        if (tokensStakersData[_token][_msgSender()].stakingBalance == _amount) {\n            if (stakersData[_msgSender()].uniqueTokensStaked == 1) {\n                stakersData[_msgSender()].isActive = false;\n            }\n            stakersData[_msgSender()].uniqueTokensStaked--;\n            stakersData[_msgSender()].timestampLastUpdated = block.timestamp;\n        }\n\n        tokensStakersData[_token][_msgSender()].stakingBalance -= _amount;\n        tokensStakersData[_token][_msgSender()].timestampLastUpdated = block\n            .timestamp;\n        tokensData[_token].stakingBalance -= _amount;\n        tokensData[_token].timestampLastUpdated = block.timestamp;\n\n        (\n            uint256 devUnstakeFeeAmount,\n            uint256 adminUnstakeFeeAmount\n        ) = getTokenFeeAmounts(_token, _amount, \"unstake\");\n        if (devUnstakeFeeAmount != 0)\n            IERC20(_token).transfer(\n                configData.developmentWallet,\n                devUnstakeFeeAmount\n            );\n        if (adminUnstakeFeeAmount != 0)\n            IERC20(_token).transfer(\n                tokensData[_token].admin,\n                adminUnstakeFeeAmount\n            );\n        uint256 unstakeAmount = _amount -\n            (devUnstakeFeeAmount + adminUnstakeFeeAmount);\n        IERC20(_token).transfer(_msgSender(), unstakeAmount);\n\n        // emit Unstake(_msgSender(), _token, unstakeAmount);\n    }\n\n    function claimStakingReward(address _token) public {\n        require(tokensData[_token].isActive, \"Token not active.\");\n        _issueStakingReward(_token, _msgSender(), [\"claim staking reward\", \"\"]);\n    }\n\n    function withdrawStakingReward(address _reward_token, uint256 _amount)\n        public\n    {\n        require(tokenExists(_reward_token), \"Reward token does not exist.\");\n        require(_amount > 0, \"Amount must be greater than zero.\");\n        require(\n            tokensStakersData[_reward_token][_msgSender()].rewardBalance >=\n                _amount,\n            \"Insufficient reward balance.\"\n        );\n        tokensStakersData[_reward_token][_msgSender()].rewardBalance -= _amount;\n        tokensStakersData[_reward_token][_msgSender()]\n            .timestampLastUpdated = block.timestamp;\n        IERC20(_reward_token).transfer(_msgSender(), _amount);\n        // emit WithdrawStakingReward(_msgSender(), _reward_token, _amount);\n    }\n\n    function _setStakingRewardToken(\n        address _staker,\n        address _token,\n        address _reward_token,\n        bool validate\n    ) internal returns (address stakingRewardToken) {\n        if (validate) {\n            require(tokensData[_token].isActive, \"Token not active.\");\n            require(\n                tokensData[_token].hasMultiTokenRewards,\n                \"Token does not have multi token rewards.\"\n            );\n            require(\n                tokensData[_reward_token].isActive,\n                \"Reward token not active.\"\n            );\n            require(\n                tokensData[_reward_token].hasMultiTokenRewards,\n                \"Reward token does not have multi token rewards.\"\n            );\n        }\n\n        if (!stakerExists(_staker)) _addStaker(_staker);\n        tokensStakersData[_token][_staker].stakingRewardToken = _reward_token;\n        tokensStakersData[_token][_staker].timestampLastUpdated = block\n            .timestamp;\n        return tokensStakersData[_token][_staker].stakingRewardToken;\n    }\n\n    function _issueReward(\n        address _rewardToken,\n        uint256 _rewardTokenAmount,\n        address _receiver\n    ) internal {\n        tokensData[_rewardToken].rewardBalance -= _rewardTokenAmount;\n        tokensData[_rewardToken].timestampLastUpdated = block.timestamp;\n        tokensStakersData[_rewardToken][_receiver]\n            .rewardBalance += _rewardTokenAmount;\n        tokensStakersData[_rewardToken][_receiver].timestampLastUpdated = block\n            .timestamp;\n    }\n\n    function _issueStakingReward(\n        address _token,\n        address _staker,\n        string[2] memory _triggeredBy\n    ) internal {\n        if (!tokensData[_token].isActive) return;\n        if (!stakersData[_staker].isActive) return;\n\n        (\n            uint256 stakingRewardValue,\n            uint256 stakingDurationInSeconds,\n            uint256 stakingApr,\n            uint256 stakingBalance,\n            uint256 tokenPrice\n        ) = Lib.calculateStakingReward(this, _token, _staker);\n        if (stakingRewardValue == 0) return;\n\n        address tokenRewardToken = tokensData[_token].rewardToken;\n        if (!tokensData[tokenRewardToken].isActive) return;\n        uint256 tokenRewardTokenRewardValue = getTokenRewardValue(\n            tokenRewardToken\n        );\n        if (tokenRewardTokenRewardValue < stakingRewardValue) {\n            deactivateToken(_token);\n            return;\n        }\n\n        address rewardToken = tokenRewardToken;\n        uint256 rewardTokenPrice = tokensData[rewardToken].price;\n        uint256 rewardTokenAmount = _toWei(stakingRewardValue) /\n            rewardTokenPrice;\n\n        {\n            // if staking reward token is different from token reward token,\n            // staking reward token admin receives the reward in token reward token\n            // to pay back equivalent in staking reward token, basically swapping\n            address stakingRewardToken = tokensStakersData[_token][_staker]\n                .stakingRewardToken;\n            if (stakingRewardToken != rewardToken) {\n                if (tokensData[stakingRewardToken].isActive) {\n                    uint256 stakingRewardTokenRewardValue = getTokenRewardValue(\n                        stakingRewardToken\n                    );\n                    if (!(stakingRewardTokenRewardValue < stakingRewardValue)) {\n                        // staking reward token admin receives the reward\n                        // in token reward token\n                        address stakingRewardTokenAdmin = tokensData[\n                            stakingRewardToken\n                        ].admin;\n                        _issueReward(\n                            rewardToken,\n                            rewardTokenAmount,\n                            stakingRewardTokenAdmin\n                        );\n                        // change reward token to staking reward token for payback\n                        rewardToken = stakingRewardToken;\n                        rewardTokenPrice = tokensData[rewardToken].price;\n                        rewardTokenAmount =\n                            _toWei(stakingRewardValue) /\n                            rewardTokenPrice;\n                    }\n                }\n            }\n        }\n\n        _issueReward(rewardToken, rewardTokenAmount, _staker);\n        tokensStakersData[_token][_staker].timestampLastRewarded = block\n            .timestamp;\n\n        TokenStakerRewardDetails memory tokenStakerRewardData;\n        tokenStakerRewardData.id = tokensStakersData[_token][_staker]\n            .stakingRewards\n            .length;\n        tokenStakerRewardData.staker = _staker;\n        tokenStakerRewardData.rewardToken = rewardToken;\n        tokenStakerRewardData.rewardTokenPrice = rewardTokenPrice;\n        tokenStakerRewardData.rewardTokenAmount = rewardTokenAmount;\n        tokenStakerRewardData.stakedToken = _token;\n        tokenStakerRewardData.stakedTokenPrice = tokenPrice;\n        tokenStakerRewardData.stakedTokenAmount = stakingBalance;\n        tokenStakerRewardData.stakingApr = stakingApr;\n        tokenStakerRewardData\n            .stakingDurationInSeconds = stakingDurationInSeconds;\n        tokenStakerRewardData.triggeredBy = _triggeredBy;\n        tokenStakerRewardData.timestampAdded = block.timestamp;\n        tokensStakersData[_token][_staker].stakingRewards.push(\n            tokenStakerRewardData\n        );\n\n        // emit IssueStakingReward(_staker, _token, tokenStakerRewardData);\n    }\n}\n","sourcePath":"contracts/SavvyFinanceFarm.sol","type":"contract","deployment":{"address":"0xBF892C932C1eE21e7530Bde2a627a48db7Ebafd1","chainid":"97","blockHeight":20217705}}