{
  "abi": [
    {
      "anonymous": false,
      "inputs": [
        {
          "indexed": true,
          "internalType": "address",
          "name": "previousOwner",
          "type": "address"
        },
        {
          "indexed": true,
          "internalType": "address",
          "name": "newOwner",
          "type": "address"
        }
      ],
      "name": "OwnershipTransferred",
      "type": "event"
    },
    {
      "anonymous": false,
      "inputs": [
        {
          "indexed": true,
          "internalType": "bytes32",
          "name": "role",
          "type": "bytes32"
        },
        {
          "indexed": true,
          "internalType": "bytes32",
          "name": "previousAdminRole",
          "type": "bytes32"
        },
        {
          "indexed": true,
          "internalType": "bytes32",
          "name": "newAdminRole",
          "type": "bytes32"
        }
      ],
      "name": "RoleAdminChanged",
      "type": "event"
    },
    {
      "anonymous": false,
      "inputs": [
        {
          "indexed": true,
          "internalType": "bytes32",
          "name": "role",
          "type": "bytes32"
        },
        {
          "indexed": true,
          "internalType": "address",
          "name": "account",
          "type": "address"
        },
        {
          "indexed": true,
          "internalType": "address",
          "name": "sender",
          "type": "address"
        }
      ],
      "name": "RoleGranted",
      "type": "event"
    },
    {
      "anonymous": false,
      "inputs": [
        {
          "indexed": true,
          "internalType": "bytes32",
          "name": "role",
          "type": "bytes32"
        },
        {
          "indexed": true,
          "internalType": "address",
          "name": "account",
          "type": "address"
        },
        {
          "indexed": true,
          "internalType": "address",
          "name": "sender",
          "type": "address"
        }
      ],
      "name": "RoleRevoked",
      "type": "event"
    },
    {
      "inputs": [],
      "name": "DEFAULT_ADMIN_ROLE",
      "outputs": [
        {
          "internalType": "bytes32",
          "name": "",
          "type": "bytes32"
        }
      ],
      "stateMutability": "view",
      "type": "function"
    },
    {
      "inputs": [
        {
          "internalType": "address",
          "name": "_token",
          "type": "address"
        }
      ],
      "name": "activateToken",
      "outputs": [],
      "stateMutability": "nonpayable",
      "type": "function"
    },
    {
      "inputs": [
        {
          "internalType": "address",
          "name": "_token",
          "type": "address"
        },
        {
          "internalType": "string",
          "name": "_name",
          "type": "string"
        },
        {
          "internalType": "uint256",
          "name": "_category",
          "type": "uint256"
        },
        {
          "internalType": "uint256",
          "name": "_stakingApr",
          "type": "uint256"
        },
        {
          "internalType": "uint256",
          "name": "_adminStakeFee",
          "type": "uint256"
        },
        {
          "internalType": "uint256",
          "name": "_adminUnstakeFee",
          "type": "uint256"
        },
        {
          "internalType": "address",
          "name": "_rewardToken",
          "type": "address"
        }
      ],
      "name": "addToken",
      "outputs": [],
      "stateMutability": "nonpayable",
      "type": "function"
    },
    {
      "inputs": [],
      "name": "configData",
      "outputs": [
        {
          "internalType": "address",
          "name": "developmentWallet",
          "type": "address"
        },
        {
          "internalType": "uint256",
          "name": "minimumTokenNameLength",
          "type": "uint256"
        },
        {
          "internalType": "uint256",
          "name": "maximumTokenNameLength",
          "type": "uint256"
        },
        {
          "internalType": "uint256",
          "name": "minimumStakingApr",
          "type": "uint256"
        },
        {
          "internalType": "uint256",
          "name": "maximumStakingApr",
          "type": "uint256"
        },
        {
          "internalType": "uint256",
          "name": "defaultStakingApr",
          "type": "uint256"
        },
        {
          "internalType": "uint256",
          "name": "minimumStakeUnstakeFee",
          "type": "uint256"
        },
        {
          "internalType": "uint256",
          "name": "maximumStakeUnstakeFee",
          "type": "uint256"
        },
        {
          "internalType": "uint256",
          "name": "defaultStakeUnstakeFee",
          "type": "uint256"
        },
        {
          "internalType": "uint256",
          "name": "minimumDepositWithdrawFee",
          "type": "uint256"
        },
        {
          "internalType": "uint256",
          "name": "maximumDepositWithdrawFee",
          "type": "uint256"
        },
        {
          "internalType": "uint256",
          "name": "defaultDepositWithdrawFee",
          "type": "uint256"
        }
      ],
      "stateMutability": "view",
      "type": "function"
    },
    {
      "inputs": [
        {
          "internalType": "uint256",
          "name": "_minimumDepositWithdrawFee",
          "type": "uint256"
        },
        {
          "internalType": "uint256",
          "name": "_maximumDepositWithdrawFee",
          "type": "uint256"
        },
        {
          "internalType": "uint256",
          "name": "_defaultDepositWithdrawFee",
          "type": "uint256"
        }
      ],
      "name": "configDepositWithdrawFees",
      "outputs": [],
      "stateMutability": "nonpayable",
      "type": "function"
    },
    {
      "inputs": [
        {
          "internalType": "address",
          "name": "_developmentWallet",
          "type": "address"
        }
      ],
      "name": "configDevelopmentWallet",
      "outputs": [],
      "stateMutability": "nonpayable",
      "type": "function"
    },
    {
      "inputs": [
        {
          "internalType": "uint256",
          "name": "_minimumStakeUnstakeFee",
          "type": "uint256"
        },
        {
          "internalType": "uint256",
          "name": "_maximumStakeUnstakeFee",
          "type": "uint256"
        },
        {
          "internalType": "uint256",
          "name": "_defaultStakeUnstakeFee",
          "type": "uint256"
        }
      ],
      "name": "configStakeUnstakeFees",
      "outputs": [],
      "stateMutability": "nonpayable",
      "type": "function"
    },
    {
      "inputs": [
        {
          "internalType": "uint256",
          "name": "_minimumStakingApr",
          "type": "uint256"
        },
        {
          "internalType": "uint256",
          "name": "_maximumStakingApr",
          "type": "uint256"
        },
        {
          "internalType": "uint256",
          "name": "_defaultStakingApr",
          "type": "uint256"
        }
      ],
      "name": "configStakingApr",
      "outputs": [],
      "stateMutability": "nonpayable",
      "type": "function"
    },
    {
      "inputs": [
        {
          "internalType": "uint256",
          "name": "_number",
          "type": "uint256"
        },
        {
          "internalType": "string",
          "name": "_name",
          "type": "string"
        }
      ],
      "name": "configTokenCategory",
      "outputs": [],
      "stateMutability": "nonpayable",
      "type": "function"
    },
    {
      "inputs": [
        {
          "internalType": "uint256",
          "name": "_minimumTokenNameLength",
          "type": "uint256"
        },
        {
          "internalType": "uint256",
          "name": "_maximumTokenNameLength",
          "type": "uint256"
        }
      ],
      "name": "configTokenNameLength",
      "outputs": [],
      "stateMutability": "nonpayable",
      "type": "function"
    },
    {
      "inputs": [
        {
          "internalType": "address",
          "name": "_token",
          "type": "address"
        }
      ],
      "name": "deactivateToken",
      "outputs": [],
      "stateMutability": "nonpayable",
      "type": "function"
    },
    {
      "inputs": [
        {
          "internalType": "address",
          "name": "_token",
          "type": "address"
        },
        {
          "internalType": "uint256",
          "name": "_amount",
          "type": "uint256"
        }
      ],
      "name": "depositToken",
      "outputs": [],
      "stateMutability": "nonpayable",
      "type": "function"
    },
    {
      "inputs": [
        {
          "internalType": "address",
          "name": "_token",
          "type": "address"
        }
      ],
      "name": "disableTokenMultiTokenRewards",
      "outputs": [],
      "stateMutability": "nonpayable",
      "type": "function"
    },
    {
      "inputs": [
        {
          "internalType": "address",
          "name": "_token",
          "type": "address"
        }
      ],
      "name": "enableTokenMultiTokenRewards",
      "outputs": [],
      "stateMutability": "nonpayable",
      "type": "function"
    },
    {
      "inputs": [
        {
          "internalType": "address",
          "name": "_address",
          "type": "address"
        }
      ],
      "name": "excludeFromFees",
      "outputs": [],
      "stateMutability": "nonpayable",
      "type": "function"
    },
    {
      "inputs": [
        {
          "internalType": "address",
          "name": "_token",
          "type": "address"
        },
        {
          "internalType": "address",
          "name": "_address",
          "type": "address"
        }
      ],
      "name": "excludeFromTokenAdminFees",
      "outputs": [],
      "stateMutability": "nonpayable",
      "type": "function"
    },
    {
      "inputs": [
        {
          "internalType": "bytes32",
          "name": "role",
          "type": "bytes32"
        }
      ],
      "name": "getRoleAdmin",
      "outputs": [
        {
          "internalType": "bytes32",
          "name": "",
          "type": "bytes32"
        }
      ],
      "stateMutability": "view",
      "type": "function"
    },
    {
      "inputs": [
        {
          "internalType": "address",
          "name": "_token",
          "type": "address"
        }
      ],
      "name": "getTokenData",
      "outputs": [
        {
          "components": [
            {
              "internalType": "bool",
              "name": "isActive",
              "type": "bool"
            },
            {
              "internalType": "bool",
              "name": "isVerified",
              "type": "bool"
            },
            {
              "internalType": "bool",
              "name": "hasMultiTokenRewards",
              "type": "bool"
            },
            {
              "internalType": "string",
              "name": "name",
              "type": "string"
            },
            {
              "internalType": "uint256",
              "name": "category",
              "type": "uint256"
            },
            {
              "internalType": "uint256",
              "name": "price",
              "type": "uint256"
            },
            {
              "internalType": "uint256",
              "name": "rewardBalance",
              "type": "uint256"
            },
            {
              "internalType": "uint256",
              "name": "stakingBalance",
              "type": "uint256"
            },
            {
              "internalType": "uint256",
              "name": "stakingApr",
              "type": "uint256"
            },
            {
              "internalType": "address",
              "name": "rewardToken",
              "type": "address"
            },
            {
              "internalType": "address",
              "name": "admin",
              "type": "address"
            },
            {
              "components": [
                {
                  "internalType": "uint256",
                  "name": "devDepositFee",
                  "type": "uint256"
                },
                {
                  "internalType": "uint256",
                  "name": "devWithdrawFee",
                  "type": "uint256"
                },
                {
                  "internalType": "uint256",
                  "name": "devStakeFee",
                  "type": "uint256"
                },
                {
                  "internalType": "uint256",
                  "name": "devUnstakeFee",
                  "type": "uint256"
                },
                {
                  "internalType": "uint256",
                  "name": "adminStakeFee",
                  "type": "uint256"
                },
                {
                  "internalType": "uint256",
                  "name": "adminUnstakeFee",
                  "type": "uint256"
                }
              ],
              "internalType": "struct SavvyFinanceFarmToken.TokenFeesDetails",
              "name": "fees",
              "type": "tuple"
            },
            {
              "internalType": "uint256",
              "name": "timestampAdded",
              "type": "uint256"
            },
            {
              "internalType": "uint256",
              "name": "timestampLastUpdated",
              "type": "uint256"
            }
          ],
          "internalType": "struct SavvyFinanceFarmToken.TokenDetails",
          "name": "",
          "type": "tuple"
        }
      ],
      "stateMutability": "view",
      "type": "function"
    },
    {
      "inputs": [
        {
          "internalType": "address",
          "name": "_token",
          "type": "address"
        },
        {
          "internalType": "uint256",
          "name": "_amount",
          "type": "uint256"
        },
        {
          "internalType": "string",
          "name": "_action",
          "type": "string"
        }
      ],
      "name": "getTokenFeeAmounts",
      "outputs": [
        {
          "internalType": "uint256",
          "name": "",
          "type": "uint256"
        },
        {
          "internalType": "uint256",
          "name": "",
          "type": "uint256"
        }
      ],
      "stateMutability": "view",
      "type": "function"
    },
    {
      "inputs": [
        {
          "internalType": "address",
          "name": "_token",
          "type": "address"
        }
      ],
      "name": "getTokenRewardValue",
      "outputs": [
        {
          "internalType": "uint256",
          "name": "",
          "type": "uint256"
        }
      ],
      "stateMutability": "view",
      "type": "function"
    },
    {
      "inputs": [],
      "name": "getTokens",
      "outputs": [
        {
          "internalType": "address[]",
          "name": "",
          "type": "address[]"
        }
      ],
      "stateMutability": "view",
      "type": "function"
    },
    {
      "inputs": [
        {
          "internalType": "bytes32",
          "name": "role",
          "type": "bytes32"
        },
        {
          "internalType": "address",
          "name": "account",
          "type": "address"
        }
      ],
      "name": "grantRole",
      "outputs": [],
      "stateMutability": "nonpayable",
      "type": "function"
    },
    {
      "inputs": [
        {
          "internalType": "bytes32",
          "name": "role",
          "type": "bytes32"
        },
        {
          "internalType": "address",
          "name": "account",
          "type": "address"
        }
      ],
      "name": "hasRole",
      "outputs": [
        {
          "internalType": "bool",
          "name": "",
          "type": "bool"
        }
      ],
      "stateMutability": "view",
      "type": "function"
    },
    {
      "inputs": [
        {
          "internalType": "address",
          "name": "_address",
          "type": "address"
        }
      ],
      "name": "includeInFees",
      "outputs": [],
      "stateMutability": "nonpayable",
      "type": "function"
    },
    {
      "inputs": [
        {
          "internalType": "address",
          "name": "_token",
          "type": "address"
        },
        {
          "internalType": "address",
          "name": "_address",
          "type": "address"
        }
      ],
      "name": "includeInTokenAdminFees",
      "outputs": [],
      "stateMutability": "nonpayable",
      "type": "function"
    },
    {
      "inputs": [],
      "name": "initialize",
      "outputs": [],
      "stateMutability": "nonpayable",
      "type": "function"
    },
    {
      "inputs": [
        {
          "internalType": "address",
          "name": "",
          "type": "address"
        }
      ],
      "name": "isExcludedFromFees",
      "outputs": [
        {
          "internalType": "bool",
          "name": "",
          "type": "bool"
        }
      ],
      "stateMutability": "view",
      "type": "function"
    },
    {
      "inputs": [
        {
          "internalType": "address",
          "name": "",
          "type": "address"
        },
        {
          "internalType": "address",
          "name": "",
          "type": "address"
        }
      ],
      "name": "isExcludedFromTokenAdminFees",
      "outputs": [
        {
          "internalType": "bool",
          "name": "",
          "type": "bool"
        }
      ],
      "stateMutability": "view",
      "type": "function"
    },
    {
      "inputs": [],
      "name": "owner",
      "outputs": [
        {
          "internalType": "address",
          "name": "",
          "type": "address"
        }
      ],
      "stateMutability": "view",
      "type": "function"
    },
    {
      "inputs": [],
      "name": "renounceOwnership",
      "outputs": [],
      "stateMutability": "nonpayable",
      "type": "function"
    },
    {
      "inputs": [
        {
          "internalType": "bytes32",
          "name": "role",
          "type": "bytes32"
        },
        {
          "internalType": "address",
          "name": "account",
          "type": "address"
        }
      ],
      "name": "renounceRole",
      "outputs": [],
      "stateMutability": "nonpayable",
      "type": "function"
    },
    {
      "inputs": [
        {
          "internalType": "bytes32",
          "name": "role",
          "type": "bytes32"
        },
        {
          "internalType": "address",
          "name": "account",
          "type": "address"
        }
      ],
      "name": "revokeRole",
      "outputs": [],
      "stateMutability": "nonpayable",
      "type": "function"
    },
    {
      "inputs": [
        {
          "internalType": "address",
          "name": "_token",
          "type": "address"
        },
        {
          "internalType": "address",
          "name": "_admin",
          "type": "address"
        }
      ],
      "name": "setTokenAdmin",
      "outputs": [],
      "stateMutability": "nonpayable",
      "type": "function"
    },
    {
      "inputs": [
        {
          "internalType": "address",
          "name": "_token",
          "type": "address"
        },
        {
          "internalType": "uint256",
          "name": "_adminStakeFee",
          "type": "uint256"
        },
        {
          "internalType": "uint256",
          "name": "_adminUnstakeFee",
          "type": "uint256"
        }
      ],
      "name": "setTokenAdminStakeUnstakeFees",
      "outputs": [],
      "stateMutability": "nonpayable",
      "type": "function"
    },
    {
      "inputs": [
        {
          "internalType": "address",
          "name": "_token",
          "type": "address"
        },
        {
          "internalType": "uint256",
          "name": "_category",
          "type": "uint256"
        }
      ],
      "name": "setTokenCategory",
      "outputs": [],
      "stateMutability": "nonpayable",
      "type": "function"
    },
    {
      "inputs": [
        {
          "internalType": "address",
          "name": "_token",
          "type": "address"
        },
        {
          "internalType": "uint256",
          "name": "_devDepositFee",
          "type": "uint256"
        },
        {
          "internalType": "uint256",
          "name": "_devWithdrawFee",
          "type": "uint256"
        }
      ],
      "name": "setTokenDevDepositWithdrawFees",
      "outputs": [],
      "stateMutability": "nonpayable",
      "type": "function"
    },
    {
      "inputs": [
        {
          "internalType": "address",
          "name": "_token",
          "type": "address"
        },
        {
          "internalType": "uint256",
          "name": "_devStakeFee",
          "type": "uint256"
        },
        {
          "internalType": "uint256",
          "name": "_devUnstakeFee",
          "type": "uint256"
        }
      ],
      "name": "setTokenDevStakeUnstakeFees",
      "outputs": [],
      "stateMutability": "nonpayable",
      "type": "function"
    },
    {
      "inputs": [
        {
          "internalType": "address",
          "name": "_token",
          "type": "address"
        },
        {
          "internalType": "string",
          "name": "_name",
          "type": "string"
        }
      ],
      "name": "setTokenName",
      "outputs": [],
      "stateMutability": "nonpayable",
      "type": "function"
    },
    {
      "inputs": [
        {
          "internalType": "address",
          "name": "_token",
          "type": "address"
        },
        {
          "internalType": "uint256",
          "name": "_price",
          "type": "uint256"
        }
      ],
      "name": "setTokenPrice",
      "outputs": [],
      "stateMutability": "nonpayable",
      "type": "function"
    },
    {
      "inputs": [
        {
          "internalType": "address",
          "name": "_token",
          "type": "address"
        },
        {
          "internalType": "address",
          "name": "_reward_token",
          "type": "address"
        }
      ],
      "name": "setTokenRewardToken",
      "outputs": [],
      "stateMutability": "nonpayable",
      "type": "function"
    },
    {
      "inputs": [
        {
          "internalType": "address",
          "name": "_token",
          "type": "address"
        },
        {
          "internalType": "uint256",
          "name": "_stakingApr",
          "type": "uint256"
        }
      ],
      "name": "setTokenStakingApr",
      "outputs": [],
      "stateMutability": "nonpayable",
      "type": "function"
    },
    {
      "inputs": [
        {
          "internalType": "bytes4",
          "name": "interfaceId",
          "type": "bytes4"
        }
      ],
      "name": "supportsInterface",
      "outputs": [
        {
          "internalType": "bool",
          "name": "",
          "type": "bool"
        }
      ],
      "stateMutability": "view",
      "type": "function"
    },
    {
      "inputs": [
        {
          "internalType": "uint256",
          "name": "",
          "type": "uint256"
        }
      ],
      "name": "tokenCategory",
      "outputs": [
        {
          "internalType": "string",
          "name": "",
          "type": "string"
        }
      ],
      "stateMutability": "view",
      "type": "function"
    },
    {
      "inputs": [
        {
          "internalType": "address",
          "name": "_token",
          "type": "address"
        }
      ],
      "name": "tokenExists",
      "outputs": [
        {
          "internalType": "bool",
          "name": "",
          "type": "bool"
        }
      ],
      "stateMutability": "view",
      "type": "function"
    },
    {
      "inputs": [
        {
          "internalType": "uint256",
          "name": "",
          "type": "uint256"
        }
      ],
      "name": "tokens",
      "outputs": [
        {
          "internalType": "address",
          "name": "",
          "type": "address"
        }
      ],
      "stateMutability": "view",
      "type": "function"
    },
    {
      "inputs": [
        {
          "internalType": "address",
          "name": "",
          "type": "address"
        }
      ],
      "name": "tokensData",
      "outputs": [
        {
          "internalType": "bool",
          "name": "isActive",
          "type": "bool"
        },
        {
          "internalType": "bool",
          "name": "isVerified",
          "type": "bool"
        },
        {
          "internalType": "bool",
          "name": "hasMultiTokenRewards",
          "type": "bool"
        },
        {
          "internalType": "string",
          "name": "name",
          "type": "string"
        },
        {
          "internalType": "uint256",
          "name": "category",
          "type": "uint256"
        },
        {
          "internalType": "uint256",
          "name": "price",
          "type": "uint256"
        },
        {
          "internalType": "uint256",
          "name": "rewardBalance",
          "type": "uint256"
        },
        {
          "internalType": "uint256",
          "name": "stakingBalance",
          "type": "uint256"
        },
        {
          "internalType": "uint256",
          "name": "stakingApr",
          "type": "uint256"
        },
        {
          "internalType": "address",
          "name": "rewardToken",
          "type": "address"
        },
        {
          "internalType": "address",
          "name": "admin",
          "type": "address"
        },
        {
          "components": [
            {
              "internalType": "uint256",
              "name": "devDepositFee",
              "type": "uint256"
            },
            {
              "internalType": "uint256",
              "name": "devWithdrawFee",
              "type": "uint256"
            },
            {
              "internalType": "uint256",
              "name": "devStakeFee",
              "type": "uint256"
            },
            {
              "internalType": "uint256",
              "name": "devUnstakeFee",
              "type": "uint256"
            },
            {
              "internalType": "uint256",
              "name": "adminStakeFee",
              "type": "uint256"
            },
            {
              "internalType": "uint256",
              "name": "adminUnstakeFee",
              "type": "uint256"
            }
          ],
          "internalType": "struct SavvyFinanceFarmToken.TokenFeesDetails",
          "name": "fees",
          "type": "tuple"
        },
        {
          "internalType": "uint256",
          "name": "timestampAdded",
          "type": "uint256"
        },
        {
          "internalType": "uint256",
          "name": "timestampLastUpdated",
          "type": "uint256"
        }
      ],
      "stateMutability": "view",
      "type": "function"
    },
    {
      "inputs": [
        {
          "internalType": "address",
          "name": "newOwner",
          "type": "address"
        }
      ],
      "name": "transferOwnership",
      "outputs": [],
      "stateMutability": "nonpayable",
      "type": "function"
    },
    {
      "inputs": [
        {
          "internalType": "address",
          "name": "_token",
          "type": "address"
        },
        {
          "internalType": "address",
          "name": "_to",
          "type": "address"
        },
        {
          "internalType": "uint256",
          "name": "_amount",
          "type": "uint256"
        }
      ],
      "name": "transferToken",
      "outputs": [],
      "stateMutability": "nonpayable",
      "type": "function"
    },
    {
      "inputs": [
        {
          "internalType": "address",
          "name": "_token",
          "type": "address"
        }
      ],
      "name": "unverifyToken",
      "outputs": [],
      "stateMutability": "nonpayable",
      "type": "function"
    },
    {
      "inputs": [
        {
          "internalType": "address",
          "name": "_token",
          "type": "address"
        }
      ],
      "name": "verifyToken",
      "outputs": [],
      "stateMutability": "nonpayable",
      "type": "function"
    },
    {
      "inputs": [
        {
          "internalType": "address",
          "name": "_token",
          "type": "address"
        },
        {
          "internalType": "uint256",
          "name": "_amount",
          "type": "uint256"
        }
      ],
      "name": "withdrawToken",
      "outputs": [],
      "stateMutability": "nonpayable",
      "type": "function"
    }
  ],
  "bytecode": "60806040523480156200001157600080fd5b506200001d3362000023565b62000073565b600080546001600160a01b038381166001600160a01b0319831681178455604051919092169283917f8be0079c531659141344cd1fd0a4f28419497f9722a3daafe3b4186f6b6457e09190a35050565b613aea80620000836000396000f3fe608060405234801561001057600080fd5b50600436106102f05760003560e01c8063715018a61161019d578063b33f78ca116100e9578063e4ec108c116100a2578063ed2b79f81161007c578063ed2b79f814610787578063f16d094f1461079a578063f2fde38b146107c8578063f5537ede146107db57600080fd5b8063e4ec108c1461074e578063e57f14e114610761578063e97b061a1461077457600080fd5b8063b33f78ca146106dc578063b4767ca8146106ef578063b678c3a414610702578063c370c86d14610715578063d547741f14610728578063e012e2761461073b57600080fd5b80639aaf3cb611610156578063a4fb252b11610130578063a4fb252b14610674578063a5ecd12214610687578063aa6ca8081461069a578063ac66c6e0146106af57600080fd5b80639aaf3cb6146106465780639e281a9814610659578063a217fddf1461066c57600080fd5b8063715018a6146105ec57806375d7f0d9146105f45780638129fc1c146106075780638d0c8f261461060f5780638da5cb5b1461062257806391d148541461063357600080fd5b8063338b5dea1161025c57806349a5b1961161021557806356e0341c116101ef57806356e0341c1461058b5780635d9a40001461059e57806368173bcf146105b15780636bcfd0c4146105c457600080fd5b806349a5b1961461052a5780634f64b2be1461053d5780634fbee1931461056857600080fd5b8063338b5dea146104ab57806334738dfa146104be57806336568abe146104d15780633a215f46146104e45780634130276b14610504578063431f63c91461051757600080fd5b806317421409116102ae578063174214091461038b57806320e44e431461039e578063236b439214610440578063248a9ca3146104535780632da999ff146104855780632f2ff15d1461049857600080fd5b8062285e33146102f557806301ffc9a71461030a5780630b3e728c146103325780630d1ce2d21461034557806313ff7e9f1461035857806316a2f82a14610378575b600080fd5b610308610303366004612f55565b6107ee565b005b61031d610318366004612f81565b61082f565b60405190151581526020015b60405180910390f35b610308610340366004612fc7565b610866565b610308610353366004612fc7565b610929565b61036b610366366004612fc7565b610985565b604051610329919061303a565b610308610386366004612fc7565b610b74565b61030861039936600461316a565b610bbf565b600254600354600454600554600654600754600854600954600a54600b54600c54600d546103dd9b6001600160a01b03169a999897969594939291908c565b604080516001600160a01b03909d168d5260208d019b909b52998b019890985260608a0196909652608089019490945260a088019290925260c087015260e086015261010085015261012084015261014083015261016082015261018001610329565b61030861044e366004612fc7565b610c03565b61047761046136600461319d565b6000908152600160208190526040909120015490565b604051908152602001610329565b6103086104933660046131b6565b610c4f565b6103086104a63660046131d8565b610c84565b6103086104b93660046131fb565b610caf565b6104776104cc366004612fc7565b610f61565b6103086104df3660046131d8565b610f96565b6104f76104f236600461319d565b611014565b6040516103299190613225565b610308610512366004612fc7565b6110ae565b6103086105253660046131fb565b611123565b61030861053836600461316a565b61119c565b61055061054b36600461319d565b6112ab565b6040516001600160a01b039091168152602001610329565b61031d610576366004612fc7565b600e6020526000908152604090205460ff1681565b6103086105993660046132db565b6112d5565b6103086105ac366004613322565b61131e565b6103086105bf366004612fc7565b61135f565b6105d76105d2366004613355565b6113b8565b60408051928352602083019190915201610329565b6103086117b8565b6103086106023660046131fb565b6117ee565b6103086118ca565b61030861061d366004613322565b61195f565b6000546001600160a01b0316610550565b61031d6106413660046131d8565b6119b0565b6103086106543660046133ac565b6119db565b6103086106673660046131fb565b611b1d565b610477600081565b610308610682366004612f55565b611d53565b61030861069536600461316a565b611d8b565b6106a2611dd2565b6040516103299190613431565b6106c26106bd366004612fc7565b611e34565b6040516103299e9d9c9b9a9998979695949392919061347e565b61031d6106ea366004612fc7565b611f80565b6103086106fd366004613322565b611fe9565b61030861071036600461316a565b61203a565b61030861072336600461354f565b612117565b6103086107363660046131d8565b61220d565b610308610749366004612fc7565b612233565b61030861075c366004612fc7565b61228e565b61030861076f366004612fc7565b6122ff565b610308610782366004612f55565b61234d565b6103086107953660046131fb565b612385565b61031d6107a836600461316a565b601060209081526000928352604080842090915290825290205460ff1681565b6103086107d6366004612fc7565b6123e7565b6103086107e9366004613587565b612482565b6000546001600160a01b031633146108215760405162461bcd60e51b8152600401610818906135c3565b60405180910390fd5b600b92909255600c55600d55565b60006001600160e01b03198216637965db0b60e01b148061086057506301ffc9a760e01b6001600160e01b03198316145b92915050565b61086f8161251f565b6108788161255e565b61088182611f80565b61089d5760405162461bcd60e51b8152600401610818906135f8565b6001600160a01b038216600090815260126020526040902054610100900460ff166109005760405162461bcd60e51b81526020600482015260136024820152722a37b5b2b7103737ba103b32b934b334b2b21760691b6044820152606401610818565b506001600160a01b03166000908152601260205260409020805462ff0000191662010000179055565b6109328161251f565b61093b8161255e565b61094482611f80565b6109605760405162461bcd60e51b8152600401610818906135f8565b506001600160a01b03166000908152601260205260409020805460ff19166001179055565b61098d612dfe565b6001600160a01b03821660009081526012602090815260409182902082516101c081018452815460ff80821615158352610100820481161515948301949094526201000090049092161515928201929092526001820180549192916060840191906109f790613627565b80601f0160208091040260200160405190810160405280929190818152602001828054610a2390613627565b8015610a705780601f10610a4557610100808354040283529160200191610a70565b820191906000526020600020905b815481529060010190602001808311610a5357829003601f168201915b5050505050815260200160028201548152602001600382015481526020016004820154815260200160058201548152602001600682015481526020016007820160009054906101000a90046001600160a01b03166001600160a01b03166001600160a01b031681526020016008820160009054906101000a90046001600160a01b03166001600160a01b03166001600160a01b03168152602001600982016040518060c001604052908160008201548152602001600182015481526020016002820154815260200160038201548152602001600482015481526020016005820154815250508152602001600f82015481526020016010820154815250509050919050565b6000546001600160a01b03163314610b9e5760405162461bcd60e51b8152600401610818906135c3565b6001600160a01b03166000908152600e60205260409020805460ff19169055565b610bc88261251f565b610bd18161255e565b506001600160a01b0391821660009081526010602090815260408083209390941682529190915220805460ff19169055565b6000546001600160a01b03163314610c2d5760405162461bcd60e51b8152600401610818906135c3565b600280546001600160a01b0319166001600160a01b0392909216919091179055565b6000546001600160a01b03163314610c795760405162461bcd60e51b8152600401610818906135c3565b600391909155600455565b60008281526001602081905260409091200154610ca08161255e565b610caa8383612568565b505050565b610cb88261251f565b610cc18161255e565b610cca83611f80565b610ce65760405162461bcd60e51b8152600401610818906135f8565b60008211610d065760405162461bcd60e51b815260040161081890613661565b816001600160a01b0384166370a08231336040516001600160e01b031960e084901b1681526001600160a01b039091166004820152602401602060405180830381865afa158015610d5b573d6000803e3d6000fd5b505050506040513d601f19601f82011682018060405250810190610d7f91906136a2565b1015610dcd5760405162461bcd60e51b815260206004820152601c60248201527f496e73756666696369656e742077616c6c65742062616c616e63652e000000006044820152606401610818565b600080610dfa85856040518060400160405280600781526020016619195c1bdcda5d60ca1b8152506113b8565b9150915081600014610e93576001600160a01b0385166323b872dd3360025460405160e084901b6001600160e01b03191681526001600160a01b03928316600482015291166024820152604481018590526064016020604051808303816000875af1158015610e6d573d6000803e3d6000fd5b505050506040513d601f19601f82011682018060405250810190610e9191906136bb565b505b6000610e9f83866136f3565b90506001600160a01b0386166323b872dd336040516001600160e01b031960e084901b1681526001600160a01b039091166004820152306024820152604481018490526064016020604051808303816000875af1158015610f04573d6000803e3d6000fd5b505050506040513d601f19601f82011682018060405250810190610f2891906136bb565b506001600160a01b03861660009081526012602052604081206004018054839290610f5490849061370a565b9091555050505050505050565b6001600160a01b0381166000908152601260205260408120600381015460049091015461086091610f9191613722565b6125d3565b6001600160a01b03811633146110065760405162461bcd60e51b815260206004820152602f60248201527f416363657373436f6e74726f6c3a2063616e206f6e6c792072656e6f756e636560448201526e103937b632b9903337b91039b2b63360891b6064820152608401610818565b61101082826125e7565b5050565b600f602052600090815260409020805461102d90613627565b80601f016020809104026020016040519081016040528092919081815260200182805461105990613627565b80156110a65780601f1061107b576101008083540402835291602001916110a6565b820191906000526020600020905b81548152906001019060200180831161108957829003601f168201915b505050505081565b6000546001600160a01b031633146110d85760405162461bcd60e51b8152600401610818906135c3565b6110e181611f80565b6110fd5760405162461bcd60e51b8152600401610818906135f8565b6001600160a01b03166000908152601260205260409020805461ff001916610100179055565b6000546001600160a01b0316331461114d5760405162461bcd60e51b8152600401610818906135c3565b61115682611f80565b6111725760405162461bcd60e51b8152600401610818906135f8565b6001600160a01b039091166000908152601260205260409020600381019190915542601090910155565b6000546001600160a01b031633146111c65760405162461bcd60e51b8152600401610818906135c3565b6111cf82611f80565b6111eb5760405162461bcd60e51b8152600401610818906135f8565b600080546001600160a01b038481168352601260205260409092206008015482169116146112425761124261121f8361251f565b6001600160a01b038085166000908152601260205260409020600801541661220d565b6001600160a01b0382811660009081526012602052604090206008810180546001600160a01b03191692841692909217909155426010909101556110106112888361251f565b6001600160a01b0380851660009081526012602052604090206008015416610c84565b601181815481106112bb57600080fd5b6000918252602090912001546001600160a01b0316905081565b6000546001600160a01b031633146112ff5760405162461bcd60e51b8152600401610818906135c3565b6000828152600f602090815260409091208251610caa92840190612ebc565b6113278361251f565b6113308161255e565b6113598484846040518060400160405280600581526020016430b236b4b760d91b81525061264e565b50505050565b6113688161251f565b6113718161255e565b61137a82611f80565b6113965760405162461bcd60e51b8152600401610818906135f8565b506001600160a01b03166000908152601260205260409020805460ff19169055565b6000806113c485611f80565b6113e05760405162461bcd60e51b8152600401610818906135f8565b600084116114005760405162461bcd60e51b815260040161081890613661565b600080604051602001611420906619195c1bdcda5d60ca1b815260070190565b60405160208183030381529060405280519060200120856040516020016114479190613741565b60405160208183030381529060405280519060200120036114b1576001600160a01b03871660009081526012602052604090206009015460011061148d57600d546114aa565b6001600160a01b0387166000908152601260205260409020600901545b9150611736565b60405167776974686472617760c01b602082015260280160405160208183030381529060405280519060200120856040516020016114ef9190613741565b6040516020818303038152906040528051906020012003611558576001600160a01b0387166000908152601260205260409020600a015460011061153557600d546114aa565b6001600160a01b0387166000908152601260205260409020600a01549150611736565b604051647374616b6560d81b602082015260250160405160208183030381529060405280519060200120856040516020016115939190613741565b6040516020818303038152906040528051906020012003611648576001600160a01b0387166000908152601260205260409020600b01546001106115d957600a546115f6565b6001600160a01b0387166000908152601260205260409020600b01545b6001600160a01b0388166000908152601260205260409020600d015490925060011061162457600a54611641565b6001600160a01b0387166000908152601260205260409020600d01545b9050611736565b60405166756e7374616b6560c81b602082015260270160405160208183030381529060405280519060200120856040516020016116859190613741565b6040516020818303038152906040528051906020012003611736576001600160a01b0387166000908152601260205260409020600c01546001106116cb57600a546116e8565b6001600160a01b0387166000908152601260205260409020600c01545b6001600160a01b0388166000908152601260205260409020600e015490925060011061171657600a54611733565b6001600160a01b0387166000908152601260205260409020600e01545b90505b60006117428388612865565b905060006117508389612865565b336000818152600e60209081526040808320546001600160a01b038f168452601083528184209484529390915290205491925060ff9081169116811561179d5760009350600092506117a8565b80156117a857600092505b5091999098509650505050505050565b6000546001600160a01b031633146117e25760405162461bcd60e51b8152600401610818906135c3565b6117ec600061288d565b565b6117f78261251f565b6118008161255e565b61180983611f80565b6118255760405162461bcd60e51b8152600401610818906135f8565b600554821080159061183957506006548211155b61184f61184a6002600301546125d3565b6128dd565b61186061184a6002600401546125d3565b60405160200161187192919061375d565b6040516020818303038152906040529061189e5760405162461bcd60e51b81526004016108189190613225565b50506001600160a01b039091166000908152601260205260409020600681019190915542601090910155565b600280546001600160a01b03191633178155600355600f6004556118ee60326129e6565b6005556118fc6103e86129e6565b60065561190960646129e6565b600755600060085561191b600a6129e6565b60095561192860016129e6565b600a9081556000600b5561193b906129e6565b600c5561194860016129e6565b600d556119566000336129fa565b6117ec3361288d565b6000546001600160a01b031633146119895760405162461bcd60e51b8152600401610818906135c3565b610caa838383604051806040016040528060038152602001623232bb60e91b81525061264e565b60009182526001602090815260408084206001600160a01b0393909316845291905290205460ff1690565b6119e487611f80565b15611a295760405162461bcd60e51b81526020600482015260156024820152742a37b5b2b71030b63932b0b23c9032bc34b9ba399760591b6044820152606401610818565b611a46611a358861251f565b6000546001600160a01b03166129fa565b611a58611a528861251f565b336129fa565b6011805460018082019092557f31ecc21a745e3968a04e9570e4425bc18fa8019c68028196b546d1669c200c680180546001600160a01b038a166001600160a01b0319918216811790925560009182526012602052604090912060028101889055600881018054909216331790915560098101829055600a8101829055600b8101829055600c81019190915542600f90910155611af58787612117565b611aff87856117ee565b611b09878261203a565b611b1487848461131e565b50505050505050565b611b268261251f565b611b2f8161255e565b611b3883611f80565b611b545760405162461bcd60e51b8152600401610818906135f8565b60008211611b745760405162461bcd60e51b815260040161081890613661565b6001600160a01b038316600090815260126020526040902060040154821115611bdf5760405162461bcd60e51b815260206004820152601c60248201527f496e73756666696369656e74207265776172642062616c616e63652e000000006044820152606401610818565b6001600160a01b03831660009081526012602052604081206004018054849290611c0a9084906136f3565b92505081905550600080611c3f858560405180604001604052806008815260200167776974686472617760c01b8152506113b8565b9150915081600014611cc45760025460405163a9059cbb60e01b81526001600160a01b039182166004820152602481018490529086169063a9059cbb906044016020604051808303816000875af1158015611c9e573d6000803e3d6000fd5b505050506040513d601f19601f82011682018060405250810190611cc291906136bb565b505b6000611cd083866136f3565b90506001600160a01b03861663a9059cbb336040516001600160e01b031960e084901b1681526001600160a01b039091166004820152602481018490526044016020604051808303816000875af1158015611d2f573d6000803e3d6000fd5b505050506040513d601f19601f82011682018060405250810190611b1491906136bb565b6000546001600160a01b03163314611d7d5760405162461bcd60e51b8152600401610818906135c3565b600592909255600655600755565b611d948261251f565b611d9d8161255e565b506001600160a01b0391821660009081526010602090815260408083209390941682529190915220805460ff19166001179055565b60606011805480602002602001604051908101604052809291908181526020018280548015611e2a57602002820191906000526020600020905b81546001600160a01b03168152600190910190602001808311611e0c575b5050505050905090565b6012602052600090815260409020805460018201805460ff808416946101008504821694620100009004909116929091611e6d90613627565b80601f0160208091040260200160405190810160405280929190818152602001828054611e9990613627565b8015611ee65780601f10611ebb57610100808354040283529160200191611ee6565b820191906000526020600020905b815481529060010190602001808311611ec957829003601f168201915b50505060028401546003850154600486015460058701546006880154600789015460088a01546040805160c08101825260098d01548152600a8d01546020820152600b8d015491810191909152600c8c01546060820152600d8c01546080820152600e8c015460a0820152600f8c01546010909c01549a9b979a969950949750929591946001600160a01b0391821694939091169291908e565b6000805b601154811015611fe057826001600160a01b031660118281548110611fab57611fab6137d6565b6000918252602090912001546001600160a01b031603611fce5750600192915050565b80611fd8816137ec565b915050611f84565b50600092915050565b6000546001600160a01b031633146120135760405162461bcd60e51b8152600401610818906135c3565b610caa838383604051806040016040528060038152602001623232bb60e91b815250612a04565b6120438261251f565b61204c8161255e565b6120558261251f565b61205e8161255e565b61206784611f80565b6120835760405162461bcd60e51b8152600401610818906135f8565b61208c83611f80565b6120d85760405162461bcd60e51b815260206004820152601c60248201527f52657761726420746f6b656e20646f6573206e6f742065786973742e000000006044820152606401610818565b50506001600160a01b0391821660009081526012602052604090206007810180546001600160a01b031916929093169190911790915542601090910155565b6121208261251f565b6121298161255e565b61213283611f80565b61214e5760405162461bcd60e51b8152600401610818906135f8565b6003548251108015906121645750600454825111155b600354612170906128dd565b60045461217c906128dd565b60405160200161218d929190613805565b604051602081830303815290604052906121ba5760405162461bcd60e51b81526004016108189190613225565b506001600160a01b038316600090815260126020908152604090912083516121ea92600190920191850190612ebc565b5050506001600160a01b0316600090815260126020526040902042601090910155565b600082815260016020819052604090912001546122298161255e565b610caa83836125e7565b61223c8161251f565b6122458161255e565b61224e82611f80565b61226a5760405162461bcd60e51b8152600401610818906135f8565b506001600160a01b03166000908152601260205260409020805462ff000019169055565b6000546001600160a01b031633146122b85760405162461bcd60e51b8152600401610818906135c3565b6122c181611f80565b6122dd5760405162461bcd60e51b8152600401610818906135f8565b6001600160a01b03166000908152601260205260409020805461ff0019169055565b6000546001600160a01b031633146123295760405162461bcd60e51b8152600401610818906135c3565b6001600160a01b03166000908152600e60205260409020805460ff19166001179055565b6000546001600160a01b031633146123775760405162461bcd60e51b8152600401610818906135c3565b600892909255600955600a55565b61238e8261251f565b6123978161255e565b6123a083611f80565b6123bc5760405162461bcd60e51b8152600401610818906135f8565b506001600160a01b039091166000908152601260205260409020600281019190915542601090910155565b6000546001600160a01b031633146124115760405162461bcd60e51b8152600401610818906135c3565b6001600160a01b0381166124765760405162461bcd60e51b815260206004820152602660248201527f4f776e61626c653a206e6577206f776e657220697320746865207a65726f206160448201526564647265737360d01b6064820152608401610818565b61247f8161288d565b50565b6000546001600160a01b031633146124ac5760405162461bcd60e51b8152600401610818906135c3565b60405163a9059cbb60e01b81526001600160a01b0383811660048301526024820183905284169063a9059cbb906044016020604051808303816000875af11580156124fb573d6000803e3d6000fd5b505050506040513d601f19601f8201168201806040525081019061135991906136bb565b6040516bffffffffffffffffffffffff19606083901b166020820152600090603401604051602081830303815290604052805190602001209050919050565b61247f8133612bfe565b61257282826119b0565b6110105760008281526001602081815260408084206001600160a01b0386168086529252808420805460ff19169093179092559051339285917f2f8788117e7eff1d82e926ec794901d17c78024a50270940304540a733656f0d9190a45050565b6000610860670de0b6b3a76400008361389d565b6125f182826119b0565b156110105760008281526001602090815260408083206001600160a01b0385168085529252808320805460ff1916905551339285917ff6391f5c32d9c69d2a47ea670b442974b53935d1edc7fd64eb21e047a839171b9190a45050565b61265784611f80565b6126735760405162461bcd60e51b8152600401610818906135f8565b600854831080159061268757506009548311155b61269861184a6002600601546125d3565b6126a961184a6002600701546125d3565b6040516020016126ba9291906138b1565b604051602081830303815290604052906126e75760405162461bcd60e51b81526004016108189190613225565b5060085482108015906126fc57506009548211155b61270d61184a6002600601546125d3565b61271e61184a6002600701546125d3565b60405160200161272f92919061392b565b6040516020818303038152906040529061275c5760405162461bcd60e51b81526004016108189190613225565b50604051623232bb60e91b602082015260230160405160208183030381529060405280519060200120816040516020016127969190613741565b60405160208183030381529060405280519060200120036127db576001600160a01b0384166000908152601260205260409020600b8101849055600c018290556121ea565b6040516430b236b4b760d91b602082015260250160405160208183030381529060405280519060200120816040516020016128169190613741565b60405160208183030381529060405280519060200120036121ea57506001600160a01b03929092166000908152601260205260409020600d810191909155600e81019190915542601090910155565b60008261287260646129e6565b61287c908461389d565b6128869190613722565b9392505050565b600080546001600160a01b038381166001600160a01b0319831681178455604051919092169283917f8be0079c531659141344cd1fd0a4f28419497f9722a3daafe3b4186f6b6457e09190a35050565b6060816000036129045750506040805180820190915260018152600360fc1b602082015290565b8160005b811561292e5780612918816137ec565b91506129279050600a8361389d565b9150612908565b60008167ffffffffffffffff81111561294957612949613238565b6040519080825280601f01601f191660200182016040528015612973576020820181803683370190505b5090505b84156129de576129886001836136f3565b9150612995600a86613963565b6129a090603061370a565b60f81b8183815181106129b5576129b56137d6565b60200101906001600160f81b031916908160001a9053506129d7600a8661389d565b9450612977565b949350505050565b600061086082670de0b6b3a7640000613722565b6110108282612568565b612a0d84611f80565b612a295760405162461bcd60e51b8152600401610818906135f8565b600b548310801590612a3d5750600c548311155b612a4e61184a6002600901546125d3565b612a5f61184a6002600a01546125d3565b604051602001612a70929190613977565b60405160208183030381529060405290612a9d5760405162461bcd60e51b81526004016108189190613225565b50600b548210801590612ab25750600c548211155b612ac361184a6002600901546125d3565b612ad461184a6002600a01546125d3565b604051602001612ae59291906139af565b60405160208183030381529060405290612b125760405162461bcd60e51b81526004016108189190613225565b50604051623232bb60e91b60208201526023016040516020818303038152906040528051906020012081604051602001612b4c9190613741565b6040516020818303038152906040528051906020012003612b91576001600160a01b038416600090815260126020526040902060098101849055600a018290556121ea565b6040516430b236b4b760d91b60208201526025016040516020818303038152906040528051906020012081604051602001612bcc9190613741565b60408051601f1981840301905252505050506001600160a01b0316600090815260126020526040902042601090910155565b612c0882826119b0565b61101057612c20816001600160a01b03166014612c62565b612c2b836020612c62565b604051602001612c3c929190613a28565b60408051601f198184030181529082905262461bcd60e51b825261081891600401613225565b60606000612c71836002613722565b612c7c90600261370a565b67ffffffffffffffff811115612c9457612c94613238565b6040519080825280601f01601f191660200182016040528015612cbe576020820181803683370190505b509050600360fc1b81600081518110612cd957612cd96137d6565b60200101906001600160f81b031916908160001a905350600f60fb1b81600181518110612d0857612d086137d6565b60200101906001600160f81b031916908160001a9053506000612d2c846002613722565b612d3790600161370a565b90505b6001811115612daf576f181899199a1a9b1b9c1cb0b131b232b360811b85600f1660108110612d6b57612d6b6137d6565b1a60f81b828281518110612d8157612d816137d6565b60200101906001600160f81b031916908160001a90535060049490941c93612da881613a9d565b9050612d3a565b5083156128865760405162461bcd60e51b815260206004820181905260248201527f537472696e67733a20686578206c656e67746820696e73756666696369656e746044820152606401610818565b604051806101c0016040528060001515815260200160001515815260200160001515815260200160608152602001600081526020016000815260200160008152602001600081526020016000815260200160006001600160a01b0316815260200160006001600160a01b03168152602001612ea86040518060c001604052806000815260200160008152602001600081526020016000815260200160008152602001600081525090565b815260200160008152602001600081525090565b828054612ec890613627565b90600052602060002090601f016020900481019282612eea5760008555612f30565b82601f10612f0357805160ff1916838001178555612f30565b82800160010185558215612f30579182015b82811115612f30578251825591602001919060010190612f15565b50612f3c929150612f40565b5090565b5b80821115612f3c5760008155600101612f41565b600080600060608486031215612f6a57600080fd5b505081359360208301359350604090920135919050565b600060208284031215612f9357600080fd5b81356001600160e01b03198116811461288657600080fd5b80356001600160a01b0381168114612fc257600080fd5b919050565b600060208284031215612fd957600080fd5b61288682612fab565b60005b83811015612ffd578181015183820152602001612fe5565b838111156113595750506000910152565b60008151808452613026816020860160208601612fe2565b601f01601f19169290920160200192915050565b6020815261304d60208201835115159052565b60006020830151613062604084018215159052565b506040830151801515606084015250606083015161026080608085015261308d61028085018361300e565b9150608085015160a085015260a085015160c085015260c085015160e085015260e08501516101008181870152808701519150506101208181870152808701519150506101406130e7818701836001600160a01b03169052565b8601519050610160613103868201836001600160a01b03169052565b860151905061018061314c86820183805182526020810151602083015260408101516040830152606081015160608301526080810151608083015260a081015160a08301525050565b860151610240860152506101a0909401519390920192909252919050565b6000806040838503121561317d57600080fd5b61318683612fab565b915061319460208401612fab565b90509250929050565b6000602082840312156131af57600080fd5b5035919050565b600080604083850312156131c957600080fd5b50508035926020909101359150565b600080604083850312156131eb57600080fd5b8235915061319460208401612fab565b6000806040838503121561320e57600080fd5b61321783612fab565b946020939093013593505050565b602081526000612886602083018461300e565b634e487b7160e01b600052604160045260246000fd5b600082601f83011261325f57600080fd5b813567ffffffffffffffff8082111561327a5761327a613238565b604051601f8301601f19908116603f011681019082821181831017156132a2576132a2613238565b816040528381528660208588010111156132bb57600080fd5b836020870160208301376000602085830101528094505050505092915050565b600080604083850312156132ee57600080fd5b82359150602083013567ffffffffffffffff81111561330c57600080fd5b6133188582860161324e565b9150509250929050565b60008060006060848603121561333757600080fd5b61334084612fab565b95602085013595506040909401359392505050565b60008060006060848603121561336a57600080fd5b61337384612fab565b925060208401359150604084013567ffffffffffffffff81111561339657600080fd5b6133a28682870161324e565b9150509250925092565b600080600080600080600060e0888a0312156133c757600080fd5b6133d088612fab565b9650602088013567ffffffffffffffff8111156133ec57600080fd5b6133f88a828b0161324e565b96505060408801359450606088013593506080880135925060a0880135915061342360c08901612fab565b905092959891949750929550565b6020808252825182820181905260009190848201906040850190845b818110156134725783516001600160a01b03168352928401929184019160010161344d565b50909695505050505050565b8e151581528d151560208201528c15156040820152610260606082015260006134ab61026083018e61300e565b90508b60808301528a60a08301528960c08301528860e0830152876101008301526134e26101208301886001600160a01b03169052565b6001600160a01b0386166101408301528451610160830152602085015161018083015260408501516101a083015260608501516101c083015260808501516101e083015260a085015161020083015261022082019390935261024001529c9b505050505050505050505050565b6000806040838503121561356257600080fd5b61356b83612fab565b9150602083013567ffffffffffffffff81111561330c57600080fd5b60008060006060848603121561359c57600080fd5b6135a584612fab565b92506135b360208501612fab565b9150604084013590509250925092565b6020808252818101527f4f776e61626c653a2063616c6c6572206973206e6f7420746865206f776e6572604082015260600190565b6020808252601590820152742a37b5b2b7103237b2b9903737ba1032bc34b9ba1760591b604082015260600190565b600181811c9082168061363b57607f821691505b60208210810361365b57634e487b7160e01b600052602260045260246000fd5b50919050565b60208082526021908201527f416d6f756e74206d7573742062652067726561746572207468616e207a65726f6040820152601760f91b606082015260800190565b6000602082840312156136b457600080fd5b5051919050565b6000602082840312156136cd57600080fd5b8151801515811461288657600080fd5b634e487b7160e01b600052601160045260246000fd5b600082821015613705576137056136dd565b500390565b6000821982111561371d5761371d6136dd565b500190565b600081600019048311821515161561373c5761373c6136dd565b500290565b60008251613753818460208701612fe2565b9190910192915050565b7f5374616b696e6720415052206d757374206265206265747765656e200000000081526000835161379581601c850160208801612fe2565b650129030b732160d51b601c9184019182015283516137bb816022840160208801612fe2565b61129760f11b60229290910191820152602401949350505050565b634e487b7160e01b600052603260045260246000fd5b6000600182016137fe576137fe6136dd565b5060010190565b7f546f6b656e206e616d65206c656e677468206d75737420626520626574776565815261037160f51b602082015260008351613848816022850160208801612fe2565b6401030b732160dd1b602291840191820152835161386d816027840160208801612fe2565b601760f91b60279290910191820152602801949350505050565b634e487b7160e01b600052601260045260246000fd5b6000826138ac576138ac613887565b500490565b7f5374616b6520666565206d757374206265206265747765656e200000000000008152600083516138e981601a850160208801612fe2565b8083019050650129030b732160d51b601a8201528351613910816020840160208801612fe2565b61129760f11b60209290910191820152602201949350505050565b7f556e7374616b6520666565206d757374206265206265747765656e200000000081526000835161379581601c850160208801612fe2565b60008261397257613972613887565b500690565b7f4465706f73697420666565206d757374206265206265747765656e200000000081526000835161379581601c850160208801612fe2565b7f576974686472617720666565206d757374206265206265747765656e200000008152600083516139e781601d850160208801612fe2565b650129030b732160d51b601d918401918201528351613a0d816023840160208801612fe2565b61129760f11b60239290910191820152602501949350505050565b7f416363657373436f6e74726f6c3a206163636f756e7420000000000000000000815260008351613a60816017850160208801612fe2565b7001034b99036b4b9b9b4b733903937b6329607d1b6017918401918201528351613a91816028840160208801612fe2565b01602801949350505050565b600081613aac57613aac6136dd565b50600019019056fea26469706673582212207519c57b91733cf45d1e90240edc1476ac117885149f894b789c1b0b592628be64736f6c634300080d0033",
  "bytecodeSha1": "c3d5befb4a1b39d62a4a419b1cbffba5462bd22e",
  "compiler": {
    "evm_version": "istanbul",
    "optimizer": {
      "enabled": true,
      "runs": 200
    },
    "version": "0.8.13+commit.abaa5c0e"
  },
  "contractName": "SavvyFinanceFarmToken",
  "language": "Solidity",
  "natspec": {
    "kind": "dev",
    "methods": {
      "getRoleAdmin(bytes32)": {
        "details": "Returns the admin role that controls `role`. See {grantRole} and {revokeRole}. To change a role's admin, use {_setRoleAdmin}."
      },
      "grantRole(bytes32,address)": {
        "details": "Grants `role` to `account`. If `account` had not been already granted `role`, emits a {RoleGranted} event. Requirements: - the caller must have ``role``'s admin role."
      },
      "hasRole(bytes32,address)": {
        "details": "Returns `true` if `account` has been granted `role`."
      },
      "owner()": {
        "details": "Returns the address of the current owner."
      },
      "renounceOwnership()": {
        "details": "Leaves the contract without owner. It will not be possible to call `onlyOwner` functions anymore. Can only be called by the current owner. NOTE: Renouncing ownership will leave the contract without an owner, thereby removing any functionality that is only available to the owner."
      },
      "renounceRole(bytes32,address)": {
        "details": "Revokes `role` from the calling account. Roles are often managed via {grantRole} and {revokeRole}: this function's purpose is to provide a mechanism for accounts to lose their privileges if they are compromised (such as when a trusted device is misplaced). If the calling account had been revoked `role`, emits a {RoleRevoked} event. Requirements: - the caller must be `account`."
      },
      "revokeRole(bytes32,address)": {
        "details": "Revokes `role` from `account`. If `account` had been granted `role`, emits a {RoleRevoked} event. Requirements: - the caller must have ``role``'s admin role."
      },
      "supportsInterface(bytes4)": {
        "details": "See {IERC165-supportsInterface}."
      },
      "transferOwnership(address)": {
        "details": "Transfers ownership of the contract to a new account (`newOwner`). Can only be called by the current owner."
      }
    },
    "version": 1
  },
  "opcodes": "PUSH1 0x80 PUSH1 0x40 MSTORE CALLVALUE DUP1 ISZERO PUSH2 0x10 JUMPI PUSH1 0x0 DUP1 REVERT JUMPDEST POP PUSH1 0x4 CALLDATASIZE LT PUSH2 0x2F0 JUMPI PUSH1 0x0 CALLDATALOAD PUSH1 0xE0 SHR DUP1 PUSH4 0x715018A6 GT PUSH2 0x19D JUMPI DUP1 PUSH4 0xB33F78CA GT PUSH2 0xE9 JUMPI DUP1 PUSH4 0xE4EC108C GT PUSH2 0xA2 JUMPI DUP1 PUSH4 0xED2B79F8 GT PUSH2 0x7C JUMPI DUP1 PUSH4 0xED2B79F8 EQ PUSH2 0x787 JUMPI DUP1 PUSH4 0xF16D094F EQ PUSH2 0x79A JUMPI DUP1 PUSH4 0xF2FDE38B EQ PUSH2 0x7C8 JUMPI DUP1 PUSH4 0xF5537EDE EQ PUSH2 0x7DB JUMPI PUSH1 0x0 DUP1 REVERT JUMPDEST DUP1 PUSH4 0xE4EC108C EQ PUSH2 0x74E JUMPI DUP1 PUSH4 0xE57F14E1 EQ PUSH2 0x761 JUMPI DUP1 PUSH4 0xE97B061A EQ PUSH2 0x774 JUMPI PUSH1 0x0 DUP1 REVERT JUMPDEST DUP1 PUSH4 0xB33F78CA EQ PUSH2 0x6DC JUMPI DUP1 PUSH4 0xB4767CA8 EQ PUSH2 0x6EF JUMPI DUP1 PUSH4 0xB678C3A4 EQ PUSH2 0x702 JUMPI DUP1 PUSH4 0xC370C86D EQ PUSH2 0x715 JUMPI DUP1 PUSH4 0xD547741F EQ PUSH2 0x728 JUMPI DUP1 PUSH4 0xE012E276 EQ PUSH2 0x73B JUMPI PUSH1 0x0 DUP1 REVERT JUMPDEST DUP1 PUSH4 0x9AAF3CB6 GT PUSH2 0x156 JUMPI DUP1 PUSH4 0xA4FB252B GT PUSH2 0x130 JUMPI DUP1 PUSH4 0xA4FB252B EQ PUSH2 0x674 JUMPI DUP1 PUSH4 0xA5ECD122 EQ PUSH2 0x687 JUMPI DUP1 PUSH4 0xAA6CA808 EQ PUSH2 0x69A JUMPI DUP1 PUSH4 0xAC66C6E0 EQ PUSH2 0x6AF JUMPI PUSH1 0x0 DUP1 REVERT JUMPDEST DUP1 PUSH4 0x9AAF3CB6 EQ PUSH2 0x646 JUMPI DUP1 PUSH4 0x9E281A98 EQ PUSH2 0x659 JUMPI DUP1 PUSH4 0xA217FDDF EQ PUSH2 0x66C JUMPI PUSH1 0x0 DUP1 REVERT JUMPDEST DUP1 PUSH4 0x715018A6 EQ PUSH2 0x5EC JUMPI DUP1 PUSH4 0x75D7F0D9 EQ PUSH2 0x5F4 JUMPI DUP1 PUSH4 0x8129FC1C EQ PUSH2 0x607 JUMPI DUP1 PUSH4 0x8D0C8F26 EQ PUSH2 0x60F JUMPI DUP1 PUSH4 0x8DA5CB5B EQ PUSH2 0x622 JUMPI DUP1 PUSH4 0x91D14854 EQ PUSH2 0x633 JUMPI PUSH1 0x0 DUP1 REVERT JUMPDEST DUP1 PUSH4 0x338B5DEA GT PUSH2 0x25C JUMPI DUP1 PUSH4 0x49A5B196 GT PUSH2 0x215 JUMPI DUP1 PUSH4 0x56E0341C GT PUSH2 0x1EF JUMPI DUP1 PUSH4 0x56E0341C EQ PUSH2 0x58B JUMPI DUP1 PUSH4 0x5D9A4000 EQ PUSH2 0x59E JUMPI DUP1 PUSH4 0x68173BCF EQ PUSH2 0x5B1 JUMPI DUP1 PUSH4 0x6BCFD0C4 EQ PUSH2 0x5C4 JUMPI PUSH1 0x0 DUP1 REVERT JUMPDEST DUP1 PUSH4 0x49A5B196 EQ PUSH2 0x52A JUMPI DUP1 PUSH4 0x4F64B2BE EQ PUSH2 0x53D JUMPI DUP1 PUSH4 0x4FBEE193 EQ PUSH2 0x568 JUMPI PUSH1 0x0 DUP1 REVERT JUMPDEST DUP1 PUSH4 0x338B5DEA EQ PUSH2 0x4AB JUMPI DUP1 PUSH4 0x34738DFA EQ PUSH2 0x4BE JUMPI DUP1 PUSH4 0x36568ABE EQ PUSH2 0x4D1 JUMPI DUP1 PUSH4 0x3A215F46 EQ PUSH2 0x4E4 JUMPI DUP1 PUSH4 0x4130276B EQ PUSH2 0x504 JUMPI DUP1 PUSH4 0x431F63C9 EQ PUSH2 0x517 JUMPI PUSH1 0x0 DUP1 REVERT JUMPDEST DUP1 PUSH4 0x17421409 GT PUSH2 0x2AE JUMPI DUP1 PUSH4 0x17421409 EQ PUSH2 0x38B JUMPI DUP1 PUSH4 0x20E44E43 EQ PUSH2 0x39E JUMPI DUP1 PUSH4 0x236B4392 EQ PUSH2 0x440 JUMPI DUP1 PUSH4 0x248A9CA3 EQ PUSH2 0x453 JUMPI DUP1 PUSH4 0x2DA999FF EQ PUSH2 0x485 JUMPI DUP1 PUSH4 0x2F2FF15D EQ PUSH2 0x498 JUMPI PUSH1 0x0 DUP1 REVERT JUMPDEST DUP1 PUSH3 0x285E33 EQ PUSH2 0x2F5 JUMPI DUP1 PUSH4 0x1FFC9A7 EQ PUSH2 0x30A JUMPI DUP1 PUSH4 0xB3E728C EQ PUSH2 0x332 JUMPI DUP1 PUSH4 0xD1CE2D2 EQ PUSH2 0x345 JUMPI DUP1 PUSH4 0x13FF7E9F EQ PUSH2 0x358 JUMPI DUP1 PUSH4 0x16A2F82A EQ PUSH2 0x378 JUMPI JUMPDEST PUSH1 0x0 DUP1 REVERT JUMPDEST PUSH2 0x308 PUSH2 0x303 CALLDATASIZE PUSH1 0x4 PUSH2 0x2F55 JUMP JUMPDEST PUSH2 0x7EE JUMP JUMPDEST STOP JUMPDEST PUSH2 0x31D PUSH2 0x318 CALLDATASIZE PUSH1 0x4 PUSH2 0x2F81 JUMP JUMPDEST PUSH2 0x82F JUMP JUMPDEST PUSH1 0x40 MLOAD SWAP1 ISZERO ISZERO DUP2 MSTORE PUSH1 0x20 ADD JUMPDEST PUSH1 0x40 MLOAD DUP1 SWAP2 SUB SWAP1 RETURN JUMPDEST PUSH2 0x308 PUSH2 0x340 CALLDATASIZE PUSH1 0x4 PUSH2 0x2FC7 JUMP JUMPDEST PUSH2 0x866 JUMP JUMPDEST PUSH2 0x308 PUSH2 0x353 CALLDATASIZE PUSH1 0x4 PUSH2 0x2FC7 JUMP JUMPDEST PUSH2 0x929 JUMP JUMPDEST PUSH2 0x36B PUSH2 0x366 CALLDATASIZE PUSH1 0x4 PUSH2 0x2FC7 JUMP JUMPDEST PUSH2 0x985 JUMP JUMPDEST PUSH1 0x40 MLOAD PUSH2 0x329 SWAP2 SWAP1 PUSH2 0x303A JUMP JUMPDEST PUSH2 0x308 PUSH2 0x386 CALLDATASIZE PUSH1 0x4 PUSH2 0x2FC7 JUMP JUMPDEST PUSH2 0xB74 JUMP JUMPDEST PUSH2 0x308 PUSH2 0x399 CALLDATASIZE PUSH1 0x4 PUSH2 0x316A JUMP JUMPDEST PUSH2 0xBBF JUMP JUMPDEST PUSH1 0x2 SLOAD PUSH1 0x3 SLOAD PUSH1 0x4 SLOAD PUSH1 0x5 SLOAD PUSH1 0x6 SLOAD PUSH1 0x7 SLOAD PUSH1 0x8 SLOAD PUSH1 0x9 SLOAD PUSH1 0xA SLOAD PUSH1 0xB SLOAD PUSH1 0xC SLOAD PUSH1 0xD SLOAD PUSH2 0x3DD SWAP12 PUSH1 0x1 PUSH1 0x1 PUSH1 0xA0 SHL SUB AND SWAP11 SWAP10 SWAP9 SWAP8 SWAP7 SWAP6 SWAP5 SWAP4 SWAP3 SWAP2 SWAP1 DUP13 JUMP JUMPDEST PUSH1 0x40 DUP1 MLOAD PUSH1 0x1 PUSH1 0x1 PUSH1 0xA0 SHL SUB SWAP1 SWAP14 AND DUP14 MSTORE PUSH1 0x20 DUP14 ADD SWAP12 SWAP1 SWAP12 MSTORE SWAP10 DUP12 ADD SWAP9 SWAP1 SWAP9 MSTORE PUSH1 0x60 DUP11 ADD SWAP7 SWAP1 SWAP7 MSTORE PUSH1 0x80 DUP10 ADD SWAP5 SWAP1 SWAP5 MSTORE PUSH1 0xA0 DUP9 ADD SWAP3 SWAP1 SWAP3 MSTORE PUSH1 0xC0 DUP8 ADD MSTORE PUSH1 0xE0 DUP7 ADD MSTORE PUSH2 0x100 DUP6 ADD MSTORE PUSH2 0x120 DUP5 ADD MSTORE PUSH2 0x140 DUP4 ADD MSTORE PUSH2 0x160 DUP3 ADD MSTORE PUSH2 0x180 ADD PUSH2 0x329 JUMP JUMPDEST PUSH2 0x308 PUSH2 0x44E CALLDATASIZE PUSH1 0x4 PUSH2 0x2FC7 JUMP JUMPDEST PUSH2 0xC03 JUMP JUMPDEST PUSH2 0x477 PUSH2 0x461 CALLDATASIZE PUSH1 0x4 PUSH2 0x319D JUMP JUMPDEST PUSH1 0x0 SWAP1 DUP2 MSTORE PUSH1 0x1 PUSH1 0x20 DUP2 SWAP1 MSTORE PUSH1 0x40 SWAP1 SWAP2 KECCAK256 ADD SLOAD SWAP1 JUMP JUMPDEST PUSH1 0x40 MLOAD SWAP1 DUP2 MSTORE PUSH1 0x20 ADD PUSH2 0x329 JUMP JUMPDEST PUSH2 0x308 PUSH2 0x493 CALLDATASIZE PUSH1 0x4 PUSH2 0x31B6 JUMP JUMPDEST PUSH2 0xC4F JUMP JUMPDEST PUSH2 0x308 PUSH2 0x4A6 CALLDATASIZE PUSH1 0x4 PUSH2 0x31D8 JUMP JUMPDEST PUSH2 0xC84 JUMP JUMPDEST PUSH2 0x308 PUSH2 0x4B9 CALLDATASIZE PUSH1 0x4 PUSH2 0x31FB JUMP JUMPDEST PUSH2 0xCAF JUMP JUMPDEST PUSH2 0x477 PUSH2 0x4CC CALLDATASIZE PUSH1 0x4 PUSH2 0x2FC7 JUMP JUMPDEST PUSH2 0xF61 JUMP JUMPDEST PUSH2 0x308 PUSH2 0x4DF CALLDATASIZE PUSH1 0x4 PUSH2 0x31D8 JUMP JUMPDEST PUSH2 0xF96 JUMP JUMPDEST PUSH2 0x4F7 PUSH2 0x4F2 CALLDATASIZE PUSH1 0x4 PUSH2 0x319D JUMP JUMPDEST PUSH2 0x1014 JUMP JUMPDEST PUSH1 0x40 MLOAD PUSH2 0x329 SWAP2 SWAP1 PUSH2 0x3225 JUMP JUMPDEST PUSH2 0x308 PUSH2 0x512 CALLDATASIZE PUSH1 0x4 PUSH2 0x2FC7 JUMP JUMPDEST PUSH2 0x10AE JUMP JUMPDEST PUSH2 0x308 PUSH2 0x525 CALLDATASIZE PUSH1 0x4 PUSH2 0x31FB JUMP JUMPDEST PUSH2 0x1123 JUMP JUMPDEST PUSH2 0x308 PUSH2 0x538 CALLDATASIZE PUSH1 0x4 PUSH2 0x316A JUMP JUMPDEST PUSH2 0x119C JUMP JUMPDEST PUSH2 0x550 PUSH2 0x54B CALLDATASIZE PUSH1 0x4 PUSH2 0x319D JUMP JUMPDEST PUSH2 0x12AB JUMP JUMPDEST PUSH1 0x40 MLOAD PUSH1 0x1 PUSH1 0x1 PUSH1 0xA0 SHL SUB SWAP1 SWAP2 AND DUP2 MSTORE PUSH1 0x20 ADD PUSH2 0x329 JUMP JUMPDEST PUSH2 0x31D PUSH2 0x576 CALLDATASIZE PUSH1 0x4 PUSH2 0x2FC7 JUMP JUMPDEST PUSH1 0xE PUSH1 0x20 MSTORE PUSH1 0x0 SWAP1 DUP2 MSTORE PUSH1 0x40 SWAP1 KECCAK256 SLOAD PUSH1 0xFF AND DUP2 JUMP JUMPDEST PUSH2 0x308 PUSH2 0x599 CALLDATASIZE PUSH1 0x4 PUSH2 0x32DB JUMP JUMPDEST PUSH2 0x12D5 JUMP JUMPDEST PUSH2 0x308 PUSH2 0x5AC CALLDATASIZE PUSH1 0x4 PUSH2 0x3322 JUMP JUMPDEST PUSH2 0x131E JUMP JUMPDEST PUSH2 0x308 PUSH2 0x5BF CALLDATASIZE PUSH1 0x4 PUSH2 0x2FC7 JUMP JUMPDEST PUSH2 0x135F JUMP JUMPDEST PUSH2 0x5D7 PUSH2 0x5D2 CALLDATASIZE PUSH1 0x4 PUSH2 0x3355 JUMP JUMPDEST PUSH2 0x13B8 JUMP JUMPDEST PUSH1 0x40 DUP1 MLOAD SWAP3 DUP4 MSTORE PUSH1 0x20 DUP4 ADD SWAP2 SWAP1 SWAP2 MSTORE ADD PUSH2 0x329 JUMP JUMPDEST PUSH2 0x308 PUSH2 0x17B8 JUMP JUMPDEST PUSH2 0x308 PUSH2 0x602 CALLDATASIZE PUSH1 0x4 PUSH2 0x31FB JUMP JUMPDEST PUSH2 0x17EE JUMP JUMPDEST PUSH2 0x308 PUSH2 0x18CA JUMP JUMPDEST PUSH2 0x308 PUSH2 0x61D CALLDATASIZE PUSH1 0x4 PUSH2 0x3322 JUMP JUMPDEST PUSH2 0x195F JUMP JUMPDEST PUSH1 0x0 SLOAD PUSH1 0x1 PUSH1 0x1 PUSH1 0xA0 SHL SUB AND PUSH2 0x550 JUMP JUMPDEST PUSH2 0x31D PUSH2 0x641 CALLDATASIZE PUSH1 0x4 PUSH2 0x31D8 JUMP JUMPDEST PUSH2 0x19B0 JUMP JUMPDEST PUSH2 0x308 PUSH2 0x654 CALLDATASIZE PUSH1 0x4 PUSH2 0x33AC JUMP JUMPDEST PUSH2 0x19DB JUMP JUMPDEST PUSH2 0x308 PUSH2 0x667 CALLDATASIZE PUSH1 0x4 PUSH2 0x31FB JUMP JUMPDEST PUSH2 0x1B1D JUMP JUMPDEST PUSH2 0x477 PUSH1 0x0 DUP2 JUMP JUMPDEST PUSH2 0x308 PUSH2 0x682 CALLDATASIZE PUSH1 0x4 PUSH2 0x2F55 JUMP JUMPDEST PUSH2 0x1D53 JUMP JUMPDEST PUSH2 0x308 PUSH2 0x695 CALLDATASIZE PUSH1 0x4 PUSH2 0x316A JUMP JUMPDEST PUSH2 0x1D8B JUMP JUMPDEST PUSH2 0x6A2 PUSH2 0x1DD2 JUMP JUMPDEST PUSH1 0x40 MLOAD PUSH2 0x329 SWAP2 SWAP1 PUSH2 0x3431 JUMP JUMPDEST PUSH2 0x6C2 PUSH2 0x6BD CALLDATASIZE PUSH1 0x4 PUSH2 0x2FC7 JUMP JUMPDEST PUSH2 0x1E34 JUMP JUMPDEST PUSH1 0x40 MLOAD PUSH2 0x329 SWAP15 SWAP14 SWAP13 SWAP12 SWAP11 SWAP10 SWAP9 SWAP8 SWAP7 SWAP6 SWAP5 SWAP4 SWAP3 SWAP2 SWAP1 PUSH2 0x347E JUMP JUMPDEST PUSH2 0x31D PUSH2 0x6EA CALLDATASIZE PUSH1 0x4 PUSH2 0x2FC7 JUMP JUMPDEST PUSH2 0x1F80 JUMP JUMPDEST PUSH2 0x308 PUSH2 0x6FD CALLDATASIZE PUSH1 0x4 PUSH2 0x3322 JUMP JUMPDEST PUSH2 0x1FE9 JUMP JUMPDEST PUSH2 0x308 PUSH2 0x710 CALLDATASIZE PUSH1 0x4 PUSH2 0x316A JUMP JUMPDEST PUSH2 0x203A JUMP JUMPDEST PUSH2 0x308 PUSH2 0x723 CALLDATASIZE PUSH1 0x4 PUSH2 0x354F JUMP JUMPDEST PUSH2 0x2117 JUMP JUMPDEST PUSH2 0x308 PUSH2 0x736 CALLDATASIZE PUSH1 0x4 PUSH2 0x31D8 JUMP JUMPDEST PUSH2 0x220D JUMP JUMPDEST PUSH2 0x308 PUSH2 0x749 CALLDATASIZE PUSH1 0x4 PUSH2 0x2FC7 JUMP JUMPDEST PUSH2 0x2233 JUMP JUMPDEST PUSH2 0x308 PUSH2 0x75C CALLDATASIZE PUSH1 0x4 PUSH2 0x2FC7 JUMP JUMPDEST PUSH2 0x228E JUMP JUMPDEST PUSH2 0x308 PUSH2 0x76F CALLDATASIZE PUSH1 0x4 PUSH2 0x2FC7 JUMP JUMPDEST PUSH2 0x22FF JUMP JUMPDEST PUSH2 0x308 PUSH2 0x782 CALLDATASIZE PUSH1 0x4 PUSH2 0x2F55 JUMP JUMPDEST PUSH2 0x234D JUMP JUMPDEST PUSH2 0x308 PUSH2 0x795 CALLDATASIZE PUSH1 0x4 PUSH2 0x31FB JUMP JUMPDEST PUSH2 0x2385 JUMP JUMPDEST PUSH2 0x31D PUSH2 0x7A8 CALLDATASIZE PUSH1 0x4 PUSH2 0x316A JUMP JUMPDEST PUSH1 0x10 PUSH1 0x20 SWAP1 DUP2 MSTORE PUSH1 0x0 SWAP3 DUP4 MSTORE PUSH1 0x40 DUP1 DUP5 KECCAK256 SWAP1 SWAP2 MSTORE SWAP1 DUP3 MSTORE SWAP1 KECCAK256 SLOAD PUSH1 0xFF AND DUP2 JUMP JUMPDEST PUSH2 0x308 PUSH2 0x7D6 CALLDATASIZE PUSH1 0x4 PUSH2 0x2FC7 JUMP JUMPDEST PUSH2 0x23E7 JUMP JUMPDEST PUSH2 0x308 PUSH2 0x7E9 CALLDATASIZE PUSH1 0x4 PUSH2 0x3587 JUMP JUMPDEST PUSH2 0x2482 JUMP JUMPDEST PUSH1 0x0 SLOAD PUSH1 0x1 PUSH1 0x1 PUSH1 0xA0 SHL SUB AND CALLER EQ PUSH2 0x821 JUMPI PUSH1 0x40 MLOAD PUSH3 0x461BCD PUSH1 0xE5 SHL DUP2 MSTORE PUSH1 0x4 ADD PUSH2 0x818 SWAP1 PUSH2 0x35C3 JUMP JUMPDEST PUSH1 0x40 MLOAD DUP1 SWAP2 SUB SWAP1 REVERT JUMPDEST PUSH1 0xB SWAP3 SWAP1 SWAP3 SSTORE PUSH1 0xC SSTORE PUSH1 0xD SSTORE JUMP JUMPDEST PUSH1 0x0 PUSH1 0x1 PUSH1 0x1 PUSH1 0xE0 SHL SUB NOT DUP3 AND PUSH4 0x7965DB0B PUSH1 0xE0 SHL EQ DUP1 PUSH2 0x860 JUMPI POP PUSH4 0x1FFC9A7 PUSH1 0xE0 SHL PUSH1 0x1 PUSH1 0x1 PUSH1 0xE0 SHL SUB NOT DUP4 AND EQ JUMPDEST SWAP3 SWAP2 POP POP JUMP JUMPDEST PUSH2 0x86F DUP2 PUSH2 0x251F JUMP JUMPDEST PUSH2 0x878 DUP2 PUSH2 0x255E JUMP JUMPDEST PUSH2 0x881 DUP3 PUSH2 0x1F80 JUMP JUMPDEST PUSH2 0x89D JUMPI PUSH1 0x40 MLOAD PUSH3 0x461BCD PUSH1 0xE5 SHL DUP2 MSTORE PUSH1 0x4 ADD PUSH2 0x818 SWAP1 PUSH2 0x35F8 JUMP JUMPDEST PUSH1 0x1 PUSH1 0x1 PUSH1 0xA0 SHL SUB DUP3 AND PUSH1 0x0 SWAP1 DUP2 MSTORE PUSH1 0x12 PUSH1 0x20 MSTORE PUSH1 0x40 SWAP1 KECCAK256 SLOAD PUSH2 0x100 SWAP1 DIV PUSH1 0xFF AND PUSH2 0x900 JUMPI PUSH1 0x40 MLOAD PUSH3 0x461BCD PUSH1 0xE5 SHL DUP2 MSTORE PUSH1 0x20 PUSH1 0x4 DUP3 ADD MSTORE PUSH1 0x13 PUSH1 0x24 DUP3 ADD MSTORE PUSH19 0x2A37B5B2B7103737BA103B32B934B334B2B217 PUSH1 0x69 SHL PUSH1 0x44 DUP3 ADD MSTORE PUSH1 0x64 ADD PUSH2 0x818 JUMP JUMPDEST POP PUSH1 0x1 PUSH1 0x1 PUSH1 0xA0 SHL SUB AND PUSH1 0x0 SWAP1 DUP2 MSTORE PUSH1 0x12 PUSH1 0x20 MSTORE PUSH1 0x40 SWAP1 KECCAK256 DUP1 SLOAD PUSH3 0xFF0000 NOT AND PUSH3 0x10000 OR SWAP1 SSTORE JUMP JUMPDEST PUSH2 0x932 DUP2 PUSH2 0x251F JUMP JUMPDEST PUSH2 0x93B DUP2 PUSH2 0x255E JUMP JUMPDEST PUSH2 0x944 DUP3 PUSH2 0x1F80 JUMP JUMPDEST PUSH2 0x960 JUMPI PUSH1 0x40 MLOAD PUSH3 0x461BCD PUSH1 0xE5 SHL DUP2 MSTORE PUSH1 0x4 ADD PUSH2 0x818 SWAP1 PUSH2 0x35F8 JUMP JUMPDEST POP PUSH1 0x1 PUSH1 0x1 PUSH1 0xA0 SHL SUB AND PUSH1 0x0 SWAP1 DUP2 MSTORE PUSH1 0x12 PUSH1 0x20 MSTORE PUSH1 0x40 SWAP1 KECCAK256 DUP1 SLOAD PUSH1 0xFF NOT AND PUSH1 0x1 OR SWAP1 SSTORE JUMP JUMPDEST PUSH2 0x98D PUSH2 0x2DFE JUMP JUMPDEST PUSH1 0x1 PUSH1 0x1 PUSH1 0xA0 SHL SUB DUP3 AND PUSH1 0x0 SWAP1 DUP2 MSTORE PUSH1 0x12 PUSH1 0x20 SWAP1 DUP2 MSTORE PUSH1 0x40 SWAP2 DUP3 SWAP1 KECCAK256 DUP3 MLOAD PUSH2 0x1C0 DUP2 ADD DUP5 MSTORE DUP2 SLOAD PUSH1 0xFF DUP1 DUP3 AND ISZERO ISZERO DUP4 MSTORE PUSH2 0x100 DUP3 DIV DUP2 AND ISZERO ISZERO SWAP5 DUP4 ADD SWAP5 SWAP1 SWAP5 MSTORE PUSH3 0x10000 SWAP1 DIV SWAP1 SWAP3 AND ISZERO ISZERO SWAP3 DUP3 ADD SWAP3 SWAP1 SWAP3 MSTORE PUSH1 0x1 DUP3 ADD DUP1 SLOAD SWAP2 SWAP3 SWAP2 PUSH1 0x60 DUP5 ADD SWAP2 SWAP1 PUSH2 0x9F7 SWAP1 PUSH2 0x3627 JUMP JUMPDEST DUP1 PUSH1 0x1F ADD PUSH1 0x20 DUP1 SWAP2 DIV MUL PUSH1 0x20 ADD PUSH1 0x40 MLOAD SWAP1 DUP2 ADD PUSH1 0x40 MSTORE DUP1 SWAP3 SWAP2 SWAP1 DUP2 DUP2 MSTORE PUSH1 0x20 ADD DUP3 DUP1 SLOAD PUSH2 0xA23 SWAP1 PUSH2 0x3627 JUMP JUMPDEST DUP1 ISZERO PUSH2 0xA70 JUMPI DUP1 PUSH1 0x1F LT PUSH2 0xA45 JUMPI PUSH2 0x100 DUP1 DUP4 SLOAD DIV MUL DUP4 MSTORE SWAP2 PUSH1 0x20 ADD SWAP2 PUSH2 0xA70 JUMP JUMPDEST DUP3 ADD SWAP2 SWAP1 PUSH1 0x0 MSTORE PUSH1 0x20 PUSH1 0x0 KECCAK256 SWAP1 JUMPDEST DUP2 SLOAD DUP2 MSTORE SWAP1 PUSH1 0x1 ADD SWAP1 PUSH1 0x20 ADD DUP1 DUP4 GT PUSH2 0xA53 JUMPI DUP3 SWAP1 SUB PUSH1 0x1F AND DUP3 ADD SWAP2 JUMPDEST POP POP POP POP POP DUP2 MSTORE PUSH1 0x20 ADD PUSH1 0x2 DUP3 ADD SLOAD DUP2 MSTORE PUSH1 0x20 ADD PUSH1 0x3 DUP3 ADD SLOAD DUP2 MSTORE PUSH1 0x20 ADD PUSH1 0x4 DUP3 ADD SLOAD DUP2 MSTORE PUSH1 0x20 ADD PUSH1 0x5 DUP3 ADD SLOAD DUP2 MSTORE PUSH1 0x20 ADD PUSH1 0x6 DUP3 ADD SLOAD DUP2 MSTORE PUSH1 0x20 ADD PUSH1 0x7 DUP3 ADD PUSH1 0x0 SWAP1 SLOAD SWAP1 PUSH2 0x100 EXP SWAP1 DIV PUSH1 0x1 PUSH1 0x1 PUSH1 0xA0 SHL SUB AND PUSH1 0x1 PUSH1 0x1 PUSH1 0xA0 SHL SUB AND PUSH1 0x1 PUSH1 0x1 PUSH1 0xA0 SHL SUB AND DUP2 MSTORE PUSH1 0x20 ADD PUSH1 0x8 DUP3 ADD PUSH1 0x0 SWAP1 SLOAD SWAP1 PUSH2 0x100 EXP SWAP1 DIV PUSH1 0x1 PUSH1 0x1 PUSH1 0xA0 SHL SUB AND PUSH1 0x1 PUSH1 0x1 PUSH1 0xA0 SHL SUB AND PUSH1 0x1 PUSH1 0x1 PUSH1 0xA0 SHL SUB AND DUP2 MSTORE PUSH1 0x20 ADD PUSH1 0x9 DUP3 ADD PUSH1 0x40 MLOAD DUP1 PUSH1 0xC0 ADD PUSH1 0x40 MSTORE SWAP1 DUP2 PUSH1 0x0 DUP3 ADD SLOAD DUP2 MSTORE PUSH1 0x20 ADD PUSH1 0x1 DUP3 ADD SLOAD DUP2 MSTORE PUSH1 0x20 ADD PUSH1 0x2 DUP3 ADD SLOAD DUP2 MSTORE PUSH1 0x20 ADD PUSH1 0x3 DUP3 ADD SLOAD DUP2 MSTORE PUSH1 0x20 ADD PUSH1 0x4 DUP3 ADD SLOAD DUP2 MSTORE PUSH1 0x20 ADD PUSH1 0x5 DUP3 ADD SLOAD DUP2 MSTORE POP POP DUP2 MSTORE PUSH1 0x20 ADD PUSH1 0xF DUP3 ADD SLOAD DUP2 MSTORE PUSH1 0x20 ADD PUSH1 0x10 DUP3 ADD SLOAD DUP2 MSTORE POP POP SWAP1 POP SWAP2 SWAP1 POP JUMP JUMPDEST PUSH1 0x0 SLOAD PUSH1 0x1 PUSH1 0x1 PUSH1 0xA0 SHL SUB AND CALLER EQ PUSH2 0xB9E JUMPI PUSH1 0x40 MLOAD PUSH3 0x461BCD PUSH1 0xE5 SHL DUP2 MSTORE PUSH1 0x4 ADD PUSH2 0x818 SWAP1 PUSH2 0x35C3 JUMP JUMPDEST PUSH1 0x1 PUSH1 0x1 PUSH1 0xA0 SHL SUB AND PUSH1 0x0 SWAP1 DUP2 MSTORE PUSH1 0xE PUSH1 0x20 MSTORE PUSH1 0x40 SWAP1 KECCAK256 DUP1 SLOAD PUSH1 0xFF NOT AND SWAP1 SSTORE JUMP JUMPDEST PUSH2 0xBC8 DUP3 PUSH2 0x251F JUMP JUMPDEST PUSH2 0xBD1 DUP2 PUSH2 0x255E JUMP JUMPDEST POP PUSH1 0x1 PUSH1 0x1 PUSH1 0xA0 SHL SUB SWAP2 DUP3 AND PUSH1 0x0 SWAP1 DUP2 MSTORE PUSH1 0x10 PUSH1 0x20 SWAP1 DUP2 MSTORE PUSH1 0x40 DUP1 DUP4 KECCAK256 SWAP4 SWAP1 SWAP5 AND DUP3 MSTORE SWAP2 SWAP1 SWAP2 MSTORE KECCAK256 DUP1 SLOAD PUSH1 0xFF NOT AND SWAP1 SSTORE JUMP JUMPDEST PUSH1 0x0 SLOAD PUSH1 0x1 PUSH1 0x1 PUSH1 0xA0 SHL SUB AND CALLER EQ PUSH2 0xC2D JUMPI PUSH1 0x40 MLOAD PUSH3 0x461BCD PUSH1 0xE5 SHL DUP2 MSTORE PUSH1 0x4 ADD PUSH2 0x818 SWAP1 PUSH2 0x35C3 JUMP JUMPDEST PUSH1 0x2 DUP1 SLOAD PUSH1 0x1 PUSH1 0x1 PUSH1 0xA0 SHL SUB NOT AND PUSH1 0x1 PUSH1 0x1 PUSH1 0xA0 SHL SUB SWAP3 SWAP1 SWAP3 AND SWAP2 SWAP1 SWAP2 OR SWAP1 SSTORE JUMP JUMPDEST PUSH1 0x0 SLOAD PUSH1 0x1 PUSH1 0x1 PUSH1 0xA0 SHL SUB AND CALLER EQ PUSH2 0xC79 JUMPI PUSH1 0x40 MLOAD PUSH3 0x461BCD PUSH1 0xE5 SHL DUP2 MSTORE PUSH1 0x4 ADD PUSH2 0x818 SWAP1 PUSH2 0x35C3 JUMP JUMPDEST PUSH1 0x3 SWAP2 SWAP1 SWAP2 SSTORE PUSH1 0x4 SSTORE JUMP JUMPDEST PUSH1 0x0 DUP3 DUP2 MSTORE PUSH1 0x1 PUSH1 0x20 DUP2 SWAP1 MSTORE PUSH1 0x40 SWAP1 SWAP2 KECCAK256 ADD SLOAD PUSH2 0xCA0 DUP2 PUSH2 0x255E JUMP JUMPDEST PUSH2 0xCAA DUP4 DUP4 PUSH2 0x2568 JUMP JUMPDEST POP POP POP JUMP JUMPDEST PUSH2 0xCB8 DUP3 PUSH2 0x251F JUMP JUMPDEST PUSH2 0xCC1 DUP2 PUSH2 0x255E JUMP JUMPDEST PUSH2 0xCCA DUP4 PUSH2 0x1F80 JUMP JUMPDEST PUSH2 0xCE6 JUMPI PUSH1 0x40 MLOAD PUSH3 0x461BCD PUSH1 0xE5 SHL DUP2 MSTORE PUSH1 0x4 ADD PUSH2 0x818 SWAP1 PUSH2 0x35F8 JUMP JUMPDEST PUSH1 0x0 DUP3 GT PUSH2 0xD06 JUMPI PUSH1 0x40 MLOAD PUSH3 0x461BCD PUSH1 0xE5 SHL DUP2 MSTORE PUSH1 0x4 ADD PUSH2 0x818 SWAP1 PUSH2 0x3661 JUMP JUMPDEST DUP2 PUSH1 0x1 PUSH1 0x1 PUSH1 0xA0 SHL SUB DUP5 AND PUSH4 0x70A08231 CALLER PUSH1 0x40 MLOAD PUSH1 0x1 PUSH1 0x1 PUSH1 0xE0 SHL SUB NOT PUSH1 0xE0 DUP5 SWAP1 SHL AND DUP2 MSTORE PUSH1 0x1 PUSH1 0x1 PUSH1 0xA0 SHL SUB SWAP1 SWAP2 AND PUSH1 0x4 DUP3 ADD MSTORE PUSH1 0x24 ADD PUSH1 0x20 PUSH1 0x40 MLOAD DUP1 DUP4 SUB DUP2 DUP7 GAS STATICCALL ISZERO DUP1 ISZERO PUSH2 0xD5B JUMPI RETURNDATASIZE PUSH1 0x0 DUP1 RETURNDATACOPY RETURNDATASIZE PUSH1 0x0 REVERT JUMPDEST POP POP POP POP PUSH1 0x40 MLOAD RETURNDATASIZE PUSH1 0x1F NOT PUSH1 0x1F DUP3 ADD AND DUP3 ADD DUP1 PUSH1 0x40 MSTORE POP DUP2 ADD SWAP1 PUSH2 0xD7F SWAP2 SWAP1 PUSH2 0x36A2 JUMP JUMPDEST LT ISZERO PUSH2 0xDCD JUMPI PUSH1 0x40 MLOAD PUSH3 0x461BCD PUSH1 0xE5 SHL DUP2 MSTORE PUSH1 0x20 PUSH1 0x4 DUP3 ADD MSTORE PUSH1 0x1C PUSH1 0x24 DUP3 ADD MSTORE PUSH32 0x496E73756666696369656E742077616C6C65742062616C616E63652E00000000 PUSH1 0x44 DUP3 ADD MSTORE PUSH1 0x64 ADD PUSH2 0x818 JUMP JUMPDEST PUSH1 0x0 DUP1 PUSH2 0xDFA DUP6 DUP6 PUSH1 0x40 MLOAD DUP1 PUSH1 0x40 ADD PUSH1 0x40 MSTORE DUP1 PUSH1 0x7 DUP2 MSTORE PUSH1 0x20 ADD PUSH7 0x19195C1BDCDA5D PUSH1 0xCA SHL DUP2 MSTORE POP PUSH2 0x13B8 JUMP JUMPDEST SWAP2 POP SWAP2 POP DUP2 PUSH1 0x0 EQ PUSH2 0xE93 JUMPI PUSH1 0x1 PUSH1 0x1 PUSH1 0xA0 SHL SUB DUP6 AND PUSH4 0x23B872DD CALLER PUSH1 0x2 SLOAD PUSH1 0x40 MLOAD PUSH1 0xE0 DUP5 SWAP1 SHL PUSH1 0x1 PUSH1 0x1 PUSH1 0xE0 SHL SUB NOT AND DUP2 MSTORE PUSH1 0x1 PUSH1 0x1 PUSH1 0xA0 SHL SUB SWAP3 DUP4 AND PUSH1 0x4 DUP3 ADD MSTORE SWAP2 AND PUSH1 0x24 DUP3 ADD MSTORE PUSH1 0x44 DUP2 ADD DUP6 SWAP1 MSTORE PUSH1 0x64 ADD PUSH1 0x20 PUSH1 0x40 MLOAD DUP1 DUP4 SUB DUP2 PUSH1 0x0 DUP8 GAS CALL ISZERO DUP1 ISZERO PUSH2 0xE6D JUMPI RETURNDATASIZE PUSH1 0x0 DUP1 RETURNDATACOPY RETURNDATASIZE PUSH1 0x0 REVERT JUMPDEST POP POP POP POP PUSH1 0x40 MLOAD RETURNDATASIZE PUSH1 0x1F NOT PUSH1 0x1F DUP3 ADD AND DUP3 ADD DUP1 PUSH1 0x40 MSTORE POP DUP2 ADD SWAP1 PUSH2 0xE91 SWAP2 SWAP1 PUSH2 0x36BB JUMP JUMPDEST POP JUMPDEST PUSH1 0x0 PUSH2 0xE9F DUP4 DUP7 PUSH2 0x36F3 JUMP JUMPDEST SWAP1 POP PUSH1 0x1 PUSH1 0x1 PUSH1 0xA0 SHL SUB DUP7 AND PUSH4 0x23B872DD CALLER PUSH1 0x40 MLOAD PUSH1 0x1 PUSH1 0x1 PUSH1 0xE0 SHL SUB NOT PUSH1 0xE0 DUP5 SWAP1 SHL AND DUP2 MSTORE PUSH1 0x1 PUSH1 0x1 PUSH1 0xA0 SHL SUB SWAP1 SWAP2 AND PUSH1 0x4 DUP3 ADD MSTORE ADDRESS PUSH1 0x24 DUP3 ADD MSTORE PUSH1 0x44 DUP2 ADD DUP5 SWAP1 MSTORE PUSH1 0x64 ADD PUSH1 0x20 PUSH1 0x40 MLOAD DUP1 DUP4 SUB DUP2 PUSH1 0x0 DUP8 GAS CALL ISZERO DUP1 ISZERO PUSH2 0xF04 JUMPI RETURNDATASIZE PUSH1 0x0 DUP1 RETURNDATACOPY RETURNDATASIZE PUSH1 0x0 REVERT JUMPDEST POP POP POP POP PUSH1 0x40 MLOAD RETURNDATASIZE PUSH1 0x1F NOT PUSH1 0x1F DUP3 ADD AND DUP3 ADD DUP1 PUSH1 0x40 MSTORE POP DUP2 ADD SWAP1 PUSH2 0xF28 SWAP2 SWAP1 PUSH2 0x36BB JUMP JUMPDEST POP PUSH1 0x1 PUSH1 0x1 PUSH1 0xA0 SHL SUB DUP7 AND PUSH1 0x0 SWAP1 DUP2 MSTORE PUSH1 0x12 PUSH1 0x20 MSTORE PUSH1 0x40 DUP2 KECCAK256 PUSH1 0x4 ADD DUP1 SLOAD DUP4 SWAP3 SWAP1 PUSH2 0xF54 SWAP1 DUP5 SWAP1 PUSH2 0x370A JUMP JUMPDEST SWAP1 SWAP2 SSTORE POP POP POP POP POP POP POP POP JUMP JUMPDEST PUSH1 0x1 PUSH1 0x1 PUSH1 0xA0 SHL SUB DUP2 AND PUSH1 0x0 SWAP1 DUP2 MSTORE PUSH1 0x12 PUSH1 0x20 MSTORE PUSH1 0x40 DUP2 KECCAK256 PUSH1 0x3 DUP2 ADD SLOAD PUSH1 0x4 SWAP1 SWAP2 ADD SLOAD PUSH2 0x860 SWAP2 PUSH2 0xF91 SWAP2 PUSH2 0x3722 JUMP JUMPDEST PUSH2 0x25D3 JUMP JUMPDEST PUSH1 0x1 PUSH1 0x1 PUSH1 0xA0 SHL SUB DUP2 AND CALLER EQ PUSH2 0x1006 JUMPI PUSH1 0x40 MLOAD PUSH3 0x461BCD PUSH1 0xE5 SHL DUP2 MSTORE PUSH1 0x20 PUSH1 0x4 DUP3 ADD MSTORE PUSH1 0x2F PUSH1 0x24 DUP3 ADD MSTORE PUSH32 0x416363657373436F6E74726F6C3A2063616E206F6E6C792072656E6F756E6365 PUSH1 0x44 DUP3 ADD MSTORE PUSH15 0x103937B632B9903337B91039B2B633 PUSH1 0x89 SHL PUSH1 0x64 DUP3 ADD MSTORE PUSH1 0x84 ADD PUSH2 0x818 JUMP JUMPDEST PUSH2 0x1010 DUP3 DUP3 PUSH2 0x25E7 JUMP JUMPDEST POP POP JUMP JUMPDEST PUSH1 0xF PUSH1 0x20 MSTORE PUSH1 0x0 SWAP1 DUP2 MSTORE PUSH1 0x40 SWAP1 KECCAK256 DUP1 SLOAD PUSH2 0x102D SWAP1 PUSH2 0x3627 JUMP JUMPDEST DUP1 PUSH1 0x1F ADD PUSH1 0x20 DUP1 SWAP2 DIV MUL PUSH1 0x20 ADD PUSH1 0x40 MLOAD SWAP1 DUP2 ADD PUSH1 0x40 MSTORE DUP1 SWAP3 SWAP2 SWAP1 DUP2 DUP2 MSTORE PUSH1 0x20 ADD DUP3 DUP1 SLOAD PUSH2 0x1059 SWAP1 PUSH2 0x3627 JUMP JUMPDEST DUP1 ISZERO PUSH2 0x10A6 JUMPI DUP1 PUSH1 0x1F LT PUSH2 0x107B JUMPI PUSH2 0x100 DUP1 DUP4 SLOAD DIV MUL DUP4 MSTORE SWAP2 PUSH1 0x20 ADD SWAP2 PUSH2 0x10A6 JUMP JUMPDEST DUP3 ADD SWAP2 SWAP1 PUSH1 0x0 MSTORE PUSH1 0x20 PUSH1 0x0 KECCAK256 SWAP1 JUMPDEST DUP2 SLOAD DUP2 MSTORE SWAP1 PUSH1 0x1 ADD SWAP1 PUSH1 0x20 ADD DUP1 DUP4 GT PUSH2 0x1089 JUMPI DUP3 SWAP1 SUB PUSH1 0x1F AND DUP3 ADD SWAP2 JUMPDEST POP POP POP POP POP DUP2 JUMP JUMPDEST PUSH1 0x0 SLOAD PUSH1 0x1 PUSH1 0x1 PUSH1 0xA0 SHL SUB AND CALLER EQ PUSH2 0x10D8 JUMPI PUSH1 0x40 MLOAD PUSH3 0x461BCD PUSH1 0xE5 SHL DUP2 MSTORE PUSH1 0x4 ADD PUSH2 0x818 SWAP1 PUSH2 0x35C3 JUMP JUMPDEST PUSH2 0x10E1 DUP2 PUSH2 0x1F80 JUMP JUMPDEST PUSH2 0x10FD JUMPI PUSH1 0x40 MLOAD PUSH3 0x461BCD PUSH1 0xE5 SHL DUP2 MSTORE PUSH1 0x4 ADD PUSH2 0x818 SWAP1 PUSH2 0x35F8 JUMP JUMPDEST PUSH1 0x1 PUSH1 0x1 PUSH1 0xA0 SHL SUB AND PUSH1 0x0 SWAP1 DUP2 MSTORE PUSH1 0x12 PUSH1 0x20 MSTORE PUSH1 0x40 SWAP1 KECCAK256 DUP1 SLOAD PUSH2 0xFF00 NOT AND PUSH2 0x100 OR SWAP1 SSTORE JUMP JUMPDEST PUSH1 0x0 SLOAD PUSH1 0x1 PUSH1 0x1 PUSH1 0xA0 SHL SUB AND CALLER EQ PUSH2 0x114D JUMPI PUSH1 0x40 MLOAD PUSH3 0x461BCD PUSH1 0xE5 SHL DUP2 MSTORE PUSH1 0x4 ADD PUSH2 0x818 SWAP1 PUSH2 0x35C3 JUMP JUMPDEST PUSH2 0x1156 DUP3 PUSH2 0x1F80 JUMP JUMPDEST PUSH2 0x1172 JUMPI PUSH1 0x40 MLOAD PUSH3 0x461BCD PUSH1 0xE5 SHL DUP2 MSTORE PUSH1 0x4 ADD PUSH2 0x818 SWAP1 PUSH2 0x35F8 JUMP JUMPDEST PUSH1 0x1 PUSH1 0x1 PUSH1 0xA0 SHL SUB SWAP1 SWAP2 AND PUSH1 0x0 SWAP1 DUP2 MSTORE PUSH1 0x12 PUSH1 0x20 MSTORE PUSH1 0x40 SWAP1 KECCAK256 PUSH1 0x3 DUP2 ADD SWAP2 SWAP1 SWAP2 SSTORE TIMESTAMP PUSH1 0x10 SWAP1 SWAP2 ADD SSTORE JUMP JUMPDEST PUSH1 0x0 SLOAD PUSH1 0x1 PUSH1 0x1 PUSH1 0xA0 SHL SUB AND CALLER EQ PUSH2 0x11C6 JUMPI PUSH1 0x40 MLOAD PUSH3 0x461BCD PUSH1 0xE5 SHL DUP2 MSTORE PUSH1 0x4 ADD PUSH2 0x818 SWAP1 PUSH2 0x35C3 JUMP JUMPDEST PUSH2 0x11CF DUP3 PUSH2 0x1F80 JUMP JUMPDEST PUSH2 0x11EB JUMPI PUSH1 0x40 MLOAD PUSH3 0x461BCD PUSH1 0xE5 SHL DUP2 MSTORE PUSH1 0x4 ADD PUSH2 0x818 SWAP1 PUSH2 0x35F8 JUMP JUMPDEST PUSH1 0x0 DUP1 SLOAD PUSH1 0x1 PUSH1 0x1 PUSH1 0xA0 SHL SUB DUP5 DUP2 AND DUP4 MSTORE PUSH1 0x12 PUSH1 0x20 MSTORE PUSH1 0x40 SWAP1 SWAP3 KECCAK256 PUSH1 0x8 ADD SLOAD DUP3 AND SWAP2 AND EQ PUSH2 0x1242 JUMPI PUSH2 0x1242 PUSH2 0x121F DUP4 PUSH2 0x251F JUMP JUMPDEST PUSH1 0x1 PUSH1 0x1 PUSH1 0xA0 SHL SUB DUP1 DUP6 AND PUSH1 0x0 SWAP1 DUP2 MSTORE PUSH1 0x12 PUSH1 0x20 MSTORE PUSH1 0x40 SWAP1 KECCAK256 PUSH1 0x8 ADD SLOAD AND PUSH2 0x220D JUMP JUMPDEST PUSH1 0x1 PUSH1 0x1 PUSH1 0xA0 SHL SUB DUP3 DUP2 AND PUSH1 0x0 SWAP1 DUP2 MSTORE PUSH1 0x12 PUSH1 0x20 MSTORE PUSH1 0x40 SWAP1 KECCAK256 PUSH1 0x8 DUP2 ADD DUP1 SLOAD PUSH1 0x1 PUSH1 0x1 PUSH1 0xA0 SHL SUB NOT AND SWAP3 DUP5 AND SWAP3 SWAP1 SWAP3 OR SWAP1 SWAP2 SSTORE TIMESTAMP PUSH1 0x10 SWAP1 SWAP2 ADD SSTORE PUSH2 0x1010 PUSH2 0x1288 DUP4 PUSH2 0x251F JUMP JUMPDEST PUSH1 0x1 PUSH1 0x1 PUSH1 0xA0 SHL SUB DUP1 DUP6 AND PUSH1 0x0 SWAP1 DUP2 MSTORE PUSH1 0x12 PUSH1 0x20 MSTORE PUSH1 0x40 SWAP1 KECCAK256 PUSH1 0x8 ADD SLOAD AND PUSH2 0xC84 JUMP JUMPDEST PUSH1 0x11 DUP2 DUP2 SLOAD DUP2 LT PUSH2 0x12BB JUMPI PUSH1 0x0 DUP1 REVERT JUMPDEST PUSH1 0x0 SWAP2 DUP3 MSTORE PUSH1 0x20 SWAP1 SWAP2 KECCAK256 ADD SLOAD PUSH1 0x1 PUSH1 0x1 PUSH1 0xA0 SHL SUB AND SWAP1 POP DUP2 JUMP JUMPDEST PUSH1 0x0 SLOAD PUSH1 0x1 PUSH1 0x1 PUSH1 0xA0 SHL SUB AND CALLER EQ PUSH2 0x12FF JUMPI PUSH1 0x40 MLOAD PUSH3 0x461BCD PUSH1 0xE5 SHL DUP2 MSTORE PUSH1 0x4 ADD PUSH2 0x818 SWAP1 PUSH2 0x35C3 JUMP JUMPDEST PUSH1 0x0 DUP3 DUP2 MSTORE PUSH1 0xF PUSH1 0x20 SWAP1 DUP2 MSTORE PUSH1 0x40 SWAP1 SWAP2 KECCAK256 DUP3 MLOAD PUSH2 0xCAA SWAP3 DUP5 ADD SWAP1 PUSH2 0x2EBC JUMP JUMPDEST PUSH2 0x1327 DUP4 PUSH2 0x251F JUMP JUMPDEST PUSH2 0x1330 DUP2 PUSH2 0x255E JUMP JUMPDEST PUSH2 0x1359 DUP5 DUP5 DUP5 PUSH1 0x40 MLOAD DUP1 PUSH1 0x40 ADD PUSH1 0x40 MSTORE DUP1 PUSH1 0x5 DUP2 MSTORE PUSH1 0x20 ADD PUSH5 0x30B236B4B7 PUSH1 0xD9 SHL DUP2 MSTORE POP PUSH2 0x264E JUMP JUMPDEST POP POP POP POP JUMP JUMPDEST PUSH2 0x1368 DUP2 PUSH2 0x251F JUMP JUMPDEST PUSH2 0x1371 DUP2 PUSH2 0x255E JUMP JUMPDEST PUSH2 0x137A DUP3 PUSH2 0x1F80 JUMP JUMPDEST PUSH2 0x1396 JUMPI PUSH1 0x40 MLOAD PUSH3 0x461BCD PUSH1 0xE5 SHL DUP2 MSTORE PUSH1 0x4 ADD PUSH2 0x818 SWAP1 PUSH2 0x35F8 JUMP JUMPDEST POP PUSH1 0x1 PUSH1 0x1 PUSH1 0xA0 SHL SUB AND PUSH1 0x0 SWAP1 DUP2 MSTORE PUSH1 0x12 PUSH1 0x20 MSTORE PUSH1 0x40 SWAP1 KECCAK256 DUP1 SLOAD PUSH1 0xFF NOT AND SWAP1 SSTORE JUMP JUMPDEST PUSH1 0x0 DUP1 PUSH2 0x13C4 DUP6 PUSH2 0x1F80 JUMP JUMPDEST PUSH2 0x13E0 JUMPI PUSH1 0x40 MLOAD PUSH3 0x461BCD PUSH1 0xE5 SHL DUP2 MSTORE PUSH1 0x4 ADD PUSH2 0x818 SWAP1 PUSH2 0x35F8 JUMP JUMPDEST PUSH1 0x0 DUP5 GT PUSH2 0x1400 JUMPI PUSH1 0x40 MLOAD PUSH3 0x461BCD PUSH1 0xE5 SHL DUP2 MSTORE PUSH1 0x4 ADD PUSH2 0x818 SWAP1 PUSH2 0x3661 JUMP JUMPDEST PUSH1 0x0 DUP1 PUSH1 0x40 MLOAD PUSH1 0x20 ADD PUSH2 0x1420 SWAP1 PUSH7 0x19195C1BDCDA5D PUSH1 0xCA SHL DUP2 MSTORE PUSH1 0x7 ADD SWAP1 JUMP JUMPDEST PUSH1 0x40 MLOAD PUSH1 0x20 DUP2 DUP4 SUB SUB DUP2 MSTORE SWAP1 PUSH1 0x40 MSTORE DUP1 MLOAD SWAP1 PUSH1 0x20 ADD KECCAK256 DUP6 PUSH1 0x40 MLOAD PUSH1 0x20 ADD PUSH2 0x1447 SWAP2 SWAP1 PUSH2 0x3741 JUMP JUMPDEST PUSH1 0x40 MLOAD PUSH1 0x20 DUP2 DUP4 SUB SUB DUP2 MSTORE SWAP1 PUSH1 0x40 MSTORE DUP1 MLOAD SWAP1 PUSH1 0x20 ADD KECCAK256 SUB PUSH2 0x14B1 JUMPI PUSH1 0x1 PUSH1 0x1 PUSH1 0xA0 SHL SUB DUP8 AND PUSH1 0x0 SWAP1 DUP2 MSTORE PUSH1 0x12 PUSH1 0x20 MSTORE PUSH1 0x40 SWAP1 KECCAK256 PUSH1 0x9 ADD SLOAD PUSH1 0x1 LT PUSH2 0x148D JUMPI PUSH1 0xD SLOAD PUSH2 0x14AA JUMP JUMPDEST PUSH1 0x1 PUSH1 0x1 PUSH1 0xA0 SHL SUB DUP8 AND PUSH1 0x0 SWAP1 DUP2 MSTORE PUSH1 0x12 PUSH1 0x20 MSTORE PUSH1 0x40 SWAP1 KECCAK256 PUSH1 0x9 ADD SLOAD JUMPDEST SWAP2 POP PUSH2 0x1736 JUMP JUMPDEST PUSH1 0x40 MLOAD PUSH8 0x7769746864726177 PUSH1 0xC0 SHL PUSH1 0x20 DUP3 ADD MSTORE PUSH1 0x28 ADD PUSH1 0x40 MLOAD PUSH1 0x20 DUP2 DUP4 SUB SUB DUP2 MSTORE SWAP1 PUSH1 0x40 MSTORE DUP1 MLOAD SWAP1 PUSH1 0x20 ADD KECCAK256 DUP6 PUSH1 0x40 MLOAD PUSH1 0x20 ADD PUSH2 0x14EF SWAP2 SWAP1 PUSH2 0x3741 JUMP JUMPDEST PUSH1 0x40 MLOAD PUSH1 0x20 DUP2 DUP4 SUB SUB DUP2 MSTORE SWAP1 PUSH1 0x40 MSTORE DUP1 MLOAD SWAP1 PUSH1 0x20 ADD KECCAK256 SUB PUSH2 0x1558 JUMPI PUSH1 0x1 PUSH1 0x1 PUSH1 0xA0 SHL SUB DUP8 AND PUSH1 0x0 SWAP1 DUP2 MSTORE PUSH1 0x12 PUSH1 0x20 MSTORE PUSH1 0x40 SWAP1 KECCAK256 PUSH1 0xA ADD SLOAD PUSH1 0x1 LT PUSH2 0x1535 JUMPI PUSH1 0xD SLOAD PUSH2 0x14AA JUMP JUMPDEST PUSH1 0x1 PUSH1 0x1 PUSH1 0xA0 SHL SUB DUP8 AND PUSH1 0x0 SWAP1 DUP2 MSTORE PUSH1 0x12 PUSH1 0x20 MSTORE PUSH1 0x40 SWAP1 KECCAK256 PUSH1 0xA ADD SLOAD SWAP2 POP PUSH2 0x1736 JUMP JUMPDEST PUSH1 0x40 MLOAD PUSH5 0x7374616B65 PUSH1 0xD8 SHL PUSH1 0x20 DUP3 ADD MSTORE PUSH1 0x25 ADD PUSH1 0x40 MLOAD PUSH1 0x20 DUP2 DUP4 SUB SUB DUP2 MSTORE SWAP1 PUSH1 0x40 MSTORE DUP1 MLOAD SWAP1 PUSH1 0x20 ADD KECCAK256 DUP6 PUSH1 0x40 MLOAD PUSH1 0x20 ADD PUSH2 0x1593 SWAP2 SWAP1 PUSH2 0x3741 JUMP JUMPDEST PUSH1 0x40 MLOAD PUSH1 0x20 DUP2 DUP4 SUB SUB DUP2 MSTORE SWAP1 PUSH1 0x40 MSTORE DUP1 MLOAD SWAP1 PUSH1 0x20 ADD KECCAK256 SUB PUSH2 0x1648 JUMPI PUSH1 0x1 PUSH1 0x1 PUSH1 0xA0 SHL SUB DUP8 AND PUSH1 0x0 SWAP1 DUP2 MSTORE PUSH1 0x12 PUSH1 0x20 MSTORE PUSH1 0x40 SWAP1 KECCAK256 PUSH1 0xB ADD SLOAD PUSH1 0x1 LT PUSH2 0x15D9 JUMPI PUSH1 0xA SLOAD PUSH2 0x15F6 JUMP JUMPDEST PUSH1 0x1 PUSH1 0x1 PUSH1 0xA0 SHL SUB DUP8 AND PUSH1 0x0 SWAP1 DUP2 MSTORE PUSH1 0x12 PUSH1 0x20 MSTORE PUSH1 0x40 SWAP1 KECCAK256 PUSH1 0xB ADD SLOAD JUMPDEST PUSH1 0x1 PUSH1 0x1 PUSH1 0xA0 SHL SUB DUP9 AND PUSH1 0x0 SWAP1 DUP2 MSTORE PUSH1 0x12 PUSH1 0x20 MSTORE PUSH1 0x40 SWAP1 KECCAK256 PUSH1 0xD ADD SLOAD SWAP1 SWAP3 POP PUSH1 0x1 LT PUSH2 0x1624 JUMPI PUSH1 0xA SLOAD PUSH2 0x1641 JUMP JUMPDEST PUSH1 0x1 PUSH1 0x1 PUSH1 0xA0 SHL SUB DUP8 AND PUSH1 0x0 SWAP1 DUP2 MSTORE PUSH1 0x12 PUSH1 0x20 MSTORE PUSH1 0x40 SWAP1 KECCAK256 PUSH1 0xD ADD SLOAD JUMPDEST SWAP1 POP PUSH2 0x1736 JUMP JUMPDEST PUSH1 0x40 MLOAD PUSH7 0x756E7374616B65 PUSH1 0xC8 SHL PUSH1 0x20 DUP3 ADD MSTORE PUSH1 0x27 ADD PUSH1 0x40 MLOAD PUSH1 0x20 DUP2 DUP4 SUB SUB DUP2 MSTORE SWAP1 PUSH1 0x40 MSTORE DUP1 MLOAD SWAP1 PUSH1 0x20 ADD KECCAK256 DUP6 PUSH1 0x40 MLOAD PUSH1 0x20 ADD PUSH2 0x1685 SWAP2 SWAP1 PUSH2 0x3741 JUMP JUMPDEST PUSH1 0x40 MLOAD PUSH1 0x20 DUP2 DUP4 SUB SUB DUP2 MSTORE SWAP1 PUSH1 0x40 MSTORE DUP1 MLOAD SWAP1 PUSH1 0x20 ADD KECCAK256 SUB PUSH2 0x1736 JUMPI PUSH1 0x1 PUSH1 0x1 PUSH1 0xA0 SHL SUB DUP8 AND PUSH1 0x0 SWAP1 DUP2 MSTORE PUSH1 0x12 PUSH1 0x20 MSTORE PUSH1 0x40 SWAP1 KECCAK256 PUSH1 0xC ADD SLOAD PUSH1 0x1 LT PUSH2 0x16CB JUMPI PUSH1 0xA SLOAD PUSH2 0x16E8 JUMP JUMPDEST PUSH1 0x1 PUSH1 0x1 PUSH1 0xA0 SHL SUB DUP8 AND PUSH1 0x0 SWAP1 DUP2 MSTORE PUSH1 0x12 PUSH1 0x20 MSTORE PUSH1 0x40 SWAP1 KECCAK256 PUSH1 0xC ADD SLOAD JUMPDEST PUSH1 0x1 PUSH1 0x1 PUSH1 0xA0 SHL SUB DUP9 AND PUSH1 0x0 SWAP1 DUP2 MSTORE PUSH1 0x12 PUSH1 0x20 MSTORE PUSH1 0x40 SWAP1 KECCAK256 PUSH1 0xE ADD SLOAD SWAP1 SWAP3 POP PUSH1 0x1 LT PUSH2 0x1716 JUMPI PUSH1 0xA SLOAD PUSH2 0x1733 JUMP JUMPDEST PUSH1 0x1 PUSH1 0x1 PUSH1 0xA0 SHL SUB DUP8 AND PUSH1 0x0 SWAP1 DUP2 MSTORE PUSH1 0x12 PUSH1 0x20 MSTORE PUSH1 0x40 SWAP1 KECCAK256 PUSH1 0xE ADD SLOAD JUMPDEST SWAP1 POP JUMPDEST PUSH1 0x0 PUSH2 0x1742 DUP4 DUP9 PUSH2 0x2865 JUMP JUMPDEST SWAP1 POP PUSH1 0x0 PUSH2 0x1750 DUP4 DUP10 PUSH2 0x2865 JUMP JUMPDEST CALLER PUSH1 0x0 DUP2 DUP2 MSTORE PUSH1 0xE PUSH1 0x20 SWAP1 DUP2 MSTORE PUSH1 0x40 DUP1 DUP4 KECCAK256 SLOAD PUSH1 0x1 PUSH1 0x1 PUSH1 0xA0 SHL SUB DUP16 AND DUP5 MSTORE PUSH1 0x10 DUP4 MSTORE DUP2 DUP5 KECCAK256 SWAP5 DUP5 MSTORE SWAP4 SWAP1 SWAP2 MSTORE SWAP1 KECCAK256 SLOAD SWAP2 SWAP3 POP PUSH1 0xFF SWAP1 DUP2 AND SWAP2 AND DUP2 ISZERO PUSH2 0x179D JUMPI PUSH1 0x0 SWAP4 POP PUSH1 0x0 SWAP3 POP PUSH2 0x17A8 JUMP JUMPDEST DUP1 ISZERO PUSH2 0x17A8 JUMPI PUSH1 0x0 SWAP3 POP JUMPDEST POP SWAP2 SWAP10 SWAP1 SWAP9 POP SWAP7 POP POP POP POP POP POP POP JUMP JUMPDEST PUSH1 0x0 SLOAD PUSH1 0x1 PUSH1 0x1 PUSH1 0xA0 SHL SUB AND CALLER EQ PUSH2 0x17E2 JUMPI PUSH1 0x40 MLOAD PUSH3 0x461BCD PUSH1 0xE5 SHL DUP2 MSTORE PUSH1 0x4 ADD PUSH2 0x818 SWAP1 PUSH2 0x35C3 JUMP JUMPDEST PUSH2 0x17EC PUSH1 0x0 PUSH2 0x288D JUMP JUMPDEST JUMP JUMPDEST PUSH2 0x17F7 DUP3 PUSH2 0x251F JUMP JUMPDEST PUSH2 0x1800 DUP2 PUSH2 0x255E JUMP JUMPDEST PUSH2 0x1809 DUP4 PUSH2 0x1F80 JUMP JUMPDEST PUSH2 0x1825 JUMPI PUSH1 0x40 MLOAD PUSH3 0x461BCD PUSH1 0xE5 SHL DUP2 MSTORE PUSH1 0x4 ADD PUSH2 0x818 SWAP1 PUSH2 0x35F8 JUMP JUMPDEST PUSH1 0x5 SLOAD DUP3 LT DUP1 ISZERO SWAP1 PUSH2 0x1839 JUMPI POP PUSH1 0x6 SLOAD DUP3 GT ISZERO JUMPDEST PUSH2 0x184F PUSH2 0x184A PUSH1 0x2 PUSH1 0x3 ADD SLOAD PUSH2 0x25D3 JUMP JUMPDEST PUSH2 0x28DD JUMP JUMPDEST PUSH2 0x1860 PUSH2 0x184A PUSH1 0x2 PUSH1 0x4 ADD SLOAD PUSH2 0x25D3 JUMP JUMPDEST PUSH1 0x40 MLOAD PUSH1 0x20 ADD PUSH2 0x1871 SWAP3 SWAP2 SWAP1 PUSH2 0x375D JUMP JUMPDEST PUSH1 0x40 MLOAD PUSH1 0x20 DUP2 DUP4 SUB SUB DUP2 MSTORE SWAP1 PUSH1 0x40 MSTORE SWAP1 PUSH2 0x189E JUMPI PUSH1 0x40 MLOAD PUSH3 0x461BCD PUSH1 0xE5 SHL DUP2 MSTORE PUSH1 0x4 ADD PUSH2 0x818 SWAP2 SWAP1 PUSH2 0x3225 JUMP JUMPDEST POP POP PUSH1 0x1 PUSH1 0x1 PUSH1 0xA0 SHL SUB SWAP1 SWAP2 AND PUSH1 0x0 SWAP1 DUP2 MSTORE PUSH1 0x12 PUSH1 0x20 MSTORE PUSH1 0x40 SWAP1 KECCAK256 PUSH1 0x6 DUP2 ADD SWAP2 SWAP1 SWAP2 SSTORE TIMESTAMP PUSH1 0x10 SWAP1 SWAP2 ADD SSTORE JUMP JUMPDEST PUSH1 0x2 DUP1 SLOAD PUSH1 0x1 PUSH1 0x1 PUSH1 0xA0 SHL SUB NOT AND CALLER OR DUP2 SSTORE PUSH1 0x3 SSTORE PUSH1 0xF PUSH1 0x4 SSTORE PUSH2 0x18EE PUSH1 0x32 PUSH2 0x29E6 JUMP JUMPDEST PUSH1 0x5 SSTORE PUSH2 0x18FC PUSH2 0x3E8 PUSH2 0x29E6 JUMP JUMPDEST PUSH1 0x6 SSTORE PUSH2 0x1909 PUSH1 0x64 PUSH2 0x29E6 JUMP JUMPDEST PUSH1 0x7 SSTORE PUSH1 0x0 PUSH1 0x8 SSTORE PUSH2 0x191B PUSH1 0xA PUSH2 0x29E6 JUMP JUMPDEST PUSH1 0x9 SSTORE PUSH2 0x1928 PUSH1 0x1 PUSH2 0x29E6 JUMP JUMPDEST PUSH1 0xA SWAP1 DUP2 SSTORE PUSH1 0x0 PUSH1 0xB SSTORE PUSH2 0x193B SWAP1 PUSH2 0x29E6 JUMP JUMPDEST PUSH1 0xC SSTORE PUSH2 0x1948 PUSH1 0x1 PUSH2 0x29E6 JUMP JUMPDEST PUSH1 0xD SSTORE PUSH2 0x1956 PUSH1 0x0 CALLER PUSH2 0x29FA JUMP JUMPDEST PUSH2 0x17EC CALLER PUSH2 0x288D JUMP JUMPDEST PUSH1 0x0 SLOAD PUSH1 0x1 PUSH1 0x1 PUSH1 0xA0 SHL SUB AND CALLER EQ PUSH2 0x1989 JUMPI PUSH1 0x40 MLOAD PUSH3 0x461BCD PUSH1 0xE5 SHL DUP2 MSTORE PUSH1 0x4 ADD PUSH2 0x818 SWAP1 PUSH2 0x35C3 JUMP JUMPDEST PUSH2 0xCAA DUP4 DUP4 DUP4 PUSH1 0x40 MLOAD DUP1 PUSH1 0x40 ADD PUSH1 0x40 MSTORE DUP1 PUSH1 0x3 DUP2 MSTORE PUSH1 0x20 ADD PUSH3 0x3232BB PUSH1 0xE9 SHL DUP2 MSTORE POP PUSH2 0x264E JUMP JUMPDEST PUSH1 0x0 SWAP2 DUP3 MSTORE PUSH1 0x1 PUSH1 0x20 SWAP1 DUP2 MSTORE PUSH1 0x40 DUP1 DUP5 KECCAK256 PUSH1 0x1 PUSH1 0x1 PUSH1 0xA0 SHL SUB SWAP4 SWAP1 SWAP4 AND DUP5 MSTORE SWAP2 SWAP1 MSTORE SWAP1 KECCAK256 SLOAD PUSH1 0xFF AND SWAP1 JUMP JUMPDEST PUSH2 0x19E4 DUP8 PUSH2 0x1F80 JUMP JUMPDEST ISZERO PUSH2 0x1A29 JUMPI PUSH1 0x40 MLOAD PUSH3 0x461BCD PUSH1 0xE5 SHL DUP2 MSTORE PUSH1 0x20 PUSH1 0x4 DUP3 ADD MSTORE PUSH1 0x15 PUSH1 0x24 DUP3 ADD MSTORE PUSH21 0x2A37B5B2B71030B63932B0B23C9032BC34B9BA3997 PUSH1 0x59 SHL PUSH1 0x44 DUP3 ADD MSTORE PUSH1 0x64 ADD PUSH2 0x818 JUMP JUMPDEST PUSH2 0x1A46 PUSH2 0x1A35 DUP9 PUSH2 0x251F JUMP JUMPDEST PUSH1 0x0 SLOAD PUSH1 0x1 PUSH1 0x1 PUSH1 0xA0 SHL SUB AND PUSH2 0x29FA JUMP JUMPDEST PUSH2 0x1A58 PUSH2 0x1A52 DUP9 PUSH2 0x251F JUMP JUMPDEST CALLER PUSH2 0x29FA JUMP JUMPDEST PUSH1 0x11 DUP1 SLOAD PUSH1 0x1 DUP1 DUP3 ADD SWAP1 SWAP3 SSTORE PUSH32 0x31ECC21A745E3968A04E9570E4425BC18FA8019C68028196B546D1669C200C68 ADD DUP1 SLOAD PUSH1 0x1 PUSH1 0x1 PUSH1 0xA0 SHL SUB DUP11 AND PUSH1 0x1 PUSH1 0x1 PUSH1 0xA0 SHL SUB NOT SWAP2 DUP3 AND DUP2 OR SWAP1 SWAP3 SSTORE PUSH1 0x0 SWAP2 DUP3 MSTORE PUSH1 0x12 PUSH1 0x20 MSTORE PUSH1 0x40 SWAP1 SWAP2 KECCAK256 PUSH1 0x2 DUP2 ADD DUP9 SWAP1 SSTORE PUSH1 0x8 DUP2 ADD DUP1 SLOAD SWAP1 SWAP3 AND CALLER OR SWAP1 SWAP2 SSTORE PUSH1 0x9 DUP2 ADD DUP3 SWAP1 SSTORE PUSH1 0xA DUP2 ADD DUP3 SWAP1 SSTORE PUSH1 0xB DUP2 ADD DUP3 SWAP1 SSTORE PUSH1 0xC DUP2 ADD SWAP2 SWAP1 SWAP2 SSTORE TIMESTAMP PUSH1 0xF SWAP1 SWAP2 ADD SSTORE PUSH2 0x1AF5 DUP8 DUP8 PUSH2 0x2117 JUMP JUMPDEST PUSH2 0x1AFF DUP8 DUP6 PUSH2 0x17EE JUMP JUMPDEST PUSH2 0x1B09 DUP8 DUP3 PUSH2 0x203A JUMP JUMPDEST PUSH2 0x1B14 DUP8 DUP5 DUP5 PUSH2 0x131E JUMP JUMPDEST POP POP POP POP POP POP POP JUMP JUMPDEST PUSH2 0x1B26 DUP3 PUSH2 0x251F JUMP JUMPDEST PUSH2 0x1B2F DUP2 PUSH2 0x255E JUMP JUMPDEST PUSH2 0x1B38 DUP4 PUSH2 0x1F80 JUMP JUMPDEST PUSH2 0x1B54 JUMPI PUSH1 0x40 MLOAD PUSH3 0x461BCD PUSH1 0xE5 SHL DUP2 MSTORE PUSH1 0x4 ADD PUSH2 0x818 SWAP1 PUSH2 0x35F8 JUMP JUMPDEST PUSH1 0x0 DUP3 GT PUSH2 0x1B74 JUMPI PUSH1 0x40 MLOAD PUSH3 0x461BCD PUSH1 0xE5 SHL DUP2 MSTORE PUSH1 0x4 ADD PUSH2 0x818 SWAP1 PUSH2 0x3661 JUMP JUMPDEST PUSH1 0x1 PUSH1 0x1 PUSH1 0xA0 SHL SUB DUP4 AND PUSH1 0x0 SWAP1 DUP2 MSTORE PUSH1 0x12 PUSH1 0x20 MSTORE PUSH1 0x40 SWAP1 KECCAK256 PUSH1 0x4 ADD SLOAD DUP3 GT ISZERO PUSH2 0x1BDF JUMPI PUSH1 0x40 MLOAD PUSH3 0x461BCD PUSH1 0xE5 SHL DUP2 MSTORE PUSH1 0x20 PUSH1 0x4 DUP3 ADD MSTORE PUSH1 0x1C PUSH1 0x24 DUP3 ADD MSTORE PUSH32 0x496E73756666696369656E74207265776172642062616C616E63652E00000000 PUSH1 0x44 DUP3 ADD MSTORE PUSH1 0x64 ADD PUSH2 0x818 JUMP JUMPDEST PUSH1 0x1 PUSH1 0x1 PUSH1 0xA0 SHL SUB DUP4 AND PUSH1 0x0 SWAP1 DUP2 MSTORE PUSH1 0x12 PUSH1 0x20 MSTORE PUSH1 0x40 DUP2 KECCAK256 PUSH1 0x4 ADD DUP1 SLOAD DUP5 SWAP3 SWAP1 PUSH2 0x1C0A SWAP1 DUP5 SWAP1 PUSH2 0x36F3 JUMP JUMPDEST SWAP3 POP POP DUP2 SWAP1 SSTORE POP PUSH1 0x0 DUP1 PUSH2 0x1C3F DUP6 DUP6 PUSH1 0x40 MLOAD DUP1 PUSH1 0x40 ADD PUSH1 0x40 MSTORE DUP1 PUSH1 0x8 DUP2 MSTORE PUSH1 0x20 ADD PUSH8 0x7769746864726177 PUSH1 0xC0 SHL DUP2 MSTORE POP PUSH2 0x13B8 JUMP JUMPDEST SWAP2 POP SWAP2 POP DUP2 PUSH1 0x0 EQ PUSH2 0x1CC4 JUMPI PUSH1 0x2 SLOAD PUSH1 0x40 MLOAD PUSH4 0xA9059CBB PUSH1 0xE0 SHL DUP2 MSTORE PUSH1 0x1 PUSH1 0x1 PUSH1 0xA0 SHL SUB SWAP2 DUP3 AND PUSH1 0x4 DUP3 ADD MSTORE PUSH1 0x24 DUP2 ADD DUP5 SWAP1 MSTORE SWAP1 DUP7 AND SWAP1 PUSH4 0xA9059CBB SWAP1 PUSH1 0x44 ADD PUSH1 0x20 PUSH1 0x40 MLOAD DUP1 DUP4 SUB DUP2 PUSH1 0x0 DUP8 GAS CALL ISZERO DUP1 ISZERO PUSH2 0x1C9E JUMPI RETURNDATASIZE PUSH1 0x0 DUP1 RETURNDATACOPY RETURNDATASIZE PUSH1 0x0 REVERT JUMPDEST POP POP POP POP PUSH1 0x40 MLOAD RETURNDATASIZE PUSH1 0x1F NOT PUSH1 0x1F DUP3 ADD AND DUP3 ADD DUP1 PUSH1 0x40 MSTORE POP DUP2 ADD SWAP1 PUSH2 0x1CC2 SWAP2 SWAP1 PUSH2 0x36BB JUMP JUMPDEST POP JUMPDEST PUSH1 0x0 PUSH2 0x1CD0 DUP4 DUP7 PUSH2 0x36F3 JUMP JUMPDEST SWAP1 POP PUSH1 0x1 PUSH1 0x1 PUSH1 0xA0 SHL SUB DUP7 AND PUSH4 0xA9059CBB CALLER PUSH1 0x40 MLOAD PUSH1 0x1 PUSH1 0x1 PUSH1 0xE0 SHL SUB NOT PUSH1 0xE0 DUP5 SWAP1 SHL AND DUP2 MSTORE PUSH1 0x1 PUSH1 0x1 PUSH1 0xA0 SHL SUB SWAP1 SWAP2 AND PUSH1 0x4 DUP3 ADD MSTORE PUSH1 0x24 DUP2 ADD DUP5 SWAP1 MSTORE PUSH1 0x44 ADD PUSH1 0x20 PUSH1 0x40 MLOAD DUP1 DUP4 SUB DUP2 PUSH1 0x0 DUP8 GAS CALL ISZERO DUP1 ISZERO PUSH2 0x1D2F JUMPI RETURNDATASIZE PUSH1 0x0 DUP1 RETURNDATACOPY RETURNDATASIZE PUSH1 0x0 REVERT JUMPDEST POP POP POP POP PUSH1 0x40 MLOAD RETURNDATASIZE PUSH1 0x1F NOT PUSH1 0x1F DUP3 ADD AND DUP3 ADD DUP1 PUSH1 0x40 MSTORE POP DUP2 ADD SWAP1 PUSH2 0x1B14 SWAP2 SWAP1 PUSH2 0x36BB JUMP JUMPDEST PUSH1 0x0 SLOAD PUSH1 0x1 PUSH1 0x1 PUSH1 0xA0 SHL SUB AND CALLER EQ PUSH2 0x1D7D JUMPI PUSH1 0x40 MLOAD PUSH3 0x461BCD PUSH1 0xE5 SHL DUP2 MSTORE PUSH1 0x4 ADD PUSH2 0x818 SWAP1 PUSH2 0x35C3 JUMP JUMPDEST PUSH1 0x5 SWAP3 SWAP1 SWAP3 SSTORE PUSH1 0x6 SSTORE PUSH1 0x7 SSTORE JUMP JUMPDEST PUSH2 0x1D94 DUP3 PUSH2 0x251F JUMP JUMPDEST PUSH2 0x1D9D DUP2 PUSH2 0x255E JUMP JUMPDEST POP PUSH1 0x1 PUSH1 0x1 PUSH1 0xA0 SHL SUB SWAP2 DUP3 AND PUSH1 0x0 SWAP1 DUP2 MSTORE PUSH1 0x10 PUSH1 0x20 SWAP1 DUP2 MSTORE PUSH1 0x40 DUP1 DUP4 KECCAK256 SWAP4 SWAP1 SWAP5 AND DUP3 MSTORE SWAP2 SWAP1 SWAP2 MSTORE KECCAK256 DUP1 SLOAD PUSH1 0xFF NOT AND PUSH1 0x1 OR SWAP1 SSTORE JUMP JUMPDEST PUSH1 0x60 PUSH1 0x11 DUP1 SLOAD DUP1 PUSH1 0x20 MUL PUSH1 0x20 ADD PUSH1 0x40 MLOAD SWAP1 DUP2 ADD PUSH1 0x40 MSTORE DUP1 SWAP3 SWAP2 SWAP1 DUP2 DUP2 MSTORE PUSH1 0x20 ADD DUP3 DUP1 SLOAD DUP1 ISZERO PUSH2 0x1E2A JUMPI PUSH1 0x20 MUL DUP3 ADD SWAP2 SWAP1 PUSH1 0x0 MSTORE PUSH1 0x20 PUSH1 0x0 KECCAK256 SWAP1 JUMPDEST DUP2 SLOAD PUSH1 0x1 PUSH1 0x1 PUSH1 0xA0 SHL SUB AND DUP2 MSTORE PUSH1 0x1 SWAP1 SWAP2 ADD SWAP1 PUSH1 0x20 ADD DUP1 DUP4 GT PUSH2 0x1E0C JUMPI JUMPDEST POP POP POP POP POP SWAP1 POP SWAP1 JUMP JUMPDEST PUSH1 0x12 PUSH1 0x20 MSTORE PUSH1 0x0 SWAP1 DUP2 MSTORE PUSH1 0x40 SWAP1 KECCAK256 DUP1 SLOAD PUSH1 0x1 DUP3 ADD DUP1 SLOAD PUSH1 0xFF DUP1 DUP5 AND SWAP5 PUSH2 0x100 DUP6 DIV DUP3 AND SWAP5 PUSH3 0x10000 SWAP1 DIV SWAP1 SWAP2 AND SWAP3 SWAP1 SWAP2 PUSH2 0x1E6D SWAP1 PUSH2 0x3627 JUMP JUMPDEST DUP1 PUSH1 0x1F ADD PUSH1 0x20 DUP1 SWAP2 DIV MUL PUSH1 0x20 ADD PUSH1 0x40 MLOAD SWAP1 DUP2 ADD PUSH1 0x40 MSTORE DUP1 SWAP3 SWAP2 SWAP1 DUP2 DUP2 MSTORE PUSH1 0x20 ADD DUP3 DUP1 SLOAD PUSH2 0x1E99 SWAP1 PUSH2 0x3627 JUMP JUMPDEST DUP1 ISZERO PUSH2 0x1EE6 JUMPI DUP1 PUSH1 0x1F LT PUSH2 0x1EBB JUMPI PUSH2 0x100 DUP1 DUP4 SLOAD DIV MUL DUP4 MSTORE SWAP2 PUSH1 0x20 ADD SWAP2 PUSH2 0x1EE6 JUMP JUMPDEST DUP3 ADD SWAP2 SWAP1 PUSH1 0x0 MSTORE PUSH1 0x20 PUSH1 0x0 KECCAK256 SWAP1 JUMPDEST DUP2 SLOAD DUP2 MSTORE SWAP1 PUSH1 0x1 ADD SWAP1 PUSH1 0x20 ADD DUP1 DUP4 GT PUSH2 0x1EC9 JUMPI DUP3 SWAP1 SUB PUSH1 0x1F AND DUP3 ADD SWAP2 JUMPDEST POP POP POP PUSH1 0x2 DUP5 ADD SLOAD PUSH1 0x3 DUP6 ADD SLOAD PUSH1 0x4 DUP7 ADD SLOAD PUSH1 0x5 DUP8 ADD SLOAD PUSH1 0x6 DUP9 ADD SLOAD PUSH1 0x7 DUP10 ADD SLOAD PUSH1 0x8 DUP11 ADD SLOAD PUSH1 0x40 DUP1 MLOAD PUSH1 0xC0 DUP2 ADD DUP3 MSTORE PUSH1 0x9 DUP14 ADD SLOAD DUP2 MSTORE PUSH1 0xA DUP14 ADD SLOAD PUSH1 0x20 DUP3 ADD MSTORE PUSH1 0xB DUP14 ADD SLOAD SWAP2 DUP2 ADD SWAP2 SWAP1 SWAP2 MSTORE PUSH1 0xC DUP13 ADD SLOAD PUSH1 0x60 DUP3 ADD MSTORE PUSH1 0xD DUP13 ADD SLOAD PUSH1 0x80 DUP3 ADD MSTORE PUSH1 0xE DUP13 ADD SLOAD PUSH1 0xA0 DUP3 ADD MSTORE PUSH1 0xF DUP13 ADD SLOAD PUSH1 0x10 SWAP1 SWAP13 ADD SLOAD SWAP11 SWAP12 SWAP8 SWAP11 SWAP7 SWAP10 POP SWAP5 SWAP8 POP SWAP3 SWAP6 SWAP2 SWAP5 PUSH1 0x1 PUSH1 0x1 PUSH1 0xA0 SHL SUB SWAP2 DUP3 AND SWAP5 SWAP4 SWAP1 SWAP2 AND SWAP3 SWAP2 SWAP1 DUP15 JUMP JUMPDEST PUSH1 0x0 DUP1 JUMPDEST PUSH1 0x11 SLOAD DUP2 LT ISZERO PUSH2 0x1FE0 JUMPI DUP3 PUSH1 0x1 PUSH1 0x1 PUSH1 0xA0 SHL SUB AND PUSH1 0x11 DUP3 DUP2 SLOAD DUP2 LT PUSH2 0x1FAB JUMPI PUSH2 0x1FAB PUSH2 0x37D6 JUMP JUMPDEST PUSH1 0x0 SWAP2 DUP3 MSTORE PUSH1 0x20 SWAP1 SWAP2 KECCAK256 ADD SLOAD PUSH1 0x1 PUSH1 0x1 PUSH1 0xA0 SHL SUB AND SUB PUSH2 0x1FCE JUMPI POP PUSH1 0x1 SWAP3 SWAP2 POP POP JUMP JUMPDEST DUP1 PUSH2 0x1FD8 DUP2 PUSH2 0x37EC JUMP JUMPDEST SWAP2 POP POP PUSH2 0x1F84 JUMP JUMPDEST POP PUSH1 0x0 SWAP3 SWAP2 POP POP JUMP JUMPDEST PUSH1 0x0 SLOAD PUSH1 0x1 PUSH1 0x1 PUSH1 0xA0 SHL SUB AND CALLER EQ PUSH2 0x2013 JUMPI PUSH1 0x40 MLOAD PUSH3 0x461BCD PUSH1 0xE5 SHL DUP2 MSTORE PUSH1 0x4 ADD PUSH2 0x818 SWAP1 PUSH2 0x35C3 JUMP JUMPDEST PUSH2 0xCAA DUP4 DUP4 DUP4 PUSH1 0x40 MLOAD DUP1 PUSH1 0x40 ADD PUSH1 0x40 MSTORE DUP1 PUSH1 0x3 DUP2 MSTORE PUSH1 0x20 ADD PUSH3 0x3232BB PUSH1 0xE9 SHL DUP2 MSTORE POP PUSH2 0x2A04 JUMP JUMPDEST PUSH2 0x2043 DUP3 PUSH2 0x251F JUMP JUMPDEST PUSH2 0x204C DUP2 PUSH2 0x255E JUMP JUMPDEST PUSH2 0x2055 DUP3 PUSH2 0x251F JUMP JUMPDEST PUSH2 0x205E DUP2 PUSH2 0x255E JUMP JUMPDEST PUSH2 0x2067 DUP5 PUSH2 0x1F80 JUMP JUMPDEST PUSH2 0x2083 JUMPI PUSH1 0x40 MLOAD PUSH3 0x461BCD PUSH1 0xE5 SHL DUP2 MSTORE PUSH1 0x4 ADD PUSH2 0x818 SWAP1 PUSH2 0x35F8 JUMP JUMPDEST PUSH2 0x208C DUP4 PUSH2 0x1F80 JUMP JUMPDEST PUSH2 0x20D8 JUMPI PUSH1 0x40 MLOAD PUSH3 0x461BCD PUSH1 0xE5 SHL DUP2 MSTORE PUSH1 0x20 PUSH1 0x4 DUP3 ADD MSTORE PUSH1 0x1C PUSH1 0x24 DUP3 ADD MSTORE PUSH32 0x52657761726420746F6B656E20646F6573206E6F742065786973742E00000000 PUSH1 0x44 DUP3 ADD MSTORE PUSH1 0x64 ADD PUSH2 0x818 JUMP JUMPDEST POP POP PUSH1 0x1 PUSH1 0x1 PUSH1 0xA0 SHL SUB SWAP2 DUP3 AND PUSH1 0x0 SWAP1 DUP2 MSTORE PUSH1 0x12 PUSH1 0x20 MSTORE PUSH1 0x40 SWAP1 KECCAK256 PUSH1 0x7 DUP2 ADD DUP1 SLOAD PUSH1 0x1 PUSH1 0x1 PUSH1 0xA0 SHL SUB NOT AND SWAP3 SWAP1 SWAP4 AND SWAP2 SWAP1 SWAP2 OR SWAP1 SWAP2 SSTORE TIMESTAMP PUSH1 0x10 SWAP1 SWAP2 ADD SSTORE JUMP JUMPDEST PUSH2 0x2120 DUP3 PUSH2 0x251F JUMP JUMPDEST PUSH2 0x2129 DUP2 PUSH2 0x255E JUMP JUMPDEST PUSH2 0x2132 DUP4 PUSH2 0x1F80 JUMP JUMPDEST PUSH2 0x214E JUMPI PUSH1 0x40 MLOAD PUSH3 0x461BCD PUSH1 0xE5 SHL DUP2 MSTORE PUSH1 0x4 ADD PUSH2 0x818 SWAP1 PUSH2 0x35F8 JUMP JUMPDEST PUSH1 0x3 SLOAD DUP3 MLOAD LT DUP1 ISZERO SWAP1 PUSH2 0x2164 JUMPI POP PUSH1 0x4 SLOAD DUP3 MLOAD GT ISZERO JUMPDEST PUSH1 0x3 SLOAD PUSH2 0x2170 SWAP1 PUSH2 0x28DD JUMP JUMPDEST PUSH1 0x4 SLOAD PUSH2 0x217C SWAP1 PUSH2 0x28DD JUMP JUMPDEST PUSH1 0x40 MLOAD PUSH1 0x20 ADD PUSH2 0x218D SWAP3 SWAP2 SWAP1 PUSH2 0x3805 JUMP JUMPDEST PUSH1 0x40 MLOAD PUSH1 0x20 DUP2 DUP4 SUB SUB DUP2 MSTORE SWAP1 PUSH1 0x40 MSTORE SWAP1 PUSH2 0x21BA JUMPI PUSH1 0x40 MLOAD PUSH3 0x461BCD PUSH1 0xE5 SHL DUP2 MSTORE PUSH1 0x4 ADD PUSH2 0x818 SWAP2 SWAP1 PUSH2 0x3225 JUMP JUMPDEST POP PUSH1 0x1 PUSH1 0x1 PUSH1 0xA0 SHL SUB DUP4 AND PUSH1 0x0 SWAP1 DUP2 MSTORE PUSH1 0x12 PUSH1 0x20 SWAP1 DUP2 MSTORE PUSH1 0x40 SWAP1 SWAP2 KECCAK256 DUP4 MLOAD PUSH2 0x21EA SWAP3 PUSH1 0x1 SWAP1 SWAP3 ADD SWAP2 DUP6 ADD SWAP1 PUSH2 0x2EBC JUMP JUMPDEST POP POP POP PUSH1 0x1 PUSH1 0x1 PUSH1 0xA0 SHL SUB AND PUSH1 0x0 SWAP1 DUP2 MSTORE PUSH1 0x12 PUSH1 0x20 MSTORE PUSH1 0x40 SWAP1 KECCAK256 TIMESTAMP PUSH1 0x10 SWAP1 SWAP2 ADD SSTORE JUMP JUMPDEST PUSH1 0x0 DUP3 DUP2 MSTORE PUSH1 0x1 PUSH1 0x20 DUP2 SWAP1 MSTORE PUSH1 0x40 SWAP1 SWAP2 KECCAK256 ADD SLOAD PUSH2 0x2229 DUP2 PUSH2 0x255E JUMP JUMPDEST PUSH2 0xCAA DUP4 DUP4 PUSH2 0x25E7 JUMP JUMPDEST PUSH2 0x223C DUP2 PUSH2 0x251F JUMP JUMPDEST PUSH2 0x2245 DUP2 PUSH2 0x255E JUMP JUMPDEST PUSH2 0x224E DUP3 PUSH2 0x1F80 JUMP JUMPDEST PUSH2 0x226A JUMPI PUSH1 0x40 MLOAD PUSH3 0x461BCD PUSH1 0xE5 SHL DUP2 MSTORE PUSH1 0x4 ADD PUSH2 0x818 SWAP1 PUSH2 0x35F8 JUMP JUMPDEST POP PUSH1 0x1 PUSH1 0x1 PUSH1 0xA0 SHL SUB AND PUSH1 0x0 SWAP1 DUP2 MSTORE PUSH1 0x12 PUSH1 0x20 MSTORE PUSH1 0x40 SWAP1 KECCAK256 DUP1 SLOAD PUSH3 0xFF0000 NOT AND SWAP1 SSTORE JUMP JUMPDEST PUSH1 0x0 SLOAD PUSH1 0x1 PUSH1 0x1 PUSH1 0xA0 SHL SUB AND CALLER EQ PUSH2 0x22B8 JUMPI PUSH1 0x40 MLOAD PUSH3 0x461BCD PUSH1 0xE5 SHL DUP2 MSTORE PUSH1 0x4 ADD PUSH2 0x818 SWAP1 PUSH2 0x35C3 JUMP JUMPDEST PUSH2 0x22C1 DUP2 PUSH2 0x1F80 JUMP JUMPDEST PUSH2 0x22DD JUMPI PUSH1 0x40 MLOAD PUSH3 0x461BCD PUSH1 0xE5 SHL DUP2 MSTORE PUSH1 0x4 ADD PUSH2 0x818 SWAP1 PUSH2 0x35F8 JUMP JUMPDEST PUSH1 0x1 PUSH1 0x1 PUSH1 0xA0 SHL SUB AND PUSH1 0x0 SWAP1 DUP2 MSTORE PUSH1 0x12 PUSH1 0x20 MSTORE PUSH1 0x40 SWAP1 KECCAK256 DUP1 SLOAD PUSH2 0xFF00 NOT AND SWAP1 SSTORE JUMP JUMPDEST PUSH1 0x0 SLOAD PUSH1 0x1 PUSH1 0x1 PUSH1 0xA0 SHL SUB AND CALLER EQ PUSH2 0x2329 JUMPI PUSH1 0x40 MLOAD PUSH3 0x461BCD PUSH1 0xE5 SHL DUP2 MSTORE PUSH1 0x4 ADD PUSH2 0x818 SWAP1 PUSH2 0x35C3 JUMP JUMPDEST PUSH1 0x1 PUSH1 0x1 PUSH1 0xA0 SHL SUB AND PUSH1 0x0 SWAP1 DUP2 MSTORE PUSH1 0xE PUSH1 0x20 MSTORE PUSH1 0x40 SWAP1 KECCAK256 DUP1 SLOAD PUSH1 0xFF NOT AND PUSH1 0x1 OR SWAP1 SSTORE JUMP JUMPDEST PUSH1 0x0 SLOAD PUSH1 0x1 PUSH1 0x1 PUSH1 0xA0 SHL SUB AND CALLER EQ PUSH2 0x2377 JUMPI PUSH1 0x40 MLOAD PUSH3 0x461BCD PUSH1 0xE5 SHL DUP2 MSTORE PUSH1 0x4 ADD PUSH2 0x818 SWAP1 PUSH2 0x35C3 JUMP JUMPDEST PUSH1 0x8 SWAP3 SWAP1 SWAP3 SSTORE PUSH1 0x9 SSTORE PUSH1 0xA SSTORE JUMP JUMPDEST PUSH2 0x238E DUP3 PUSH2 0x251F JUMP JUMPDEST PUSH2 0x2397 DUP2 PUSH2 0x255E JUMP JUMPDEST PUSH2 0x23A0 DUP4 PUSH2 0x1F80 JUMP JUMPDEST PUSH2 0x23BC JUMPI PUSH1 0x40 MLOAD PUSH3 0x461BCD PUSH1 0xE5 SHL DUP2 MSTORE PUSH1 0x4 ADD PUSH2 0x818 SWAP1 PUSH2 0x35F8 JUMP JUMPDEST POP PUSH1 0x1 PUSH1 0x1 PUSH1 0xA0 SHL SUB SWAP1 SWAP2 AND PUSH1 0x0 SWAP1 DUP2 MSTORE PUSH1 0x12 PUSH1 0x20 MSTORE PUSH1 0x40 SWAP1 KECCAK256 PUSH1 0x2 DUP2 ADD SWAP2 SWAP1 SWAP2 SSTORE TIMESTAMP PUSH1 0x10 SWAP1 SWAP2 ADD SSTORE JUMP JUMPDEST PUSH1 0x0 SLOAD PUSH1 0x1 PUSH1 0x1 PUSH1 0xA0 SHL SUB AND CALLER EQ PUSH2 0x2411 JUMPI PUSH1 0x40 MLOAD PUSH3 0x461BCD PUSH1 0xE5 SHL DUP2 MSTORE PUSH1 0x4 ADD PUSH2 0x818 SWAP1 PUSH2 0x35C3 JUMP JUMPDEST PUSH1 0x1 PUSH1 0x1 PUSH1 0xA0 SHL SUB DUP2 AND PUSH2 0x2476 JUMPI PUSH1 0x40 MLOAD PUSH3 0x461BCD PUSH1 0xE5 SHL DUP2 MSTORE PUSH1 0x20 PUSH1 0x4 DUP3 ADD MSTORE PUSH1 0x26 PUSH1 0x24 DUP3 ADD MSTORE PUSH32 0x4F776E61626C653A206E6577206F776E657220697320746865207A65726F2061 PUSH1 0x44 DUP3 ADD MSTORE PUSH6 0x646472657373 PUSH1 0xD0 SHL PUSH1 0x64 DUP3 ADD MSTORE PUSH1 0x84 ADD PUSH2 0x818 JUMP JUMPDEST PUSH2 0x247F DUP2 PUSH2 0x288D JUMP JUMPDEST POP JUMP JUMPDEST PUSH1 0x0 SLOAD PUSH1 0x1 PUSH1 0x1 PUSH1 0xA0 SHL SUB AND CALLER EQ PUSH2 0x24AC JUMPI PUSH1 0x40 MLOAD PUSH3 0x461BCD PUSH1 0xE5 SHL DUP2 MSTORE PUSH1 0x4 ADD PUSH2 0x818 SWAP1 PUSH2 0x35C3 JUMP JUMPDEST PUSH1 0x40 MLOAD PUSH4 0xA9059CBB PUSH1 0xE0 SHL DUP2 MSTORE PUSH1 0x1 PUSH1 0x1 PUSH1 0xA0 SHL SUB DUP4 DUP2 AND PUSH1 0x4 DUP4 ADD MSTORE PUSH1 0x24 DUP3 ADD DUP4 SWAP1 MSTORE DUP5 AND SWAP1 PUSH4 0xA9059CBB SWAP1 PUSH1 0x44 ADD PUSH1 0x20 PUSH1 0x40 MLOAD DUP1 DUP4 SUB DUP2 PUSH1 0x0 DUP8 GAS CALL ISZERO DUP1 ISZERO PUSH2 0x24FB JUMPI RETURNDATASIZE PUSH1 0x0 DUP1 RETURNDATACOPY RETURNDATASIZE PUSH1 0x0 REVERT JUMPDEST POP POP POP POP PUSH1 0x40 MLOAD RETURNDATASIZE PUSH1 0x1F NOT PUSH1 0x1F DUP3 ADD AND DUP3 ADD DUP1 PUSH1 0x40 MSTORE POP DUP2 ADD SWAP1 PUSH2 0x1359 SWAP2 SWAP1 PUSH2 0x36BB JUMP JUMPDEST PUSH1 0x40 MLOAD PUSH12 0xFFFFFFFFFFFFFFFFFFFFFFFF NOT PUSH1 0x60 DUP4 SWAP1 SHL AND PUSH1 0x20 DUP3 ADD MSTORE PUSH1 0x0 SWAP1 PUSH1 0x34 ADD PUSH1 0x40 MLOAD PUSH1 0x20 DUP2 DUP4 SUB SUB DUP2 MSTORE SWAP1 PUSH1 0x40 MSTORE DUP1 MLOAD SWAP1 PUSH1 0x20 ADD KECCAK256 SWAP1 POP SWAP2 SWAP1 POP JUMP JUMPDEST PUSH2 0x247F DUP2 CALLER PUSH2 0x2BFE JUMP JUMPDEST PUSH2 0x2572 DUP3 DUP3 PUSH2 0x19B0 JUMP JUMPDEST PUSH2 0x1010 JUMPI PUSH1 0x0 DUP3 DUP2 MSTORE PUSH1 0x1 PUSH1 0x20 DUP2 DUP2 MSTORE PUSH1 0x40 DUP1 DUP5 KECCAK256 PUSH1 0x1 PUSH1 0x1 PUSH1 0xA0 SHL SUB DUP7 AND DUP1 DUP7 MSTORE SWAP3 MSTORE DUP1 DUP5 KECCAK256 DUP1 SLOAD PUSH1 0xFF NOT AND SWAP1 SWAP4 OR SWAP1 SWAP3 SSTORE SWAP1 MLOAD CALLER SWAP3 DUP6 SWAP2 PUSH32 0x2F8788117E7EFF1D82E926EC794901D17C78024A50270940304540A733656F0D SWAP2 SWAP1 LOG4 POP POP JUMP JUMPDEST PUSH1 0x0 PUSH2 0x860 PUSH8 0xDE0B6B3A7640000 DUP4 PUSH2 0x389D JUMP JUMPDEST PUSH2 0x25F1 DUP3 DUP3 PUSH2 0x19B0 JUMP JUMPDEST ISZERO PUSH2 0x1010 JUMPI PUSH1 0x0 DUP3 DUP2 MSTORE PUSH1 0x1 PUSH1 0x20 SWAP1 DUP2 MSTORE PUSH1 0x40 DUP1 DUP4 KECCAK256 PUSH1 0x1 PUSH1 0x1 PUSH1 0xA0 SHL SUB DUP6 AND DUP1 DUP6 MSTORE SWAP3 MSTORE DUP1 DUP4 KECCAK256 DUP1 SLOAD PUSH1 0xFF NOT AND SWAP1 SSTORE MLOAD CALLER SWAP3 DUP6 SWAP2 PUSH32 0xF6391F5C32D9C69D2A47EA670B442974B53935D1EDC7FD64EB21E047A839171B SWAP2 SWAP1 LOG4 POP POP JUMP JUMPDEST PUSH2 0x2657 DUP5 PUSH2 0x1F80 JUMP JUMPDEST PUSH2 0x2673 JUMPI PUSH1 0x40 MLOAD PUSH3 0x461BCD PUSH1 0xE5 SHL DUP2 MSTORE PUSH1 0x4 ADD PUSH2 0x818 SWAP1 PUSH2 0x35F8 JUMP JUMPDEST PUSH1 0x8 SLOAD DUP4 LT DUP1 ISZERO SWAP1 PUSH2 0x2687 JUMPI POP PUSH1 0x9 SLOAD DUP4 GT ISZERO JUMPDEST PUSH2 0x2698 PUSH2 0x184A PUSH1 0x2 PUSH1 0x6 ADD SLOAD PUSH2 0x25D3 JUMP JUMPDEST PUSH2 0x26A9 PUSH2 0x184A PUSH1 0x2 PUSH1 0x7 ADD SLOAD PUSH2 0x25D3 JUMP JUMPDEST PUSH1 0x40 MLOAD PUSH1 0x20 ADD PUSH2 0x26BA SWAP3 SWAP2 SWAP1 PUSH2 0x38B1 JUMP JUMPDEST PUSH1 0x40 MLOAD PUSH1 0x20 DUP2 DUP4 SUB SUB DUP2 MSTORE SWAP1 PUSH1 0x40 MSTORE SWAP1 PUSH2 0x26E7 JUMPI PUSH1 0x40 MLOAD PUSH3 0x461BCD PUSH1 0xE5 SHL DUP2 MSTORE PUSH1 0x4 ADD PUSH2 0x818 SWAP2 SWAP1 PUSH2 0x3225 JUMP JUMPDEST POP PUSH1 0x8 SLOAD DUP3 LT DUP1 ISZERO SWAP1 PUSH2 0x26FC JUMPI POP PUSH1 0x9 SLOAD DUP3 GT ISZERO JUMPDEST PUSH2 0x270D PUSH2 0x184A PUSH1 0x2 PUSH1 0x6 ADD SLOAD PUSH2 0x25D3 JUMP JUMPDEST PUSH2 0x271E PUSH2 0x184A PUSH1 0x2 PUSH1 0x7 ADD SLOAD PUSH2 0x25D3 JUMP JUMPDEST PUSH1 0x40 MLOAD PUSH1 0x20 ADD PUSH2 0x272F SWAP3 SWAP2 SWAP1 PUSH2 0x392B JUMP JUMPDEST PUSH1 0x40 MLOAD PUSH1 0x20 DUP2 DUP4 SUB SUB DUP2 MSTORE SWAP1 PUSH1 0x40 MSTORE SWAP1 PUSH2 0x275C JUMPI PUSH1 0x40 MLOAD PUSH3 0x461BCD PUSH1 0xE5 SHL DUP2 MSTORE PUSH1 0x4 ADD PUSH2 0x818 SWAP2 SWAP1 PUSH2 0x3225 JUMP JUMPDEST POP PUSH1 0x40 MLOAD PUSH3 0x3232BB PUSH1 0xE9 SHL PUSH1 0x20 DUP3 ADD MSTORE PUSH1 0x23 ADD PUSH1 0x40 MLOAD PUSH1 0x20 DUP2 DUP4 SUB SUB DUP2 MSTORE SWAP1 PUSH1 0x40 MSTORE DUP1 MLOAD SWAP1 PUSH1 0x20 ADD KECCAK256 DUP2 PUSH1 0x40 MLOAD PUSH1 0x20 ADD PUSH2 0x2796 SWAP2 SWAP1 PUSH2 0x3741 JUMP JUMPDEST PUSH1 0x40 MLOAD PUSH1 0x20 DUP2 DUP4 SUB SUB DUP2 MSTORE SWAP1 PUSH1 0x40 MSTORE DUP1 MLOAD SWAP1 PUSH1 0x20 ADD KECCAK256 SUB PUSH2 0x27DB JUMPI PUSH1 0x1 PUSH1 0x1 PUSH1 0xA0 SHL SUB DUP5 AND PUSH1 0x0 SWAP1 DUP2 MSTORE PUSH1 0x12 PUSH1 0x20 MSTORE PUSH1 0x40 SWAP1 KECCAK256 PUSH1 0xB DUP2 ADD DUP5 SWAP1 SSTORE PUSH1 0xC ADD DUP3 SWAP1 SSTORE PUSH2 0x21EA JUMP JUMPDEST PUSH1 0x40 MLOAD PUSH5 0x30B236B4B7 PUSH1 0xD9 SHL PUSH1 0x20 DUP3 ADD MSTORE PUSH1 0x25 ADD PUSH1 0x40 MLOAD PUSH1 0x20 DUP2 DUP4 SUB SUB DUP2 MSTORE SWAP1 PUSH1 0x40 MSTORE DUP1 MLOAD SWAP1 PUSH1 0x20 ADD KECCAK256 DUP2 PUSH1 0x40 MLOAD PUSH1 0x20 ADD PUSH2 0x2816 SWAP2 SWAP1 PUSH2 0x3741 JUMP JUMPDEST PUSH1 0x40 MLOAD PUSH1 0x20 DUP2 DUP4 SUB SUB DUP2 MSTORE SWAP1 PUSH1 0x40 MSTORE DUP1 MLOAD SWAP1 PUSH1 0x20 ADD KECCAK256 SUB PUSH2 0x21EA JUMPI POP PUSH1 0x1 PUSH1 0x1 PUSH1 0xA0 SHL SUB SWAP3 SWAP1 SWAP3 AND PUSH1 0x0 SWAP1 DUP2 MSTORE PUSH1 0x12 PUSH1 0x20 MSTORE PUSH1 0x40 SWAP1 KECCAK256 PUSH1 0xD DUP2 ADD SWAP2 SWAP1 SWAP2 SSTORE PUSH1 0xE DUP2 ADD SWAP2 SWAP1 SWAP2 SSTORE TIMESTAMP PUSH1 0x10 SWAP1 SWAP2 ADD SSTORE JUMP JUMPDEST PUSH1 0x0 DUP3 PUSH2 0x2872 PUSH1 0x64 PUSH2 0x29E6 JUMP JUMPDEST PUSH2 0x287C SWAP1 DUP5 PUSH2 0x389D JUMP JUMPDEST PUSH2 0x2886 SWAP2 SWAP1 PUSH2 0x3722 JUMP JUMPDEST SWAP4 SWAP3 POP POP POP JUMP JUMPDEST PUSH1 0x0 DUP1 SLOAD PUSH1 0x1 PUSH1 0x1 PUSH1 0xA0 SHL SUB DUP4 DUP2 AND PUSH1 0x1 PUSH1 0x1 PUSH1 0xA0 SHL SUB NOT DUP4 AND DUP2 OR DUP5 SSTORE PUSH1 0x40 MLOAD SWAP2 SWAP1 SWAP3 AND SWAP3 DUP4 SWAP2 PUSH32 0x8BE0079C531659141344CD1FD0A4F28419497F9722A3DAAFE3B4186F6B6457E0 SWAP2 SWAP1 LOG3 POP POP JUMP JUMPDEST PUSH1 0x60 DUP2 PUSH1 0x0 SUB PUSH2 0x2904 JUMPI POP POP PUSH1 0x40 DUP1 MLOAD DUP1 DUP3 ADD SWAP1 SWAP2 MSTORE PUSH1 0x1 DUP2 MSTORE PUSH1 0x3 PUSH1 0xFC SHL PUSH1 0x20 DUP3 ADD MSTORE SWAP1 JUMP JUMPDEST DUP2 PUSH1 0x0 JUMPDEST DUP2 ISZERO PUSH2 0x292E JUMPI DUP1 PUSH2 0x2918 DUP2 PUSH2 0x37EC JUMP JUMPDEST SWAP2 POP PUSH2 0x2927 SWAP1 POP PUSH1 0xA DUP4 PUSH2 0x389D JUMP JUMPDEST SWAP2 POP PUSH2 0x2908 JUMP JUMPDEST PUSH1 0x0 DUP2 PUSH8 0xFFFFFFFFFFFFFFFF DUP2 GT ISZERO PUSH2 0x2949 JUMPI PUSH2 0x2949 PUSH2 0x3238 JUMP JUMPDEST PUSH1 0x40 MLOAD SWAP1 DUP1 DUP3 MSTORE DUP1 PUSH1 0x1F ADD PUSH1 0x1F NOT AND PUSH1 0x20 ADD DUP3 ADD PUSH1 0x40 MSTORE DUP1 ISZERO PUSH2 0x2973 JUMPI PUSH1 0x20 DUP3 ADD DUP2 DUP1 CALLDATASIZE DUP4 CALLDATACOPY ADD SWAP1 POP JUMPDEST POP SWAP1 POP JUMPDEST DUP5 ISZERO PUSH2 0x29DE JUMPI PUSH2 0x2988 PUSH1 0x1 DUP4 PUSH2 0x36F3 JUMP JUMPDEST SWAP2 POP PUSH2 0x2995 PUSH1 0xA DUP7 PUSH2 0x3963 JUMP JUMPDEST PUSH2 0x29A0 SWAP1 PUSH1 0x30 PUSH2 0x370A JUMP JUMPDEST PUSH1 0xF8 SHL DUP2 DUP4 DUP2 MLOAD DUP2 LT PUSH2 0x29B5 JUMPI PUSH2 0x29B5 PUSH2 0x37D6 JUMP JUMPDEST PUSH1 0x20 ADD ADD SWAP1 PUSH1 0x1 PUSH1 0x1 PUSH1 0xF8 SHL SUB NOT AND SWAP1 DUP2 PUSH1 0x0 BYTE SWAP1 MSTORE8 POP PUSH2 0x29D7 PUSH1 0xA DUP7 PUSH2 0x389D JUMP JUMPDEST SWAP5 POP PUSH2 0x2977 JUMP JUMPDEST SWAP5 SWAP4 POP POP POP POP JUMP JUMPDEST PUSH1 0x0 PUSH2 0x860 DUP3 PUSH8 0xDE0B6B3A7640000 PUSH2 0x3722 JUMP JUMPDEST PUSH2 0x1010 DUP3 DUP3 PUSH2 0x2568 JUMP JUMPDEST PUSH2 0x2A0D DUP5 PUSH2 0x1F80 JUMP JUMPDEST PUSH2 0x2A29 JUMPI PUSH1 0x40 MLOAD PUSH3 0x461BCD PUSH1 0xE5 SHL DUP2 MSTORE PUSH1 0x4 ADD PUSH2 0x818 SWAP1 PUSH2 0x35F8 JUMP JUMPDEST PUSH1 0xB SLOAD DUP4 LT DUP1 ISZERO SWAP1 PUSH2 0x2A3D JUMPI POP PUSH1 0xC SLOAD DUP4 GT ISZERO JUMPDEST PUSH2 0x2A4E PUSH2 0x184A PUSH1 0x2 PUSH1 0x9 ADD SLOAD PUSH2 0x25D3 JUMP JUMPDEST PUSH2 0x2A5F PUSH2 0x184A PUSH1 0x2 PUSH1 0xA ADD SLOAD PUSH2 0x25D3 JUMP JUMPDEST PUSH1 0x40 MLOAD PUSH1 0x20 ADD PUSH2 0x2A70 SWAP3 SWAP2 SWAP1 PUSH2 0x3977 JUMP JUMPDEST PUSH1 0x40 MLOAD PUSH1 0x20 DUP2 DUP4 SUB SUB DUP2 MSTORE SWAP1 PUSH1 0x40 MSTORE SWAP1 PUSH2 0x2A9D JUMPI PUSH1 0x40 MLOAD PUSH3 0x461BCD PUSH1 0xE5 SHL DUP2 MSTORE PUSH1 0x4 ADD PUSH2 0x818 SWAP2 SWAP1 PUSH2 0x3225 JUMP JUMPDEST POP PUSH1 0xB SLOAD DUP3 LT DUP1 ISZERO SWAP1 PUSH2 0x2AB2 JUMPI POP PUSH1 0xC SLOAD DUP3 GT ISZERO JUMPDEST PUSH2 0x2AC3 PUSH2 0x184A PUSH1 0x2 PUSH1 0x9 ADD SLOAD PUSH2 0x25D3 JUMP JUMPDEST PUSH2 0x2AD4 PUSH2 0x184A PUSH1 0x2 PUSH1 0xA ADD SLOAD PUSH2 0x25D3 JUMP JUMPDEST PUSH1 0x40 MLOAD PUSH1 0x20 ADD PUSH2 0x2AE5 SWAP3 SWAP2 SWAP1 PUSH2 0x39AF JUMP JUMPDEST PUSH1 0x40 MLOAD PUSH1 0x20 DUP2 DUP4 SUB SUB DUP2 MSTORE SWAP1 PUSH1 0x40 MSTORE SWAP1 PUSH2 0x2B12 JUMPI PUSH1 0x40 MLOAD PUSH3 0x461BCD PUSH1 0xE5 SHL DUP2 MSTORE PUSH1 0x4 ADD PUSH2 0x818 SWAP2 SWAP1 PUSH2 0x3225 JUMP JUMPDEST POP PUSH1 0x40 MLOAD PUSH3 0x3232BB PUSH1 0xE9 SHL PUSH1 0x20 DUP3 ADD MSTORE PUSH1 0x23 ADD PUSH1 0x40 MLOAD PUSH1 0x20 DUP2 DUP4 SUB SUB DUP2 MSTORE SWAP1 PUSH1 0x40 MSTORE DUP1 MLOAD SWAP1 PUSH1 0x20 ADD KECCAK256 DUP2 PUSH1 0x40 MLOAD PUSH1 0x20 ADD PUSH2 0x2B4C SWAP2 SWAP1 PUSH2 0x3741 JUMP JUMPDEST PUSH1 0x40 MLOAD PUSH1 0x20 DUP2 DUP4 SUB SUB DUP2 MSTORE SWAP1 PUSH1 0x40 MSTORE DUP1 MLOAD SWAP1 PUSH1 0x20 ADD KECCAK256 SUB PUSH2 0x2B91 JUMPI PUSH1 0x1 PUSH1 0x1 PUSH1 0xA0 SHL SUB DUP5 AND PUSH1 0x0 SWAP1 DUP2 MSTORE PUSH1 0x12 PUSH1 0x20 MSTORE PUSH1 0x40 SWAP1 KECCAK256 PUSH1 0x9 DUP2 ADD DUP5 SWAP1 SSTORE PUSH1 0xA ADD DUP3 SWAP1 SSTORE PUSH2 0x21EA JUMP JUMPDEST PUSH1 0x40 MLOAD PUSH5 0x30B236B4B7 PUSH1 0xD9 SHL PUSH1 0x20 DUP3 ADD MSTORE PUSH1 0x25 ADD PUSH1 0x40 MLOAD PUSH1 0x20 DUP2 DUP4 SUB SUB DUP2 MSTORE SWAP1 PUSH1 0x40 MSTORE DUP1 MLOAD SWAP1 PUSH1 0x20 ADD KECCAK256 DUP2 PUSH1 0x40 MLOAD PUSH1 0x20 ADD PUSH2 0x2BCC SWAP2 SWAP1 PUSH2 0x3741 JUMP JUMPDEST PUSH1 0x40 DUP1 MLOAD PUSH1 0x1F NOT DUP2 DUP5 SUB ADD SWAP1 MSTORE MSTORE POP POP POP POP PUSH1 0x1 PUSH1 0x1 PUSH1 0xA0 SHL SUB AND PUSH1 0x0 SWAP1 DUP2 MSTORE PUSH1 0x12 PUSH1 0x20 MSTORE PUSH1 0x40 SWAP1 KECCAK256 TIMESTAMP PUSH1 0x10 SWAP1 SWAP2 ADD SSTORE JUMP JUMPDEST PUSH2 0x2C08 DUP3 DUP3 PUSH2 0x19B0 JUMP JUMPDEST PUSH2 0x1010 JUMPI PUSH2 0x2C20 DUP2 PUSH1 0x1 PUSH1 0x1 PUSH1 0xA0 SHL SUB AND PUSH1 0x14 PUSH2 0x2C62 JUMP JUMPDEST PUSH2 0x2C2B DUP4 PUSH1 0x20 PUSH2 0x2C62 JUMP JUMPDEST PUSH1 0x40 MLOAD PUSH1 0x20 ADD PUSH2 0x2C3C SWAP3 SWAP2 SWAP1 PUSH2 0x3A28 JUMP JUMPDEST PUSH1 0x40 DUP1 MLOAD PUSH1 0x1F NOT DUP2 DUP5 SUB ADD DUP2 MSTORE SWAP1 DUP3 SWAP1 MSTORE PUSH3 0x461BCD PUSH1 0xE5 SHL DUP3 MSTORE PUSH2 0x818 SWAP2 PUSH1 0x4 ADD PUSH2 0x3225 JUMP JUMPDEST PUSH1 0x60 PUSH1 0x0 PUSH2 0x2C71 DUP4 PUSH1 0x2 PUSH2 0x3722 JUMP JUMPDEST PUSH2 0x2C7C SWAP1 PUSH1 0x2 PUSH2 0x370A JUMP JUMPDEST PUSH8 0xFFFFFFFFFFFFFFFF DUP2 GT ISZERO PUSH2 0x2C94 JUMPI PUSH2 0x2C94 PUSH2 0x3238 JUMP JUMPDEST PUSH1 0x40 MLOAD SWAP1 DUP1 DUP3 MSTORE DUP1 PUSH1 0x1F ADD PUSH1 0x1F NOT AND PUSH1 0x20 ADD DUP3 ADD PUSH1 0x40 MSTORE DUP1 ISZERO PUSH2 0x2CBE JUMPI PUSH1 0x20 DUP3 ADD DUP2 DUP1 CALLDATASIZE DUP4 CALLDATACOPY ADD SWAP1 POP JUMPDEST POP SWAP1 POP PUSH1 0x3 PUSH1 0xFC SHL DUP2 PUSH1 0x0 DUP2 MLOAD DUP2 LT PUSH2 0x2CD9 JUMPI PUSH2 0x2CD9 PUSH2 0x37D6 JUMP JUMPDEST PUSH1 0x20 ADD ADD SWAP1 PUSH1 0x1 PUSH1 0x1 PUSH1 0xF8 SHL SUB NOT AND SWAP1 DUP2 PUSH1 0x0 BYTE SWAP1 MSTORE8 POP PUSH1 0xF PUSH1 0xFB SHL DUP2 PUSH1 0x1 DUP2 MLOAD DUP2 LT PUSH2 0x2D08 JUMPI PUSH2 0x2D08 PUSH2 0x37D6 JUMP JUMPDEST PUSH1 0x20 ADD ADD SWAP1 PUSH1 0x1 PUSH1 0x1 PUSH1 0xF8 SHL SUB NOT AND SWAP1 DUP2 PUSH1 0x0 BYTE SWAP1 MSTORE8 POP PUSH1 0x0 PUSH2 0x2D2C DUP5 PUSH1 0x2 PUSH2 0x3722 JUMP JUMPDEST PUSH2 0x2D37 SWAP1 PUSH1 0x1 PUSH2 0x370A JUMP JUMPDEST SWAP1 POP JUMPDEST PUSH1 0x1 DUP2 GT ISZERO PUSH2 0x2DAF JUMPI PUSH16 0x181899199A1A9B1B9C1CB0B131B232B3 PUSH1 0x81 SHL DUP6 PUSH1 0xF AND PUSH1 0x10 DUP2 LT PUSH2 0x2D6B JUMPI PUSH2 0x2D6B PUSH2 0x37D6 JUMP JUMPDEST BYTE PUSH1 0xF8 SHL DUP3 DUP3 DUP2 MLOAD DUP2 LT PUSH2 0x2D81 JUMPI PUSH2 0x2D81 PUSH2 0x37D6 JUMP JUMPDEST PUSH1 0x20 ADD ADD SWAP1 PUSH1 0x1 PUSH1 0x1 PUSH1 0xF8 SHL SUB NOT AND SWAP1 DUP2 PUSH1 0x0 BYTE SWAP1 MSTORE8 POP PUSH1 0x4 SWAP5 SWAP1 SWAP5 SHR SWAP4 PUSH2 0x2DA8 DUP2 PUSH2 0x3A9D JUMP JUMPDEST SWAP1 POP PUSH2 0x2D3A JUMP JUMPDEST POP DUP4 ISZERO PUSH2 0x2886 JUMPI PUSH1 0x40 MLOAD PUSH3 0x461BCD PUSH1 0xE5 SHL DUP2 MSTORE PUSH1 0x20 PUSH1 0x4 DUP3 ADD DUP2 SWAP1 MSTORE PUSH1 0x24 DUP3 ADD MSTORE PUSH32 0x537472696E67733A20686578206C656E67746820696E73756666696369656E74 PUSH1 0x44 DUP3 ADD MSTORE PUSH1 0x64 ADD PUSH2 0x818 JUMP JUMPDEST PUSH1 0x40 MLOAD DUP1 PUSH2 0x1C0 ADD PUSH1 0x40 MSTORE DUP1 PUSH1 0x0 ISZERO ISZERO DUP2 MSTORE PUSH1 0x20 ADD PUSH1 0x0 ISZERO ISZERO DUP2 MSTORE PUSH1 0x20 ADD PUSH1 0x0 ISZERO ISZERO DUP2 MSTORE PUSH1 0x20 ADD PUSH1 0x60 DUP2 MSTORE PUSH1 0x20 ADD PUSH1 0x0 DUP2 MSTORE PUSH1 0x20 ADD PUSH1 0x0 DUP2 MSTORE PUSH1 0x20 ADD PUSH1 0x0 DUP2 MSTORE PUSH1 0x20 ADD PUSH1 0x0 DUP2 MSTORE PUSH1 0x20 ADD PUSH1 0x0 DUP2 MSTORE PUSH1 0x20 ADD PUSH1 0x0 PUSH1 0x1 PUSH1 0x1 PUSH1 0xA0 SHL SUB AND DUP2 MSTORE PUSH1 0x20 ADD PUSH1 0x0 PUSH1 0x1 PUSH1 0x1 PUSH1 0xA0 SHL SUB AND DUP2 MSTORE PUSH1 0x20 ADD PUSH2 0x2EA8 PUSH1 0x40 MLOAD DUP1 PUSH1 0xC0 ADD PUSH1 0x40 MSTORE DUP1 PUSH1 0x0 DUP2 MSTORE PUSH1 0x20 ADD PUSH1 0x0 DUP2 MSTORE PUSH1 0x20 ADD PUSH1 0x0 DUP2 MSTORE PUSH1 0x20 ADD PUSH1 0x0 DUP2 MSTORE PUSH1 0x20 ADD PUSH1 0x0 DUP2 MSTORE PUSH1 0x20 ADD PUSH1 0x0 DUP2 MSTORE POP SWAP1 JUMP JUMPDEST DUP2 MSTORE PUSH1 0x20 ADD PUSH1 0x0 DUP2 MSTORE PUSH1 0x20 ADD PUSH1 0x0 DUP2 MSTORE POP SWAP1 JUMP JUMPDEST DUP3 DUP1 SLOAD PUSH2 0x2EC8 SWAP1 PUSH2 0x3627 JUMP JUMPDEST SWAP1 PUSH1 0x0 MSTORE PUSH1 0x20 PUSH1 0x0 KECCAK256 SWAP1 PUSH1 0x1F ADD PUSH1 0x20 SWAP1 DIV DUP2 ADD SWAP3 DUP3 PUSH2 0x2EEA JUMPI PUSH1 0x0 DUP6 SSTORE PUSH2 0x2F30 JUMP JUMPDEST DUP3 PUSH1 0x1F LT PUSH2 0x2F03 JUMPI DUP1 MLOAD PUSH1 0xFF NOT AND DUP4 DUP1 ADD OR DUP6 SSTORE PUSH2 0x2F30 JUMP JUMPDEST DUP3 DUP1 ADD PUSH1 0x1 ADD DUP6 SSTORE DUP3 ISZERO PUSH2 0x2F30 JUMPI SWAP2 DUP3 ADD JUMPDEST DUP3 DUP2 GT ISZERO PUSH2 0x2F30 JUMPI DUP3 MLOAD DUP3 SSTORE SWAP2 PUSH1 0x20 ADD SWAP2 SWAP1 PUSH1 0x1 ADD SWAP1 PUSH2 0x2F15 JUMP JUMPDEST POP PUSH2 0x2F3C SWAP3 SWAP2 POP PUSH2 0x2F40 JUMP JUMPDEST POP SWAP1 JUMP JUMPDEST JUMPDEST DUP1 DUP3 GT ISZERO PUSH2 0x2F3C JUMPI PUSH1 0x0 DUP2 SSTORE PUSH1 0x1 ADD PUSH2 0x2F41 JUMP JUMPDEST PUSH1 0x0 DUP1 PUSH1 0x0 PUSH1 0x60 DUP5 DUP7 SUB SLT ISZERO PUSH2 0x2F6A JUMPI PUSH1 0x0 DUP1 REVERT JUMPDEST POP POP DUP2 CALLDATALOAD SWAP4 PUSH1 0x20 DUP4 ADD CALLDATALOAD SWAP4 POP PUSH1 0x40 SWAP1 SWAP3 ADD CALLDATALOAD SWAP2 SWAP1 POP JUMP JUMPDEST PUSH1 0x0 PUSH1 0x20 DUP3 DUP5 SUB SLT ISZERO PUSH2 0x2F93 JUMPI PUSH1 0x0 DUP1 REVERT JUMPDEST DUP2 CALLDATALOAD PUSH1 0x1 PUSH1 0x1 PUSH1 0xE0 SHL SUB NOT DUP2 AND DUP2 EQ PUSH2 0x2886 JUMPI PUSH1 0x0 DUP1 REVERT JUMPDEST DUP1 CALLDATALOAD PUSH1 0x1 PUSH1 0x1 PUSH1 0xA0 SHL SUB DUP2 AND DUP2 EQ PUSH2 0x2FC2 JUMPI PUSH1 0x0 DUP1 REVERT JUMPDEST SWAP2 SWAP1 POP JUMP JUMPDEST PUSH1 0x0 PUSH1 0x20 DUP3 DUP5 SUB SLT ISZERO PUSH2 0x2FD9 JUMPI PUSH1 0x0 DUP1 REVERT JUMPDEST PUSH2 0x2886 DUP3 PUSH2 0x2FAB JUMP JUMPDEST PUSH1 0x0 JUMPDEST DUP4 DUP2 LT ISZERO PUSH2 0x2FFD JUMPI DUP2 DUP2 ADD MLOAD DUP4 DUP3 ADD MSTORE PUSH1 0x20 ADD PUSH2 0x2FE5 JUMP JUMPDEST DUP4 DUP2 GT ISZERO PUSH2 0x1359 JUMPI POP POP PUSH1 0x0 SWAP2 ADD MSTORE JUMP JUMPDEST PUSH1 0x0 DUP2 MLOAD DUP1 DUP5 MSTORE PUSH2 0x3026 DUP2 PUSH1 0x20 DUP7 ADD PUSH1 0x20 DUP7 ADD PUSH2 0x2FE2 JUMP JUMPDEST PUSH1 0x1F ADD PUSH1 0x1F NOT AND SWAP3 SWAP1 SWAP3 ADD PUSH1 0x20 ADD SWAP3 SWAP2 POP POP JUMP JUMPDEST PUSH1 0x20 DUP2 MSTORE PUSH2 0x304D PUSH1 0x20 DUP3 ADD DUP4 MLOAD ISZERO ISZERO SWAP1 MSTORE JUMP JUMPDEST PUSH1 0x0 PUSH1 0x20 DUP4 ADD MLOAD PUSH2 0x3062 PUSH1 0x40 DUP5 ADD DUP3 ISZERO ISZERO SWAP1 MSTORE JUMP JUMPDEST POP PUSH1 0x40 DUP4 ADD MLOAD DUP1 ISZERO ISZERO PUSH1 0x60 DUP5 ADD MSTORE POP PUSH1 0x60 DUP4 ADD MLOAD PUSH2 0x260 DUP1 PUSH1 0x80 DUP6 ADD MSTORE PUSH2 0x308D PUSH2 0x280 DUP6 ADD DUP4 PUSH2 0x300E JUMP JUMPDEST SWAP2 POP PUSH1 0x80 DUP6 ADD MLOAD PUSH1 0xA0 DUP6 ADD MSTORE PUSH1 0xA0 DUP6 ADD MLOAD PUSH1 0xC0 DUP6 ADD MSTORE PUSH1 0xC0 DUP6 ADD MLOAD PUSH1 0xE0 DUP6 ADD MSTORE PUSH1 0xE0 DUP6 ADD MLOAD PUSH2 0x100 DUP2 DUP2 DUP8 ADD MSTORE DUP1 DUP8 ADD MLOAD SWAP2 POP POP PUSH2 0x120 DUP2 DUP2 DUP8 ADD MSTORE DUP1 DUP8 ADD MLOAD SWAP2 POP POP PUSH2 0x140 PUSH2 0x30E7 DUP2 DUP8 ADD DUP4 PUSH1 0x1 PUSH1 0x1 PUSH1 0xA0 SHL SUB AND SWAP1 MSTORE JUMP JUMPDEST DUP7 ADD MLOAD SWAP1 POP PUSH2 0x160 PUSH2 0x3103 DUP7 DUP3 ADD DUP4 PUSH1 0x1 PUSH1 0x1 PUSH1 0xA0 SHL SUB AND SWAP1 MSTORE JUMP JUMPDEST DUP7 ADD MLOAD SWAP1 POP PUSH2 0x180 PUSH2 0x314C DUP7 DUP3 ADD DUP4 DUP1 MLOAD DUP3 MSTORE PUSH1 0x20 DUP2 ADD MLOAD PUSH1 0x20 DUP4 ADD MSTORE PUSH1 0x40 DUP2 ADD MLOAD PUSH1 0x40 DUP4 ADD MSTORE PUSH1 0x60 DUP2 ADD MLOAD PUSH1 0x60 DUP4 ADD MSTORE PUSH1 0x80 DUP2 ADD MLOAD PUSH1 0x80 DUP4 ADD MSTORE PUSH1 0xA0 DUP2 ADD MLOAD PUSH1 0xA0 DUP4 ADD MSTORE POP POP JUMP JUMPDEST DUP7 ADD MLOAD PUSH2 0x240 DUP7 ADD MSTORE POP PUSH2 0x1A0 SWAP1 SWAP5 ADD MLOAD SWAP4 SWAP1 SWAP3 ADD SWAP3 SWAP1 SWAP3 MSTORE SWAP2 SWAP1 POP JUMP JUMPDEST PUSH1 0x0 DUP1 PUSH1 0x40 DUP4 DUP6 SUB SLT ISZERO PUSH2 0x317D JUMPI PUSH1 0x0 DUP1 REVERT JUMPDEST PUSH2 0x3186 DUP4 PUSH2 0x2FAB JUMP JUMPDEST SWAP2 POP PUSH2 0x3194 PUSH1 0x20 DUP5 ADD PUSH2 0x2FAB JUMP JUMPDEST SWAP1 POP SWAP3 POP SWAP3 SWAP1 POP JUMP JUMPDEST PUSH1 0x0 PUSH1 0x20 DUP3 DUP5 SUB SLT ISZERO PUSH2 0x31AF JUMPI PUSH1 0x0 DUP1 REVERT JUMPDEST POP CALLDATALOAD SWAP2 SWAP1 POP JUMP JUMPDEST PUSH1 0x0 DUP1 PUSH1 0x40 DUP4 DUP6 SUB SLT ISZERO PUSH2 0x31C9 JUMPI PUSH1 0x0 DUP1 REVERT JUMPDEST POP POP DUP1 CALLDATALOAD SWAP3 PUSH1 0x20 SWAP1 SWAP2 ADD CALLDATALOAD SWAP2 POP JUMP JUMPDEST PUSH1 0x0 DUP1 PUSH1 0x40 DUP4 DUP6 SUB SLT ISZERO PUSH2 0x31EB JUMPI PUSH1 0x0 DUP1 REVERT JUMPDEST DUP3 CALLDATALOAD SWAP2 POP PUSH2 0x3194 PUSH1 0x20 DUP5 ADD PUSH2 0x2FAB JUMP JUMPDEST PUSH1 0x0 DUP1 PUSH1 0x40 DUP4 DUP6 SUB SLT ISZERO PUSH2 0x320E JUMPI PUSH1 0x0 DUP1 REVERT JUMPDEST PUSH2 0x3217 DUP4 PUSH2 0x2FAB JUMP JUMPDEST SWAP5 PUSH1 0x20 SWAP4 SWAP1 SWAP4 ADD CALLDATALOAD SWAP4 POP POP POP JUMP JUMPDEST PUSH1 0x20 DUP2 MSTORE PUSH1 0x0 PUSH2 0x2886 PUSH1 0x20 DUP4 ADD DUP5 PUSH2 0x300E JUMP JUMPDEST PUSH4 0x4E487B71 PUSH1 0xE0 SHL PUSH1 0x0 MSTORE PUSH1 0x41 PUSH1 0x4 MSTORE PUSH1 0x24 PUSH1 0x0 REVERT JUMPDEST PUSH1 0x0 DUP3 PUSH1 0x1F DUP4 ADD SLT PUSH2 0x325F JUMPI PUSH1 0x0 DUP1 REVERT JUMPDEST DUP2 CALLDATALOAD PUSH8 0xFFFFFFFFFFFFFFFF DUP1 DUP3 GT ISZERO PUSH2 0x327A JUMPI PUSH2 0x327A PUSH2 0x3238 JUMP JUMPDEST PUSH1 0x40 MLOAD PUSH1 0x1F DUP4 ADD PUSH1 0x1F NOT SWAP1 DUP2 AND PUSH1 0x3F ADD AND DUP2 ADD SWAP1 DUP3 DUP3 GT DUP2 DUP4 LT OR ISZERO PUSH2 0x32A2 JUMPI PUSH2 0x32A2 PUSH2 0x3238 JUMP JUMPDEST DUP2 PUSH1 0x40 MSTORE DUP4 DUP2 MSTORE DUP7 PUSH1 0x20 DUP6 DUP9 ADD ADD GT ISZERO PUSH2 0x32BB JUMPI PUSH1 0x0 DUP1 REVERT JUMPDEST DUP4 PUSH1 0x20 DUP8 ADD PUSH1 0x20 DUP4 ADD CALLDATACOPY PUSH1 0x0 PUSH1 0x20 DUP6 DUP4 ADD ADD MSTORE DUP1 SWAP5 POP POP POP POP POP SWAP3 SWAP2 POP POP JUMP JUMPDEST PUSH1 0x0 DUP1 PUSH1 0x40 DUP4 DUP6 SUB SLT ISZERO PUSH2 0x32EE JUMPI PUSH1 0x0 DUP1 REVERT JUMPDEST DUP3 CALLDATALOAD SWAP2 POP PUSH1 0x20 DUP4 ADD CALLDATALOAD PUSH8 0xFFFFFFFFFFFFFFFF DUP2 GT ISZERO PUSH2 0x330C JUMPI PUSH1 0x0 DUP1 REVERT JUMPDEST PUSH2 0x3318 DUP6 DUP3 DUP7 ADD PUSH2 0x324E JUMP JUMPDEST SWAP2 POP POP SWAP3 POP SWAP3 SWAP1 POP JUMP JUMPDEST PUSH1 0x0 DUP1 PUSH1 0x0 PUSH1 0x60 DUP5 DUP7 SUB SLT ISZERO PUSH2 0x3337 JUMPI PUSH1 0x0 DUP1 REVERT JUMPDEST PUSH2 0x3340 DUP5 PUSH2 0x2FAB JUMP JUMPDEST SWAP6 PUSH1 0x20 DUP6 ADD CALLDATALOAD SWAP6 POP PUSH1 0x40 SWAP1 SWAP5 ADD CALLDATALOAD SWAP4 SWAP3 POP POP POP JUMP JUMPDEST PUSH1 0x0 DUP1 PUSH1 0x0 PUSH1 0x60 DUP5 DUP7 SUB SLT ISZERO PUSH2 0x336A JUMPI PUSH1 0x0 DUP1 REVERT JUMPDEST PUSH2 0x3373 DUP5 PUSH2 0x2FAB JUMP JUMPDEST SWAP3 POP PUSH1 0x20 DUP5 ADD CALLDATALOAD SWAP2 POP PUSH1 0x40 DUP5 ADD CALLDATALOAD PUSH8 0xFFFFFFFFFFFFFFFF DUP2 GT ISZERO PUSH2 0x3396 JUMPI PUSH1 0x0 DUP1 REVERT JUMPDEST PUSH2 0x33A2 DUP7 DUP3 DUP8 ADD PUSH2 0x324E JUMP JUMPDEST SWAP2 POP POP SWAP3 POP SWAP3 POP SWAP3 JUMP JUMPDEST PUSH1 0x0 DUP1 PUSH1 0x0 DUP1 PUSH1 0x0 DUP1 PUSH1 0x0 PUSH1 0xE0 DUP9 DUP11 SUB SLT ISZERO PUSH2 0x33C7 JUMPI PUSH1 0x0 DUP1 REVERT JUMPDEST PUSH2 0x33D0 DUP9 PUSH2 0x2FAB JUMP JUMPDEST SWAP7 POP PUSH1 0x20 DUP9 ADD CALLDATALOAD PUSH8 0xFFFFFFFFFFFFFFFF DUP2 GT ISZERO PUSH2 0x33EC JUMPI PUSH1 0x0 DUP1 REVERT JUMPDEST PUSH2 0x33F8 DUP11 DUP3 DUP12 ADD PUSH2 0x324E JUMP JUMPDEST SWAP7 POP POP PUSH1 0x40 DUP9 ADD CALLDATALOAD SWAP5 POP PUSH1 0x60 DUP9 ADD CALLDATALOAD SWAP4 POP PUSH1 0x80 DUP9 ADD CALLDATALOAD SWAP3 POP PUSH1 0xA0 DUP9 ADD CALLDATALOAD SWAP2 POP PUSH2 0x3423 PUSH1 0xC0 DUP10 ADD PUSH2 0x2FAB JUMP JUMPDEST SWAP1 POP SWAP3 SWAP6 SWAP9 SWAP2 SWAP5 SWAP8 POP SWAP3 SWAP6 POP JUMP JUMPDEST PUSH1 0x20 DUP1 DUP3 MSTORE DUP3 MLOAD DUP3 DUP3 ADD DUP2 SWAP1 MSTORE PUSH1 0x0 SWAP2 SWAP1 DUP5 DUP3 ADD SWAP1 PUSH1 0x40 DUP6 ADD SWAP1 DUP5 JUMPDEST DUP2 DUP2 LT ISZERO PUSH2 0x3472 JUMPI DUP4 MLOAD PUSH1 0x1 PUSH1 0x1 PUSH1 0xA0 SHL SUB AND DUP4 MSTORE SWAP3 DUP5 ADD SWAP3 SWAP2 DUP5 ADD SWAP2 PUSH1 0x1 ADD PUSH2 0x344D JUMP JUMPDEST POP SWAP1 SWAP7 SWAP6 POP POP POP POP POP POP JUMP JUMPDEST DUP15 ISZERO ISZERO DUP2 MSTORE DUP14 ISZERO ISZERO PUSH1 0x20 DUP3 ADD MSTORE DUP13 ISZERO ISZERO PUSH1 0x40 DUP3 ADD MSTORE PUSH2 0x260 PUSH1 0x60 DUP3 ADD MSTORE PUSH1 0x0 PUSH2 0x34AB PUSH2 0x260 DUP4 ADD DUP15 PUSH2 0x300E JUMP JUMPDEST SWAP1 POP DUP12 PUSH1 0x80 DUP4 ADD MSTORE DUP11 PUSH1 0xA0 DUP4 ADD MSTORE DUP10 PUSH1 0xC0 DUP4 ADD MSTORE DUP9 PUSH1 0xE0 DUP4 ADD MSTORE DUP8 PUSH2 0x100 DUP4 ADD MSTORE PUSH2 0x34E2 PUSH2 0x120 DUP4 ADD DUP9 PUSH1 0x1 PUSH1 0x1 PUSH1 0xA0 SHL SUB AND SWAP1 MSTORE JUMP JUMPDEST PUSH1 0x1 PUSH1 0x1 PUSH1 0xA0 SHL SUB DUP7 AND PUSH2 0x140 DUP4 ADD MSTORE DUP5 MLOAD PUSH2 0x160 DUP4 ADD MSTORE PUSH1 0x20 DUP6 ADD MLOAD PUSH2 0x180 DUP4 ADD MSTORE PUSH1 0x40 DUP6 ADD MLOAD PUSH2 0x1A0 DUP4 ADD MSTORE PUSH1 0x60 DUP6 ADD MLOAD PUSH2 0x1C0 DUP4 ADD MSTORE PUSH1 0x80 DUP6 ADD MLOAD PUSH2 0x1E0 DUP4 ADD MSTORE PUSH1 0xA0 DUP6 ADD MLOAD PUSH2 0x200 DUP4 ADD MSTORE PUSH2 0x220 DUP3 ADD SWAP4 SWAP1 SWAP4 MSTORE PUSH2 0x240 ADD MSTORE SWAP13 SWAP12 POP POP POP POP POP POP POP POP POP POP POP POP JUMP JUMPDEST PUSH1 0x0 DUP1 PUSH1 0x40 DUP4 DUP6 SUB SLT ISZERO PUSH2 0x3562 JUMPI PUSH1 0x0 DUP1 REVERT JUMPDEST PUSH2 0x356B DUP4 PUSH2 0x2FAB JUMP JUMPDEST SWAP2 POP PUSH1 0x20 DUP4 ADD CALLDATALOAD PUSH8 0xFFFFFFFFFFFFFFFF DUP2 GT ISZERO PUSH2 0x330C JUMPI PUSH1 0x0 DUP1 REVERT JUMPDEST PUSH1 0x0 DUP1 PUSH1 0x0 PUSH1 0x60 DUP5 DUP7 SUB SLT ISZERO PUSH2 0x359C JUMPI PUSH1 0x0 DUP1 REVERT JUMPDEST PUSH2 0x35A5 DUP5 PUSH2 0x2FAB JUMP JUMPDEST SWAP3 POP PUSH2 0x35B3 PUSH1 0x20 DUP6 ADD PUSH2 0x2FAB JUMP JUMPDEST SWAP2 POP PUSH1 0x40 DUP5 ADD CALLDATALOAD SWAP1 POP SWAP3 POP SWAP3 POP SWAP3 JUMP JUMPDEST PUSH1 0x20 DUP1 DUP3 MSTORE DUP2 DUP2 ADD MSTORE PUSH32 0x4F776E61626C653A2063616C6C6572206973206E6F7420746865206F776E6572 PUSH1 0x40 DUP3 ADD MSTORE PUSH1 0x60 ADD SWAP1 JUMP JUMPDEST PUSH1 0x20 DUP1 DUP3 MSTORE PUSH1 0x15 SWAP1 DUP3 ADD MSTORE PUSH21 0x2A37B5B2B7103237B2B9903737BA1032BC34B9BA17 PUSH1 0x59 SHL PUSH1 0x40 DUP3 ADD MSTORE PUSH1 0x60 ADD SWAP1 JUMP JUMPDEST PUSH1 0x1 DUP2 DUP2 SHR SWAP1 DUP3 AND DUP1 PUSH2 0x363B JUMPI PUSH1 0x7F DUP3 AND SWAP2 POP JUMPDEST PUSH1 0x20 DUP3 LT DUP2 SUB PUSH2 0x365B JUMPI PUSH4 0x4E487B71 PUSH1 0xE0 SHL PUSH1 0x0 MSTORE PUSH1 0x22 PUSH1 0x4 MSTORE PUSH1 0x24 PUSH1 0x0 REVERT JUMPDEST POP SWAP2 SWAP1 POP JUMP JUMPDEST PUSH1 0x20 DUP1 DUP3 MSTORE PUSH1 0x21 SWAP1 DUP3 ADD MSTORE PUSH32 0x416D6F756E74206D7573742062652067726561746572207468616E207A65726F PUSH1 0x40 DUP3 ADD MSTORE PUSH1 0x17 PUSH1 0xF9 SHL PUSH1 0x60 DUP3 ADD MSTORE PUSH1 0x80 ADD SWAP1 JUMP JUMPDEST PUSH1 0x0 PUSH1 0x20 DUP3 DUP5 SUB SLT ISZERO PUSH2 0x36B4 JUMPI PUSH1 0x0 DUP1 REVERT JUMPDEST POP MLOAD SWAP2 SWAP1 POP JUMP JUMPDEST PUSH1 0x0 PUSH1 0x20 DUP3 DUP5 SUB SLT ISZERO PUSH2 0x36CD JUMPI PUSH1 0x0 DUP1 REVERT JUMPDEST DUP2 MLOAD DUP1 ISZERO ISZERO DUP2 EQ PUSH2 0x2886 JUMPI PUSH1 0x0 DUP1 REVERT JUMPDEST PUSH4 0x4E487B71 PUSH1 0xE0 SHL PUSH1 0x0 MSTORE PUSH1 0x11 PUSH1 0x4 MSTORE PUSH1 0x24 PUSH1 0x0 REVERT JUMPDEST PUSH1 0x0 DUP3 DUP3 LT ISZERO PUSH2 0x3705 JUMPI PUSH2 0x3705 PUSH2 0x36DD JUMP JUMPDEST POP SUB SWAP1 JUMP JUMPDEST PUSH1 0x0 DUP3 NOT DUP3 GT ISZERO PUSH2 0x371D JUMPI PUSH2 0x371D PUSH2 0x36DD JUMP JUMPDEST POP ADD SWAP1 JUMP JUMPDEST PUSH1 0x0 DUP2 PUSH1 0x0 NOT DIV DUP4 GT DUP3 ISZERO ISZERO AND ISZERO PUSH2 0x373C JUMPI PUSH2 0x373C PUSH2 0x36DD JUMP JUMPDEST POP MUL SWAP1 JUMP JUMPDEST PUSH1 0x0 DUP3 MLOAD PUSH2 0x3753 DUP2 DUP5 PUSH1 0x20 DUP8 ADD PUSH2 0x2FE2 JUMP JUMPDEST SWAP2 SWAP1 SWAP2 ADD SWAP3 SWAP2 POP POP JUMP JUMPDEST PUSH32 0x5374616B696E6720415052206D757374206265206265747765656E2000000000 DUP2 MSTORE PUSH1 0x0 DUP4 MLOAD PUSH2 0x3795 DUP2 PUSH1 0x1C DUP6 ADD PUSH1 0x20 DUP9 ADD PUSH2 0x2FE2 JUMP JUMPDEST PUSH6 0x129030B7321 PUSH1 0xD5 SHL PUSH1 0x1C SWAP2 DUP5 ADD SWAP2 DUP3 ADD MSTORE DUP4 MLOAD PUSH2 0x37BB DUP2 PUSH1 0x22 DUP5 ADD PUSH1 0x20 DUP9 ADD PUSH2 0x2FE2 JUMP JUMPDEST PUSH2 0x1297 PUSH1 0xF1 SHL PUSH1 0x22 SWAP3 SWAP1 SWAP2 ADD SWAP2 DUP3 ADD MSTORE PUSH1 0x24 ADD SWAP5 SWAP4 POP POP POP POP JUMP JUMPDEST PUSH4 0x4E487B71 PUSH1 0xE0 SHL PUSH1 0x0 MSTORE PUSH1 0x32 PUSH1 0x4 MSTORE PUSH1 0x24 PUSH1 0x0 REVERT JUMPDEST PUSH1 0x0 PUSH1 0x1 DUP3 ADD PUSH2 0x37FE JUMPI PUSH2 0x37FE PUSH2 0x36DD JUMP JUMPDEST POP PUSH1 0x1 ADD SWAP1 JUMP JUMPDEST PUSH32 0x546F6B656E206E616D65206C656E677468206D75737420626520626574776565 DUP2 MSTORE PUSH2 0x371 PUSH1 0xF5 SHL PUSH1 0x20 DUP3 ADD MSTORE PUSH1 0x0 DUP4 MLOAD PUSH2 0x3848 DUP2 PUSH1 0x22 DUP6 ADD PUSH1 0x20 DUP9 ADD PUSH2 0x2FE2 JUMP JUMPDEST PUSH5 0x1030B7321 PUSH1 0xDD SHL PUSH1 0x22 SWAP2 DUP5 ADD SWAP2 DUP3 ADD MSTORE DUP4 MLOAD PUSH2 0x386D DUP2 PUSH1 0x27 DUP5 ADD PUSH1 0x20 DUP9 ADD PUSH2 0x2FE2 JUMP JUMPDEST PUSH1 0x17 PUSH1 0xF9 SHL PUSH1 0x27 SWAP3 SWAP1 SWAP2 ADD SWAP2 DUP3 ADD MSTORE PUSH1 0x28 ADD SWAP5 SWAP4 POP POP POP POP JUMP JUMPDEST PUSH4 0x4E487B71 PUSH1 0xE0 SHL PUSH1 0x0 MSTORE PUSH1 0x12 PUSH1 0x4 MSTORE PUSH1 0x24 PUSH1 0x0 REVERT JUMPDEST PUSH1 0x0 DUP3 PUSH2 0x38AC JUMPI PUSH2 0x38AC PUSH2 0x3887 JUMP JUMPDEST POP DIV SWAP1 JUMP JUMPDEST PUSH32 0x5374616B6520666565206D757374206265206265747765656E20000000000000 DUP2 MSTORE PUSH1 0x0 DUP4 MLOAD PUSH2 0x38E9 DUP2 PUSH1 0x1A DUP6 ADD PUSH1 0x20 DUP9 ADD PUSH2 0x2FE2 JUMP JUMPDEST DUP1 DUP4 ADD SWAP1 POP PUSH6 0x129030B7321 PUSH1 0xD5 SHL PUSH1 0x1A DUP3 ADD MSTORE DUP4 MLOAD PUSH2 0x3910 DUP2 PUSH1 0x20 DUP5 ADD PUSH1 0x20 DUP9 ADD PUSH2 0x2FE2 JUMP JUMPDEST PUSH2 0x1297 PUSH1 0xF1 SHL PUSH1 0x20 SWAP3 SWAP1 SWAP2 ADD SWAP2 DUP3 ADD MSTORE PUSH1 0x22 ADD SWAP5 SWAP4 POP POP POP POP JUMP JUMPDEST PUSH32 0x556E7374616B6520666565206D757374206265206265747765656E2000000000 DUP2 MSTORE PUSH1 0x0 DUP4 MLOAD PUSH2 0x3795 DUP2 PUSH1 0x1C DUP6 ADD PUSH1 0x20 DUP9 ADD PUSH2 0x2FE2 JUMP JUMPDEST PUSH1 0x0 DUP3 PUSH2 0x3972 JUMPI PUSH2 0x3972 PUSH2 0x3887 JUMP JUMPDEST POP MOD SWAP1 JUMP JUMPDEST PUSH32 0x4465706F73697420666565206D757374206265206265747765656E2000000000 DUP2 MSTORE PUSH1 0x0 DUP4 MLOAD PUSH2 0x3795 DUP2 PUSH1 0x1C DUP6 ADD PUSH1 0x20 DUP9 ADD PUSH2 0x2FE2 JUMP JUMPDEST PUSH32 0x576974686472617720666565206D757374206265206265747765656E20000000 DUP2 MSTORE PUSH1 0x0 DUP4 MLOAD PUSH2 0x39E7 DUP2 PUSH1 0x1D DUP6 ADD PUSH1 0x20 DUP9 ADD PUSH2 0x2FE2 JUMP JUMPDEST PUSH6 0x129030B7321 PUSH1 0xD5 SHL PUSH1 0x1D SWAP2 DUP5 ADD SWAP2 DUP3 ADD MSTORE DUP4 MLOAD PUSH2 0x3A0D DUP2 PUSH1 0x23 DUP5 ADD PUSH1 0x20 DUP9 ADD PUSH2 0x2FE2 JUMP JUMPDEST PUSH2 0x1297 PUSH1 0xF1 SHL PUSH1 0x23 SWAP3 SWAP1 SWAP2 ADD SWAP2 DUP3 ADD MSTORE PUSH1 0x25 ADD SWAP5 SWAP4 POP POP POP POP JUMP JUMPDEST PUSH32 0x416363657373436F6E74726F6C3A206163636F756E7420000000000000000000 DUP2 MSTORE PUSH1 0x0 DUP4 MLOAD PUSH2 0x3A60 DUP2 PUSH1 0x17 DUP6 ADD PUSH1 0x20 DUP9 ADD PUSH2 0x2FE2 JUMP JUMPDEST PUSH17 0x1034B99036B4B9B9B4B733903937B6329 PUSH1 0x7D SHL PUSH1 0x17 SWAP2 DUP5 ADD SWAP2 DUP3 ADD MSTORE DUP4 MLOAD PUSH2 0x3A91 DUP2 PUSH1 0x28 DUP5 ADD PUSH1 0x20 DUP9 ADD PUSH2 0x2FE2 JUMP JUMPDEST ADD PUSH1 0x28 ADD SWAP5 SWAP4 POP POP POP POP JUMP JUMPDEST PUSH1 0x0 DUP2 PUSH2 0x3AAC JUMPI PUSH2 0x3AAC PUSH2 0x36DD JUMP JUMPDEST POP PUSH1 0x0 NOT ADD SWAP1 JUMP INVALID LOG2 PUSH5 0x6970667358 0x22 SLT KECCAK256 PUSH22 0x19C57B91733CF45D1E90240EDC1476AC117885149F89 0x4B PUSH25 0x9C1B0B592628BE64736F6C634300080D003300000000000000 ",
  "sha1": "1490ff3304d6886a104444baff285d58fa9031d7",
  "source": "// SPDX-License-Identifier: MIT\npragma solidity ^0.8.0;\n\nimport \"./SavvyFinanceFarmBase.sol\";\n\ncontract SavvyFinanceFarmToken is SavvyFinanceFarmBase {\n    // categoryNumber => categoryName\n    mapping(uint256 => string) public tokenCategory;\n    // token => address => bool\n    mapping(address => mapping(address => bool))\n        public isExcludedFromTokenAdminFees;\n\n    address[] public tokens;\n    struct TokenFeesDetails {\n        uint256 devDepositFee;\n        uint256 devWithdrawFee;\n        uint256 devStakeFee;\n        uint256 devUnstakeFee;\n        uint256 adminStakeFee;\n        uint256 adminUnstakeFee;\n    }\n    struct TokenDetails {\n        // uint256 index;\n        bool isActive;\n        bool isVerified;\n        bool hasMultiTokenRewards;\n        string name;\n        uint256 category;\n        uint256 price;\n        uint256 rewardBalance;\n        uint256 stakingBalance;\n        uint256 stakingApr;\n        address rewardToken;\n        address admin;\n        TokenFeesDetails fees;\n        uint256 timestampAdded;\n        uint256 timestampLastUpdated;\n    }\n    mapping(address => TokenDetails) public tokensData;\n\n    function configTokenCategory(uint256 _number, string memory _name)\n        public\n        onlyOwner\n    {\n        tokenCategory[_number] = _name;\n    }\n\n    function tokenExists(address _token) public view returns (bool) {\n        for (uint256 tokenIndex = 0; tokenIndex < tokens.length; tokenIndex++) {\n            if (tokens[tokenIndex] == _token) return true;\n        }\n        return false;\n    }\n\n    function getTokens() public view returns (address[] memory) {\n        return tokens;\n    }\n\n    function getTokenData(address _token)\n        public\n        view\n        returns (TokenDetails memory)\n    {\n        return tokensData[_token];\n    }\n\n    function getTokenRewardValue(address _token) public view returns (uint256) {\n        return\n            _fromWei(\n                tokensData[_token].rewardBalance * tokensData[_token].price\n            );\n    }\n\n    function setTokenPrice(address _token, uint256 _price) public onlyOwner {\n        require(tokenExists(_token), \"Token does not exist.\");\n        tokensData[_token].price = _price;\n        tokensData[_token].timestampLastUpdated = block.timestamp;\n    }\n\n    function setTokenAdmin(address _token, address _admin) public onlyOwner {\n        require(tokenExists(_token), \"Token does not exist.\");\n        if (tokensData[_token].admin != owner())\n            revokeRole(_toRole(_token), tokensData[_token].admin);\n        tokensData[_token].admin = _admin;\n        tokensData[_token].timestampLastUpdated = block.timestamp;\n        grantRole(_toRole(_token), tokensData[_token].admin);\n    }\n\n    function setTokenDevDepositWithdrawFees(\n        address _token,\n        uint256 _devDepositFee,\n        uint256 _devWithdrawFee\n    ) public onlyOwner {\n        _setTokenDepositWithdrawFees(\n            _token,\n            _devDepositFee,\n            _devWithdrawFee,\n            \"dev\"\n        );\n    }\n\n    function setTokenDevStakeUnstakeFees(\n        address _token,\n        uint256 _devStakeFee,\n        uint256 _devUnstakeFee\n    ) public onlyOwner {\n        _setTokenStakeUnstakeFees(_token, _devStakeFee, _devUnstakeFee, \"dev\");\n    }\n\n    function verifyToken(address _token) public onlyOwner {\n        require(tokenExists(_token), \"Token does not exist.\");\n        tokensData[_token].isVerified = true;\n    }\n\n    function unverifyToken(address _token) public onlyOwner {\n        require(tokenExists(_token), \"Token does not exist.\");\n        tokensData[_token].isVerified = false;\n    }\n\n    function addToken(\n        address _token,\n        string memory _name,\n        uint256 _category,\n        uint256 _stakingApr,\n        uint256 _adminStakeFee,\n        uint256 _adminUnstakeFee,\n        address _rewardToken\n    ) public {\n        require(!tokenExists(_token), \"Token already exists.\");\n        _setupRole(_toRole(_token), owner());\n        _setupRole(_toRole(_token), _msgSender());\n        // uint256 index = tokens.length;\n        tokens.push(_token);\n        // tokensData[_token].index = index;\n        tokensData[_token].category = _category;\n        tokensData[_token].admin = _msgSender();\n        tokensData[_token].fees.devDepositFee = 1; // in wei\n        tokensData[_token].fees.devWithdrawFee = 1; // in wei\n        tokensData[_token].fees.devStakeFee = 1; // in wei\n        tokensData[_token].fees.devUnstakeFee = 1; // in wei\n        tokensData[_token].timestampAdded = block.timestamp;\n        setTokenName(_token, _name);\n        setTokenStakingApr(_token, _stakingApr);\n        setTokenRewardToken(_token, _rewardToken);\n        setTokenAdminStakeUnstakeFees(_token, _adminStakeFee, _adminUnstakeFee);\n    }\n\n    function activateToken(address _token) public onlyRole(_toRole(_token)) {\n        require(tokenExists(_token), \"Token does not exist.\");\n        tokensData[_token].isActive = true;\n    }\n\n    function deactivateToken(address _token) public onlyRole(_toRole(_token)) {\n        require(tokenExists(_token), \"Token does not exist.\");\n        tokensData[_token].isActive = false;\n    }\n\n    function excludeFromTokenAdminFees(address _token, address _address)\n        public\n        onlyRole(_toRole(_token))\n    {\n        isExcludedFromTokenAdminFees[_token][_address] = true;\n    }\n\n    function includeInTokenAdminFees(address _token, address _address)\n        public\n        onlyRole(_toRole(_token))\n    {\n        isExcludedFromTokenAdminFees[_token][_address] = false;\n    }\n\n    function setTokenName(address _token, string memory _name)\n        public\n        onlyRole(_toRole(_token))\n    {\n        require(tokenExists(_token), \"Token does not exist.\");\n        require(\n            bytes(_name).length >= configData.minimumTokenNameLength &&\n                bytes(_name).length <= configData.maximumTokenNameLength,\n            string.concat(\n                \"Token name length must be between \",\n                Strings.toString(configData.minimumTokenNameLength),\n                \" and \",\n                Strings.toString(configData.maximumTokenNameLength),\n                \".\"\n            )\n        );\n        tokensData[_token].name = _name;\n        tokensData[_token].timestampLastUpdated = block.timestamp;\n    }\n\n    function setTokenCategory(address _token, uint256 _category)\n        public\n        onlyRole(_toRole(_token))\n    {\n        require(tokenExists(_token), \"Token does not exist.\");\n        tokensData[_token].category = _category;\n        tokensData[_token].timestampLastUpdated = block.timestamp;\n    }\n\n    function setTokenStakingApr(address _token, uint256 _stakingApr)\n        public\n        onlyRole(_toRole(_token))\n    {\n        require(tokenExists(_token), \"Token does not exist.\");\n        require(\n            _stakingApr >= configData.minimumStakingApr &&\n                _stakingApr <= configData.maximumStakingApr,\n            string.concat(\n                \"Staking APR must be between \",\n                Strings.toString(_fromWei(configData.minimumStakingApr)),\n                \"% and \",\n                Strings.toString(_fromWei(configData.maximumStakingApr)),\n                \"%.\"\n            )\n        );\n        tokensData[_token].stakingApr = _stakingApr;\n        tokensData[_token].timestampLastUpdated = block.timestamp;\n    }\n\n    function setTokenRewardToken(address _token, address _reward_token)\n        public\n        onlyRole(_toRole(_token))\n        onlyRole(_toRole(_reward_token))\n    {\n        require(tokenExists(_token), \"Token does not exist.\");\n        require(tokenExists(_reward_token), \"Reward token does not exist.\");\n        tokensData[_token].rewardToken = _reward_token;\n        tokensData[_token].timestampLastUpdated = block.timestamp;\n    }\n\n    function setTokenAdminStakeUnstakeFees(\n        address _token,\n        uint256 _adminStakeFee,\n        uint256 _adminUnstakeFee\n    ) public onlyRole(_toRole(_token)) {\n        _setTokenStakeUnstakeFees(\n            _token,\n            _adminStakeFee,\n            _adminUnstakeFee,\n            \"admin\"\n        );\n    }\n\n    function enableTokenMultiTokenRewards(address _token)\n        public\n        onlyRole(_toRole(_token))\n    {\n        require(tokenExists(_token), \"Token does not exist.\");\n        require(tokensData[_token].isVerified, \"Token not verified.\");\n        tokensData[_token].hasMultiTokenRewards = true;\n    }\n\n    function disableTokenMultiTokenRewards(address _token)\n        public\n        onlyRole(_toRole(_token))\n    {\n        require(tokenExists(_token), \"Token does not exist.\");\n        tokensData[_token].hasMultiTokenRewards = false;\n    }\n\n    function depositToken(address _token, uint256 _amount)\n        public\n        onlyRole(_toRole(_token))\n    {\n        require(tokenExists(_token), \"Token does not exist.\");\n        require(_amount > 0, \"Amount must be greater than zero.\");\n        require(\n            IERC20(_token).balanceOf(_msgSender()) >= _amount,\n            \"Insufficient wallet balance.\"\n        );\n\n        (\n            uint256 devDepositFeeAmount,\n            uint256 adminDepositFeeAmount\n        ) = getTokenFeeAmounts(_token, _amount, \"deposit\");\n        if (devDepositFeeAmount != 0)\n            IERC20(_token).transferFrom(\n                _msgSender(),\n                configData.developmentWallet,\n                devDepositFeeAmount\n            );\n        uint256 depositAmount = _amount - devDepositFeeAmount;\n        IERC20(_token).transferFrom(_msgSender(), address(this), depositAmount);\n        tokensData[_token].rewardBalance += depositAmount;\n    }\n\n    function withdrawToken(address _token, uint256 _amount)\n        public\n        onlyRole(_toRole(_token))\n    {\n        require(tokenExists(_token), \"Token does not exist.\");\n        require(_amount > 0, \"Amount must be greater than zero.\");\n        require(\n            tokensData[_token].rewardBalance >= _amount,\n            \"Insufficient reward balance.\"\n        );\n\n        tokensData[_token].rewardBalance -= _amount;\n        (\n            uint256 devWithdrawFeeAmount,\n            uint256 adminWithdrawFeeAmount\n        ) = getTokenFeeAmounts(_token, _amount, \"withdraw\");\n        if (devWithdrawFeeAmount != 0)\n            IERC20(_token).transfer(\n                configData.developmentWallet,\n                devWithdrawFeeAmount\n            );\n        uint256 withdrawAmount = _amount - devWithdrawFeeAmount;\n        IERC20(_token).transfer(_msgSender(), withdrawAmount);\n    }\n\n    function getTokenFeeAmounts(\n        address _token,\n        uint256 _amount,\n        string memory _action\n    ) public view returns (uint256, uint256) {\n        require(tokenExists(_token), \"Token does not exist.\");\n        require(_amount > 0, \"Amount must be greater than zero.\");\n\n        uint256 devFee;\n        uint256 adminFee;\n        if (\n            keccak256(abi.encodePacked(_action)) ==\n            keccak256(abi.encodePacked(\"deposit\"))\n        ) {\n            devFee = (tokensData[_token].fees.devDepositFee > 1) /* in wei */\n                ? tokensData[_token].fees.devDepositFee\n                : configData.defaultDepositWithdrawFee;\n        } else if (\n            keccak256(abi.encodePacked(_action)) ==\n            keccak256(abi.encodePacked(\"withdraw\"))\n        ) {\n            devFee = (tokensData[_token].fees.devWithdrawFee > 1) /* in wei */\n                ? tokensData[_token].fees.devWithdrawFee\n                : configData.defaultDepositWithdrawFee;\n        } else if (\n            keccak256(abi.encodePacked(_action)) ==\n            keccak256(abi.encodePacked(\"stake\"))\n        ) {\n            devFee = (tokensData[_token].fees.devStakeFee > 1) /* in wei */\n                ? tokensData[_token].fees.devStakeFee\n                : configData.defaultStakeUnstakeFee;\n            adminFee = (tokensData[_token].fees.adminStakeFee > 1) /* in wei */\n                ? tokensData[_token].fees.adminStakeFee\n                : configData.defaultStakeUnstakeFee;\n        } else if (\n            keccak256(abi.encodePacked(_action)) ==\n            keccak256(abi.encodePacked(\"unstake\"))\n        ) {\n            devFee = (tokensData[_token].fees.devUnstakeFee > 1) /* in wei */\n                ? tokensData[_token].fees.devUnstakeFee\n                : configData.defaultStakeUnstakeFee;\n            adminFee = (tokensData[_token].fees.adminUnstakeFee > 1) /* in wei */\n                ? tokensData[_token].fees.adminUnstakeFee\n                : configData.defaultStakeUnstakeFee;\n        }\n\n        uint256 devFeeAmount = _calculatePercentage(devFee, _amount);\n        uint256 adminFeeAmount = _calculatePercentage(adminFee, _amount);\n        bool isExcludedFromFee = isExcludedFromFees[_msgSender()];\n        bool isExcludedFromAdminFee = isExcludedFromTokenAdminFees[_token][\n            _msgSender()\n        ];\n        if (isExcludedFromFee) {\n            devFeeAmount = 0;\n            adminFeeAmount = 0;\n        } else if (isExcludedFromAdminFee) {\n            adminFeeAmount = 0;\n        }\n\n        return (devFeeAmount, adminFeeAmount);\n    }\n\n    function _setTokenDepositWithdrawFees(\n        address _token,\n        uint256 _depositFee,\n        uint256 _withdrawFee,\n        string memory _for\n    ) internal {\n        require(tokenExists(_token), \"Token does not exist.\");\n        require(\n            _depositFee >= configData.minimumDepositWithdrawFee &&\n                _depositFee <= configData.maximumDepositWithdrawFee,\n            string.concat(\n                \"Deposit fee must be between \",\n                Strings.toString(\n                    _fromWei(configData.minimumDepositWithdrawFee)\n                ),\n                \"% and \",\n                Strings.toString(\n                    _fromWei(configData.maximumDepositWithdrawFee)\n                ),\n                \"%.\"\n            )\n        );\n        require(\n            _withdrawFee >= configData.minimumDepositWithdrawFee &&\n                _withdrawFee <= configData.maximumDepositWithdrawFee,\n            string.concat(\n                \"Withdraw fee must be between \",\n                Strings.toString(\n                    _fromWei(configData.minimumDepositWithdrawFee)\n                ),\n                \"% and \",\n                Strings.toString(\n                    _fromWei(configData.maximumDepositWithdrawFee)\n                ),\n                \"%.\"\n            )\n        );\n\n        if (\n            keccak256(abi.encodePacked(_for)) ==\n            keccak256(abi.encodePacked(\"dev\"))\n        ) {\n            tokensData[_token].fees.devDepositFee = _depositFee;\n            tokensData[_token].fees.devWithdrawFee = _withdrawFee;\n        } else if (\n            keccak256(abi.encodePacked(_for)) ==\n            keccak256(abi.encodePacked(\"admin\"))\n        ) {\n            // tokensData[_token].fees.adminDepositFee = _depositFee;\n            // tokensData[_token].fees.adminWithdrawFee = _withdrawFee;\n        }\n        tokensData[_token].timestampLastUpdated = block.timestamp;\n    }\n\n    function _setTokenStakeUnstakeFees(\n        address _token,\n        uint256 _stakeFee,\n        uint256 _unstakeFee,\n        string memory _for\n    ) internal {\n        require(tokenExists(_token), \"Token does not exist.\");\n        require(\n            _stakeFee >= configData.minimumStakeUnstakeFee &&\n                _stakeFee <= configData.maximumStakeUnstakeFee,\n            string.concat(\n                \"Stake fee must be between \",\n                Strings.toString(_fromWei(configData.minimumStakeUnstakeFee)),\n                \"% and \",\n                Strings.toString(_fromWei(configData.maximumStakeUnstakeFee)),\n                \"%.\"\n            )\n        );\n        require(\n            _unstakeFee >= configData.minimumStakeUnstakeFee &&\n                _unstakeFee <= configData.maximumStakeUnstakeFee,\n            string.concat(\n                \"Unstake fee must be between \",\n                Strings.toString(_fromWei(configData.minimumStakeUnstakeFee)),\n                \"% and \",\n                Strings.toString(_fromWei(configData.maximumStakeUnstakeFee)),\n                \"%.\"\n            )\n        );\n\n        if (\n            keccak256(abi.encodePacked(_for)) ==\n            keccak256(abi.encodePacked(\"dev\"))\n        ) {\n            tokensData[_token].fees.devStakeFee = _stakeFee;\n            tokensData[_token].fees.devUnstakeFee = _unstakeFee;\n        } else if (\n            keccak256(abi.encodePacked(_for)) ==\n            keccak256(abi.encodePacked(\"admin\"))\n        ) {\n            tokensData[_token].fees.adminStakeFee = _stakeFee;\n            tokensData[_token].fees.adminUnstakeFee = _unstakeFee;\n        }\n        tokensData[_token].timestampLastUpdated = block.timestamp;\n    }\n\n    function _toRole(address a) internal pure returns (bytes32) {\n        return keccak256(abi.encodePacked(a));\n    }\n}\n",
  "sourcePath": "contracts/SavvyFinanceFarmToken.sol",
  "type": "contract"
}