{
  "abi": [
    {
      "anonymous": false,
      "inputs": [
        {
          "indexed": true,
          "internalType": "address",
          "name": "previousOwner",
          "type": "address"
        },
        {
          "indexed": true,
          "internalType": "address",
          "name": "newOwner",
          "type": "address"
        }
      ],
      "name": "OwnershipTransferred",
      "type": "event"
    },
    {
      "anonymous": false,
      "inputs": [
        {
          "indexed": true,
          "internalType": "bytes32",
          "name": "role",
          "type": "bytes32"
        },
        {
          "indexed": true,
          "internalType": "bytes32",
          "name": "previousAdminRole",
          "type": "bytes32"
        },
        {
          "indexed": true,
          "internalType": "bytes32",
          "name": "newAdminRole",
          "type": "bytes32"
        }
      ],
      "name": "RoleAdminChanged",
      "type": "event"
    },
    {
      "anonymous": false,
      "inputs": [
        {
          "indexed": true,
          "internalType": "bytes32",
          "name": "role",
          "type": "bytes32"
        },
        {
          "indexed": true,
          "internalType": "address",
          "name": "account",
          "type": "address"
        },
        {
          "indexed": true,
          "internalType": "address",
          "name": "sender",
          "type": "address"
        }
      ],
      "name": "RoleGranted",
      "type": "event"
    },
    {
      "anonymous": false,
      "inputs": [
        {
          "indexed": true,
          "internalType": "bytes32",
          "name": "role",
          "type": "bytes32"
        },
        {
          "indexed": true,
          "internalType": "address",
          "name": "account",
          "type": "address"
        },
        {
          "indexed": true,
          "internalType": "address",
          "name": "sender",
          "type": "address"
        }
      ],
      "name": "RoleRevoked",
      "type": "event"
    },
    {
      "inputs": [],
      "name": "DEFAULT_ADMIN_ROLE",
      "outputs": [
        {
          "internalType": "bytes32",
          "name": "",
          "type": "bytes32"
        }
      ],
      "stateMutability": "view",
      "type": "function"
    },
    {
      "inputs": [],
      "name": "configData",
      "outputs": [
        {
          "internalType": "address",
          "name": "developmentWallet",
          "type": "address"
        },
        {
          "internalType": "uint256",
          "name": "minimumTokenNameLength",
          "type": "uint256"
        },
        {
          "internalType": "uint256",
          "name": "maximumTokenNameLength",
          "type": "uint256"
        },
        {
          "internalType": "uint256",
          "name": "minimumStakingApr",
          "type": "uint256"
        },
        {
          "internalType": "uint256",
          "name": "maximumStakingApr",
          "type": "uint256"
        },
        {
          "internalType": "uint256",
          "name": "defaultStakingApr",
          "type": "uint256"
        },
        {
          "internalType": "uint256",
          "name": "minimumStakeUnstakeFee",
          "type": "uint256"
        },
        {
          "internalType": "uint256",
          "name": "maximumStakeUnstakeFee",
          "type": "uint256"
        },
        {
          "internalType": "uint256",
          "name": "defaultStakeUnstakeFee",
          "type": "uint256"
        },
        {
          "internalType": "uint256",
          "name": "minimumDepositWithdrawFee",
          "type": "uint256"
        },
        {
          "internalType": "uint256",
          "name": "maximumDepositWithdrawFee",
          "type": "uint256"
        },
        {
          "internalType": "uint256",
          "name": "defaultDepositWithdrawFee",
          "type": "uint256"
        }
      ],
      "stateMutability": "view",
      "type": "function"
    },
    {
      "inputs": [
        {
          "internalType": "uint256",
          "name": "_minimumDepositWithdrawFee",
          "type": "uint256"
        },
        {
          "internalType": "uint256",
          "name": "_maximumDepositWithdrawFee",
          "type": "uint256"
        },
        {
          "internalType": "uint256",
          "name": "_defaultDepositWithdrawFee",
          "type": "uint256"
        }
      ],
      "name": "configDepositWithdrawFees",
      "outputs": [],
      "stateMutability": "nonpayable",
      "type": "function"
    },
    {
      "inputs": [
        {
          "internalType": "address",
          "name": "_developmentWallet",
          "type": "address"
        }
      ],
      "name": "configDevelopmentWallet",
      "outputs": [],
      "stateMutability": "nonpayable",
      "type": "function"
    },
    {
      "inputs": [
        {
          "internalType": "uint256",
          "name": "_minimumStakeUnstakeFee",
          "type": "uint256"
        },
        {
          "internalType": "uint256",
          "name": "_maximumStakeUnstakeFee",
          "type": "uint256"
        },
        {
          "internalType": "uint256",
          "name": "_defaultStakeUnstakeFee",
          "type": "uint256"
        }
      ],
      "name": "configStakeUnstakeFees",
      "outputs": [],
      "stateMutability": "nonpayable",
      "type": "function"
    },
    {
      "inputs": [
        {
          "internalType": "uint256",
          "name": "_minimumStakingApr",
          "type": "uint256"
        },
        {
          "internalType": "uint256",
          "name": "_maximumStakingApr",
          "type": "uint256"
        },
        {
          "internalType": "uint256",
          "name": "_defaultStakingApr",
          "type": "uint256"
        }
      ],
      "name": "configStakingApr",
      "outputs": [],
      "stateMutability": "nonpayable",
      "type": "function"
    },
    {
      "inputs": [
        {
          "internalType": "uint256",
          "name": "_minimumTokenNameLength",
          "type": "uint256"
        },
        {
          "internalType": "uint256",
          "name": "_maximumTokenNameLength",
          "type": "uint256"
        }
      ],
      "name": "configTokenNameLength",
      "outputs": [],
      "stateMutability": "nonpayable",
      "type": "function"
    },
    {
      "inputs": [
        {
          "internalType": "address",
          "name": "_address",
          "type": "address"
        }
      ],
      "name": "excludeFromFees",
      "outputs": [],
      "stateMutability": "nonpayable",
      "type": "function"
    },
    {
      "inputs": [
        {
          "internalType": "bytes32",
          "name": "role",
          "type": "bytes32"
        }
      ],
      "name": "getRoleAdmin",
      "outputs": [
        {
          "internalType": "bytes32",
          "name": "",
          "type": "bytes32"
        }
      ],
      "stateMutability": "view",
      "type": "function"
    },
    {
      "inputs": [
        {
          "internalType": "bytes32",
          "name": "role",
          "type": "bytes32"
        },
        {
          "internalType": "address",
          "name": "account",
          "type": "address"
        }
      ],
      "name": "grantRole",
      "outputs": [],
      "stateMutability": "nonpayable",
      "type": "function"
    },
    {
      "inputs": [
        {
          "internalType": "bytes32",
          "name": "role",
          "type": "bytes32"
        },
        {
          "internalType": "address",
          "name": "account",
          "type": "address"
        }
      ],
      "name": "hasRole",
      "outputs": [
        {
          "internalType": "bool",
          "name": "",
          "type": "bool"
        }
      ],
      "stateMutability": "view",
      "type": "function"
    },
    {
      "inputs": [
        {
          "internalType": "address",
          "name": "_address",
          "type": "address"
        }
      ],
      "name": "includeInFees",
      "outputs": [],
      "stateMutability": "nonpayable",
      "type": "function"
    },
    {
      "inputs": [],
      "name": "initialize",
      "outputs": [],
      "stateMutability": "nonpayable",
      "type": "function"
    },
    {
      "inputs": [
        {
          "internalType": "address",
          "name": "",
          "type": "address"
        }
      ],
      "name": "isExcludedFromFees",
      "outputs": [
        {
          "internalType": "bool",
          "name": "",
          "type": "bool"
        }
      ],
      "stateMutability": "view",
      "type": "function"
    },
    {
      "inputs": [],
      "name": "owner",
      "outputs": [
        {
          "internalType": "address",
          "name": "",
          "type": "address"
        }
      ],
      "stateMutability": "view",
      "type": "function"
    },
    {
      "inputs": [],
      "name": "renounceOwnership",
      "outputs": [],
      "stateMutability": "nonpayable",
      "type": "function"
    },
    {
      "inputs": [
        {
          "internalType": "bytes32",
          "name": "role",
          "type": "bytes32"
        },
        {
          "internalType": "address",
          "name": "account",
          "type": "address"
        }
      ],
      "name": "renounceRole",
      "outputs": [],
      "stateMutability": "nonpayable",
      "type": "function"
    },
    {
      "inputs": [
        {
          "internalType": "bytes32",
          "name": "role",
          "type": "bytes32"
        },
        {
          "internalType": "address",
          "name": "account",
          "type": "address"
        }
      ],
      "name": "revokeRole",
      "outputs": [],
      "stateMutability": "nonpayable",
      "type": "function"
    },
    {
      "inputs": [
        {
          "internalType": "bytes4",
          "name": "interfaceId",
          "type": "bytes4"
        }
      ],
      "name": "supportsInterface",
      "outputs": [
        {
          "internalType": "bool",
          "name": "",
          "type": "bool"
        }
      ],
      "stateMutability": "view",
      "type": "function"
    },
    {
      "inputs": [
        {
          "internalType": "address",
          "name": "newOwner",
          "type": "address"
        }
      ],
      "name": "transferOwnership",
      "outputs": [],
      "stateMutability": "nonpayable",
      "type": "function"
    },
    {
      "inputs": [
        {
          "internalType": "address",
          "name": "_token",
          "type": "address"
        },
        {
          "internalType": "address",
          "name": "_to",
          "type": "address"
        },
        {
          "internalType": "uint256",
          "name": "_amount",
          "type": "uint256"
        }
      ],
      "name": "transferToken",
      "outputs": [],
      "stateMutability": "nonpayable",
      "type": "function"
    }
  ],
  "bytecode": "608060405234801561001057600080fd5b5061001a3361001f565b61006f565b600080546001600160a01b038381166001600160a01b0319831681178455604051919092169283917f8be0079c531659141344cd1fd0a4f28419497f9722a3daafe3b4186f6b6457e09190a35050565b610efd8061007e6000396000f3fe608060405234801561001057600080fd5b50600436106101365760003560e01c8063715018a6116100b8578063a4fb252b1161007c578063a4fb252b14610314578063d547741f14610327578063e57f14e11461033a578063e97b061a1461034d578063f2fde38b14610360578063f5537ede1461037357600080fd5b8063715018a6146102ce5780638129fc1c146102d65780638da5cb5b146102de57806391d14854146102f9578063a217fddf1461030c57600080fd5b8063248a9ca3116100ff578063248a9ca3146102405780632da999ff146102725780632f2ff15d1461028557806336568abe146102985780634fbee193146102ab57600080fd5b8062285e331461013b57806301ffc9a71461015057806316a2f82a1461017857806320e44e431461018b578063236b43921461022d575b600080fd5b61014e610149366004610bdc565b610386565b005b61016361015e366004610c08565b6103c7565b60405190151581526020015b60405180910390f35b61014e610186366004610c4e565b6103fe565b600254600354600454600554600654600754600854600954600a54600b54600c54600d546101ca9b6001600160a01b03169a999897969594939291908c565b604080516001600160a01b03909d168d5260208d019b909b52998b019890985260608a0196909652608089019490945260a088019290925260c087015260e08601526101008501526101208401526101408301526101608201526101800161016f565b61014e61023b366004610c4e565b610449565b61026461024e366004610c69565b6000908152600160208190526040909120015490565b60405190815260200161016f565b61014e610280366004610c82565b610495565b61014e610293366004610ca4565b6104ca565b61014e6102a6366004610ca4565b6104f5565b6101636102b9366004610c4e565b600e6020526000908152604090205460ff1681565b61014e610573565b61014e6105a9565b6000546040516001600160a01b03909116815260200161016f565b610163610307366004610ca4565b61063e565b610264600081565b61014e610322366004610bdc565b610669565b61014e610335366004610ca4565b6106a1565b61014e610348366004610c4e565b6106c7565b61014e61035b366004610bdc565b610715565b61014e61036e366004610c4e565b61074d565b61014e610381366004610cd0565b6107e8565b6000546001600160a01b031633146103b95760405162461bcd60e51b81526004016103b090610d0c565b60405180910390fd5b600b92909255600c55600d55565b60006001600160e01b03198216637965db0b60e01b14806103f857506301ffc9a760e01b6001600160e01b03198316145b92915050565b6000546001600160a01b031633146104285760405162461bcd60e51b81526004016103b090610d0c565b6001600160a01b03166000908152600e60205260409020805460ff19169055565b6000546001600160a01b031633146104735760405162461bcd60e51b81526004016103b090610d0c565b600280546001600160a01b0319166001600160a01b0392909216919091179055565b6000546001600160a01b031633146104bf5760405162461bcd60e51b81526004016103b090610d0c565b600391909155600455565b600082815260016020819052604090912001546104e68161088b565b6104f08383610895565b505050565b6001600160a01b03811633146105655760405162461bcd60e51b815260206004820152602f60248201527f416363657373436f6e74726f6c3a2063616e206f6e6c792072656e6f756e636560448201526e103937b632b9903337b91039b2b63360891b60648201526084016103b0565b61056f8282610900565b5050565b6000546001600160a01b0316331461059d5760405162461bcd60e51b81526004016103b090610d0c565b6105a76000610967565b565b600280546001600160a01b03191633178155600355600f6004556105cd60326109b7565b6005556105db6103e86109b7565b6006556105e860646109b7565b60075560006008556105fa600a6109b7565b60095561060760016109b7565b600a9081556000600b5561061a906109b7565b600c5561062760016109b7565b600d556106356000336109cb565b6105a733610967565b60009182526001602090815260408084206001600160a01b0393909316845291905290205460ff1690565b6000546001600160a01b031633146106935760405162461bcd60e51b81526004016103b090610d0c565b600592909255600655600755565b600082815260016020819052604090912001546106bd8161088b565b6104f08383610900565b6000546001600160a01b031633146106f15760405162461bcd60e51b81526004016103b090610d0c565b6001600160a01b03166000908152600e60205260409020805460ff19166001179055565b6000546001600160a01b0316331461073f5760405162461bcd60e51b81526004016103b090610d0c565b600892909255600955600a55565b6000546001600160a01b031633146107775760405162461bcd60e51b81526004016103b090610d0c565b6001600160a01b0381166107dc5760405162461bcd60e51b815260206004820152602660248201527f4f776e61626c653a206e6577206f776e657220697320746865207a65726f206160448201526564647265737360d01b60648201526084016103b0565b6107e581610967565b50565b6000546001600160a01b031633146108125760405162461bcd60e51b81526004016103b090610d0c565b60405163a9059cbb60e01b81526001600160a01b0383811660048301526024820183905284169063a9059cbb906044016020604051808303816000875af1158015610861573d6000803e3d6000fd5b505050506040513d601f19601f820116820180604052508101906108859190610d41565b50505050565b6107e581336109d5565b61089f828261063e565b61056f5760008281526001602081815260408084206001600160a01b0386168086529252808420805460ff19169093179092559051339285917f2f8788117e7eff1d82e926ec794901d17c78024a50270940304540a733656f0d9190a45050565b61090a828261063e565b1561056f5760008281526001602090815260408083206001600160a01b0385168085529252808320805460ff1916905551339285917ff6391f5c32d9c69d2a47ea670b442974b53935d1edc7fd64eb21e047a839171b9190a45050565b600080546001600160a01b038381166001600160a01b0319831681178455604051919092169283917f8be0079c531659141344cd1fd0a4f28419497f9722a3daafe3b4186f6b6457e09190a35050565b60006103f882670de0b6b3a7640000610d79565b61056f8282610895565b6109df828261063e565b61056f576109f7816001600160a01b03166014610a39565b610a02836020610a39565b604051602001610a13929190610dc4565b60408051601f198184030181529082905262461bcd60e51b82526103b091600401610e39565b60606000610a48836002610d79565b610a53906002610e6c565b67ffffffffffffffff811115610a6b57610a6b610e84565b6040519080825280601f01601f191660200182016040528015610a95576020820181803683370190505b509050600360fc1b81600081518110610ab057610ab0610e9a565b60200101906001600160f81b031916908160001a905350600f60fb1b81600181518110610adf57610adf610e9a565b60200101906001600160f81b031916908160001a9053506000610b03846002610d79565b610b0e906001610e6c565b90505b6001811115610b86576f181899199a1a9b1b9c1cb0b131b232b360811b85600f1660108110610b4257610b42610e9a565b1a60f81b828281518110610b5857610b58610e9a565b60200101906001600160f81b031916908160001a90535060049490941c93610b7f81610eb0565b9050610b11565b508315610bd55760405162461bcd60e51b815260206004820181905260248201527f537472696e67733a20686578206c656e67746820696e73756666696369656e7460448201526064016103b0565b9392505050565b600080600060608486031215610bf157600080fd5b505081359360208301359350604090920135919050565b600060208284031215610c1a57600080fd5b81356001600160e01b031981168114610bd557600080fd5b80356001600160a01b0381168114610c4957600080fd5b919050565b600060208284031215610c6057600080fd5b610bd582610c32565b600060208284031215610c7b57600080fd5b5035919050565b60008060408385031215610c9557600080fd5b50508035926020909101359150565b60008060408385031215610cb757600080fd5b82359150610cc760208401610c32565b90509250929050565b600080600060608486031215610ce557600080fd5b610cee84610c32565b9250610cfc60208501610c32565b9150604084013590509250925092565b6020808252818101527f4f776e61626c653a2063616c6c6572206973206e6f7420746865206f776e6572604082015260600190565b600060208284031215610d5357600080fd5b81518015158114610bd557600080fd5b634e487b7160e01b600052601160045260246000fd5b6000816000190483118215151615610d9357610d93610d63565b500290565b60005b83811015610db3578181015183820152602001610d9b565b838111156108855750506000910152565b7f416363657373436f6e74726f6c3a206163636f756e7420000000000000000000815260008351610dfc816017850160208801610d98565b7001034b99036b4b9b9b4b733903937b6329607d1b6017918401918201528351610e2d816028840160208801610d98565b01602801949350505050565b6020815260008251806020840152610e58816040850160208701610d98565b601f01601f19169190910160400192915050565b60008219821115610e7f57610e7f610d63565b500190565b634e487b7160e01b600052604160045260246000fd5b634e487b7160e01b600052603260045260246000fd5b600081610ebf57610ebf610d63565b50600019019056fea264697066735822122091643680e80a360ffe998ce1651a5bc9b7599db7758197ba64de3f57e62b76c164736f6c634300080d0033",
  "bytecodeSha1": "8e8b1adcebb80cad8ca792e9758a6b148cb740ed",
  "compiler": {
    "evm_version": "istanbul",
    "optimizer": {
      "enabled": true,
      "runs": 200
    },
    "version": "0.8.13+commit.abaa5c0e"
  },
  "contractName": "SavvyFinanceFarmBase",
  "language": "Solidity",
  "natspec": {
    "kind": "dev",
    "methods": {
      "getRoleAdmin(bytes32)": {
        "details": "Returns the admin role that controls `role`. See {grantRole} and {revokeRole}. To change a role's admin, use {_setRoleAdmin}."
      },
      "grantRole(bytes32,address)": {
        "details": "Grants `role` to `account`. If `account` had not been already granted `role`, emits a {RoleGranted} event. Requirements: - the caller must have ``role``'s admin role."
      },
      "hasRole(bytes32,address)": {
        "details": "Returns `true` if `account` has been granted `role`."
      },
      "owner()": {
        "details": "Returns the address of the current owner."
      },
      "renounceOwnership()": {
        "details": "Leaves the contract without owner. It will not be possible to call `onlyOwner` functions anymore. Can only be called by the current owner. NOTE: Renouncing ownership will leave the contract without an owner, thereby removing any functionality that is only available to the owner."
      },
      "renounceRole(bytes32,address)": {
        "details": "Revokes `role` from the calling account. Roles are often managed via {grantRole} and {revokeRole}: this function's purpose is to provide a mechanism for accounts to lose their privileges if they are compromised (such as when a trusted device is misplaced). If the calling account had been revoked `role`, emits a {RoleRevoked} event. Requirements: - the caller must be `account`."
      },
      "revokeRole(bytes32,address)": {
        "details": "Revokes `role` from `account`. If `account` had been granted `role`, emits a {RoleRevoked} event. Requirements: - the caller must have ``role``'s admin role."
      },
      "supportsInterface(bytes4)": {
        "details": "See {IERC165-supportsInterface}."
      },
      "transferOwnership(address)": {
        "details": "Transfers ownership of the contract to a new account (`newOwner`). Can only be called by the current owner."
      }
    },
    "version": 1
  },
  "opcodes": "PUSH1 0x80 PUSH1 0x40 MSTORE CALLVALUE DUP1 ISZERO PUSH2 0x10 JUMPI PUSH1 0x0 DUP1 REVERT JUMPDEST POP PUSH1 0x4 CALLDATASIZE LT PUSH2 0x136 JUMPI PUSH1 0x0 CALLDATALOAD PUSH1 0xE0 SHR DUP1 PUSH4 0x715018A6 GT PUSH2 0xB8 JUMPI DUP1 PUSH4 0xA4FB252B GT PUSH2 0x7C JUMPI DUP1 PUSH4 0xA4FB252B EQ PUSH2 0x314 JUMPI DUP1 PUSH4 0xD547741F EQ PUSH2 0x327 JUMPI DUP1 PUSH4 0xE57F14E1 EQ PUSH2 0x33A JUMPI DUP1 PUSH4 0xE97B061A EQ PUSH2 0x34D JUMPI DUP1 PUSH4 0xF2FDE38B EQ PUSH2 0x360 JUMPI DUP1 PUSH4 0xF5537EDE EQ PUSH2 0x373 JUMPI PUSH1 0x0 DUP1 REVERT JUMPDEST DUP1 PUSH4 0x715018A6 EQ PUSH2 0x2CE JUMPI DUP1 PUSH4 0x8129FC1C EQ PUSH2 0x2D6 JUMPI DUP1 PUSH4 0x8DA5CB5B EQ PUSH2 0x2DE JUMPI DUP1 PUSH4 0x91D14854 EQ PUSH2 0x2F9 JUMPI DUP1 PUSH4 0xA217FDDF EQ PUSH2 0x30C JUMPI PUSH1 0x0 DUP1 REVERT JUMPDEST DUP1 PUSH4 0x248A9CA3 GT PUSH2 0xFF JUMPI DUP1 PUSH4 0x248A9CA3 EQ PUSH2 0x240 JUMPI DUP1 PUSH4 0x2DA999FF EQ PUSH2 0x272 JUMPI DUP1 PUSH4 0x2F2FF15D EQ PUSH2 0x285 JUMPI DUP1 PUSH4 0x36568ABE EQ PUSH2 0x298 JUMPI DUP1 PUSH4 0x4FBEE193 EQ PUSH2 0x2AB JUMPI PUSH1 0x0 DUP1 REVERT JUMPDEST DUP1 PUSH3 0x285E33 EQ PUSH2 0x13B JUMPI DUP1 PUSH4 0x1FFC9A7 EQ PUSH2 0x150 JUMPI DUP1 PUSH4 0x16A2F82A EQ PUSH2 0x178 JUMPI DUP1 PUSH4 0x20E44E43 EQ PUSH2 0x18B JUMPI DUP1 PUSH4 0x236B4392 EQ PUSH2 0x22D JUMPI JUMPDEST PUSH1 0x0 DUP1 REVERT JUMPDEST PUSH2 0x14E PUSH2 0x149 CALLDATASIZE PUSH1 0x4 PUSH2 0xBDC JUMP JUMPDEST PUSH2 0x386 JUMP JUMPDEST STOP JUMPDEST PUSH2 0x163 PUSH2 0x15E CALLDATASIZE PUSH1 0x4 PUSH2 0xC08 JUMP JUMPDEST PUSH2 0x3C7 JUMP JUMPDEST PUSH1 0x40 MLOAD SWAP1 ISZERO ISZERO DUP2 MSTORE PUSH1 0x20 ADD JUMPDEST PUSH1 0x40 MLOAD DUP1 SWAP2 SUB SWAP1 RETURN JUMPDEST PUSH2 0x14E PUSH2 0x186 CALLDATASIZE PUSH1 0x4 PUSH2 0xC4E JUMP JUMPDEST PUSH2 0x3FE JUMP JUMPDEST PUSH1 0x2 SLOAD PUSH1 0x3 SLOAD PUSH1 0x4 SLOAD PUSH1 0x5 SLOAD PUSH1 0x6 SLOAD PUSH1 0x7 SLOAD PUSH1 0x8 SLOAD PUSH1 0x9 SLOAD PUSH1 0xA SLOAD PUSH1 0xB SLOAD PUSH1 0xC SLOAD PUSH1 0xD SLOAD PUSH2 0x1CA SWAP12 PUSH1 0x1 PUSH1 0x1 PUSH1 0xA0 SHL SUB AND SWAP11 SWAP10 SWAP9 SWAP8 SWAP7 SWAP6 SWAP5 SWAP4 SWAP3 SWAP2 SWAP1 DUP13 JUMP JUMPDEST PUSH1 0x40 DUP1 MLOAD PUSH1 0x1 PUSH1 0x1 PUSH1 0xA0 SHL SUB SWAP1 SWAP14 AND DUP14 MSTORE PUSH1 0x20 DUP14 ADD SWAP12 SWAP1 SWAP12 MSTORE SWAP10 DUP12 ADD SWAP9 SWAP1 SWAP9 MSTORE PUSH1 0x60 DUP11 ADD SWAP7 SWAP1 SWAP7 MSTORE PUSH1 0x80 DUP10 ADD SWAP5 SWAP1 SWAP5 MSTORE PUSH1 0xA0 DUP9 ADD SWAP3 SWAP1 SWAP3 MSTORE PUSH1 0xC0 DUP8 ADD MSTORE PUSH1 0xE0 DUP7 ADD MSTORE PUSH2 0x100 DUP6 ADD MSTORE PUSH2 0x120 DUP5 ADD MSTORE PUSH2 0x140 DUP4 ADD MSTORE PUSH2 0x160 DUP3 ADD MSTORE PUSH2 0x180 ADD PUSH2 0x16F JUMP JUMPDEST PUSH2 0x14E PUSH2 0x23B CALLDATASIZE PUSH1 0x4 PUSH2 0xC4E JUMP JUMPDEST PUSH2 0x449 JUMP JUMPDEST PUSH2 0x264 PUSH2 0x24E CALLDATASIZE PUSH1 0x4 PUSH2 0xC69 JUMP JUMPDEST PUSH1 0x0 SWAP1 DUP2 MSTORE PUSH1 0x1 PUSH1 0x20 DUP2 SWAP1 MSTORE PUSH1 0x40 SWAP1 SWAP2 KECCAK256 ADD SLOAD SWAP1 JUMP JUMPDEST PUSH1 0x40 MLOAD SWAP1 DUP2 MSTORE PUSH1 0x20 ADD PUSH2 0x16F JUMP JUMPDEST PUSH2 0x14E PUSH2 0x280 CALLDATASIZE PUSH1 0x4 PUSH2 0xC82 JUMP JUMPDEST PUSH2 0x495 JUMP JUMPDEST PUSH2 0x14E PUSH2 0x293 CALLDATASIZE PUSH1 0x4 PUSH2 0xCA4 JUMP JUMPDEST PUSH2 0x4CA JUMP JUMPDEST PUSH2 0x14E PUSH2 0x2A6 CALLDATASIZE PUSH1 0x4 PUSH2 0xCA4 JUMP JUMPDEST PUSH2 0x4F5 JUMP JUMPDEST PUSH2 0x163 PUSH2 0x2B9 CALLDATASIZE PUSH1 0x4 PUSH2 0xC4E JUMP JUMPDEST PUSH1 0xE PUSH1 0x20 MSTORE PUSH1 0x0 SWAP1 DUP2 MSTORE PUSH1 0x40 SWAP1 KECCAK256 SLOAD PUSH1 0xFF AND DUP2 JUMP JUMPDEST PUSH2 0x14E PUSH2 0x573 JUMP JUMPDEST PUSH2 0x14E PUSH2 0x5A9 JUMP JUMPDEST PUSH1 0x0 SLOAD PUSH1 0x40 MLOAD PUSH1 0x1 PUSH1 0x1 PUSH1 0xA0 SHL SUB SWAP1 SWAP2 AND DUP2 MSTORE PUSH1 0x20 ADD PUSH2 0x16F JUMP JUMPDEST PUSH2 0x163 PUSH2 0x307 CALLDATASIZE PUSH1 0x4 PUSH2 0xCA4 JUMP JUMPDEST PUSH2 0x63E JUMP JUMPDEST PUSH2 0x264 PUSH1 0x0 DUP2 JUMP JUMPDEST PUSH2 0x14E PUSH2 0x322 CALLDATASIZE PUSH1 0x4 PUSH2 0xBDC JUMP JUMPDEST PUSH2 0x669 JUMP JUMPDEST PUSH2 0x14E PUSH2 0x335 CALLDATASIZE PUSH1 0x4 PUSH2 0xCA4 JUMP JUMPDEST PUSH2 0x6A1 JUMP JUMPDEST PUSH2 0x14E PUSH2 0x348 CALLDATASIZE PUSH1 0x4 PUSH2 0xC4E JUMP JUMPDEST PUSH2 0x6C7 JUMP JUMPDEST PUSH2 0x14E PUSH2 0x35B CALLDATASIZE PUSH1 0x4 PUSH2 0xBDC JUMP JUMPDEST PUSH2 0x715 JUMP JUMPDEST PUSH2 0x14E PUSH2 0x36E CALLDATASIZE PUSH1 0x4 PUSH2 0xC4E JUMP JUMPDEST PUSH2 0x74D JUMP JUMPDEST PUSH2 0x14E PUSH2 0x381 CALLDATASIZE PUSH1 0x4 PUSH2 0xCD0 JUMP JUMPDEST PUSH2 0x7E8 JUMP JUMPDEST PUSH1 0x0 SLOAD PUSH1 0x1 PUSH1 0x1 PUSH1 0xA0 SHL SUB AND CALLER EQ PUSH2 0x3B9 JUMPI PUSH1 0x40 MLOAD PUSH3 0x461BCD PUSH1 0xE5 SHL DUP2 MSTORE PUSH1 0x4 ADD PUSH2 0x3B0 SWAP1 PUSH2 0xD0C JUMP JUMPDEST PUSH1 0x40 MLOAD DUP1 SWAP2 SUB SWAP1 REVERT JUMPDEST PUSH1 0xB SWAP3 SWAP1 SWAP3 SSTORE PUSH1 0xC SSTORE PUSH1 0xD SSTORE JUMP JUMPDEST PUSH1 0x0 PUSH1 0x1 PUSH1 0x1 PUSH1 0xE0 SHL SUB NOT DUP3 AND PUSH4 0x7965DB0B PUSH1 0xE0 SHL EQ DUP1 PUSH2 0x3F8 JUMPI POP PUSH4 0x1FFC9A7 PUSH1 0xE0 SHL PUSH1 0x1 PUSH1 0x1 PUSH1 0xE0 SHL SUB NOT DUP4 AND EQ JUMPDEST SWAP3 SWAP2 POP POP JUMP JUMPDEST PUSH1 0x0 SLOAD PUSH1 0x1 PUSH1 0x1 PUSH1 0xA0 SHL SUB AND CALLER EQ PUSH2 0x428 JUMPI PUSH1 0x40 MLOAD PUSH3 0x461BCD PUSH1 0xE5 SHL DUP2 MSTORE PUSH1 0x4 ADD PUSH2 0x3B0 SWAP1 PUSH2 0xD0C JUMP JUMPDEST PUSH1 0x1 PUSH1 0x1 PUSH1 0xA0 SHL SUB AND PUSH1 0x0 SWAP1 DUP2 MSTORE PUSH1 0xE PUSH1 0x20 MSTORE PUSH1 0x40 SWAP1 KECCAK256 DUP1 SLOAD PUSH1 0xFF NOT AND SWAP1 SSTORE JUMP JUMPDEST PUSH1 0x0 SLOAD PUSH1 0x1 PUSH1 0x1 PUSH1 0xA0 SHL SUB AND CALLER EQ PUSH2 0x473 JUMPI PUSH1 0x40 MLOAD PUSH3 0x461BCD PUSH1 0xE5 SHL DUP2 MSTORE PUSH1 0x4 ADD PUSH2 0x3B0 SWAP1 PUSH2 0xD0C JUMP JUMPDEST PUSH1 0x2 DUP1 SLOAD PUSH1 0x1 PUSH1 0x1 PUSH1 0xA0 SHL SUB NOT AND PUSH1 0x1 PUSH1 0x1 PUSH1 0xA0 SHL SUB SWAP3 SWAP1 SWAP3 AND SWAP2 SWAP1 SWAP2 OR SWAP1 SSTORE JUMP JUMPDEST PUSH1 0x0 SLOAD PUSH1 0x1 PUSH1 0x1 PUSH1 0xA0 SHL SUB AND CALLER EQ PUSH2 0x4BF JUMPI PUSH1 0x40 MLOAD PUSH3 0x461BCD PUSH1 0xE5 SHL DUP2 MSTORE PUSH1 0x4 ADD PUSH2 0x3B0 SWAP1 PUSH2 0xD0C JUMP JUMPDEST PUSH1 0x3 SWAP2 SWAP1 SWAP2 SSTORE PUSH1 0x4 SSTORE JUMP JUMPDEST PUSH1 0x0 DUP3 DUP2 MSTORE PUSH1 0x1 PUSH1 0x20 DUP2 SWAP1 MSTORE PUSH1 0x40 SWAP1 SWAP2 KECCAK256 ADD SLOAD PUSH2 0x4E6 DUP2 PUSH2 0x88B JUMP JUMPDEST PUSH2 0x4F0 DUP4 DUP4 PUSH2 0x895 JUMP JUMPDEST POP POP POP JUMP JUMPDEST PUSH1 0x1 PUSH1 0x1 PUSH1 0xA0 SHL SUB DUP2 AND CALLER EQ PUSH2 0x565 JUMPI PUSH1 0x40 MLOAD PUSH3 0x461BCD PUSH1 0xE5 SHL DUP2 MSTORE PUSH1 0x20 PUSH1 0x4 DUP3 ADD MSTORE PUSH1 0x2F PUSH1 0x24 DUP3 ADD MSTORE PUSH32 0x416363657373436F6E74726F6C3A2063616E206F6E6C792072656E6F756E6365 PUSH1 0x44 DUP3 ADD MSTORE PUSH15 0x103937B632B9903337B91039B2B633 PUSH1 0x89 SHL PUSH1 0x64 DUP3 ADD MSTORE PUSH1 0x84 ADD PUSH2 0x3B0 JUMP JUMPDEST PUSH2 0x56F DUP3 DUP3 PUSH2 0x900 JUMP JUMPDEST POP POP JUMP JUMPDEST PUSH1 0x0 SLOAD PUSH1 0x1 PUSH1 0x1 PUSH1 0xA0 SHL SUB AND CALLER EQ PUSH2 0x59D JUMPI PUSH1 0x40 MLOAD PUSH3 0x461BCD PUSH1 0xE5 SHL DUP2 MSTORE PUSH1 0x4 ADD PUSH2 0x3B0 SWAP1 PUSH2 0xD0C JUMP JUMPDEST PUSH2 0x5A7 PUSH1 0x0 PUSH2 0x967 JUMP JUMPDEST JUMP JUMPDEST PUSH1 0x2 DUP1 SLOAD PUSH1 0x1 PUSH1 0x1 PUSH1 0xA0 SHL SUB NOT AND CALLER OR DUP2 SSTORE PUSH1 0x3 SSTORE PUSH1 0xF PUSH1 0x4 SSTORE PUSH2 0x5CD PUSH1 0x32 PUSH2 0x9B7 JUMP JUMPDEST PUSH1 0x5 SSTORE PUSH2 0x5DB PUSH2 0x3E8 PUSH2 0x9B7 JUMP JUMPDEST PUSH1 0x6 SSTORE PUSH2 0x5E8 PUSH1 0x64 PUSH2 0x9B7 JUMP JUMPDEST PUSH1 0x7 SSTORE PUSH1 0x0 PUSH1 0x8 SSTORE PUSH2 0x5FA PUSH1 0xA PUSH2 0x9B7 JUMP JUMPDEST PUSH1 0x9 SSTORE PUSH2 0x607 PUSH1 0x1 PUSH2 0x9B7 JUMP JUMPDEST PUSH1 0xA SWAP1 DUP2 SSTORE PUSH1 0x0 PUSH1 0xB SSTORE PUSH2 0x61A SWAP1 PUSH2 0x9B7 JUMP JUMPDEST PUSH1 0xC SSTORE PUSH2 0x627 PUSH1 0x1 PUSH2 0x9B7 JUMP JUMPDEST PUSH1 0xD SSTORE PUSH2 0x635 PUSH1 0x0 CALLER PUSH2 0x9CB JUMP JUMPDEST PUSH2 0x5A7 CALLER PUSH2 0x967 JUMP JUMPDEST PUSH1 0x0 SWAP2 DUP3 MSTORE PUSH1 0x1 PUSH1 0x20 SWAP1 DUP2 MSTORE PUSH1 0x40 DUP1 DUP5 KECCAK256 PUSH1 0x1 PUSH1 0x1 PUSH1 0xA0 SHL SUB SWAP4 SWAP1 SWAP4 AND DUP5 MSTORE SWAP2 SWAP1 MSTORE SWAP1 KECCAK256 SLOAD PUSH1 0xFF AND SWAP1 JUMP JUMPDEST PUSH1 0x0 SLOAD PUSH1 0x1 PUSH1 0x1 PUSH1 0xA0 SHL SUB AND CALLER EQ PUSH2 0x693 JUMPI PUSH1 0x40 MLOAD PUSH3 0x461BCD PUSH1 0xE5 SHL DUP2 MSTORE PUSH1 0x4 ADD PUSH2 0x3B0 SWAP1 PUSH2 0xD0C JUMP JUMPDEST PUSH1 0x5 SWAP3 SWAP1 SWAP3 SSTORE PUSH1 0x6 SSTORE PUSH1 0x7 SSTORE JUMP JUMPDEST PUSH1 0x0 DUP3 DUP2 MSTORE PUSH1 0x1 PUSH1 0x20 DUP2 SWAP1 MSTORE PUSH1 0x40 SWAP1 SWAP2 KECCAK256 ADD SLOAD PUSH2 0x6BD DUP2 PUSH2 0x88B JUMP JUMPDEST PUSH2 0x4F0 DUP4 DUP4 PUSH2 0x900 JUMP JUMPDEST PUSH1 0x0 SLOAD PUSH1 0x1 PUSH1 0x1 PUSH1 0xA0 SHL SUB AND CALLER EQ PUSH2 0x6F1 JUMPI PUSH1 0x40 MLOAD PUSH3 0x461BCD PUSH1 0xE5 SHL DUP2 MSTORE PUSH1 0x4 ADD PUSH2 0x3B0 SWAP1 PUSH2 0xD0C JUMP JUMPDEST PUSH1 0x1 PUSH1 0x1 PUSH1 0xA0 SHL SUB AND PUSH1 0x0 SWAP1 DUP2 MSTORE PUSH1 0xE PUSH1 0x20 MSTORE PUSH1 0x40 SWAP1 KECCAK256 DUP1 SLOAD PUSH1 0xFF NOT AND PUSH1 0x1 OR SWAP1 SSTORE JUMP JUMPDEST PUSH1 0x0 SLOAD PUSH1 0x1 PUSH1 0x1 PUSH1 0xA0 SHL SUB AND CALLER EQ PUSH2 0x73F JUMPI PUSH1 0x40 MLOAD PUSH3 0x461BCD PUSH1 0xE5 SHL DUP2 MSTORE PUSH1 0x4 ADD PUSH2 0x3B0 SWAP1 PUSH2 0xD0C JUMP JUMPDEST PUSH1 0x8 SWAP3 SWAP1 SWAP3 SSTORE PUSH1 0x9 SSTORE PUSH1 0xA SSTORE JUMP JUMPDEST PUSH1 0x0 SLOAD PUSH1 0x1 PUSH1 0x1 PUSH1 0xA0 SHL SUB AND CALLER EQ PUSH2 0x777 JUMPI PUSH1 0x40 MLOAD PUSH3 0x461BCD PUSH1 0xE5 SHL DUP2 MSTORE PUSH1 0x4 ADD PUSH2 0x3B0 SWAP1 PUSH2 0xD0C JUMP JUMPDEST PUSH1 0x1 PUSH1 0x1 PUSH1 0xA0 SHL SUB DUP2 AND PUSH2 0x7DC JUMPI PUSH1 0x40 MLOAD PUSH3 0x461BCD PUSH1 0xE5 SHL DUP2 MSTORE PUSH1 0x20 PUSH1 0x4 DUP3 ADD MSTORE PUSH1 0x26 PUSH1 0x24 DUP3 ADD MSTORE PUSH32 0x4F776E61626C653A206E6577206F776E657220697320746865207A65726F2061 PUSH1 0x44 DUP3 ADD MSTORE PUSH6 0x646472657373 PUSH1 0xD0 SHL PUSH1 0x64 DUP3 ADD MSTORE PUSH1 0x84 ADD PUSH2 0x3B0 JUMP JUMPDEST PUSH2 0x7E5 DUP2 PUSH2 0x967 JUMP JUMPDEST POP JUMP JUMPDEST PUSH1 0x0 SLOAD PUSH1 0x1 PUSH1 0x1 PUSH1 0xA0 SHL SUB AND CALLER EQ PUSH2 0x812 JUMPI PUSH1 0x40 MLOAD PUSH3 0x461BCD PUSH1 0xE5 SHL DUP2 MSTORE PUSH1 0x4 ADD PUSH2 0x3B0 SWAP1 PUSH2 0xD0C JUMP JUMPDEST PUSH1 0x40 MLOAD PUSH4 0xA9059CBB PUSH1 0xE0 SHL DUP2 MSTORE PUSH1 0x1 PUSH1 0x1 PUSH1 0xA0 SHL SUB DUP4 DUP2 AND PUSH1 0x4 DUP4 ADD MSTORE PUSH1 0x24 DUP3 ADD DUP4 SWAP1 MSTORE DUP5 AND SWAP1 PUSH4 0xA9059CBB SWAP1 PUSH1 0x44 ADD PUSH1 0x20 PUSH1 0x40 MLOAD DUP1 DUP4 SUB DUP2 PUSH1 0x0 DUP8 GAS CALL ISZERO DUP1 ISZERO PUSH2 0x861 JUMPI RETURNDATASIZE PUSH1 0x0 DUP1 RETURNDATACOPY RETURNDATASIZE PUSH1 0x0 REVERT JUMPDEST POP POP POP POP PUSH1 0x40 MLOAD RETURNDATASIZE PUSH1 0x1F NOT PUSH1 0x1F DUP3 ADD AND DUP3 ADD DUP1 PUSH1 0x40 MSTORE POP DUP2 ADD SWAP1 PUSH2 0x885 SWAP2 SWAP1 PUSH2 0xD41 JUMP JUMPDEST POP POP POP POP JUMP JUMPDEST PUSH2 0x7E5 DUP2 CALLER PUSH2 0x9D5 JUMP JUMPDEST PUSH2 0x89F DUP3 DUP3 PUSH2 0x63E JUMP JUMPDEST PUSH2 0x56F JUMPI PUSH1 0x0 DUP3 DUP2 MSTORE PUSH1 0x1 PUSH1 0x20 DUP2 DUP2 MSTORE PUSH1 0x40 DUP1 DUP5 KECCAK256 PUSH1 0x1 PUSH1 0x1 PUSH1 0xA0 SHL SUB DUP7 AND DUP1 DUP7 MSTORE SWAP3 MSTORE DUP1 DUP5 KECCAK256 DUP1 SLOAD PUSH1 0xFF NOT AND SWAP1 SWAP4 OR SWAP1 SWAP3 SSTORE SWAP1 MLOAD CALLER SWAP3 DUP6 SWAP2 PUSH32 0x2F8788117E7EFF1D82E926EC794901D17C78024A50270940304540A733656F0D SWAP2 SWAP1 LOG4 POP POP JUMP JUMPDEST PUSH2 0x90A DUP3 DUP3 PUSH2 0x63E JUMP JUMPDEST ISZERO PUSH2 0x56F JUMPI PUSH1 0x0 DUP3 DUP2 MSTORE PUSH1 0x1 PUSH1 0x20 SWAP1 DUP2 MSTORE PUSH1 0x40 DUP1 DUP4 KECCAK256 PUSH1 0x1 PUSH1 0x1 PUSH1 0xA0 SHL SUB DUP6 AND DUP1 DUP6 MSTORE SWAP3 MSTORE DUP1 DUP4 KECCAK256 DUP1 SLOAD PUSH1 0xFF NOT AND SWAP1 SSTORE MLOAD CALLER SWAP3 DUP6 SWAP2 PUSH32 0xF6391F5C32D9C69D2A47EA670B442974B53935D1EDC7FD64EB21E047A839171B SWAP2 SWAP1 LOG4 POP POP JUMP JUMPDEST PUSH1 0x0 DUP1 SLOAD PUSH1 0x1 PUSH1 0x1 PUSH1 0xA0 SHL SUB DUP4 DUP2 AND PUSH1 0x1 PUSH1 0x1 PUSH1 0xA0 SHL SUB NOT DUP4 AND DUP2 OR DUP5 SSTORE PUSH1 0x40 MLOAD SWAP2 SWAP1 SWAP3 AND SWAP3 DUP4 SWAP2 PUSH32 0x8BE0079C531659141344CD1FD0A4F28419497F9722A3DAAFE3B4186F6B6457E0 SWAP2 SWAP1 LOG3 POP POP JUMP JUMPDEST PUSH1 0x0 PUSH2 0x3F8 DUP3 PUSH8 0xDE0B6B3A7640000 PUSH2 0xD79 JUMP JUMPDEST PUSH2 0x56F DUP3 DUP3 PUSH2 0x895 JUMP JUMPDEST PUSH2 0x9DF DUP3 DUP3 PUSH2 0x63E JUMP JUMPDEST PUSH2 0x56F JUMPI PUSH2 0x9F7 DUP2 PUSH1 0x1 PUSH1 0x1 PUSH1 0xA0 SHL SUB AND PUSH1 0x14 PUSH2 0xA39 JUMP JUMPDEST PUSH2 0xA02 DUP4 PUSH1 0x20 PUSH2 0xA39 JUMP JUMPDEST PUSH1 0x40 MLOAD PUSH1 0x20 ADD PUSH2 0xA13 SWAP3 SWAP2 SWAP1 PUSH2 0xDC4 JUMP JUMPDEST PUSH1 0x40 DUP1 MLOAD PUSH1 0x1F NOT DUP2 DUP5 SUB ADD DUP2 MSTORE SWAP1 DUP3 SWAP1 MSTORE PUSH3 0x461BCD PUSH1 0xE5 SHL DUP3 MSTORE PUSH2 0x3B0 SWAP2 PUSH1 0x4 ADD PUSH2 0xE39 JUMP JUMPDEST PUSH1 0x60 PUSH1 0x0 PUSH2 0xA48 DUP4 PUSH1 0x2 PUSH2 0xD79 JUMP JUMPDEST PUSH2 0xA53 SWAP1 PUSH1 0x2 PUSH2 0xE6C JUMP JUMPDEST PUSH8 0xFFFFFFFFFFFFFFFF DUP2 GT ISZERO PUSH2 0xA6B JUMPI PUSH2 0xA6B PUSH2 0xE84 JUMP JUMPDEST PUSH1 0x40 MLOAD SWAP1 DUP1 DUP3 MSTORE DUP1 PUSH1 0x1F ADD PUSH1 0x1F NOT AND PUSH1 0x20 ADD DUP3 ADD PUSH1 0x40 MSTORE DUP1 ISZERO PUSH2 0xA95 JUMPI PUSH1 0x20 DUP3 ADD DUP2 DUP1 CALLDATASIZE DUP4 CALLDATACOPY ADD SWAP1 POP JUMPDEST POP SWAP1 POP PUSH1 0x3 PUSH1 0xFC SHL DUP2 PUSH1 0x0 DUP2 MLOAD DUP2 LT PUSH2 0xAB0 JUMPI PUSH2 0xAB0 PUSH2 0xE9A JUMP JUMPDEST PUSH1 0x20 ADD ADD SWAP1 PUSH1 0x1 PUSH1 0x1 PUSH1 0xF8 SHL SUB NOT AND SWAP1 DUP2 PUSH1 0x0 BYTE SWAP1 MSTORE8 POP PUSH1 0xF PUSH1 0xFB SHL DUP2 PUSH1 0x1 DUP2 MLOAD DUP2 LT PUSH2 0xADF JUMPI PUSH2 0xADF PUSH2 0xE9A JUMP JUMPDEST PUSH1 0x20 ADD ADD SWAP1 PUSH1 0x1 PUSH1 0x1 PUSH1 0xF8 SHL SUB NOT AND SWAP1 DUP2 PUSH1 0x0 BYTE SWAP1 MSTORE8 POP PUSH1 0x0 PUSH2 0xB03 DUP5 PUSH1 0x2 PUSH2 0xD79 JUMP JUMPDEST PUSH2 0xB0E SWAP1 PUSH1 0x1 PUSH2 0xE6C JUMP JUMPDEST SWAP1 POP JUMPDEST PUSH1 0x1 DUP2 GT ISZERO PUSH2 0xB86 JUMPI PUSH16 0x181899199A1A9B1B9C1CB0B131B232B3 PUSH1 0x81 SHL DUP6 PUSH1 0xF AND PUSH1 0x10 DUP2 LT PUSH2 0xB42 JUMPI PUSH2 0xB42 PUSH2 0xE9A JUMP JUMPDEST BYTE PUSH1 0xF8 SHL DUP3 DUP3 DUP2 MLOAD DUP2 LT PUSH2 0xB58 JUMPI PUSH2 0xB58 PUSH2 0xE9A JUMP JUMPDEST PUSH1 0x20 ADD ADD SWAP1 PUSH1 0x1 PUSH1 0x1 PUSH1 0xF8 SHL SUB NOT AND SWAP1 DUP2 PUSH1 0x0 BYTE SWAP1 MSTORE8 POP PUSH1 0x4 SWAP5 SWAP1 SWAP5 SHR SWAP4 PUSH2 0xB7F DUP2 PUSH2 0xEB0 JUMP JUMPDEST SWAP1 POP PUSH2 0xB11 JUMP JUMPDEST POP DUP4 ISZERO PUSH2 0xBD5 JUMPI PUSH1 0x40 MLOAD PUSH3 0x461BCD PUSH1 0xE5 SHL DUP2 MSTORE PUSH1 0x20 PUSH1 0x4 DUP3 ADD DUP2 SWAP1 MSTORE PUSH1 0x24 DUP3 ADD MSTORE PUSH32 0x537472696E67733A20686578206C656E67746820696E73756666696369656E74 PUSH1 0x44 DUP3 ADD MSTORE PUSH1 0x64 ADD PUSH2 0x3B0 JUMP JUMPDEST SWAP4 SWAP3 POP POP POP JUMP JUMPDEST PUSH1 0x0 DUP1 PUSH1 0x0 PUSH1 0x60 DUP5 DUP7 SUB SLT ISZERO PUSH2 0xBF1 JUMPI PUSH1 0x0 DUP1 REVERT JUMPDEST POP POP DUP2 CALLDATALOAD SWAP4 PUSH1 0x20 DUP4 ADD CALLDATALOAD SWAP4 POP PUSH1 0x40 SWAP1 SWAP3 ADD CALLDATALOAD SWAP2 SWAP1 POP JUMP JUMPDEST PUSH1 0x0 PUSH1 0x20 DUP3 DUP5 SUB SLT ISZERO PUSH2 0xC1A JUMPI PUSH1 0x0 DUP1 REVERT JUMPDEST DUP2 CALLDATALOAD PUSH1 0x1 PUSH1 0x1 PUSH1 0xE0 SHL SUB NOT DUP2 AND DUP2 EQ PUSH2 0xBD5 JUMPI PUSH1 0x0 DUP1 REVERT JUMPDEST DUP1 CALLDATALOAD PUSH1 0x1 PUSH1 0x1 PUSH1 0xA0 SHL SUB DUP2 AND DUP2 EQ PUSH2 0xC49 JUMPI PUSH1 0x0 DUP1 REVERT JUMPDEST SWAP2 SWAP1 POP JUMP JUMPDEST PUSH1 0x0 PUSH1 0x20 DUP3 DUP5 SUB SLT ISZERO PUSH2 0xC60 JUMPI PUSH1 0x0 DUP1 REVERT JUMPDEST PUSH2 0xBD5 DUP3 PUSH2 0xC32 JUMP JUMPDEST PUSH1 0x0 PUSH1 0x20 DUP3 DUP5 SUB SLT ISZERO PUSH2 0xC7B JUMPI PUSH1 0x0 DUP1 REVERT JUMPDEST POP CALLDATALOAD SWAP2 SWAP1 POP JUMP JUMPDEST PUSH1 0x0 DUP1 PUSH1 0x40 DUP4 DUP6 SUB SLT ISZERO PUSH2 0xC95 JUMPI PUSH1 0x0 DUP1 REVERT JUMPDEST POP POP DUP1 CALLDATALOAD SWAP3 PUSH1 0x20 SWAP1 SWAP2 ADD CALLDATALOAD SWAP2 POP JUMP JUMPDEST PUSH1 0x0 DUP1 PUSH1 0x40 DUP4 DUP6 SUB SLT ISZERO PUSH2 0xCB7 JUMPI PUSH1 0x0 DUP1 REVERT JUMPDEST DUP3 CALLDATALOAD SWAP2 POP PUSH2 0xCC7 PUSH1 0x20 DUP5 ADD PUSH2 0xC32 JUMP JUMPDEST SWAP1 POP SWAP3 POP SWAP3 SWAP1 POP JUMP JUMPDEST PUSH1 0x0 DUP1 PUSH1 0x0 PUSH1 0x60 DUP5 DUP7 SUB SLT ISZERO PUSH2 0xCE5 JUMPI PUSH1 0x0 DUP1 REVERT JUMPDEST PUSH2 0xCEE DUP5 PUSH2 0xC32 JUMP JUMPDEST SWAP3 POP PUSH2 0xCFC PUSH1 0x20 DUP6 ADD PUSH2 0xC32 JUMP JUMPDEST SWAP2 POP PUSH1 0x40 DUP5 ADD CALLDATALOAD SWAP1 POP SWAP3 POP SWAP3 POP SWAP3 JUMP JUMPDEST PUSH1 0x20 DUP1 DUP3 MSTORE DUP2 DUP2 ADD MSTORE PUSH32 0x4F776E61626C653A2063616C6C6572206973206E6F7420746865206F776E6572 PUSH1 0x40 DUP3 ADD MSTORE PUSH1 0x60 ADD SWAP1 JUMP JUMPDEST PUSH1 0x0 PUSH1 0x20 DUP3 DUP5 SUB SLT ISZERO PUSH2 0xD53 JUMPI PUSH1 0x0 DUP1 REVERT JUMPDEST DUP2 MLOAD DUP1 ISZERO ISZERO DUP2 EQ PUSH2 0xBD5 JUMPI PUSH1 0x0 DUP1 REVERT JUMPDEST PUSH4 0x4E487B71 PUSH1 0xE0 SHL PUSH1 0x0 MSTORE PUSH1 0x11 PUSH1 0x4 MSTORE PUSH1 0x24 PUSH1 0x0 REVERT JUMPDEST PUSH1 0x0 DUP2 PUSH1 0x0 NOT DIV DUP4 GT DUP3 ISZERO ISZERO AND ISZERO PUSH2 0xD93 JUMPI PUSH2 0xD93 PUSH2 0xD63 JUMP JUMPDEST POP MUL SWAP1 JUMP JUMPDEST PUSH1 0x0 JUMPDEST DUP4 DUP2 LT ISZERO PUSH2 0xDB3 JUMPI DUP2 DUP2 ADD MLOAD DUP4 DUP3 ADD MSTORE PUSH1 0x20 ADD PUSH2 0xD9B JUMP JUMPDEST DUP4 DUP2 GT ISZERO PUSH2 0x885 JUMPI POP POP PUSH1 0x0 SWAP2 ADD MSTORE JUMP JUMPDEST PUSH32 0x416363657373436F6E74726F6C3A206163636F756E7420000000000000000000 DUP2 MSTORE PUSH1 0x0 DUP4 MLOAD PUSH2 0xDFC DUP2 PUSH1 0x17 DUP6 ADD PUSH1 0x20 DUP9 ADD PUSH2 0xD98 JUMP JUMPDEST PUSH17 0x1034B99036B4B9B9B4B733903937B6329 PUSH1 0x7D SHL PUSH1 0x17 SWAP2 DUP5 ADD SWAP2 DUP3 ADD MSTORE DUP4 MLOAD PUSH2 0xE2D DUP2 PUSH1 0x28 DUP5 ADD PUSH1 0x20 DUP9 ADD PUSH2 0xD98 JUMP JUMPDEST ADD PUSH1 0x28 ADD SWAP5 SWAP4 POP POP POP POP JUMP JUMPDEST PUSH1 0x20 DUP2 MSTORE PUSH1 0x0 DUP3 MLOAD DUP1 PUSH1 0x20 DUP5 ADD MSTORE PUSH2 0xE58 DUP2 PUSH1 0x40 DUP6 ADD PUSH1 0x20 DUP8 ADD PUSH2 0xD98 JUMP JUMPDEST PUSH1 0x1F ADD PUSH1 0x1F NOT AND SWAP2 SWAP1 SWAP2 ADD PUSH1 0x40 ADD SWAP3 SWAP2 POP POP JUMP JUMPDEST PUSH1 0x0 DUP3 NOT DUP3 GT ISZERO PUSH2 0xE7F JUMPI PUSH2 0xE7F PUSH2 0xD63 JUMP JUMPDEST POP ADD SWAP1 JUMP JUMPDEST PUSH4 0x4E487B71 PUSH1 0xE0 SHL PUSH1 0x0 MSTORE PUSH1 0x41 PUSH1 0x4 MSTORE PUSH1 0x24 PUSH1 0x0 REVERT JUMPDEST PUSH4 0x4E487B71 PUSH1 0xE0 SHL PUSH1 0x0 MSTORE PUSH1 0x32 PUSH1 0x4 MSTORE PUSH1 0x24 PUSH1 0x0 REVERT JUMPDEST PUSH1 0x0 DUP2 PUSH2 0xEBF JUMPI PUSH2 0xEBF PUSH2 0xD63 JUMP JUMPDEST POP PUSH1 0x0 NOT ADD SWAP1 JUMP INVALID LOG2 PUSH5 0x6970667358 0x22 SLT KECCAK256 SWAP2 PUSH5 0x3680E80A36 0xF INVALID SWAP10 DUP13 0xE1 PUSH6 0x1A5BC9B7599D 0xB7 PUSH22 0x8197BA64DE3F57E62B76C164736F6C634300080D0033 ",
  "sha1": "9be8d76db06a2693a87e736258096245c7223575",
  "source": "// SPDX-License-Identifier: MIT\npragma solidity ^0.8.0;\n\nimport \"@openzeppelin/contracts/access/Ownable.sol\";\nimport \"@openzeppelin/contracts/access/AccessControl.sol\";\nimport \"@openzeppelin/contracts/token/ERC20/IERC20.sol\";\nimport \"@openzeppelin/contracts/utils/Strings.sol\";\n\ncontract SavvyFinanceFarmBase is Ownable, AccessControl {\n    address constant ZERO_ADDRESS = 0x0000000000000000000000000000000000000000;\n\n    struct ConfigDetails {\n        address developmentWallet;\n        uint256 minimumTokenNameLength;\n        uint256 maximumTokenNameLength;\n        uint256 minimumStakingApr;\n        uint256 maximumStakingApr;\n        uint256 defaultStakingApr;\n        uint256 minimumStakeUnstakeFee;\n        uint256 maximumStakeUnstakeFee;\n        uint256 defaultStakeUnstakeFee;\n        uint256 minimumDepositWithdrawFee;\n        uint256 maximumDepositWithdrawFee;\n        uint256 defaultDepositWithdrawFee;\n    }\n    ConfigDetails public configData;\n\n    // token => bool\n    mapping(address => bool) public isExcludedFromFees;\n\n    // constructor() {\n    //     configData.developmentWallet = _msgSender();\n    //     configData.minimumTokenNameLength = 2;\n    //     configData.maximumTokenNameLength = 15;\n    //     configData.minimumStakingApr = _toWei(50);\n    //     configData.maximumStakingApr = _toWei(1000);\n    //     configData.defaultStakingApr = _toWei(100);\n    //     configData.minimumStakeUnstakeFee = 0;\n    //     configData.maximumStakeUnstakeFee = _toWei(10);\n    //     configData.defaultStakeUnstakeFee = _toWei(1);\n    //     configData.minimumDepositWithdrawFee = 0;\n    //     configData.maximumDepositWithdrawFee = _toWei(10);\n    //     configData.defaultDepositWithdrawFee = _toWei(1);\n    //     _setupRole(DEFAULT_ADMIN_ROLE, _msgSender());\n    // }\n\n    function initialize() external {\n        configData.developmentWallet = _msgSender();\n        configData.minimumTokenNameLength = 2;\n        configData.maximumTokenNameLength = 15;\n        configData.minimumStakingApr = _toWei(50);\n        configData.maximumStakingApr = _toWei(1000);\n        configData.defaultStakingApr = _toWei(100);\n        configData.minimumStakeUnstakeFee = 0;\n        configData.maximumStakeUnstakeFee = _toWei(10);\n        configData.defaultStakeUnstakeFee = _toWei(1);\n        configData.minimumDepositWithdrawFee = 0;\n        configData.maximumDepositWithdrawFee = _toWei(10);\n        configData.defaultDepositWithdrawFee = _toWei(1);\n        _setupRole(DEFAULT_ADMIN_ROLE, _msgSender());\n        _transferOwnership(_msgSender());\n    }\n\n    function configDevelopmentWallet(address _developmentWallet)\n        public\n        onlyOwner\n    {\n        configData.developmentWallet = _developmentWallet;\n    }\n\n    function configTokenNameLength(\n        uint256 _minimumTokenNameLength,\n        uint256 _maximumTokenNameLength\n    ) public onlyOwner {\n        configData.minimumTokenNameLength = _minimumTokenNameLength;\n        configData.maximumTokenNameLength = _maximumTokenNameLength;\n    }\n\n    function configStakingApr(\n        uint256 _minimumStakingApr,\n        uint256 _maximumStakingApr,\n        uint256 _defaultStakingApr\n    ) public onlyOwner {\n        configData.minimumStakingApr = _minimumStakingApr;\n        configData.maximumStakingApr = _maximumStakingApr;\n        configData.defaultStakingApr = _defaultStakingApr;\n    }\n\n    function configStakeUnstakeFees(\n        uint256 _minimumStakeUnstakeFee,\n        uint256 _maximumStakeUnstakeFee,\n        uint256 _defaultStakeUnstakeFee\n    ) public onlyOwner {\n        configData.minimumStakeUnstakeFee = _minimumStakeUnstakeFee;\n        configData.maximumStakeUnstakeFee = _maximumStakeUnstakeFee;\n        configData.defaultStakeUnstakeFee = _defaultStakeUnstakeFee;\n    }\n\n    function configDepositWithdrawFees(\n        uint256 _minimumDepositWithdrawFee,\n        uint256 _maximumDepositWithdrawFee,\n        uint256 _defaultDepositWithdrawFee\n    ) public onlyOwner {\n        configData.minimumDepositWithdrawFee = _minimumDepositWithdrawFee;\n        configData.maximumDepositWithdrawFee = _maximumDepositWithdrawFee;\n        configData.defaultDepositWithdrawFee = _defaultDepositWithdrawFee;\n    }\n\n    function excludeFromFees(address _address) public onlyOwner {\n        isExcludedFromFees[_address] = true;\n    }\n\n    function includeInFees(address _address) public onlyOwner {\n        isExcludedFromFees[_address] = false;\n    }\n\n    function transferToken(\n        address _token,\n        address _to,\n        uint256 _amount\n    ) public onlyOwner {\n        IERC20(_token).transfer(_to, _amount);\n    }\n\n    function _toWei(uint256 _number) internal pure returns (uint256) {\n        return _number * (10**18);\n    }\n\n    function _fromWei(uint256 _number) internal pure returns (uint256) {\n        return _number / (10**18);\n    }\n\n    function _secondsToYears(uint256 _seconds) internal pure returns (uint256) {\n        return _fromWei(_seconds * (0.0000000317098 * (10**18)));\n    }\n\n    function _calculatePercentage(\n        uint256 _percentageValue,\n        uint256 _totalAmount\n    ) internal pure returns (uint256) {\n        return (_totalAmount / _toWei(100)) * _percentageValue;\n    }\n}\n",
  "sourcePath": "contracts/SavvyFinanceFarmBase.sol",
  "type": "contract"
}