{
  "abi": [
    {
      "inputs": [
        {
          "internalType": "uint256",
          "name": "_percentageValue",
          "type": "uint256"
        },
        {
          "internalType": "uint256",
          "name": "_totalAmount",
          "type": "uint256"
        }
      ],
      "name": "calculatePercentage",
      "outputs": [
        {
          "internalType": "uint256",
          "name": "",
          "type": "uint256"
        }
      ],
      "stateMutability": "pure",
      "type": "function"
    },
    {
      "inputs": [
        {
          "internalType": "contract SavvyFinanceFarm",
          "name": "farm",
          "type": "SavvyFinanceFarm"
        },
        {
          "internalType": "address",
          "name": "_token",
          "type": "address"
        },
        {
          "internalType": "address",
          "name": "_staker",
          "type": "address"
        }
      ],
      "name": "calculateStakingReward",
      "outputs": [
        {
          "internalType": "uint256",
          "name": "",
          "type": "uint256"
        },
        {
          "internalType": "uint256",
          "name": "",
          "type": "uint256"
        },
        {
          "internalType": "uint256",
          "name": "",
          "type": "uint256"
        },
        {
          "internalType": "uint256",
          "name": "",
          "type": "uint256"
        },
        {
          "internalType": "uint256",
          "name": "",
          "type": "uint256"
        }
      ],
      "stateMutability": "view",
      "type": "function"
    },
    {
      "inputs": [
        {
          "internalType": "uint256",
          "name": "_number",
          "type": "uint256"
        }
      ],
      "name": "fromWei",
      "outputs": [
        {
          "internalType": "uint256",
          "name": "",
          "type": "uint256"
        }
      ],
      "stateMutability": "pure",
      "type": "function"
    },
    {
      "inputs": [
        {
          "internalType": "uint256",
          "name": "_seconds",
          "type": "uint256"
        }
      ],
      "name": "secondsToYears",
      "outputs": [
        {
          "internalType": "uint256",
          "name": "",
          "type": "uint256"
        }
      ],
      "stateMutability": "pure",
      "type": "function"
    },
    {
      "inputs": [
        {
          "internalType": "uint256",
          "name": "_number",
          "type": "uint256"
        }
      ],
      "name": "toWei",
      "outputs": [
        {
          "internalType": "uint256",
          "name": "",
          "type": "uint256"
        }
      ],
      "stateMutability": "pure",
      "type": "function"
    }
  ],
  "bytecode": "610cde61003a600b82828239805160001a60731461002d57634e487b7160e01b600052600060045260246000fd5b30600052607381538281f3fe73000000000000000000000000000000000000000030146080604052600436106100615760003560e01c80632133e3b914610066578063669dafe81461008c5780638d62be021461009f578063d6c20747146100b2578063e65d1522146100ed575b600080fd5b6100796100743660046105bd565b610100565b6040519081526020015b60405180910390f35b61007961009a3660046105df565b610128565b6100796100ad3660046105df565b610142565b6100c56100c0366004610610565b610156565b604080519586526020860194909452928401919091526060830152608082015260a001610083565b6100796100fb3660046105df565b6105a9565b60008261010d6064610128565b6101179084610671565b6101219190610693565b9392505050565b600061013c82670de0b6b3a7640000610693565b92915050565b600061013c6100fb836407620d2640610693565b60405163599fbc6560e11b81526001600160a01b03838116600483015260009182918291829182919089169063b33f78ca90602401602060405180830381865afa1580156101a8573d6000803e3d6000fd5b505050506040513d601f19601f820116820180604052508101906101cc91906106c7565b6101e45750600093508392508291508190508061059e565b60405163067d086560e51b81526001600160a01b03878116600483015289169063cfa10ca090602401602060405180830381865afa15801561022a573d6000803e3d6000fd5b505050506040513d601f19601f8201168201806040525081019061024e91906106c7565b6102665750600093508392508291508190508061059e565b6040516313ff7e9f60e01b81526001600160a01b038881166004830152600091908a16906313ff7e9f90602401600060405180830381865afa1580156102b0573d6000803e3d6000fd5b505050506040513d6000823e601f3d908101601f191682016040526102d891908101906108ab565b60a001516040516304f7806360e01b81526001600160a01b038a8116600483015289811660248301529192506000918b16906304f7806390604401600060405180830381865afa158015610330573d6000803e3d6000fd5b505050506040513d6000823e601f3d908101601f191682016040526103589190810190610bde565b602001519050600061036d6100fb8484610693565b9050600081116103915760008060008060009750975097509750975050505061059e565b6040516313ff7e9f60e01b81526001600160a01b038b81166004830152600091908d16906313ff7e9f90602401600060405180830381865afa1580156103db573d6000803e3d6000fd5b505050506040513d6000823e601f3d908101601f1916820160405261040391908101906108ab565b610100015190506000610417606483610671565b6040516304f7806360e01b81526001600160a01b038e811660048301528d811660248301529192506000918f16906304f7806390604401600060405180830381865afa15801561046b573d6000803e3d6000fd5b505050506040513d6000823e601f3d908101601f191682016040526104939190810190610bde565b608001519050600081600003610534578e6001600160a01b03166304f780638f8f6040518363ffffffff1660e01b81526004016104e69291906001600160a01b0392831681529116602082015260400190565b600060405180830381865afa158015610503573d6000803e3d6000fd5b505050506040513d6000823e601f3d908101601f1916820160405261052b9190810190610bde565b60a00151610536565b815b905042600061054861009a8484610c91565b9050600061055582610142565b905060006ec097ce7bc90715b34b9f100000000082610574898c610693565b61057e9190610693565b6105889190610671565b9f50919d50959b50969950969750505050505050505b939792965093509350565b600061013c670de0b6b3a764000083610671565b600080604083850312156105d057600080fd5b50508035926020909101359150565b6000602082840312156105f157600080fd5b5035919050565b6001600160a01b038116811461060d57600080fd5b50565b60008060006060848603121561062557600080fd5b8335610630816105f8565b92506020840135610640816105f8565b91506040840135610650816105f8565b809150509250925092565b634e487b7160e01b600052601160045260246000fd5b60008261068e57634e487b7160e01b600052601260045260246000fd5b500490565b60008160001904831182151516156106ad576106ad61065b565b500290565b805180151581146106c257600080fd5b919050565b6000602082840312156106d957600080fd5b610121826106b2565b634e487b7160e01b600052604160045260246000fd5b6040516101c0810167ffffffffffffffff8111828210171561071c5761071c6106e2565b60405290565b6040516101a0810167ffffffffffffffff8111828210171561071c5761071c6106e2565b60405160e0810167ffffffffffffffff8111828210171561071c5761071c6106e2565b604051601f8201601f1916810167ffffffffffffffff81118282101715610792576107926106e2565b604052919050565b600082601f8301126107ab57600080fd5b815167ffffffffffffffff8111156107c5576107c56106e2565b60206107d9601f8301601f19168201610769565b82815285828487010111156107ed57600080fd5b60005b8381101561080b5785810183015182820184015282016107f0565b8381111561081c5760008385840101525b5095945050505050565b80516106c2816105f8565b600060c0828403121561084357600080fd5b60405160c0810181811067ffffffffffffffff82111715610866576108666106e2565b8060405250809150825181526020830151602082015260408301516040820152606083015160608201526080830151608082015260a083015160a08201525092915050565b6000602082840312156108bd57600080fd5b815167ffffffffffffffff808211156108d557600080fd5b9083019061026082860312156108ea57600080fd5b6108f26106f8565b6108fb836106b2565b8152610909602084016106b2565b602082015261091a604084016106b2565b604082015260608301518281111561093157600080fd5b61093d8782860161079a565b6060830152506080830151608082015260a083015160a082015260c083015160c082015260e083015160e0820152610100915081830151828201526101209150610988828401610826565b82820152610140915061099c828401610826565b8282015261016091506109b186838501610831565b91810191909152610220820151610180820152610240909101516101a08201529392505050565b600082601f8301126109e957600080fd5b6040516040810167ffffffffffffffff8282108183111715610a0d57610a0d6106e2565b60409182528291850186811115610a2357600080fd5b855b81811015610a5857805183811115610a3d5760008081fd5b610a4989828a0161079a565b85525060209384019301610a25565b50929695505050505050565b600082601f830112610a7557600080fd5b8151602067ffffffffffffffff80831115610a9257610a926106e2565b8260051b610aa1838201610769565b9384528581018301938381019088861115610abb57600080fd5b84880192505b85831015610bd257825184811115610ad95760008081fd5b88016101a0818b03601f1901811315610af25760008081fd5b610afa610722565b8783015181526040610b0d818501610826565b898301526060610b1e818601610826565b828401526080915081850151818401525060a0808501518284015260c09150610b48828601610826565b818401525060e080850151828401526101009150818501518184015250610120808501518284015261014091508185015181840152506101608085015189811115610b935760008081fd5b610ba18f8c838901016109d8565b8385015250610180915081850151818401525082840151818301525080855250505084820191508483019250610ac1565b98975050505050505050565b600060208284031215610bf057600080fd5b815167ffffffffffffffff80821115610c0857600080fd5b9083019060e08286031215610c1c57600080fd5b610c24610746565b8251815260208301516020820152610c3e60408401610826565b6040820152606083015182811115610c5557600080fd5b610c6187828601610a64565b6060830152506080830151608082015260a083015160a082015260c083015160c082015280935050505092915050565b600082821015610ca357610ca361065b565b50039056fea2646970667358221220f5165ffdd8c118121bc763b65cfe17a52fb3138d04ae7094ebd31c7438b7462864736f6c634300080d0033",
  "bytecodeSha1": "fed71cb4b5772c80672036c6638d28b70cd452fe",
  "compiler": {
    "evm_version": "istanbul",
    "optimizer": {
      "enabled": true,
      "runs": 200
    },
    "version": "0.8.13+commit.abaa5c0e"
  },
  "contractName": "SavvyFinanceFarmLibrary",
  "language": "Solidity",
  "natspec": {
    "kind": "dev",
    "methods": {},
    "version": 1
  },
  "opcodes": "PUSH20 0x0 ADDRESS EQ PUSH1 0x80 PUSH1 0x40 MSTORE PUSH1 0x4 CALLDATASIZE LT PUSH2 0x61 JUMPI PUSH1 0x0 CALLDATALOAD PUSH1 0xE0 SHR DUP1 PUSH4 0x2133E3B9 EQ PUSH2 0x66 JUMPI DUP1 PUSH4 0x669DAFE8 EQ PUSH2 0x8C JUMPI DUP1 PUSH4 0x8D62BE02 EQ PUSH2 0x9F JUMPI DUP1 PUSH4 0xD6C20747 EQ PUSH2 0xB2 JUMPI DUP1 PUSH4 0xE65D1522 EQ PUSH2 0xED JUMPI JUMPDEST PUSH1 0x0 DUP1 REVERT JUMPDEST PUSH2 0x79 PUSH2 0x74 CALLDATASIZE PUSH1 0x4 PUSH2 0x5BD JUMP JUMPDEST PUSH2 0x100 JUMP JUMPDEST PUSH1 0x40 MLOAD SWAP1 DUP2 MSTORE PUSH1 0x20 ADD JUMPDEST PUSH1 0x40 MLOAD DUP1 SWAP2 SUB SWAP1 RETURN JUMPDEST PUSH2 0x79 PUSH2 0x9A CALLDATASIZE PUSH1 0x4 PUSH2 0x5DF JUMP JUMPDEST PUSH2 0x128 JUMP JUMPDEST PUSH2 0x79 PUSH2 0xAD CALLDATASIZE PUSH1 0x4 PUSH2 0x5DF JUMP JUMPDEST PUSH2 0x142 JUMP JUMPDEST PUSH2 0xC5 PUSH2 0xC0 CALLDATASIZE PUSH1 0x4 PUSH2 0x610 JUMP JUMPDEST PUSH2 0x156 JUMP JUMPDEST PUSH1 0x40 DUP1 MLOAD SWAP6 DUP7 MSTORE PUSH1 0x20 DUP7 ADD SWAP5 SWAP1 SWAP5 MSTORE SWAP3 DUP5 ADD SWAP2 SWAP1 SWAP2 MSTORE PUSH1 0x60 DUP4 ADD MSTORE PUSH1 0x80 DUP3 ADD MSTORE PUSH1 0xA0 ADD PUSH2 0x83 JUMP JUMPDEST PUSH2 0x79 PUSH2 0xFB CALLDATASIZE PUSH1 0x4 PUSH2 0x5DF JUMP JUMPDEST PUSH2 0x5A9 JUMP JUMPDEST PUSH1 0x0 DUP3 PUSH2 0x10D PUSH1 0x64 PUSH2 0x128 JUMP JUMPDEST PUSH2 0x117 SWAP1 DUP5 PUSH2 0x671 JUMP JUMPDEST PUSH2 0x121 SWAP2 SWAP1 PUSH2 0x693 JUMP JUMPDEST SWAP4 SWAP3 POP POP POP JUMP JUMPDEST PUSH1 0x0 PUSH2 0x13C DUP3 PUSH8 0xDE0B6B3A7640000 PUSH2 0x693 JUMP JUMPDEST SWAP3 SWAP2 POP POP JUMP JUMPDEST PUSH1 0x0 PUSH2 0x13C PUSH2 0xFB DUP4 PUSH5 0x7620D2640 PUSH2 0x693 JUMP JUMPDEST PUSH1 0x40 MLOAD PUSH4 0x599FBC65 PUSH1 0xE1 SHL DUP2 MSTORE PUSH1 0x1 PUSH1 0x1 PUSH1 0xA0 SHL SUB DUP4 DUP2 AND PUSH1 0x4 DUP4 ADD MSTORE PUSH1 0x0 SWAP2 DUP3 SWAP2 DUP3 SWAP2 DUP3 SWAP2 DUP3 SWAP2 SWAP1 DUP10 AND SWAP1 PUSH4 0xB33F78CA SWAP1 PUSH1 0x24 ADD PUSH1 0x20 PUSH1 0x40 MLOAD DUP1 DUP4 SUB DUP2 DUP7 GAS STATICCALL ISZERO DUP1 ISZERO PUSH2 0x1A8 JUMPI RETURNDATASIZE PUSH1 0x0 DUP1 RETURNDATACOPY RETURNDATASIZE PUSH1 0x0 REVERT JUMPDEST POP POP POP POP PUSH1 0x40 MLOAD RETURNDATASIZE PUSH1 0x1F NOT PUSH1 0x1F DUP3 ADD AND DUP3 ADD DUP1 PUSH1 0x40 MSTORE POP DUP2 ADD SWAP1 PUSH2 0x1CC SWAP2 SWAP1 PUSH2 0x6C7 JUMP JUMPDEST PUSH2 0x1E4 JUMPI POP PUSH1 0x0 SWAP4 POP DUP4 SWAP3 POP DUP3 SWAP2 POP DUP2 SWAP1 POP DUP1 PUSH2 0x59E JUMP JUMPDEST PUSH1 0x40 MLOAD PUSH4 0x67D0865 PUSH1 0xE5 SHL DUP2 MSTORE PUSH1 0x1 PUSH1 0x1 PUSH1 0xA0 SHL SUB DUP8 DUP2 AND PUSH1 0x4 DUP4 ADD MSTORE DUP10 AND SWAP1 PUSH4 0xCFA10CA0 SWAP1 PUSH1 0x24 ADD PUSH1 0x20 PUSH1 0x40 MLOAD DUP1 DUP4 SUB DUP2 DUP7 GAS STATICCALL ISZERO DUP1 ISZERO PUSH2 0x22A JUMPI RETURNDATASIZE PUSH1 0x0 DUP1 RETURNDATACOPY RETURNDATASIZE PUSH1 0x0 REVERT JUMPDEST POP POP POP POP PUSH1 0x40 MLOAD RETURNDATASIZE PUSH1 0x1F NOT PUSH1 0x1F DUP3 ADD AND DUP3 ADD DUP1 PUSH1 0x40 MSTORE POP DUP2 ADD SWAP1 PUSH2 0x24E SWAP2 SWAP1 PUSH2 0x6C7 JUMP JUMPDEST PUSH2 0x266 JUMPI POP PUSH1 0x0 SWAP4 POP DUP4 SWAP3 POP DUP3 SWAP2 POP DUP2 SWAP1 POP DUP1 PUSH2 0x59E JUMP JUMPDEST PUSH1 0x40 MLOAD PUSH4 0x13FF7E9F PUSH1 0xE0 SHL DUP2 MSTORE PUSH1 0x1 PUSH1 0x1 PUSH1 0xA0 SHL SUB DUP9 DUP2 AND PUSH1 0x4 DUP4 ADD MSTORE PUSH1 0x0 SWAP2 SWAP1 DUP11 AND SWAP1 PUSH4 0x13FF7E9F SWAP1 PUSH1 0x24 ADD PUSH1 0x0 PUSH1 0x40 MLOAD DUP1 DUP4 SUB DUP2 DUP7 GAS STATICCALL ISZERO DUP1 ISZERO PUSH2 0x2B0 JUMPI RETURNDATASIZE PUSH1 0x0 DUP1 RETURNDATACOPY RETURNDATASIZE PUSH1 0x0 REVERT JUMPDEST POP POP POP POP PUSH1 0x40 MLOAD RETURNDATASIZE PUSH1 0x0 DUP3 RETURNDATACOPY PUSH1 0x1F RETURNDATASIZE SWAP1 DUP2 ADD PUSH1 0x1F NOT AND DUP3 ADD PUSH1 0x40 MSTORE PUSH2 0x2D8 SWAP2 SWAP1 DUP2 ADD SWAP1 PUSH2 0x8AB JUMP JUMPDEST PUSH1 0xA0 ADD MLOAD PUSH1 0x40 MLOAD PUSH4 0x4F78063 PUSH1 0xE0 SHL DUP2 MSTORE PUSH1 0x1 PUSH1 0x1 PUSH1 0xA0 SHL SUB DUP11 DUP2 AND PUSH1 0x4 DUP4 ADD MSTORE DUP10 DUP2 AND PUSH1 0x24 DUP4 ADD MSTORE SWAP2 SWAP3 POP PUSH1 0x0 SWAP2 DUP12 AND SWAP1 PUSH4 0x4F78063 SWAP1 PUSH1 0x44 ADD PUSH1 0x0 PUSH1 0x40 MLOAD DUP1 DUP4 SUB DUP2 DUP7 GAS STATICCALL ISZERO DUP1 ISZERO PUSH2 0x330 JUMPI RETURNDATASIZE PUSH1 0x0 DUP1 RETURNDATACOPY RETURNDATASIZE PUSH1 0x0 REVERT JUMPDEST POP POP POP POP PUSH1 0x40 MLOAD RETURNDATASIZE PUSH1 0x0 DUP3 RETURNDATACOPY PUSH1 0x1F RETURNDATASIZE SWAP1 DUP2 ADD PUSH1 0x1F NOT AND DUP3 ADD PUSH1 0x40 MSTORE PUSH2 0x358 SWAP2 SWAP1 DUP2 ADD SWAP1 PUSH2 0xBDE JUMP JUMPDEST PUSH1 0x20 ADD MLOAD SWAP1 POP PUSH1 0x0 PUSH2 0x36D PUSH2 0xFB DUP5 DUP5 PUSH2 0x693 JUMP JUMPDEST SWAP1 POP PUSH1 0x0 DUP2 GT PUSH2 0x391 JUMPI PUSH1 0x0 DUP1 PUSH1 0x0 DUP1 PUSH1 0x0 SWAP8 POP SWAP8 POP SWAP8 POP SWAP8 POP SWAP8 POP POP POP POP PUSH2 0x59E JUMP JUMPDEST PUSH1 0x40 MLOAD PUSH4 0x13FF7E9F PUSH1 0xE0 SHL DUP2 MSTORE PUSH1 0x1 PUSH1 0x1 PUSH1 0xA0 SHL SUB DUP12 DUP2 AND PUSH1 0x4 DUP4 ADD MSTORE PUSH1 0x0 SWAP2 SWAP1 DUP14 AND SWAP1 PUSH4 0x13FF7E9F SWAP1 PUSH1 0x24 ADD PUSH1 0x0 PUSH1 0x40 MLOAD DUP1 DUP4 SUB DUP2 DUP7 GAS STATICCALL ISZERO DUP1 ISZERO PUSH2 0x3DB JUMPI RETURNDATASIZE PUSH1 0x0 DUP1 RETURNDATACOPY RETURNDATASIZE PUSH1 0x0 REVERT JUMPDEST POP POP POP POP PUSH1 0x40 MLOAD RETURNDATASIZE PUSH1 0x0 DUP3 RETURNDATACOPY PUSH1 0x1F RETURNDATASIZE SWAP1 DUP2 ADD PUSH1 0x1F NOT AND DUP3 ADD PUSH1 0x40 MSTORE PUSH2 0x403 SWAP2 SWAP1 DUP2 ADD SWAP1 PUSH2 0x8AB JUMP JUMPDEST PUSH2 0x100 ADD MLOAD SWAP1 POP PUSH1 0x0 PUSH2 0x417 PUSH1 0x64 DUP4 PUSH2 0x671 JUMP JUMPDEST PUSH1 0x40 MLOAD PUSH4 0x4F78063 PUSH1 0xE0 SHL DUP2 MSTORE PUSH1 0x1 PUSH1 0x1 PUSH1 0xA0 SHL SUB DUP15 DUP2 AND PUSH1 0x4 DUP4 ADD MSTORE DUP14 DUP2 AND PUSH1 0x24 DUP4 ADD MSTORE SWAP2 SWAP3 POP PUSH1 0x0 SWAP2 DUP16 AND SWAP1 PUSH4 0x4F78063 SWAP1 PUSH1 0x44 ADD PUSH1 0x0 PUSH1 0x40 MLOAD DUP1 DUP4 SUB DUP2 DUP7 GAS STATICCALL ISZERO DUP1 ISZERO PUSH2 0x46B JUMPI RETURNDATASIZE PUSH1 0x0 DUP1 RETURNDATACOPY RETURNDATASIZE PUSH1 0x0 REVERT JUMPDEST POP POP POP POP PUSH1 0x40 MLOAD RETURNDATASIZE PUSH1 0x0 DUP3 RETURNDATACOPY PUSH1 0x1F RETURNDATASIZE SWAP1 DUP2 ADD PUSH1 0x1F NOT AND DUP3 ADD PUSH1 0x40 MSTORE PUSH2 0x493 SWAP2 SWAP1 DUP2 ADD SWAP1 PUSH2 0xBDE JUMP JUMPDEST PUSH1 0x80 ADD MLOAD SWAP1 POP PUSH1 0x0 DUP2 PUSH1 0x0 SUB PUSH2 0x534 JUMPI DUP15 PUSH1 0x1 PUSH1 0x1 PUSH1 0xA0 SHL SUB AND PUSH4 0x4F78063 DUP16 DUP16 PUSH1 0x40 MLOAD DUP4 PUSH4 0xFFFFFFFF AND PUSH1 0xE0 SHL DUP2 MSTORE PUSH1 0x4 ADD PUSH2 0x4E6 SWAP3 SWAP2 SWAP1 PUSH1 0x1 PUSH1 0x1 PUSH1 0xA0 SHL SUB SWAP3 DUP4 AND DUP2 MSTORE SWAP2 AND PUSH1 0x20 DUP3 ADD MSTORE PUSH1 0x40 ADD SWAP1 JUMP JUMPDEST PUSH1 0x0 PUSH1 0x40 MLOAD DUP1 DUP4 SUB DUP2 DUP7 GAS STATICCALL ISZERO DUP1 ISZERO PUSH2 0x503 JUMPI RETURNDATASIZE PUSH1 0x0 DUP1 RETURNDATACOPY RETURNDATASIZE PUSH1 0x0 REVERT JUMPDEST POP POP POP POP PUSH1 0x40 MLOAD RETURNDATASIZE PUSH1 0x0 DUP3 RETURNDATACOPY PUSH1 0x1F RETURNDATASIZE SWAP1 DUP2 ADD PUSH1 0x1F NOT AND DUP3 ADD PUSH1 0x40 MSTORE PUSH2 0x52B SWAP2 SWAP1 DUP2 ADD SWAP1 PUSH2 0xBDE JUMP JUMPDEST PUSH1 0xA0 ADD MLOAD PUSH2 0x536 JUMP JUMPDEST DUP2 JUMPDEST SWAP1 POP TIMESTAMP PUSH1 0x0 PUSH2 0x548 PUSH2 0x9A DUP5 DUP5 PUSH2 0xC91 JUMP JUMPDEST SWAP1 POP PUSH1 0x0 PUSH2 0x555 DUP3 PUSH2 0x142 JUMP JUMPDEST SWAP1 POP PUSH1 0x0 PUSH15 0xC097CE7BC90715B34B9F1000000000 DUP3 PUSH2 0x574 DUP10 DUP13 PUSH2 0x693 JUMP JUMPDEST PUSH2 0x57E SWAP2 SWAP1 PUSH2 0x693 JUMP JUMPDEST PUSH2 0x588 SWAP2 SWAP1 PUSH2 0x671 JUMP JUMPDEST SWAP16 POP SWAP2 SWAP14 POP SWAP6 SWAP12 POP SWAP7 SWAP10 POP SWAP7 SWAP8 POP POP POP POP POP POP POP POP JUMPDEST SWAP4 SWAP8 SWAP3 SWAP7 POP SWAP4 POP SWAP4 POP JUMP JUMPDEST PUSH1 0x0 PUSH2 0x13C PUSH8 0xDE0B6B3A7640000 DUP4 PUSH2 0x671 JUMP JUMPDEST PUSH1 0x0 DUP1 PUSH1 0x40 DUP4 DUP6 SUB SLT ISZERO PUSH2 0x5D0 JUMPI PUSH1 0x0 DUP1 REVERT JUMPDEST POP POP DUP1 CALLDATALOAD SWAP3 PUSH1 0x20 SWAP1 SWAP2 ADD CALLDATALOAD SWAP2 POP JUMP JUMPDEST PUSH1 0x0 PUSH1 0x20 DUP3 DUP5 SUB SLT ISZERO PUSH2 0x5F1 JUMPI PUSH1 0x0 DUP1 REVERT JUMPDEST POP CALLDATALOAD SWAP2 SWAP1 POP JUMP JUMPDEST PUSH1 0x1 PUSH1 0x1 PUSH1 0xA0 SHL SUB DUP2 AND DUP2 EQ PUSH2 0x60D JUMPI PUSH1 0x0 DUP1 REVERT JUMPDEST POP JUMP JUMPDEST PUSH1 0x0 DUP1 PUSH1 0x0 PUSH1 0x60 DUP5 DUP7 SUB SLT ISZERO PUSH2 0x625 JUMPI PUSH1 0x0 DUP1 REVERT JUMPDEST DUP4 CALLDATALOAD PUSH2 0x630 DUP2 PUSH2 0x5F8 JUMP JUMPDEST SWAP3 POP PUSH1 0x20 DUP5 ADD CALLDATALOAD PUSH2 0x640 DUP2 PUSH2 0x5F8 JUMP JUMPDEST SWAP2 POP PUSH1 0x40 DUP5 ADD CALLDATALOAD PUSH2 0x650 DUP2 PUSH2 0x5F8 JUMP JUMPDEST DUP1 SWAP2 POP POP SWAP3 POP SWAP3 POP SWAP3 JUMP JUMPDEST PUSH4 0x4E487B71 PUSH1 0xE0 SHL PUSH1 0x0 MSTORE PUSH1 0x11 PUSH1 0x4 MSTORE PUSH1 0x24 PUSH1 0x0 REVERT JUMPDEST PUSH1 0x0 DUP3 PUSH2 0x68E JUMPI PUSH4 0x4E487B71 PUSH1 0xE0 SHL PUSH1 0x0 MSTORE PUSH1 0x12 PUSH1 0x4 MSTORE PUSH1 0x24 PUSH1 0x0 REVERT JUMPDEST POP DIV SWAP1 JUMP JUMPDEST PUSH1 0x0 DUP2 PUSH1 0x0 NOT DIV DUP4 GT DUP3 ISZERO ISZERO AND ISZERO PUSH2 0x6AD JUMPI PUSH2 0x6AD PUSH2 0x65B JUMP JUMPDEST POP MUL SWAP1 JUMP JUMPDEST DUP1 MLOAD DUP1 ISZERO ISZERO DUP2 EQ PUSH2 0x6C2 JUMPI PUSH1 0x0 DUP1 REVERT JUMPDEST SWAP2 SWAP1 POP JUMP JUMPDEST PUSH1 0x0 PUSH1 0x20 DUP3 DUP5 SUB SLT ISZERO PUSH2 0x6D9 JUMPI PUSH1 0x0 DUP1 REVERT JUMPDEST PUSH2 0x121 DUP3 PUSH2 0x6B2 JUMP JUMPDEST PUSH4 0x4E487B71 PUSH1 0xE0 SHL PUSH1 0x0 MSTORE PUSH1 0x41 PUSH1 0x4 MSTORE PUSH1 0x24 PUSH1 0x0 REVERT JUMPDEST PUSH1 0x40 MLOAD PUSH2 0x1C0 DUP2 ADD PUSH8 0xFFFFFFFFFFFFFFFF DUP2 GT DUP3 DUP3 LT OR ISZERO PUSH2 0x71C JUMPI PUSH2 0x71C PUSH2 0x6E2 JUMP JUMPDEST PUSH1 0x40 MSTORE SWAP1 JUMP JUMPDEST PUSH1 0x40 MLOAD PUSH2 0x1A0 DUP2 ADD PUSH8 0xFFFFFFFFFFFFFFFF DUP2 GT DUP3 DUP3 LT OR ISZERO PUSH2 0x71C JUMPI PUSH2 0x71C PUSH2 0x6E2 JUMP JUMPDEST PUSH1 0x40 MLOAD PUSH1 0xE0 DUP2 ADD PUSH8 0xFFFFFFFFFFFFFFFF DUP2 GT DUP3 DUP3 LT OR ISZERO PUSH2 0x71C JUMPI PUSH2 0x71C PUSH2 0x6E2 JUMP JUMPDEST PUSH1 0x40 MLOAD PUSH1 0x1F DUP3 ADD PUSH1 0x1F NOT AND DUP2 ADD PUSH8 0xFFFFFFFFFFFFFFFF DUP2 GT DUP3 DUP3 LT OR ISZERO PUSH2 0x792 JUMPI PUSH2 0x792 PUSH2 0x6E2 JUMP JUMPDEST PUSH1 0x40 MSTORE SWAP2 SWAP1 POP JUMP JUMPDEST PUSH1 0x0 DUP3 PUSH1 0x1F DUP4 ADD SLT PUSH2 0x7AB JUMPI PUSH1 0x0 DUP1 REVERT JUMPDEST DUP2 MLOAD PUSH8 0xFFFFFFFFFFFFFFFF DUP2 GT ISZERO PUSH2 0x7C5 JUMPI PUSH2 0x7C5 PUSH2 0x6E2 JUMP JUMPDEST PUSH1 0x20 PUSH2 0x7D9 PUSH1 0x1F DUP4 ADD PUSH1 0x1F NOT AND DUP3 ADD PUSH2 0x769 JUMP JUMPDEST DUP3 DUP2 MSTORE DUP6 DUP3 DUP5 DUP8 ADD ADD GT ISZERO PUSH2 0x7ED JUMPI PUSH1 0x0 DUP1 REVERT JUMPDEST PUSH1 0x0 JUMPDEST DUP4 DUP2 LT ISZERO PUSH2 0x80B JUMPI DUP6 DUP2 ADD DUP4 ADD MLOAD DUP3 DUP3 ADD DUP5 ADD MSTORE DUP3 ADD PUSH2 0x7F0 JUMP JUMPDEST DUP4 DUP2 GT ISZERO PUSH2 0x81C JUMPI PUSH1 0x0 DUP4 DUP6 DUP5 ADD ADD MSTORE JUMPDEST POP SWAP6 SWAP5 POP POP POP POP POP JUMP JUMPDEST DUP1 MLOAD PUSH2 0x6C2 DUP2 PUSH2 0x5F8 JUMP JUMPDEST PUSH1 0x0 PUSH1 0xC0 DUP3 DUP5 SUB SLT ISZERO PUSH2 0x843 JUMPI PUSH1 0x0 DUP1 REVERT JUMPDEST PUSH1 0x40 MLOAD PUSH1 0xC0 DUP2 ADD DUP2 DUP2 LT PUSH8 0xFFFFFFFFFFFFFFFF DUP3 GT OR ISZERO PUSH2 0x866 JUMPI PUSH2 0x866 PUSH2 0x6E2 JUMP JUMPDEST DUP1 PUSH1 0x40 MSTORE POP DUP1 SWAP2 POP DUP3 MLOAD DUP2 MSTORE PUSH1 0x20 DUP4 ADD MLOAD PUSH1 0x20 DUP3 ADD MSTORE PUSH1 0x40 DUP4 ADD MLOAD PUSH1 0x40 DUP3 ADD MSTORE PUSH1 0x60 DUP4 ADD MLOAD PUSH1 0x60 DUP3 ADD MSTORE PUSH1 0x80 DUP4 ADD MLOAD PUSH1 0x80 DUP3 ADD MSTORE PUSH1 0xA0 DUP4 ADD MLOAD PUSH1 0xA0 DUP3 ADD MSTORE POP SWAP3 SWAP2 POP POP JUMP JUMPDEST PUSH1 0x0 PUSH1 0x20 DUP3 DUP5 SUB SLT ISZERO PUSH2 0x8BD JUMPI PUSH1 0x0 DUP1 REVERT JUMPDEST DUP2 MLOAD PUSH8 0xFFFFFFFFFFFFFFFF DUP1 DUP3 GT ISZERO PUSH2 0x8D5 JUMPI PUSH1 0x0 DUP1 REVERT JUMPDEST SWAP1 DUP4 ADD SWAP1 PUSH2 0x260 DUP3 DUP7 SUB SLT ISZERO PUSH2 0x8EA JUMPI PUSH1 0x0 DUP1 REVERT JUMPDEST PUSH2 0x8F2 PUSH2 0x6F8 JUMP JUMPDEST PUSH2 0x8FB DUP4 PUSH2 0x6B2 JUMP JUMPDEST DUP2 MSTORE PUSH2 0x909 PUSH1 0x20 DUP5 ADD PUSH2 0x6B2 JUMP JUMPDEST PUSH1 0x20 DUP3 ADD MSTORE PUSH2 0x91A PUSH1 0x40 DUP5 ADD PUSH2 0x6B2 JUMP JUMPDEST PUSH1 0x40 DUP3 ADD MSTORE PUSH1 0x60 DUP4 ADD MLOAD DUP3 DUP2 GT ISZERO PUSH2 0x931 JUMPI PUSH1 0x0 DUP1 REVERT JUMPDEST PUSH2 0x93D DUP8 DUP3 DUP7 ADD PUSH2 0x79A JUMP JUMPDEST PUSH1 0x60 DUP4 ADD MSTORE POP PUSH1 0x80 DUP4 ADD MLOAD PUSH1 0x80 DUP3 ADD MSTORE PUSH1 0xA0 DUP4 ADD MLOAD PUSH1 0xA0 DUP3 ADD MSTORE PUSH1 0xC0 DUP4 ADD MLOAD PUSH1 0xC0 DUP3 ADD MSTORE PUSH1 0xE0 DUP4 ADD MLOAD PUSH1 0xE0 DUP3 ADD MSTORE PUSH2 0x100 SWAP2 POP DUP2 DUP4 ADD MLOAD DUP3 DUP3 ADD MSTORE PUSH2 0x120 SWAP2 POP PUSH2 0x988 DUP3 DUP5 ADD PUSH2 0x826 JUMP JUMPDEST DUP3 DUP3 ADD MSTORE PUSH2 0x140 SWAP2 POP PUSH2 0x99C DUP3 DUP5 ADD PUSH2 0x826 JUMP JUMPDEST DUP3 DUP3 ADD MSTORE PUSH2 0x160 SWAP2 POP PUSH2 0x9B1 DUP7 DUP4 DUP6 ADD PUSH2 0x831 JUMP JUMPDEST SWAP2 DUP2 ADD SWAP2 SWAP1 SWAP2 MSTORE PUSH2 0x220 DUP3 ADD MLOAD PUSH2 0x180 DUP3 ADD MSTORE PUSH2 0x240 SWAP1 SWAP2 ADD MLOAD PUSH2 0x1A0 DUP3 ADD MSTORE SWAP4 SWAP3 POP POP POP JUMP JUMPDEST PUSH1 0x0 DUP3 PUSH1 0x1F DUP4 ADD SLT PUSH2 0x9E9 JUMPI PUSH1 0x0 DUP1 REVERT JUMPDEST PUSH1 0x40 MLOAD PUSH1 0x40 DUP2 ADD PUSH8 0xFFFFFFFFFFFFFFFF DUP3 DUP3 LT DUP2 DUP4 GT OR ISZERO PUSH2 0xA0D JUMPI PUSH2 0xA0D PUSH2 0x6E2 JUMP JUMPDEST PUSH1 0x40 SWAP2 DUP3 MSTORE DUP3 SWAP2 DUP6 ADD DUP7 DUP2 GT ISZERO PUSH2 0xA23 JUMPI PUSH1 0x0 DUP1 REVERT JUMPDEST DUP6 JUMPDEST DUP2 DUP2 LT ISZERO PUSH2 0xA58 JUMPI DUP1 MLOAD DUP4 DUP2 GT ISZERO PUSH2 0xA3D JUMPI PUSH1 0x0 DUP1 DUP2 REVERT JUMPDEST PUSH2 0xA49 DUP10 DUP3 DUP11 ADD PUSH2 0x79A JUMP JUMPDEST DUP6 MSTORE POP PUSH1 0x20 SWAP4 DUP5 ADD SWAP4 ADD PUSH2 0xA25 JUMP JUMPDEST POP SWAP3 SWAP7 SWAP6 POP POP POP POP POP POP JUMP JUMPDEST PUSH1 0x0 DUP3 PUSH1 0x1F DUP4 ADD SLT PUSH2 0xA75 JUMPI PUSH1 0x0 DUP1 REVERT JUMPDEST DUP2 MLOAD PUSH1 0x20 PUSH8 0xFFFFFFFFFFFFFFFF DUP1 DUP4 GT ISZERO PUSH2 0xA92 JUMPI PUSH2 0xA92 PUSH2 0x6E2 JUMP JUMPDEST DUP3 PUSH1 0x5 SHL PUSH2 0xAA1 DUP4 DUP3 ADD PUSH2 0x769 JUMP JUMPDEST SWAP4 DUP5 MSTORE DUP6 DUP2 ADD DUP4 ADD SWAP4 DUP4 DUP2 ADD SWAP1 DUP9 DUP7 GT ISZERO PUSH2 0xABB JUMPI PUSH1 0x0 DUP1 REVERT JUMPDEST DUP5 DUP9 ADD SWAP3 POP JUMPDEST DUP6 DUP4 LT ISZERO PUSH2 0xBD2 JUMPI DUP3 MLOAD DUP5 DUP2 GT ISZERO PUSH2 0xAD9 JUMPI PUSH1 0x0 DUP1 DUP2 REVERT JUMPDEST DUP9 ADD PUSH2 0x1A0 DUP2 DUP12 SUB PUSH1 0x1F NOT ADD DUP2 SGT ISZERO PUSH2 0xAF2 JUMPI PUSH1 0x0 DUP1 DUP2 REVERT JUMPDEST PUSH2 0xAFA PUSH2 0x722 JUMP JUMPDEST DUP8 DUP4 ADD MLOAD DUP2 MSTORE PUSH1 0x40 PUSH2 0xB0D DUP2 DUP6 ADD PUSH2 0x826 JUMP JUMPDEST DUP10 DUP4 ADD MSTORE PUSH1 0x60 PUSH2 0xB1E DUP2 DUP7 ADD PUSH2 0x826 JUMP JUMPDEST DUP3 DUP5 ADD MSTORE PUSH1 0x80 SWAP2 POP DUP2 DUP6 ADD MLOAD DUP2 DUP5 ADD MSTORE POP PUSH1 0xA0 DUP1 DUP6 ADD MLOAD DUP3 DUP5 ADD MSTORE PUSH1 0xC0 SWAP2 POP PUSH2 0xB48 DUP3 DUP7 ADD PUSH2 0x826 JUMP JUMPDEST DUP2 DUP5 ADD MSTORE POP PUSH1 0xE0 DUP1 DUP6 ADD MLOAD DUP3 DUP5 ADD MSTORE PUSH2 0x100 SWAP2 POP DUP2 DUP6 ADD MLOAD DUP2 DUP5 ADD MSTORE POP PUSH2 0x120 DUP1 DUP6 ADD MLOAD DUP3 DUP5 ADD MSTORE PUSH2 0x140 SWAP2 POP DUP2 DUP6 ADD MLOAD DUP2 DUP5 ADD MSTORE POP PUSH2 0x160 DUP1 DUP6 ADD MLOAD DUP10 DUP2 GT ISZERO PUSH2 0xB93 JUMPI PUSH1 0x0 DUP1 DUP2 REVERT JUMPDEST PUSH2 0xBA1 DUP16 DUP13 DUP4 DUP10 ADD ADD PUSH2 0x9D8 JUMP JUMPDEST DUP4 DUP6 ADD MSTORE POP PUSH2 0x180 SWAP2 POP DUP2 DUP6 ADD MLOAD DUP2 DUP5 ADD MSTORE POP DUP3 DUP5 ADD MLOAD DUP2 DUP4 ADD MSTORE POP DUP1 DUP6 MSTORE POP POP POP DUP5 DUP3 ADD SWAP2 POP DUP5 DUP4 ADD SWAP3 POP PUSH2 0xAC1 JUMP JUMPDEST SWAP9 SWAP8 POP POP POP POP POP POP POP POP JUMP JUMPDEST PUSH1 0x0 PUSH1 0x20 DUP3 DUP5 SUB SLT ISZERO PUSH2 0xBF0 JUMPI PUSH1 0x0 DUP1 REVERT JUMPDEST DUP2 MLOAD PUSH8 0xFFFFFFFFFFFFFFFF DUP1 DUP3 GT ISZERO PUSH2 0xC08 JUMPI PUSH1 0x0 DUP1 REVERT JUMPDEST SWAP1 DUP4 ADD SWAP1 PUSH1 0xE0 DUP3 DUP7 SUB SLT ISZERO PUSH2 0xC1C JUMPI PUSH1 0x0 DUP1 REVERT JUMPDEST PUSH2 0xC24 PUSH2 0x746 JUMP JUMPDEST DUP3 MLOAD DUP2 MSTORE PUSH1 0x20 DUP4 ADD MLOAD PUSH1 0x20 DUP3 ADD MSTORE PUSH2 0xC3E PUSH1 0x40 DUP5 ADD PUSH2 0x826 JUMP JUMPDEST PUSH1 0x40 DUP3 ADD MSTORE PUSH1 0x60 DUP4 ADD MLOAD DUP3 DUP2 GT ISZERO PUSH2 0xC55 JUMPI PUSH1 0x0 DUP1 REVERT JUMPDEST PUSH2 0xC61 DUP8 DUP3 DUP7 ADD PUSH2 0xA64 JUMP JUMPDEST PUSH1 0x60 DUP4 ADD MSTORE POP PUSH1 0x80 DUP4 ADD MLOAD PUSH1 0x80 DUP3 ADD MSTORE PUSH1 0xA0 DUP4 ADD MLOAD PUSH1 0xA0 DUP3 ADD MSTORE PUSH1 0xC0 DUP4 ADD MLOAD PUSH1 0xC0 DUP3 ADD MSTORE DUP1 SWAP4 POP POP POP POP SWAP3 SWAP2 POP POP JUMP JUMPDEST PUSH1 0x0 DUP3 DUP3 LT ISZERO PUSH2 0xCA3 JUMPI PUSH2 0xCA3 PUSH2 0x65B JUMP JUMPDEST POP SUB SWAP1 JUMP INVALID LOG2 PUSH5 0x6970667358 0x22 SLT KECCAK256 CREATE2 AND 0x5F REVERT 0xD8 0xC1 XOR SLT SHL 0xC7 PUSH4 0xB65CFE17 0xA5 0x2F 0xB3 SGT DUP14 DIV 0xAE PUSH17 0x94EBD31C7438B7462864736F6C63430008 0xD STOP CALLER ",
  "sha1": "0fdb5aa82b87db5b0991caf30b4ac8b695e36569",
  "source": "// SPDX-License-Identifier: MIT\npragma solidity ^0.8.0;\n\nimport \"./SavvyFinanceFarm.sol\";\n\nlibrary SavvyFinanceFarmLibrary {\n    function toWei(uint256 _number) public pure returns (uint256) {\n        return _number * (10**18);\n    }\n\n    function fromWei(uint256 _number) public pure returns (uint256) {\n        return _number / (10**18);\n    }\n\n    function secondsToYears(uint256 _seconds) public pure returns (uint256) {\n        return fromWei(_seconds * (0.0000000317098 * (10**18)));\n    }\n\n    function calculatePercentage(uint256 _percentageValue, uint256 _totalAmount)\n        public\n        pure\n        returns (uint256)\n    {\n        return (_totalAmount / toWei(100)) * _percentageValue;\n    }\n\n    function calculateStakingReward(\n        SavvyFinanceFarm farm,\n        address _token,\n        address _staker\n    )\n        public\n        view\n        returns (\n            uint256,\n            uint256,\n            uint256,\n            uint256,\n            uint256\n        )\n    {\n        if (!farm.tokenExists(_token)) return (0, 0, 0, 0, 0);\n        if (!farm.stakerExists(_staker)) return (0, 0, 0, 0, 0);\n\n        uint256 tokenPrice = farm.getTokenData(_token).price;\n        uint256 stakingBalance = farm\n            .getTokenStakerData(_token, _staker)\n            .stakingBalance;\n        uint256 stakingValue = fromWei(stakingBalance * tokenPrice);\n        if (stakingValue <= 0) return (0, 0, 0, 0, 0);\n\n        uint256 stakingApr = farm.getTokenData(_token).stakingApr;\n        uint256 stakingRewardRate = stakingApr / 100;\n        uint256 stakingTimestampLastRewarded = farm\n            .getTokenStakerData(_token, _staker)\n            .timestampLastRewarded;\n        uint256 stakingTimestampStarted = stakingTimestampLastRewarded != 0\n            ? stakingTimestampLastRewarded\n            : farm.getTokenStakerData(_token, _staker).timestampAdded;\n        uint256 stakingTimestampEnded = block.timestamp;\n        uint256 stakingDurationInSeconds = toWei(\n            stakingTimestampEnded - stakingTimestampStarted\n        );\n        uint256 stakingDurationInYears = secondsToYears(\n            stakingDurationInSeconds\n        );\n        uint256 stakingRewardValue = (stakingValue *\n            stakingRewardRate *\n            stakingDurationInYears) / (10**36);\n\n        return (\n            stakingRewardValue,\n            stakingDurationInSeconds,\n            stakingApr,\n            stakingBalance,\n            tokenPrice\n        );\n    }\n}\n",
  "sourcePath": "contracts/SavvyFinanceFarmLibrary.sol",
  "type": "library"
}